:020000040002F8
:1060000010D20020C1630200C9630200CB6302000A
:10601000CD630200CF630200D163020000000000E4
:10602000000000000000000000000000D363020038
:10603000D563020000000000D7630200D9630200AC
:10604000916E0200DB630200FD790200B17502006F
:10605000DB630200DB630200F96C0200D97202000C
:10606000DB630200DB630200DB630200DB63020030
:10607000DB630200DB630200DB630200DB63020020
:10608000DB630200C9720200DB630200DB63020013
:10609000DB630200DB630200DD760200DB630200EB
:1060A000DB630200DB630200DB630200DB630200F0
:1060B000DB630200DB630200000000000000000060
:1060C000DB630200DB630200DB630200C1750200D8
:1060D000DB630200DB630200DB6302000000000000
:1060E00000000000000000000000000000000000B0
:1060F00000000000000000000000000000000000A0
:10610000000000000000000000000000000000008F
:10611000000000000000000000000000000000007F
:10612000000000000000000000000000000000006F
:10613000000000000000000000000000000000005F
:10614000000000000000000000000000000000004F
:10615000000000000000000000000000000000003F
:10616000000000000000000000000000000000002F
:10617000000000000000000000000000000000001F
:10618000000000000000000000000000000000000F
:1061900000000000000000000000000000000000FF
:1061A00000000000000000000000000000000000EF
:1061B00000000000000000000000000000000000DF
:1061C00000000000000000000000000000000000CF
:1061D00000000000000000000000000000000000BF
:1061E00000000000000000000000000000000000AF
:1061F000000000000000000000000000000000009F
:10620000DFF80CD000F03CF900480047E99F02009D
:1062100010D2002030B450E8012F93B2C489234437
:106220008489A34228BF1B1B0489A34202BFBFF37A
:106230002F8F002007E0C3EA020340E80134002C5E
:10624000E9D14FF001000A6030BC704750E8012FDF
:10625000C2EA024240E801210029F7D1704730B478
:1062600050E8022F1FFAA2F3C488A34202BFBFF373
:106270002F8F00200DE0C48923448489A34228BFC6
:106280001B1BC2EA034340E80234002CE8D14FF064
:1062900001000A6030BC704750E8022FC2EA224277
:1062A00040E802210029F7D17047034653E8022F46
:1062B000D988B2EB324F4FF0000017BF92B241EADB
:1062C000014142EA014104E05A68B2EB324F08BF93
:1062D000012043E80212002AE8D1704730B4044696
:1062E00054E8000F0D4644E80053002BF8D1156028
:1062F00030BC704730B4044654E8000F40EA010552
:1063000044E80053002BF7D1156030BC704730B41F
:10631000044654E8000F00EA010544E80053002B4E
:10632000F7D1156030BC704730B4044654E8000F14
:1063300080EA010544E80053002BF7D1156030BC1A
:10634000704730B4044654E8000F00EB010544E800
:106350000053002BF7D1156030BC704730B40446B1
:1063600054E8000FA0EB010544E80053002BF7D1DF
:10637000156030BC704770B404464FF0000054E81C
:10638000006F0D68AE4207BF44E80023012044E8D7
:1063900000630E60002B1CBF0020F0E770BC70474C
:1063A00030B4044654E8000F88422CBF451A054615
:1063B00044E80053002BF5D1156030BC7047000055
:1063C0000648804706480047FEE7FEE7FEE7FEE78F
:1063D000FEE7FEE7FEE7FEE7FEE7FEE7E176020006
:1063E00001620200202A04DB203A00FA02F10020B8
:1063F00070479140C2F1200320FA03F31943904003
:1064000070470000004870475007030010B5431A5A
:10641000934209D28318881803E010F8011D03F88D
:10642000011D521EF9D210BD40EA01039B0703D0A3
:1064300009E008C9121F08C0042AFAD203E011F8C3
:10644000013B00F8013B521EF9D210BDD2B201E06F
:1064500000F8012B491EFBD270470022F6E710B569
:1064600013460A4604461946FFF7F0FF204610BDC2
:10647000421C10F8011B0029FBD1801A7047000054
:10648000064C074D06E0E06840F0010394E8070081
:1064900098471034AC42F6D3FFF7B6FE340F030032
:1064A000540F030070B58C1810F8015B15F007034A
:1064B00001D110F8013B2A1106D110F8012B03E09D
:1064C00010F8016B01F8016B5B1EF9D12B0705D4A5
:1064D0000023521E0DD401F8013BFAE710F8013BEE
:1064E000CB1A921C03E013F8015B01F8015B521E0A
:1064F000F9D5A142D8D3002070BD00000EB50D49DA
:106500000D4806F025FA08B101F0BEFD0B4A07CA96
:106510008DE807006946002006F0A2F908B101F0F5
:10652000B3FD0121064806F049F9002801D001F029
:10653000ABFD0EBD297E0200A0E102002CF5020099
:10654000F62A002010B506F08DFA002803D0BDE829
:10655000104001F099BD10BD034800224FF40051D6
:10656000006801F0DDBD00008CE102002DE9F0477C
:1065700017464FEAD00808EBD3000026089AA0F18E
:10658000010A0C46FF2901D9260ACCB28D186D1ECE
:106590004FF00009FF2D02D94FEA1529EDB2442032
:1065A00000F039F908F0FF0000F045F90AF0FF00AB
:1065B00000F041F9452000F02EF9E0B200F03BF97F
:1065C000F0B200F038F9E8B200F035F909F0FF0058
:1065D00000F031F94E2000F01EF908F0FF0000F045
:1065E0002AF94F2000F017F9E0B200F024F9F0B2D8
:1065F00000F021F9242000F00EF90024FA21384699
:1066000000F02CF9641CFA37142CF7D3BDE8F047DE
:1066100000F096B810B5162005F0EBF80A2004F04B
:1066200043FDBDE81040162005F0F1B8122000F03F
:10663000F2B810B5012000F0EEF8C72000F0FBF82A
:10664000002000F0F8F8002000F0F5F8112000F02C
:10665000E2F8012000F0EFF8442000F0DCF8002020
:1066600000F0E9F8182000F0E6F8452000F0D3F833
:10667000C72000F0E0F8002000F0DDF8002000F076
:10668000DAF8002000F0D7F83C2000F0C4F805202C
:1066900000F0D1F8182000F0BEF8802000F0CBF810
:1066A0004E2000F0B8F8002000F0C5F84F2000F0B0
:1066B000B2F8C72000F0BFF8BDE81040002000F09D
:1066C000BAB800002DE9F0411B4C6078002831D1A8
:1066D000A178E069194E08434FF4A4774FF0010503
:1066E0000ED100F075FF4FF0A0411020C1F8080551
:1066F000A570FFF78FFF00223946B06801F010FD4A
:10670000E06901280AD1A078002813D1FFF78EFF95
:10671000A57000223946B06801F002FDE069022848
:1067200008D1A078002805D1A570FFF782FF657019
:106730000020A070BDE8F081E02A00208CE102007A
:1067400010B5222000F067F8FF2000F074F8BDE8D3
:106750001040202000F05FB870B500F11904254604
:10676000242000F058F80026FA21204600F076F8A0
:10677000FA34761C132EF7D3E121204600F06EF890
:106780000024FF2000F057F8641C192CF9D32620B0
:1067900000F041F80024FA21284600F05FF8641C5C
:1067A000FA35132CF7D3E121284600F057F80024DE
:1067B000FF2000F040F8641C192CF9D370BD2DE9BE
:1067C000F04104460546242000F025F8002741F258
:1067D0008836207800F02FF8641C7F1CB742F8D36D
:1067E000262000F018F80024287800F024F8641C13
:1067F0006D1CB442F8D3BDE8F041AFF3008010B592
:10680000222000F008F8F72000F015F8BDE810404D
:106810002020AFF3008010B50446172004F0E9FFF4
:10682000182004F0E6FF204600F012FFBDE81040FB
:10683000182004F0ECBF10B50446182004F0E7FF60
:10684000182004F0D6FF172004F0E1FF204600F0E6
:10685000FFFEBDE81040182004F0D9BF70B5054612
:106860000C46182004F0D3FF182004F0C2FF1720B4
:1068700004F0CDFF2146284600F00EFFBDE8704031
:10688000182004F0C4BF00001FB5104A0023D2E94D
:1068900002015269CDE900011E208DF803001C2081
:1068A0008DF8020002208DF801001F208DF80000F5
:1068B000C00703920290064A6946044806F01EF992
:1068C000002801D001F0E0FB1FBD0000ACF7020082
:1068D0006DD8020010B5044806F0CAF90349022039
:1068E000C1F8000710BD0000ACF702007C000050AA
:1068F00070B5022506460024FA223146284600F0EB
:10690000BDFDFA35641CE4B2FA36ADB2142CF3D3F3
:1069100070BD08B501226946104600F0AFFD9DF834
:10692000000008BD08B501226946002000F0A6FD60
:106930009DF8000008BD00002DE9F04F8BB0074620
:1069400000F08CFA0920834609904B4800254FF04F
:10695000FF080468CDE900854646484B48A2294611
:10696000052000F0E1FBCDE90065444B3A460021EB
:10697000B52000F047FB00274FF01409002607EB75
:10698000870A00BF3C4806EB8601001F027802EB35
:106990008101C9B20391407800EB8A00C0B2069031
:1069A000207848B9CDF80090CDE901851423394A03
:1069B0000699039800F072FB2078012809D1CDF8E0
:1069C0000090CDE901851423334A0699039800F01D
:1069D00065FB207802280AD1CDF80090CDE9018529
:1069E0002D4A142378320699039800F057FB20783B
:1069F00003280AD1CDF80090CDE90185254A14235A
:106A0000783A0699039800F049FB207804280AD1C7
:106A1000CDF80090CDE901851F4A14233C32069938
:106A2000039800F03BFB207805280AD1CDF80090B0
:106A3000CDE90185174A1423B43A0699039800F06A
:106A40002DFB207806280AD1CDF80090CDE90185EC
:106A5000104A14233C3A0699039800F01FFB761C59
:106A6000F6B2641C5E458DD37F1C0998FFB2874245
:106A700084D30BB0BDE8F08F7C2B0020942C002039
:106A8000536F6B6F62616E20636861707465722D05
:106A90000000000070F7020008F602002DE9FC4734
:106AA00000F0ECF948480025FF260468CDE90065B0
:106AB0004FF004094FF05008444B45A20A2105202D
:106AC00000F032FBCDE90065404B44A21E210520B9
:106AD00000F02AFBCDE900653C4B44A232210520A1
:106AE00000F022FB5FF0000707EB870108EB810055
:106AF00000F0FF0A207838B9CDE90065334B3DA29C
:106B00005146322000F010FB2078012807D1CDE952
:106B100000652E4B39A25146322000F005FB20784B
:106B2000022807D1CDE90056284B34A25146322025
:106B300000F0FAFA2078032807D1CDE90065234B4D
:106B400030A25146322000F0EFFA2078042807D115
:106B5000CDE900561D4B2BA25146322000F0E4FA3D
:106B60002078052807D1CDE90065184B27A25146AA
:106B7000322000F0D9FA2078062807D1CDE9005656
:106B8000124B22A25146322000F0CEFA207807287C
:106B900007D1CDE900650D4B1EA25146322000F011
:106BA000C3FA2078082807D10095084B19A251464E
:106BB0003220019500F0B8FA7F1CFFB2641C4F45EB
:106BC00092D3BDE8FC8700007C2C0020942C002090
:106BD000566970736E2D45696E6B00004261747466
:106BE0006572792D467265650000000047616D652C
:106BF000426F79004E756C6C00000000536F6B6F34
:106C000062616E004D617A65000000004D6972722C
:106C10006F72000049736C616E64000070B51446B9
:106C2000042281B10F480F4B002100EB84000C3B84
:106C3000455C5D54491CC9B29142F9D32046FFF727
:106C40002DFF012070BD012802D0022803D004E0EE
:106C500003F08AFB01E003F063FB204600F088FFAD
:106C600070BD0000842C00202DE9F04190460923DE
:106C70001A46F9B108EB081404EB88101C4C0021EB
:106C80001C4F0519002001EBC106AC1906EB0706E5
:106C900014F800C006F800C0401CC0B29042F7D300
:106CA000491CC9B29942EDD34046FFF745FE012089
:106CB000BDE8F08140B1012808D0022809D003289E
:106CC0000AD0042810D00AE0012408E003F088FE6E
:106CD00004E003F087FB01E003F070FC044640464B
:106CE00000F092FE2046E3E703F072FDF6E70000B5
:106CF000842B0020E85D00202DE9F04700268AB0B3
:106D0000DFF85091B0464FF480750124374606965F
:106D1000284604F0A9FD38B1D9F80403204203D075
:106D2000284604F097FD26432D1D64007F1CADB25C
:106D3000082FEDD34FF4BE74204604F095FD48B102
:106D4000204604F087FD46F0004606AA01210020F7
:106D500004F06CFD404D16F0FF0F15D00127002404
:106D600037420DD009EB8401D1F81005D1F8101588
:106D7000C0F3042055F82420C1F3014102B190472B
:106D80007F00641C082CEBD3002E5FDA4FF0FF303D
:106D9000CDF8108054E0281910F8587F90F90000C1
:106DA00027F0C008401C3BD007A9404604F01CF85F
:106DB00010B34FEA9719404602F0F2F855F82070E8
:106DC0001FB1B9F1030F03D006E0B9F1030F27D1CA
:106DD00004A9404604F010F84FF0A04101EB8800F0
:106DE000D0F8000706A9C0F3014A404603F0FCFFB3
:106DF00018B1BAF1020F03D012E0BAF1030F0FD1AC
:106E0000B9F1030F08D1BAF1020F1DD0022140469B
:106E100004F0DEFC761CF6B217B149464046B8478E
:106E2000641C062CB7D3002E10D06A460121002026
:106E300004F0FCFC06990098884207D0069004985C
:106E4000002634460790A6E70321E0E70AB0BDE834
:106E5000F0870000006000405086002000EB001129
:106E600001EB8010044901440348083801600921FE
:106E70000171417170470000842B00200348A0F18C
:106E8000080108600320487170470000842C00202E
:106E900070B54FF48076304604F0F6F8114CB50525
:106EA00060B1304604F0F7F80120C5F808036079B6
:106EB00020B9012060712168002088474FF4827654
:106EC000304604F0E1F800280AD0304604F0E3F838
:106ED0000220C5F808032168BDE87040012008477A
:106EE00070BD0000AC2C002030B51A49CA8A022AB5
:106EF00008D0042A06D0072A18D140EA0010002240
:106F0000C3B222E00022C3B20DE0002006E000BFC1
:106F100002FB04040D68401C80B22B554C8A84424D
:106F2000F6D8521C92B2888A9042EED830BD00202A
:106F300006E000BF02FB04040D68401C80B22B5524
:106F40004C8A8442F6D8521C92B2888A9042EED87B
:106F500030BD0000C05B00202DE9F04F814628487D
:106F60001E46DDF828B0838888464B4546D3C18845
:106F7000414543D3B088410700D0012101EBD00047
:106F8000203A10FB02F0F1884FF0800A4843316844
:106F90000F1800252FE0002424E000BFBBF1FF0FF5
:106FA000397804F007022AFA02F001EA000101D060
:106FB00009B908E081B108EB050081B209EB0400D2
:106FC00080B2099A06E008EB050081B209EB0400E3
:106FD00080B25A4600F004F9E043400700D17F1C1C
:106FE000641CA4B2B088A042D8D83079400700D041
:106FF0007F1C6D1CADB2F088A842CCD8BDE8F08FE4
:10700000C05B00202DE9FF4FADF5037D8A46DDE929
:107010009087834600244FF48079154626464946DA
:1070200042A8FFF71AFA494602A8FFF716FA1948CC
:1070300042AA83885B4529D3C188514526D3CDB167
:107040000A2102A895FBF1F301FB135395FBF1F51F
:1070500030330355641C24B2002DF3D11146002CAB
:107060000DDD031913F8013C8B55761C641E36B2F6
:1070700024B2F4E7CDE9008707A2869B02E0CDE9C0
:107080000087869B5146584600F04EF80DF5077D67
:10709000BDE8F08FC05B0020300000002DE9F04F0C
:1070A000814620481546099F82889A4688464A4567
:1070B00035D3C188414532D300264FF0800B2CE0F8
:1070C000002423E00B982978FF2804F007022BFA0C
:1070D00002F001EA000101D009B908E081B108EB32
:1070E000060081B209EB040080B20A9A06E008EBC0
:1070F000060081B209EB040080B20B9A00F070F830
:10710000E043400700D16D1C641CA4B2BC42D9D33B
:10711000780700D06D1C761CB6B25645D0D3BDE8BA
:10712000F08F0000C05B00202DE9FC4F804619481D
:1071300089460D4681884446DDF830B01E46174624
:10714000A14225D3C1888246A94221D31DE0B0883F
:10715000BAF804300119994203D9F1884446294408
:107160008DB2F188BAF806002944814201D944461B
:107170004D460B983346CDE900B029462046FFF72F
:10718000EBFEB0887F1C204484B23A78002ADED11E
:10719000BDE8FC8FC05B002070B50D4C049D2060E5
:1071A00021816281A5810225E5824E074FEAD10047
:1071B00000D0401C6082A282E381258223B1B42BDF
:1071C00002D0A280E18070BDA180E28070BD00008D
:1071D000C05B00200149086070470000C05B0020D0
:1071E000F0B5384CA38883424BD3E3888B4248D315
:1071F0002346E7891E895D89CFB15A2F1AD0B42F53
:107200001CD0B7F5877F3CD10B46281A401E80B2B0
:10721000218AD9B1012916D0022904D0032930D1FD
:10722000F11A491E8BB2281A401E80B20EE00346A6
:107230000846EDE7711A491E8BB2E9E7301A401E85
:1072400083B2681AE2E7F11A491E8BB29E4218D344
:10725000854216D31B49E58A4C8A0968022D11D054
:10726000042D20D0072D0CD1444304EB5304DB073D
:107270005B0FF025DD40085D1201A843DA400243B0
:107280000A55F0BD444304EBD3048020002A0D5D71
:1072900003F0070220FA02F002D028430855F0BD9F
:1072A00085430D55F0BD444304EB930094079B07C1
:1072B0005D0F0A5CC023EB409A43230EEB4013435F
:1072C0000B54F0BDC05B002002490248091F096849
:1072D00000680847002D00202DE9FE434FF4827816
:1072E000404604F027FE4C4F00254C4C012600B3CD
:1072F000404604F027FE94F82E0010B194F82F10A9
:10730000D1B18DF80050616801912189ADF8081064
:10731000E26832B1218B618362602181E56010B146
:1073200002E0257400E03E6021686846884784F8E2
:107330002F5094F82E0060B34FF48077384604F055
:10734000F9FD30B3384604F0FDFD628B94F82D1042
:107350008A420AD9A2EB010080B260832289A2EBA3
:107360000000626802EB400005E007D1E06828B148
:1073700084F82F60658304F0CBFD04E08A4202D1DB
:1073800084F82F606583404604F0DCFD2248001D30
:1073900006604FF48877384604F0CCFD48B1384693
:1073A00004F0D0FD257402208DF8000021686846A5
:1073B00088474FF48A77384604F0BCFD28B1384638
:1073C00004F0C0FD2574BDE8FE834FF000484FF483
:1073D0008C7967691DE000BFB7FA87F028FA00F1E1
:1073E00009EB80058F43284604F0A4FD88B12846A8
:1073F00004F0A8FDA5F58C75E8088DF8040045F3A8
:107400008000401C8DF800608DF8050021686846FA
:107410008847002FE0D1D6E700700040FC860020AE
:1074200070B50E46144900EB400001EBC005144650
:10743000E86A183520B101280FD0022805D113E0E1
:10744000284600F076FCA04201D2002411E022463A
:107450003146284600F0A5FC0BE0284600F069FC08
:10746000A042F4D20446F2E73146284600F06CFC14
:107470000446204670BD0000888F00202DE9F041B1
:10748000194D0C4603212970010AD21C6970A8709D
:107490001746104602F09CFEDFF850800021064699
:1074A00088F8001012490320002220C181E8C100A1
:1074B000091F104805F020FC08B100F0E5FD40462A
:1074C000017809B1032007E020BF40BF30BFF7E7D4
:1074D000315C04F8011B401CB842F9D33046BDE8CA
:1074E000F04102F029BA00003C5E0020902C002000
:1074F00054850020ACF7020010B5144B02241C7018
:10750000040A5C7098700320D21C04E011F8014B4F
:107510001C54401C80B29042F8D30D4C00212170C5
:107520000C48C0E900320C4AC0E902210A46014673
:107530000A4805F0E1FB28B100F0A6FD02E020BFFB
:1075400040BF30BF20780028F9D010BD3C5E00203D
:10755000902C002054850020C7710020ACF7020059
:1075600010B50E4906200E4C0870002222700D48FE
:107570000160012141600C49C0E9021201460B483B
:1075800005F0BAFB28B100F07FFD02E020BF40BF4C
:1075900030BF20780028F9D010BD00003C5E0020EC
:1075A000902C002054850020C7710020ACF7020009
:1075B0000149024802F065BCB4860020003000405A
:1075C0000149024802F05DBCD8860020003002402C
:1075D00000B587B0182004F0E7F8172004F0E4F8AD
:1075E000162004F0E1F800231B2000931A461946E8
:1075F000019304F09BF8182004F009F9162004F018
:1076000006F9104A0023D2E90E01526CCDE90201BD
:10761000FF208DF80B008DF80A001A208DF8090064
:1076200019208DF80800C007049006480592064A04
:1076300002A9783805F062FA002801D000F024FD94
:1076400007B000BDC0F5020079D80200FFF7C0BF47
:1076500010B50E490E4C012308700022627001F52E
:107660000070C0E90013A0F58071C0E90212014664
:10767000084805F041FB28B100F006FD02E020BFFC
:1076800040BF30BF60780028F9D010BDD85B002023
:10769000742B002048F5020010B50D4C00236370D8
:1076A0000C4AC2E90001A2F58070C2E902031A4641
:1076B0000849094805F020FB28B100F0E5FC02E08C
:1076C00020BF40BF30BF60780028F9D010BD000057
:1076D000742B0020D85D002048F5020004F012BE93
:1076E000F0B5B5480023021D0178101D01254FF0AB
:1076F000805406290BD11678360708D10678C6F3D0
:107700000316032E06D0042E04D0052E02D006291F
:1077100007D00EE0B4F82463A84FC6F304263E60F9
:1077200002E01678360704D10678C6F30316032E56
:1077300002D0062904D00FE0A24FA14E7E670EE0D2
:107740001678360708D10678C6F30316032E06D03E
:10775000042E04D0052E02D0062907D00EE0D4F85E
:107760004462994FC6F342363E6002E0167836070F
:1077700004D10678C6F30316032E02D0062906D0DC
:1077800011E0924E376827F0807737600EE0167868
:10779000360708D10678C6F30316032E06D0042E4A
:1077A00004D0052E02D006290AD011E04FF0804601
:1077B000C6F80C31C6F81031834E361F336002E034
:1077C0001678360704D10678C6F30316032E02D0C6
:1077D000062905D00CE07C4F032664373E600AE0A2
:1077E0001678360704D10678C6F30316032E02D0A6
:1077F00006290DD014E0764F05263E60744E78368B
:107800003560734E083633603F263F1D3E6002E010
:107810001678360704D10678C6F30316052E02D073
:10782000062957D062E06B4E36686B4F3E60694E5A
:10783000361D36683F1D3E60664E083636683F1D71
:107840003E60644E0C3636683F1D3E60614E103619
:1078500036683F1D3E605F4E143636683F1D3E6001
:107860005C4E183636685C4F20373E60594E1C36E9
:1078700036683F1D3E60574E203636683F1D3E60DD
:10788000544E243636683F1D3E60524E28363668C8
:107890003F1D3E604F4E2C3636683F1D3E604D4EBC
:1078A000303636684C4F40373E604A4E3436366884
:1078B0003F1D3E60474E383636683F1D3E60454EA0
:1078C0003C3636683F1D3E60424E403636683F1DAE
:1078D0003E6002E01678360708D10678C6F3031634
:1078E000032E06D0042E04D0052E02D0062907D080
:1078F00019E0D4F85812394A01F04F01116002E042
:10790000117809070FD10078C0F30310032803D0C2
:10791000042801D0052806D131480168C90702D0E2
:107920006FF001010160D4F83001062808D1D4F8C5
:107930003401062804D12B48016841F480610160BC
:1079400022487438016841F470010160BFF34F8F21
:10795000BFF36F8F4FF01021D1F80002002803DB36
:10796000D1F80402002822DA1F4A15601F48046873
:10797000002CFCD01524C1F800420568002DFCD075
:10798000C1F8044201680029FCD013600168002995
:10799000FCD0BFF34F8F0D48F0380168144A01F452
:1079A000E06111430160BFF34F8F00BFFDE7124953
:1079B00010480860F0BD0000E00F00F040350140C5
:1079C0000DF0ADBA00C007403C050040FCED00E002
:1079D000105600400404001020C50040E40E004092
:1079E000000400403C17004004E5014000E4014071
:1079F0000400FA050090D003A82D0020014800687B
:107A000000470000B42C00202DE9F04F87B0064657
:107A1000FFF724FA092000254FF0FF080590CDE973
:107A2000008583464446484B48A229460520FFF777
:107A30007BFB454B32460021B520CDE90045FFF7E1
:107A4000E1FA00274FF014094548002407EBC7016D
:107A500007EB870A11EB0006424804EB8401027829
:107A600002EB8101C9B20491407800EB8A00C0B2F8
:107A70000390305D48B9CDF80090CDE90185DDE98E
:107A800003101423384AFFF709FB305D012809D1A0
:107A9000CDF80090CDE90185DDE903101423334AC8
:107AA000FFF7FCFA305D02280AD1CDF80090CDE94D
:107AB00001852E4ADDE9031014237832FFF7EEFA30
:107AC000305D03280AD1CDF80090CDE90185264A22
:107AD000DDE903101423783AFFF7E0FA305D04285B
:107AE0000AD1CDF80090CDE90185204ADDE90310E7
:107AF00014233C32FFF7D2FA305D05280AD1CDF8C5
:107B00000090CDE90185184ADDE903101423B43A49
:107B1000FFF7C4FA305D06280AD1CDF80090CDE910
:107B20000185114ADDE9031014233C3AFFF7B6FA48
:107B3000641CE4B25C458FD37F1C0598FFB287427A
:107B400082D307B0BDE8F08F942C0020536F6B6F89
:107B500062616E20636861707465722D00000000C0
:107B6000E85D0020782B002070F7020008F6020084
:107B70002DE9FC47FFF782F90026FF25CDE90056E5
:107B80004FF004094FF05008424B43A20A21052050
:107B9000FFF7CAFACDE900563E4B42A21E2105204E
:107BA000FFF7C2FACDE900563A4B42A23221052036
:107BB000FFF7BAFA414F002404EB840108EB81007F
:107BC00000F0FF0A385D38B9CDE90056314B3CA2D0
:107BD00051463220FFF7A8FA385D012807D1CDE9D8
:107BE00000562C4B38A251463220FFF79DFA385DE3
:107BF000022807D1CDE90065264B33A25146322039
:107C0000FFF792FA385D032807D1CDE90056214BE2
:107C10002FA251463220FFF787FA385D042807D19A
:107C2000CDE900651B4B2AA251463220FFF77CFAB2
:107C3000385D052807D1CDE90056164B26A25146DE
:107C40003220FFF771FA385D062807D1CDE90065CB
:107C5000104B21A251463220FFF766FA385D072803
:107C600007D1CDE900560B4B1DA251463220FFF73C
:107C70005BFA385D082807D1CDE90065054B18A2ED
:107C800051463220FFF750FA641CE4B24C4593D3BE
:107C9000BDE8FC87942C0020566970736E2D4569F1
:107CA0006E6B0000426174746572792D4672656571
:107CB0000000000047616D65426F7900782C00205C
:107CC0004E756C6C00000000536F6B6F62616E004C
:107CD0004D617A65000000004D6972726F7200009C
:107CE00049736C616E64000070B50646022500247D
:107CF000FFF736FCFA2231462846FFF7FDFBFA353E
:107D0000641CE4B2FA36ADB2142CF1D370BD01B5E7
:107D1000FFF726FC012269461046FFF7EDFB08BD80
:107D200001B5FFF71DFC012269460020FFF7E4FBC7
:107D300008BD0269C1688A4203D88068401A1044AD
:107D400000E0501A401E70472DE9F047C4681746FE
:107D5000894606464FF000083069A04201D9051B4C
:107D600002E0B168201A0D1AB0686D1E001BA8420F
:107D700000D80546BD4200D33D4670682A462044DF
:107D80004946FEF743FBB0687F1B2C44A844A94436
:107D9000A04200D10024F460002FDDD14046BDE8B0
:107DA000F0872DE9F04104468846D4E90207C51B57
:107DB000E168606816460844B54206D94146FEF7B8
:107DC00025FBB819E060BDE8F0812A464146FEF780
:107DD0001DFB761B08EB050132466068FEF716FBBB
:107DE000E660F0E702E008C8121F08C1002AFAD1D5
:107DF00070477047002001E001C1121F002AFBD12B
:107E0000704700000121202803DA81400548014025
:107E100003E0402802DA2038814009B10120704790
:107E200000207047FC06FFBD10B50446007800280E
:107E300022D10121606804F0C1FC08B100F024F9EE
:107E4000606801220023B0F900100C48446AA14286
:107E500001DD827100E0837104793CB1B42901DA5B
:107E60000371C370BDE8104004F012BE838A9942CA
:107E7000F8DD0271C270F5E710BD0000E02A0020B5
:107E80000649F02238B1012805D0022802D14FF46A
:107E90009670888270478A8270470000E02A00202E
:107EA00010B5FEF72BFBBDE81040FEF74BBB80077B
:107EB00001D00020704701207047C3688B4206D86C
:107EC00011440069491E814201D8012070470020F9
:107ED000704790F82400012801D01F207047EE2041
:107EE000704710B501220221002000F047FF08B1C1
:107EF000072810D107220221012000F03FFF08B11E
:107F0000072808D100210A22084600F037FF08B1EF
:107F1000072800D1002010BD38B500240E4D05E023
:107F2000686810F8340004F0F1FA641C2878844280
:107F3000F6D300208DF80000684600F00FF900200D
:107F4000C5E904009DF8000000F02CF903484068E2
:107F5000BDE8384000F0FCB8C02C0020E803030066
:107F600070B50024064D06E06868012110F8340061
:107F700004F0F0FA641C28788442F5D3002070BD28
:107F8000C02C0020F8B516460C4605460A2A01D238
:107F90000720F8BD04F0DAFB18B904F09FFB0028B5
:107FA000F7D1134F102113487D603C70BE60FEF77F
:107FB00054FA0020C7E904000F4E0DE005EBC400A1
:107FC0003168009181788DF8011000780B4A69467C
:107FD00004F012FB0028DCD1641EE4B2EED2BDE84E
:107FE000F84005480021064A001D00F05FB8000077
:107FF000C02C002050870020E8030300F99B0200FA
:10800000FD93020072B603F067FE00BF03F0BEFCF2
:108010000028FBD111481249401AC408012000EB86
:10802000044010A103F0CCFD11480068C00700D047
:1080300000BE022000EB04400EA103F0C1FDBFF31F
:108040004F8F0B48E43801680E4A01F4E061114398
:108050000160BFF34F8F00BFFDE70000DC0F03009E
:10806000640F0300466174616C206572726F720068
:10807000F0ED00E053797374656D2072657365747B
:10808000000000000400FA050EB500210091CDE9C2
:1080900001106A4644F20100FFF7B4FF0EBD000074
:1080A000014801F012BA0000E02C00203AB100684B
:1080B0000129426100D000210161002070470720A2
:1080C0007047000038B511480823682241680091C4
:1080D0000F49006802F0C7FD002815D10D4A694616
:1080E0000D4801F0F7F904000ED101210A4801F012
:1080F00068FA0123094A1946074801F0BEF9064902
:10810000012008390870204638BD0000F003030044
:1081100070870020C1D40200E02C0020FFFF7F0008
:1081200070B50446007F0D4608B1002070BDA26105
:1081300001F048FD401941F10001C4E90201206944
:1081400000B125612146BDE87040002005F016BD54
:10815000014600200877012005F010BD30B5EFF38F
:10816000108172B60D4A9468012324B1037000296E
:1081700000D162B630BD93604FF0E023D3F8805158
:10818000074C25401560C3F88041D3F88441546002
:108190005A17C3F8842100220270E8E7D88700202C
:1081A000FC06FFBD0B498A68002A11D000280FD1B8
:1081B000EFF3108072B60B684FF0E022C2F8003186
:1081C0004B68C2F8043100228A60002800D162B6F0
:1081D00070470000D887002010B5184A01211848C0
:1081E000FFF764FF08B1FFF74FFF1548154A01215B
:1081F000001DFFF75BFF08B1FFF746FF1048124A6A
:1082000001210830FFF752FF08B1FFF73DFF0C488E
:108210000E4A01210C30FFF749FF08B1FFF734FF88
:1082200007480B4A00211030FFF740FF002803D019
:10823000BDE81040FFF728BF10BD0000A17E02007E
:108240008CE10200A58E0200D9960200998E0200F0
:10825000C196020070B51500044609D000202860C0
:1082600034B1206820B1A079800703D0072070BD09
:108270000E2070BD084600F003FBC0B2142804D0E5
:108280002179814203D8042070BD052070BDE288A9
:10829000216800FB02102860002070BD2DE9FC471A
:1082A000002517880646158090F82D00144689464B
:1082B00030B13A462146484600F0F6FA051E09D18B
:1082C000B0784FF00C0A18B32088C846001DB84299
:1082D00002D95046BDE8FC87684679DF0028F9D10D
:1082E0002088032108F8001020881921401C80B242
:1082F000208008F800102088401C80B2208000EB0D
:108300000801BDF8000005F061FC218808442080C8
:10831000F0780222C8B1218896F9033001F1030CEC
:108320004846BC45D5D8425421884FF0010C491C21
:1083300089B2218000F801C02188491C89B22180BE
:1083400009F801302088401C20807068B8B121886D
:1083500090F9003001F1030C4846BC45B9D84254AD
:1083600021880A22491C89B2218042542188491C53
:1083700089B2218009F801302088401C2080308992
:1083800050B1CDE900474B460622022106F1080014
:1083900005F018FE051E9DD1308A50B1CDE9004789
:1083A0004B460722032106F1100005F00BFE051EC7
:1083B00090D1308B50B1CDE900474B4615221421A6
:1083C00006F1180005F0FEFD051E83D1306A30B1BC
:1083D0003B462246494600F000FF051EDBD1706A8D
:1083E00030B13B462246494601F028FF051ED2D156
:1083F00096F82C0038B13B4622464946304605F0F7
:108400007FF9051EC7D1307838B13B462246494630
:10841000304602F0D5FB051EBDD128465AE718B5F7
:1084200004460020ADF8000013466A46204600F0DE
:1084300006F8002802D0BDF80000204418BD70B531
:10844000C8B1C2B10024158803E0065D641C344441
:10845000A4B2A54203D8061976789E4201D08C4278
:10846000F3D38C4207D2005DA31C401E9BB280B2A6
:108470001C188C4201D9002070BD138070BD80F89B
:10848000301070472DE9F0410D00044606D02CB1A4
:1084900095F87A000026012803D006E00E20BDE8FA
:1084A000F08195F89800012829D0D5F8A00004287B
:1084B00025D0D5F89C00042821D04FF00108A670E3
:1084C0002C2205F17801201DFDF7A0FF84F8306013
:1084D000D5F8A4006063D5F8A800A0634FF6FF703C
:1084E000A4F8240404F58260C4F82004C4F82664C7
:1084F000A4F82A6484F82C64207810B104E00720E2
:10850000CDE7FF2084F8540004F155072046C4F855
:108510001074FFF7DEFCA4F8140404F21442394688
:108520002846FFF7BBFE0028B9D104F23120C4F879
:1085300018042046FFF7CDFCA4F81C0404F21C42EA
:1085400005F13C00D4F81814FFF7A8FE0028A6D1C6
:1085500084F85180208BA4F8480084F83C8026647D
:1085600084F85060606900216064454604F13C0273
:10857000781E72DF002892D1257090E710B502882E
:10858000102A1BD0112A20D0262A1DD1007A0C4691
:10859000012801D0022817D1A0780521401CB0FB8A
:1085A000F1F201FB1201204600F01DF800280BD06B
:1085B000A16B002908D0BDE810400847C27B012A02
:1085C00002D18088A1F8240410BD0C46002184F853
:1085D0002E148088B4F824148842F5D1207900281C
:1085E000F2D10121DFE72DE9F05F044600780F4664
:1085F00098B1A7700025C4F82654A4F82A5484F82A
:108600002C54A079012608B1012F09D0E07980B15E
:10861000012F05D0022F03D00BE00820BDE8F09F0A
:10862000616B21B184F82D640820884701E084F84B
:108630002D5404F2274100200A5C0AB1304603E0C1
:10864000401C0628F8D300204FF002084FF0030B1F
:10865000012F06D0022F0CD0032F0FD0042F15D1DD
:1086600010E0A17929B194F8241011B908B130466D
:108670000DE0E17911B108B1404608E0207A08B177
:10868000584604E0607A08B1042000E02846A07053
:10869000616B41B1032801D0042804D1607910B185
:1086A00094F82E0498B184F82F5404F13C0018215A
:1086B0000746FDF7D2FE84F83C6004F12C0004F07C
:1086C000D7FC58B194F82C0084F8510008E084F8E5
:1086D000305484F82F6407208847E6E784F8516017
:1086E00094F8240058B104F1280004F0C1FC20B132
:1086F00094F8280084F8520001E084F8526084F86D
:108700005050A27804F2264104F582694FF0060A1F
:10871000052A64D2DFE802F07C030F22420084F8CD
:108720003160C4F82054C4E9101584F83C808020DE
:10873000A4F8480055E084F8318094F824203846A5
:1087400012B10722027001E080F800B0228A828113
:10875000C4F820544160E168B96042E06069B860E3
:10876000208BB88194F824003D460028204602D092
:1087700084F83CA001E084F83C6005F0F5FB50B1C2
:1087800085F814800421204601F0C1F838BB05218A
:1087900084F8311021E084F831B01EE0E069B8605F
:1087A000208CB88194F824003D460028204602D051
:1087B00084F83CA001E084F83C6005F0D5FB48B1AA
:1087C00085F814800421204601F0A1F838B984F816
:1087D00031A002E0042084F83100C4F82094A0788D
:1087E00078B13A4604F15400D4F8201472DF00281E
:1087F0007FF414AF94F8301094F8540073DF00281D
:10880000F6D1616B11B194F831008847002005E77B
:1088100084F83150F5E7000070B5040012D001462D
:108820001C221448FDF7F2FD1248134D0560206824
:1088300050B17ADF002806D12068016829604068BD
:10884000686005E00E2070BD0B487BDF0028FAD180
:1088500008484FF6FF711438084A20F8041B0549F0
:10886000343901600021FFF721FC0028EBD0032000
:1088700070BD0000A4850020A42C002001DF0200B0
:1088800010B5044600F006F808B1204610BD1420CB
:1088900010BD0000142801D3002070470146014894
:1088A00002F02BBAC48500207CB5054608880C462A
:1088B0000930904201D90C207CBD68466DDF00284C
:1088C000FAD121880820685420881B21401C80B2DE
:1088D000208029542088401C80B220802844DDF864
:1088E00001100160BDF8051081802088801D80B2D4
:1088F00020809DF80010490800D0012129542088CB
:10890000401C208000207CBDF8B5264C054601881F
:108910000026208A212933D00ADC102912D01129FF
:1089200021D013292BD100231A4685217FDF14E0A3
:108930003B2933D052292CD0562920D1A888132185
:1089400076DF0AE0072000F03BFA08B1FFF79CFB56
:10895000A9882182144802F01FFB00280FD0BDE82F
:10896000F840FFF791BB4FF6FF7020826079002836
:1089700005D00D480C3090F8540074DF6671F8BDD6
:108980000096A88869468FDF0028F8D0FFF77CFBA7
:10899000F8BD00231A461946B1DFDEE7A888132187
:1089A00076DFDAE7E02A0020702F002010B51A4C9D
:1089B0000188606810290ED011292BD1401E6060FB
:1089C00028D1FFF78EFA002824D02168002921D071
:1089D000BDE810400847D0B900210122084600F048
:1089E000CDF908B107280FD107220221012000F09C
:1089F000C5F908B1072807D104220221002000F0A0
:108A0000BDF920B1072802D0216801B1884760680C
:108A1000401C606010BD00009C2C00202DE9F04738
:108A200001883B4E40F2F3194FF6FF7510291BD019
:108A300011293ED0122954D0502946D1C188F2893B
:108A4000841D914241D1618902293ED186883046F8
:108A500001F0A0F9050038D004F10C0000F08AF90B
:108A6000A8B3294630464EE0C17B878804460129D9
:108A70002BD1A846284601F08DF9050017D02F808C
:108A800000202872234843464A460168C5F80A1068
:108A90004068C5F80E0004F1100105F10A0001F06C
:108AA00015FA6872F08900280FD129462AE00420BF
:108AB00013E0808801F06EF9040006D06068FFF7CB
:108AC00047FB08B104F0ECFD2580BDE8F087FFE727
:108AD0006868FFF73DFB0028F7D0BDE8F04704F0D9
:108AE000DFBD87880646384601F054F90400ECD013
:108AF0002B464A4606F1080104F10A0001F0E6F9A6
:108B0000607221463846BDE8F04700F0ADBB00007A
:108B1000A4850020A42C00202DE9F04F044686886F
:108B20000188424897B0834610290CD0112950D0B3
:108B3000103019296AD01A2974D1217A0C09042C11
:108B40004DD301224CE0394D083DA868C0430B903D
:108B500069680BA802F0F2F80B990CA800F01EFB54
:108B60002C220CA96846FDF751FC0027E946A846CF
:108B700010E000BF09EB47005FF00005B0F804A06B
:108B800008EB85005146001D02F0ACF86D1C1E2D4F
:108B9000F6D37F1C0098B842ECD8142E05D317B03A
:108BA0000420BDE8F04FFFF76FBA3146584602F097
:108BB000AFF8314608F1040002F0AAF8E07B012882
:108BC00030D017B03146BDE8F04F1848001D02F014
:108BD0009FB817B03146BDE8F04F02F083B80022CD
:108BE000314600F08FFE032C01D3012200E0002269
:108BF0000E4831460C3000F085FE022C01D30122D4
:108C000000E0002209483146083006E0217A0029B8
:108C100008D1617AC1F3C002314617B0BDE8F04F08
:108C200000F070BE17B0BDE8F08F0000C8850020CE
:108C300070B5334D04008EB02DCD08AE86E82D0002
:108C40005BD0E9B30868A061214608A862DF00286C
:108C500051D1207801258DF83200ADF83050A21C9A
:108C60000CA92846A8DF002845D120216846FDF739
:108C7000F4FB0220ADF8000020788DF802008DF89A
:108C80000C509DF80D00F426ADF8046040F00C0087
:108C90008DF81150ADF806508DF80D008DF812507A
:108CA000608804F10C02694600F082F9002822D1A4
:108CB00020216846FDF7D1FB0320ADF8000000E05D
:108CC0001BE020788DF802008DF80C509DF80D0007
:108CD0008DF81150ADF8046040F010008DF812507E
:108CE000ADF806508DF80D008DF813506088221DE8
:108CF000694600F05DF90EB070BD0E20FBE7000084
:108D0000BC03030070B588B00446002924D0002CB1
:108D100022D008462188102920D0502924D0572954
:108D20001AD10546A188406906AAFFF793FA0028E0
:108D300012D1069E307800280ED018216846FDF723
:108D40008CFB01208DF800000195A088ADF808008B
:108D50000396A9696846884708B070BD08B02146E7
:108D6000BDE8704004F034B808B02146BDE870405A
:108D700004F00EB9007800F00100704770B50023D0
:108D8000042810D20D4D00EB4004012A02D1012924
:108D90000CD00022094E00EB4000304461B10129A3
:108DA00006D0022906D00723184670BD0E30C2B285
:108DB0002A55F9E74270F7E78270F5E764850020ED
:108DC000002070472DE9F8430546861C00208DF8E9
:108DD000000090460F464FF001096846FFF7BEF9C4
:108DE0001B4C20683860D4E90001401AA16804F2E5
:108DF0001C47081A0EE00121384601F099FF01F0E6
:108E0000A5F80146384601F093FFD4E90001401A65
:108E1000A168081A401C8642EDD8B8F1000F03D0B3
:108E2000052065F3891002E0062065F39F50A268D3
:108E30002168114004EB8101C86020683044206043
:108E40009DF80000FFF7AEF94846BDE8F883000042
:108E5000648B002070B50D4604460A2902D10D210D
:108E6000FFF7F8FFA0682268411CA1601554D4E9FF
:108E70000101814204D32046BDE8704002F065B98B
:108E800070BD0000034803C8814201D10120704732
:108E900000207047648B0020014901200872704750
:108EA000E02A002010B54FF0A040D0F81015C90EF0
:108EB00011F0010F0ED11021C0F80C150649002049
:108EC000C8710870FEF7C2FB04484068BDE8104056
:108ED000FFF73EB910BD0000E02A00208CE102003F
:108EE0000B490D38062808D2DFE800F00305090B0E
:108EF0000D0F012000E002208872FFF70DB803205B
:108F0000FAE70420F8E70520F6E70620F4E700007A
:108F1000E02A0020034630B5074800210478426863
:108F200006E000BF02EBC10005789D4203D0491C5A
:108F3000A142F7DB002030BDC02C002005494FF0D6
:108F4000FF32082841F8202002D3084480F850203E
:108F50007047000050860020F0B54FF0FF3512B189
:108F60000023082601E008230E260C4C05E000BF74
:108F700054F823707F1C04D05B1CB342F8D32846FE
:108F8000F0BD26185DB286F8385044F82310002A48
:108F9000F5D1E11881F85000F1E70000508600207B
:108FA0000249084490F938007047000050860020BC
:108FB0002DE9F0438146887891B090460C4600B97F
:108FC00001208DF83E002088ADF83C00002500957A
:108FD000607C694604F0D8FB6E46A07C711C04F0EE
:108FE000D3FBE07B00289DF8020002D040F008008F
:108FF00001E020F008008DF80200217C11B140F062
:10900000100001E020F010008DF80200217B11B16A
:1090100040F0010001E020F001008DF80200217D08
:1090200009B1022100E0012161F342008DF8020044
:109030001C2102A8FDF711FA607BC10601D480064D
:1090400017D50E950EAFE07C791C04F09DFB9DF8C2
:109050003800079720F00F00401C20F0F00010307F
:109060008DF838009DF83A0020F00600801C8DF83D
:109070003A00607B8DF80800A07B8DF80900142170
:1090800009A8FDF7EAF90FA8CDE90906A088ADF80F
:109090003000A06820B1E088ADF82C00A0680D90E9
:1090A000A06998B301950088ADF81000A06901ADE2
:1090B00001A94088ADF81200A069406806950390A8
:1090C000A069007B04F060FBA069691C407B04F090
:1090D0005BFBA069807A00289DF8060002D040F072
:1090E000080001E020F008008DF80600A169C97AA7
:1090F00011B140F0100001E020F010008DF80600E2
:10910000A169097A19B140F0010002E00DE020F0F8
:1091100001008DF80600A169897B09B1022100E0F8
:10912000012161F342008DF80600E06900B105906D
:10913000434609AA02A94846AADF11B0BDE8F08358
:1091400070B5084C050009D010342168002907D0FB
:1091500008682060496828468847F6E70834F4E73D
:1091600070BD00003C860020054A012120B1012885
:1091700005D19170FFF7E4BF51700020FAE7704706
:109180003C86002010B5D0E90234D1E90220D11A82
:10919000A04101D3012010BD002010BD73B58CB0DB
:1091A0000646002000900D9880B100246D462146AF
:1091B0000DA801F0A2FD30B1009805EB40008480BD
:1091C0000098401C0090641C142CF0D32C2269469B
:1091D0003046FDF71BF90EB070BD2DE9F041178840
:1091E0000646B81D14460D46984202D90C20BDE82B
:1091F000F0813188072206290AD34FF4486C4FF6D4
:10920000FF73614501D9994202D17088062801D2C5
:109210001046ECE7604501D99842F9D1994203D054
:10922000984201D08142F3D80520E85520881221C8
:10923000401C80B2208029542088401C80B22080AD
:109240004119308804F0C2FC2188084480B2208093
:109250004119708804F0BAFC21880844208000205D
:10926000C5E7FEF711BF000038B54A7A0F4B62B16F
:1092700000220A725969002906D001228DF80020C7
:10928000ADF802006846884738BD0A7A62B19B682B
:109290004C68024619462046FEF742FF0028F3D0EC
:1092A000BDE8384004F0FCB95B68F1E7A485002014
:1092B00070B588B00646002005900690ADF81410F1
:1092C000ADF816100190029001AA05A9304690DF72
:1092D000050021D003F0CCF803461148114932466D
:1092E000401AC108012000EB014004460E4902F07B
:1092F00072FCBDF8042012B9BDF8060028B1BDF813
:109300000630204609A102F066FCBDF808201AB11B
:109310002046164902F058FC08B0284670BD0000EF
:10932000640F0300640F03005407030054686520B2
:109330007265717565737465642054582F52582096
:109340007061636B6574206C656E67746820697307
:1093500020746F6F206C6F6E672062792025752FE7
:109360002575206F63746574732E0000A0070300D9
:109370002DE9FF410C4620B14FF4064004B0BDE892
:10938000F0812079002748F2096538B141F61D5671
:1093900001281BD0022826D0681DEFE7022020718B
:1093A00002970397E0680190694601A803F0ECFF7B
:1093B00050B102988188E18000882081BDF80010BA
:1093C000029804F05FF8D9E72846D7E70A4B6A46C7
:1093D0000021A01D03F090FF38B1074918398F61B3
:1093E000CF61A842CAD13046C8E7034881880198B6
:1093F00004F048F8F5E70000282D002070B500249F
:109400000F4D10E0686800EBC406307803F05CF99B
:109410007178012901D0012100E00021414030781C
:1094200000F0F6F9641C28788442EBDBD5E90401EE
:10943000084303D0BDE8704004F0BCBB70BD000021
:10944000C02C002010B50021024801F082FC80F3FE
:10945000100010BD808F00204FF480328A400168D8
:10946000C1F848230068C0F8082370474FF4A07281
:1094700002EB810189B200F03BBA2DE9F0410546CB
:109480000E464FF4A07000EB860081B228684FF4BE
:109490008034B440984622F07F47C0F808432868DB
:1094A000C0F84843286802F02DFD286800EB8600CC
:1094B000C0F840752868C0F84443B8F1000F02D0E6
:1094C0002868C0F80443BDE8F0810068D0F80405BE
:1094D0007047000070B54379224C44F8232042794C
:1094E000241D04EBC202204B1579204A9A1AD30896
:1094F0002DB10824022000EB03401DA12EE00268DC
:109500000D88C2F8085590F904208978002A4FEA9E
:10951000411106DA02F00F0202F1E02282F8141D76
:1095200003E002F1E02282F8001490F90410012215
:1095300001F01F0502FA05F54909890001F1E02152
:10954000C1F80051417904EBC1010A71417944F835
:1095500031000320002400EB03400EA102F030FB99
:10956000204670BDFC2C0020BC0F0300640F0300DC
:1095700052544320696E7374616E636520616C722E
:109580006561647920696E697469616C697A656482
:109590002E0000005254433A20696E697469616C70
:1095A000697A65642E00000090F90400012100F042
:1095B0001F0291404009800000F1E020C0F8001235
:1095C00070470A46022100F019B94FF4827100F089
:1095D0008FB9006801210160704700680121416076
:1095E00070472DE9F05F07460C464FF4A07000EB82
:1095F00084001FFA80FA38684FF48036A6409B46F4
:1096000022F07F45C0F848633868C0F808633868BE
:10961000D0F8048500EB8402D2F84095C2F840856A
:109620005146386802F06EFCA9EB080020F07F403C
:10963000012806D1102002F061FF5146386802F07F
:1096400061FC3868D0F80485C0F84463A5EB0801D4
:1096500021F07F413868012900EB840010D0C0F868
:1096600040553868D0F804156FF07F4C6A1A521EC6
:1096700022F07F42ACEB0B03934217D362B118E0A8
:109680006D1CC0F84055102002F038FF3868D0F843
:10969000040540450AD10CE000EB84006D1CC0F8C5
:1096A00040553868D0F80405884202D00D20BDE846
:1096B000F09F01223146384600F0A0F80020F6E77E
:1096C0000449042048724FF0A0411020C1F80C0555
:1096D000FDF7BCBFE02A002010B54FF0A040D0F845
:1096E0001005C00E10F0010F0FD108488068FEF77A
:1096F0002FFD0748C16911B1012904D101E0012101
:1097000000E00221C1610021817010BD8CE10200E6
:10971000E02A002010B503780022072B06D2DFE8EC
:1097200003F005040610202930000A7010BD012343
:109730000B7003898B818388CB81C06888600A7431
:1097400010BD02220A7002898A818288CA81C26899
:109750008A60807D062802D00020087410BD012098
:10976000FBE703220A70C2888A810289CA81C06825
:10977000886010BD04230B70C0888881CA818A600C
:1097800010BD0520087010BD70B5064D06460024BA
:1097900055F8241009B130468847641C0A2CF7D3C9
:1097A00070BD00000C88002030B50446006887B00A
:1097B0000D46806800281FD018216846FCF74DFE32
:1097C0000195A0680590207910B1012810D107E01B
:1097D00001208DF8000020690290E068039005E008
:1097E00002208DF80000E068000302906069049098
:1097F000206881686846884707B030BD0368C3F8B1
:109800004413002A02D00068C0F804137047000017
:109810002DE9F84F0E463449804601EB5001C00750
:10982000097801D00F0901E001F00F074FF000099E
:10983000424601204946FCF7D5FDDFF8B0A00446BA
:109840000D46052F4ED2DFE807F003161B282C002B
:10985000002E47D00121404604F0B0F88DF800906A
:109860006846FEF77BFC5046D0E904120C431543D2
:10987000CAE9044532E00EB1022114E0002112E0F1
:109880004EB10321404604F099F84046BDE8F84F38
:10989000012104F087BB012105E0002E22D1042123
:1098A00001E02EB103214046BDE8F84F04F086B830
:1098B0000021404604F082F80021404604F072FB8B
:1098C0008DF800906846FEF749FC5046E243D0E927
:1098D00004341A4024EA0501CAE904219DF8000075
:1098E000FEF760FCBDE8F88F50870020C02C0020F8
:1098F00010B5006842581AB102F004FB012010BDF7
:10990000002010BD0AB101F003BA01F0EBB970B547
:109910000D460446B0F81414D0F810040122FEF7E6
:109920007EFD00B1057004F13C0204F5826104F192
:10993000540072DF70BD000010B5002821D0114B1B
:109940000022001F196803E0814203D80A464968D3
:109950000029F9D152B11368841A9C4204D10068DD
:1099600018441060104602E0506000E0186039B101
:1099700002680B1A934203D10B681A4402604968CB
:10998000416010BDAC2D0020406803F013BC000006
:1099900006484A88038A9A4207D10A88A2F52063BA
:1099A000773B02D18988C91E41827047E02A002096
:1099B00010B50949094801F035FA08B1FEF764FB12
:1099C000F721064801F022FA002803D0BDE8104034
:1099D000FEF75ABB10BD0000919902005C2F0020D9
:1099E00070B510B14FF4064070BD1A4C0025607B75
:1099F00008B1657301E000F0A1F82078082826D2AC
:109A0000DFE800F02504080C10251420BDE87040A4
:109A100000F022B8BDE8704000F07EB8BDE87040AC
:109A200000F060B8BDE8704000F03CB860880949BB
:109A300000EB80003C3901EB80004068BDE87040DD
:109A400003F0F6BA6560BDE8704003F0FFBA48F273
:109A50000E6070BDA48900201149F0B48A1C00205A
:109A60000346A1F13C050C18A67A4EB1A37200EB97
:109A7000800405EB8404E66816B9247C012C0AD026
:109A8000401C80B20328EED30B704B804B60F0BCBF
:109A900041F61D5070471080F0BC00F03DB800004A
:109AA000A48900200C48418801EB8102A0F13C010F
:109AB00001EB8201CA6852B10521017007480221F9
:109AC0008180016800230222054801F037BC04228E
:109AD00002704968F6E70000A4890020382D0020B4
:109AE000B42D002038B50A49084803240B684268A1
:109AF000898803EB810153880470DB1C00201B0460
:109B000000909B0B034801F023FD38BDA489002081
:109B1000382D0020B42D0020074910B54888091DB4
:109B200003F082FC18B1BDE81040FFF7DBBFBDE8D1
:109B30001040FFF7B7BF0000A4890020F0B51F4810
:109B40001F490125067802248B88A0F13C02082ECB
:109B500019D2DFE806F00418181B222F2F170189ED
:109B6000491C01810021418080F80D1001EB810327
:109B700012F8233043B100234418491C89B2A37260
:109B80000329F3D30570F0BD0123F5E7426852883D
:109B9000D21C1A448A800470F0BD46880D6806EB1A
:109BA000860602EB860256680E60556013818C8033
:109BB000062100E007210170F0BD0000A48900200B
:109BC000382D002010B50B48FFF77FFC094A083AF2
:109BD000D2E90434C018D2E9063244F10001C31AB4
:109BE00071EB020204D24FF08072801841F1000143
:109BF00010BD0000E02C002010B5C0B2FFF78AF9BC
:109C00000446007802F060FD01466078012801D02A
:109C1000012000E0002090EA010F08D00449D1E9BA
:109C20000401084303D1BDE8104003F0C3BF10BDD9
:109C3000C02C0020428800EB82020C328A4201D9FB
:109C4000022070478188A1F57F42FF3A06D0018843
:109C500021B18068401C01D000207047012070476E
:109C6000884204D20068401C01D0012070470020C7
:109C70007047000038B5144BC821DA6A40B101289A
:109C80000AD002281ED1BDE838401046FCF797BD27
:109C90000020C823009113E05C6B0523B4FBF3F0B4
:109CA000B4FBF3F503FB15435B4203EB830301EBCA
:109CB000C30100EB8000C0062823000EC9B2009348
:109CC000FCF754FC38BD0000E02A00202DE9F041EB
:109CD0002D4F002520B17D604FF40640BDE8F08196
:109CE0000879012258B1294E01280CD0264C4FF09A
:109CF00002080834022820D0032841D127E00A7145
:109D000003F0A4F93AE0002000EB800116F82110DE
:109D1000022908D0401C80B20328F5D33A707D6038
:109D200041F61D50DAE700EB800006F8205006EB04
:109D30008000406803F07CF920E00D71A4F80480F5
:109D4000002302221248216801F0F8FA16E00D7192
:109D5000206803F06DF90D4923683C31498801EB17
:109D6000810206EB8201D1F804C0C4F800C04B6048
:109D7000A3880B81A4F8048006F822500028ADD0F7
:109D80007D6048F20D60A9E7302D00206889002031
:109D9000B42D00200146034802888A4200D00020EA
:109DA00070470000908500202DE9FC5F0E0083467F
:109DB000DDE90C47C6F1000098469246814600D482
:109DC0000846012503E000BF90FBFAF06D1C5045EA
:109DD000FADAA84500D9454624B1002E01DB780700
:109DE00000D5641EB80702D5B8F1000F0AD0F807F5
:109DF00008D13CB1A54205D220215846641EFFF788
:109E000029F8F6E7002E02DA4E462D2102E0780707
:109E100003D52B215846FFF71DF807F00300022851
:109E20000BD1B8F1000F08D13CB1A54205D23021C9
:109E30005846641EFFF70EF8F6E7CDE900474346A3
:109E400052463146584603F0C7FEBDE8FC9F024625
:109E500000201268530713D502F00300012802D036
:109E600002280CD105E0C2F383100B68801C184453
:109E700004E00223086803EB9252104408600120BA
:109E80007047F8B50E4604464FF48C7102F0CFFAD5
:109E900000281AD00025C4F81851D4F818010090F1
:109EA000F07F3446FF2806D0A17F11B101F0A8FC55
:109EB00001E001F0B3FC65772572D4E9002101B01F
:109EC00004F10800BDE8F0401047F8BDF0B5848803
:109ED000A518944200D82246A41AC288D6189A42DD
:109EE00000D81346D21A4B880788BB420CD340884F
:109EF000834209D88888A04206D3A84204D8C888DB
:109F0000904201D3B04201D90020F0BD0120F0BD44
:109F1000800701D00020704701207047F7210180A1
:109F200017214180002101714171FB2181711B21A9
:109F3000C1717047014641F28A300422FDF79EBA92
:109F4000014641F28E305122FDF798BA2DE9FF41CA
:109F50000026234800F0E9FE2148001F074600F0D4
:109F6000E4FE204C60680090A56800E00098694617
:109F7000284004EB80000C30FFF769FF0028F5D182
:109F800001AA009901EA050304EB8303491CDB687D
:109F900042F82030401C00910228F2D3019800F0D2
:109FA000030001280BD0022810D10198032101EBF6
:109FB00090500099BDF80A6001EB900005E001980F
:109FC000BDF80A60C0F3831008440090384600F0E2
:109FD000A9FE08B10098606004B03046BDE8F08189
:109FE0007C8F0020648B0020ACB0FEF76BF808B1CA
:109FF000FEF74AF801F04EFF08B1FEF745F802F00F
:10A0000047F908B1FEF740F80024694601200094A2
:10A0100001F0B4FF08B1FEF737F8684602F046F8E1
:10A0200008B1FEF731F89DF808005CA120F00F00A0
:10A03000401C20F0F00010308DF80800162202A815
:10A040007CDF08B1FEF720F80094F020ADF80000A6
:10A050004FF416700194ADF80200ADF804404FF4CF
:10A06000C870ADF8060068467ADF08B1FEF70CF854
:10A07000FFF79EFC4F48019001A94F4800F097FF61
:10A0800008B1FEF701F84D48009069464C48FEF7CC
:10A09000CFFD08B1FDF7F8FFAC216846FCF7DDF90C
:10A0A00002208DF800008DF8024005208DF8030095
:10A0B0000120ADF84C0042498DF87C004FF4487007
:10A0C0002C392290149144F2506023903D482990FD
:10A0D000394869460C30FEF7D5F908B1FDF7D4FFD1
:10A0E000354801210C30FEF7CAF91C216846FCF7FF
:10A0F000B4F94FF4A030CDE900404FF4F0200290C5
:10A1000003208DF80C003048059030480690ADF8DB
:10A110000E408DF810406846FEF77EFB08B1FDF753
:10A12000B3FF01203FDFFEF757F8042001F034FBB6
:10A13000052001F031FB4FF0A0461020C6F80805BD
:10A1400006F5A166FCF7A0FBFCF7ECFB1C4D443DBB
:10A150002873FCF7DEFB6873FCF7BCFB1020706013
:10A16000287B042800D92C730021287B03F08EFD66
:10A17000A863FDF785FE124840F2333206211C30F9
:10A18000FDF700FF08B1FDF77FFFFDF7E9FEFCF7E3
:10A19000E3F900BF03F0D4FBFCE700004D6F7469E6
:10A1A0006F6E2D506F77657265642045696E6B54D4
:10A1B0006167000001BF0200702F00205DCD02002A
:10A1C000242B002089CD0200B5CD0200639202004D
:10A1D000F0B50B30154D20F007010024144A0FE0B4
:10A1E00003688B420BD38B4205D95E1A431847682C
:10A1F000C3E9006700E04368136002C004E0021D89
:10A2000010680028ECD12046002802D1286808B147
:10A210000020F0BD064A07481060074A121A22F0D3
:10A220000702C0E9002401202860D7E7B02D0020F4
:10A23000AC2D00201492002010B2002070B51446FE
:10A2400082880E4605462088111D0144921C9942C1
:10A2500001D8FE2A01D90C2070BD521C325420882E
:10A26000FF21401C80B2208031542088401C80B2E5
:10A2700020808119288803F0A9FC2188084480B235
:10A280002080AA8842B1A96841B13044FCF7BEF8E9
:10A290002088A98808442080002070BD072070BD58
:10A2A0002DE9F047C5881E1DB6FBF5F78946B6FBBC
:10A2B000F5F1044605FB176C407916686843DDF834
:10A2C00020A0F718001F874200D9C61A166001E0C7
:10A2D0002468491E0029FBD1A5EB0C078846B7422C
:10A2E00016D818E004EB0C00001D09EB0803BAF1C6
:10A2F000000F3A4602D00146184600E01946FCF726
:10A3000085F82468F61B4FF0000CB844B54201D91B
:10A31000374600E02F46002EE4D1BDE8F08700006C
:10A3200070B504263046FFF753FF0E4900240A5D3E
:10A330000255D20700D12546641CE4B2B442F6D3DC
:10A34000425D521E4A55032D08D0421929445278C5
:10A35000521C4A70BDE87040FFF7EEBA0278521CFA
:10A360000A70F7E7782C002070B504263046FFF716
:10A370002FFF0F4900240A5D0255D20700D1254660
:10A38000641CE4B2B442F6D3425D521E4A5555B144
:10A390004219294412F8012C521C01F8012CBDE885
:10A3A0007040FFF7C9BAC278521CCA70F7E70000C4
:10A3B000782C002030B5024651B101F075FC002127
:10A3C000074C08E034F821301568AB4202D1116027
:10A3D000002030BD491C8142F4D3052030BD00006F
:10A3E000000000002DE9F84F4FF0090B5C460027F4
:10A3F0005120FFF7EDFEDFF8C0A18446002101EBFC
:10A40000C102002002EB0A0904FB01F319F8002045
:10A410000CEB0008042A03F8082001D0062A01D119
:10A420000E460546022A01D17F1CFFB2401CC0B275
:10A43000A042EBD3491CC9B25945E0D3701C04FBC0
:10A4400000F10CEB05000A5C012A7DD04FF0040EF0
:10A450004FF000094FF0030BAAB906EBC60808EB52
:10A460000A0202EB050888F809E004FB06F818F870
:10A470000030042B01D102F8059018F80030062BAB
:10A4800001D102F805B00A5C032A12D106EBC60816
:10A49000D04408EB05020623537204FB06F2135C5A
:10A4A000042B01D108F80590125C062A01D108F8A6
:10A4B00005B00A5C022A3DD1B31C04FB03F20092F2
:10A4C000125CC2B906EBC60303EB0A0253194FF044
:10A4D000020883F809E083F8128004FB06F818F8F4
:10A4E0000030042B01D102F8059018F80030062B3B
:10A4F00001D102F805B0009A125C032A1AD106EBCA
:10A50000C60808EB0A0202EB0508052388F809E0F3
:10A5100088F8123004FB06F87F1E18F80030FFB2EE
:10A52000042B01D102F8059018F80030062B01D158
:10A5300002F805B0095C052937D1B11C04FB01FE06
:10A540001EF80010C9B900E02FE006EBC60303EBCC
:10A550000A0808EB050106224A7202228A7404FBEB
:10A5600006F17F1C0A5CFFB2042A01D108F80590AD
:10A57000095C062901D108F805B01EF8001003296E
:10A5800013D106EBC60202EB0A014A1906235372E5
:10A59000052374439374225C042A01D101F80590C9
:10A5A000205C062801D101F805B06046FFF7C4F928
:10A5B0003846BDE8F88F0000E85D00202DE9FC5F1B
:10A5C0004FF0090B5D4600275120FFF701FEDFF831
:10A5D000FCA1002202EBC20C0CEB0A09002105FBD6
:10A5E00002FC00BF19F8013000EB0108042B0CF845
:10A5F000083001D0062B01D116460C46022B01D1A2
:10A600007F1CFFB2491CC9B2A942EBD3521CD2B283
:10A610005A45DFD305FB0601621E8B5C012B7CD003
:10A620004FF0040E4FF000094FF0030BDBB906EBBF
:10A63000C608D04408EB040300EB040C03F801EC5B
:10A6400005FB06F3CDF800C013F80CC0BCF1040FF5
:10A6500001D108F80490DDF800C013F80C30062B87
:10A6600001D108F804B08B5C032B1DD106EBC608A2
:10A67000D04408EB04034FF0060C03F801CC05FBB3
:10A6800006F300EB040CCDF800C013F80CC0BCF1CD
:10A69000040F01D108F80490DDF800C013F80C3065
:10A6A000062B01D108F804B08B5C022B47D1A31E06
:10A6B0000193CB5CFBB906EBC608D04408EB04035E
:10A6C0004FF0020C03F801EC03F802CC05FB06F393
:10A6D00000EB040CCDF800C013F80CC0BCF1040F63
:10A6E00001D108F80490DDF800C013F80C30062BF7
:10A6F00001D108F804B0019BCB5C032B1FD106EB02
:10A70000C608D04408EB04034FF0050C03F801EC35
:10A710007F1E03F802CCFFB200E051E005FB06F318
:10A7200000EB040E13F80EC0BCF1040F01D108F8C1
:10A73000049013F80E30062B01D108F804B08A5C9F
:10A74000052A3DD1A4F1020E11F80E20EAB906EB5C
:10A75000C60353441A194FF0060C02F801CC4FF00F
:10A76000020C02F802CC05FB06F800EB040C7F1C7F
:10A7700018F80C20FFB2042A01D103F8049018F84D
:10A780000C20062A01D103F804B011F80E10032999
:10A7900016D106EBC60202EB0A010A19062302F8DB
:10A7A000013C052302F8023C75430219AB5C042B03
:10A7B00001D101F80490AA5C062A01D101F804B085
:10A7C000FFF7BAF83846BDE8FC9F0000E85D0020BE
:10A7D0002DE9FC5F4FF0090B5D4600275120FFF784
:10A7E000F7FCDFF8F8A1002202EBC20C0CEB0A091F
:10A7F000002105FB02FC00BF19F8013000EB010845
:10A80000042B0CF8083001D0062B01D116460C465B
:10A81000022B01D17F1CFFB2491CC9B2A942EBD364
:10A82000521CD2B25A45DFD305FB0601621C8B5C79
:10A83000012B7CD04FF0040E4FF000094FF0030BBA
:10A84000DBB906EBC608D04408EB040300EB040CAC
:10A8500083F801E005FB06F3CDF800C013F80CC047
:10A86000BCF1040F01D108F80490DDF800C013F822
:10A870000C30062B01D108F804B08B5C032B1DD1E2
:10A8800006EBC608D04408EB04034FF0060C83F82F
:10A8900001C005FB06F300EB040CCDF800C013F873
:10A8A0000CC0BCF1040F01D108F80490DDF800C021
:10A8B00013F80C30062B01D108F804B08B5C022B86
:10A8C00047D1A31C0193CB5CFBB906EBC608D0446F
:10A8D00008EB04034FF0020C83F801E083F802C098
:10A8E00005FB06F300EB040CCDF800C013F80CC018
:10A8F000BCF1040F01D108F80490DDF800C013F892
:10A900000C30062B01D108F804B0019BCB5C032B63
:10A910001FD106EBC608D04408EB04034FF0050C2A
:10A9200083F801E07F1E83F802C0FFB200E04FE031
:10A9300005FB06F300EB040E13F80EC0BCF1040F88
:10A9400001D108F8049013F80E30062B01D108F855
:10A9500004B08A5C052A3BD104F1020E11F80E20E6
:10A96000EAB906EBC60353441A194FF0060C82F8F5
:10A9700001C04FF0020C82F802C005FB06F800EBA4
:10A98000040C7F1C18F80C20FFB2042A01D103F834
:10A99000049018F80C20062A01D103F804B011F82D
:10A9A0000E10032914D106EBC60202EB0A010A19A4
:10A9B000062353700523937075430219AB5C042B77
:10A9C00001D101F80490AA5C062A01D101F804B073
:10A9D000FEF7B2FF3846BDE8FC9F0000E85D0020AE
:10A9E0002DE9F84F4FF0090B5C4600275120FFF787
:10A9F000EFFBDFF8C8A18446002101EBC102002073
:10AA000002EB0A0904FB01F319F800200CEB000823
:10AA1000042A03F8082001D0062A01D10E46054673
:10AA2000022A01D17F1CFFB2401CC0B2A042EBD36E
:10AA3000491CC9B25945E0D3701E04FB00F10CEB70
:10AA400005000A5C012A7DD04FF0040E4FF000098A
:10AA50004FF0030BAAB906EBC60808EB0A0202EB9B
:10AA6000050808F809EC04FB06F818F80030042B78
:10AA700001D102F8059018F80030062B01D102F838
:10AA800005B00A5C032A13D106EBC608D04408EBD4
:10AA90000502062302F8093C04FB06F2135C042BB2
:10AAA00001D108F80590125C062A01D108F805B01A
:10AAB0000A5C022A3DD1B31E04FB03F20092125C31
:10AAC000C2B906EBC60303EB0A0253194FF00208A2
:10AAD00003F809EC03F8128C04FB06F818F80030B0
:10AAE000042B01D102F8059018F80030062B01D193
:10AAF00002F805B0009A125C032A1AD106EBC608C8
:10AB000008EB0A0202EB0508052308F809EC08F82F
:10AB1000123C04FB06F87F1E18F80030FFB2042B2D
:10AB200001D102F8059018F80030062B01D102F887
:10AB300005B0095C05293BD1B11E04FB01FE1EF8DE
:10AB4000001000E034E0C9B906EBC60303EB0A08C5
:10AB500008EB0501062201F8092C022201F8122C4B
:10AB600004FB06F17F1C0A5CFFB2042A01D108F83D
:10AB70000590095C062901D108F805B01EF80010FF
:10AB8000032915D106EBC60202EB0A014A19062376
:10AB900002F8093C0523744302F8123C225C042AA3
:10ABA00001D101F80590205C062801D101F805B01B
:10ABB0006046FEF7C1FE3846BDE8F88FE85D00202C
:10ABC000F8B50F46017814460546012901D1687889
:10ABD00030B12088821C9A4232D8012902D006E086
:10ABE0000720F8BD69780144891C994228D8181AB1
:10ABF000801E86B2ADF800602188B81C0844694602
:10AC00007DDF0028EDD12978022904D06878BDF8CD
:10AC10000020904205D3BDF80000B04201D80920C1
:10AC20000AE00820012905D16978B14202D8ADF8BF
:10AC3000001001E0ADF80060BDF80010FE2901D958
:10AC40000C20F8BD2288491CB9542188491C89B2BE
:10AC5000218078542088401C2080BDF800100844D2
:10AC600020800020F8BD10B531B1B2FBF3F403FB36
:10AC700014241CB1092010BD0E2010BD016000215C
:10AC8000416081608281C381084610BD70B50C4669
:10AC90000546FBF7BFFA002802D02188286808443F
:10ACA00070BD10B50A8849888A4203D1FBF7F4FACF
:10ACB000012010BD002010BD70B50C460546FBF705
:10ACC000CEFA002802D061882868084470BD10B50B
:10ACD0000A8849888A4203D1FBF7B8FA012010BDDF
:10ACE000002010BD01F01F0301229A40D243490900
:10ACF00000EB8100114600F021B84A0950F822000B
:10AD000001F01F0201219140084000D0012070474E
:10AD100001F01F0301229A40490900EB810011460E
:10AD200000F01CB8002100F00FB8012100F016B8A7
:10AD300008B56A46FBF705FB009808BD08B56A46EA
:10AD4000FBF7E5FA009808BD08B56A46FBF7DFFA9D
:10AD500008BD08B56A46FBF7C1FA08BD08B56A46E2
:10AD6000FBF7C8FA009808BD08B56A46FBF7F6FA83
:10AD7000009808BD38B5044600258DF80050684697
:10AD8000FDF7ECF921686268086890420ED9401E10
:10AD900008600178238AE26801FB0325227A216892
:10ADA000101AC0B20A79824200D208719DF80000E0
:10ADB000FDF7F8F9284638BD38B5054600208DF86E
:10ADC00000000C466846FDF7C9F9E868298A201A90
:10ADD000B0FBF1F12A681068431C136001709DF804
:10ADE0000000FDF7DFF938BDC20800F007030120BD
:10ADF000895C98400840704710B5C20800F007030E
:10AE0000885C01249C402043885410BD28B1A1F1E6
:10AE10001702E12A03D3072070470E2070470180F4
:10AE20000020704710B560B10161F72120F8021BC6
:10AE300020F8021BFB2100F8021BFFF76FF800202F
:10AE400010BD0E2010BD0000F0B5858893B00C46F3
:10AE5000002D39D1018800263F4F24293BD006DC44
:10AE6000102909D011290CD0232958D14FE03A29B3
:10AE70000BD0552953D129E00146204601F0DEFFD1
:10AE80004DE0A01DFFF74AF849E02246408934F81A
:10AE9000061F814200D808466080172800D217207C
:10AEA0006080106970B1607960B1D7E90001CDE9C7
:10AEB0000301ADF80E506088ADF81000136903A9C6
:10AEC000104698476671267113B0F0BD01462046C2
:10AED00002F008F823E0011D2C2206A8FBF796FAE1
:10AEE000BDF81800BDF81C2004EBC0014A732269AC
:10AEF000AAB1D7E90423CDE90423ADF81200487BB9
:10AF00008DF814002269204604A9904707E0017AD1
:10AF1000207B884200D201462846FEF7C9F9A07A74
:10AF20000028D1D0E1882846A5DF012580B111286D
:10AF3000CAD001F09DFA02460848094913B0401AE8
:10AF4000C00805EB0040BDE8F04006A100F03CBEA3
:10AF5000A672E572B8E70000A4030300640F0300C3
:10AF6000640F030073645F626C655F676174746390
:10AF70005F65786368616E67655F6D74755F726544
:10AF8000717565737428292072657475726E6564B5
:10AF90002025732E0000000020B10278DE2A03D0A5
:10AFA000082070470E20704741800020704760B134
:10AFB00059B10278DE2A0AD009684160DE210170A9
:10AFC0004FF6FF714180002070470E207047082027
:10AFD00070477FB5054600294DD0002D4BD008782D
:10AFE0000C46DE2847D1A8886188884202D12046D5
:10AFF00002F0C6FF2888012825D002283BD011285E
:10B000003AD0512837D135F8040F6188884232D1BF
:10B01000A978A81C02292ED1017A042903D0062977
:10B0200001D0052927D10021009102228DF80020AE
:10B0300001914FF4C07202910391ADF80420007A9F
:10B0400005280FD010E0297A2046012913D1A988BC
:10B05000428891420FD10121017204B0BDE87040D5
:10B0600002F08EBFADF8041028886946B0DF0028D2
:10B0700001D0616888477FBDA88861888842FAD17D
:10B080004FF6FF7060807FBD00F1804000680028AF
:10B0900000D00120704708B500F180400021016018
:10B0A0000068009008BD00002DE9F041040007D0C1
:10B0B000044E4FF47A47751C3846A847641EFAD1EF
:10B0C000BDE8F08140F5020070B50B4C207808B166
:10B0D00085250FE00020A06060602061E0600748E7
:10B0E00001F0E6F9054601F01FF908B901F0CAF9C7
:10B0F00001202070284670BD3C8600206991020026
:10B1000038B500258DF800506846FDF727F8074C44
:10B11000E068401EE060E06810B901F0D9F9A57060
:10B120009DF80000FDF73EF838BD00003C86002089
:10B130000FB408B50399002904D004AA00926A4606
:10B1400000F00FF801B05DF814FB10B582680446FA
:10B15000002A05D0D4E90403216898470020A060A4
:10B1600010BD2DE9FC4791460C00804676D014F8BE
:10B17000011B39B125290ED04046FDF76BFE207822
:10B180000028F4D198F80C00002867D04046BDE8AC
:10B19000FC47FFF7DABF0020012221782B291BD0C2
:10B1A0002D2902D0302908D102E040F0010001E051
:10B1B00040F00200641C002AEFD100252A290ED09D
:10B1C0002178A1F130020A2A11D205EB850201EBA8
:10B1D0004205641C303DF1E740F00400EAE7D9F88D
:10B1E00000100B1DC9F800300968641C0D4421785B
:10B1F00000232E290BD114F8011FA1F130020A2AD5
:10B2000005D203EB830201EB4203303BF3E76C29E9
:10B210000DD068290BD0692921D00BDC252918D045
:10B22000582931D063290ED0642915D117E014F8BC
:10B23000011FECE7702969D0732932D075291BD022
:10B24000782909D120E0D9F80000011DC9F80010C3
:10B2500001784046FDF7FEFD641C90E76CE0D9F8EC
:10B2600000100A1DC9F800200968CDE900500A2223
:10B270004046FEF799FDEFE7D9F800100A1DC9F81E
:10B28000002009680A2206E0D9F800100A1DC9F852
:10B29000002009681022CDE90050404602F09CFCD5
:10B2A000DAE7D9F8001000270A1DC9F800200E6857
:10B2B000C00705D112E04046761C7F1CFDF7CAFD91
:10B2C00031780029F7D104E0202140466D1EFDF7BA
:10B2D000C1FDBD42C0D9002DF6D1BDE74EB130460B
:10B2E000FBF7C6F8074604E0202140466D1EFDF737
:10B2F000B1FDBD4206D9002DF6D103E04046761CD3
:10B30000FDF7A8FD31780029F8D1A5E7D9F80000AC
:10B31000011DC9F80010056830214046FDF79AFD6F
:10B3200078214046FDF796FD08200021CDE9000177
:10B33000034610222946B0E7BDE8FC872DE9F84313
:10B34000884605002C482D499946A0EB01004FEA9C
:10B35000D0004FF00101164601EB004424D02868CC
:10B3600000282CD0002E34D0696840464FF01007DA
:10B370000A68511E11EA080F11D10146724328468E
:10B38000FCF79BFD00282ED028684B463246046906
:10B3900001B041462846A446BDE8F0436047204638
:10B3A000174B18A2009722E00E2000902046144B65
:10B3B0001EA220A100F017FC0E20BDE8F883082093
:10B3C000009020460E4B26A21AA100F00CFC08208B
:10B3D000F3E7092000902046094B24A215A100F0B4
:10B3E00002FC0920E9E7064B214A2046009711A1FB
:10B3F00000F0F9FB1020E0E7D40F0300640F030016
:10B40000EB050300616464725F69735F7061676577
:10B410005F616C69676E656428705F66732C20706D
:10B420006167655F6164647229000000705F667324
:10B4300000000000257320636865636B2066616906
:10B440006C656420696E20257328292077697468EB
:10B450002076616C756520307825782E000000001C
:10B46000705F66732D3E705F617069006C656E0081
:10B47000E40B0300044801214174007A08B1002064
:10B480007047012070470000508A0020012801D039
:10B49000032808D10449002201284A7400D0002062
:10B4A000087401F0D9BE7047508A002070B502467A
:10B4B000022801D0032A45D1234C207A002841D00C
:10B4C000012833D0022831D120480023022A006805
:10B4D00002D0032A2AD11BE0E360017911B10129CE
:10B4E00024D10DE0D0E90565711B4FF48056B142BF
:10B4F00000D33146294481614569A9420ED015E047
:10B500000169491C0161426991420FD1237213E024
:10B51000E168491CE160082908D9E3602372022A26
:10B520000AD00D21FEF740F901F03AFE607C28B107
:10B53000BDE8704000F0FEBE0021F3E7BDE87040BA
:10B5400001F08ABE70BD0000508A0020402D00200E
:10B550002DE9F84F90468A463A493B4A0500A1EB4F
:10B5600002014FEAD1014FF00102DDF828901E469A
:10B570004FF00E0002EB01441AD0B8F1000F1CD0BE
:10B580002868002822D00920002E29D0696849683F
:10B59000B6FBF1F201FB1261002926D000902B4B83
:10B5A00020462BA235A100F01EFB0920BDE8F88F34
:10B5B00000902046254B3CA203E00090234B204600
:10B5C0003BA22EA100F00FFB0E20EFE70820009019
:10B5D00020461E4B38A229A100F005FB0820E5E714
:10B5E00000902046194B37A2DCE75046FCF75FFC81
:10B5F000102798B14046FCF75AFCA0B1324651469C
:10B600002846FCF75AFC98B1CDF8009028683346DC
:10B610004246C46851462846A047C7E720460B4B20
:10B6200029A2009708E02046084B2DA2009703E0CE
:10B63000064B204633A2009710A100F0D4FA102048
:10B64000B4E70000D40F0300640F0300D805030023
:10B6500021286C656E202520705F66732D3E705F1B
:10B66000666C6173685F696E666F2D3E70726F679E
:10B6700072616D5F756E6974290000002573206327
:10B680006865636B206661696C656420696E20255E
:10B6900073282920776974682076616C756520307D
:10B6A0007825782E00000000705F667300000000AF
:10B6B000705F737263000000705F66732D3E705F91
:10B6C000617069006C656E00616464725F69735FCC
:10B6D000616C69676E656433322864657374290030
:10B6E000616464725F69735F616C69676E6564331E
:10B6F00032282875696E7433325F7429705F7372F3
:10B7000063290000616464725F69735F77697468BC
:10B71000696E5F626F756E647328705F66732C204C
:10B72000646573742C206C656E29000070B541EA65
:10B730004201DDE904564FF0A04441EA830141EAA9
:10B74000052104EB800041EA0641C0F8001770BDF6
:10B7500070B541EA4201DDE904564FF0A04441EAE8
:10B76000830141EA052104EB800041EA0641C0F86B
:10B77000001770BD70B541EA4201DDE904564FF093
:10B78000A04441EA830141EA052104EB800041EA3B
:10B790000641C0F8001770BD4FF0A04202EB8000D8
:10B7A0000321C0F8001770471CB5002100910B461B
:10B7B000012201911146FFF7B9FF1CBD1CB5002104
:10B7C00000910B46012201911146FFF7D3FF1CBDEA
:10B7D0004FF0A04202EB8000D0F8002722F4403264
:10B7E000C0F80027D0F8002742EA0141C0F800174E
:10B7F00070474FF0A04201218140C2F80C157047FC
:10B800004FF0A04201218140C2F80C1570474FF063
:10B81000A04201218140C2F8081570474FF0A042B4
:10B8200001218140C2F808157047000018B5084B87
:10B830006C4601441B68009306E000BF54F82030BA
:10B84000D3F81035401C08C28142F7D818BD00005B
:10B85000CC030300034908B50844002101600068D7
:10B86000009008BD0060004002494058012800D007
:10B8700000207047006000407047704708B5034AD9
:10B8800000924023024A00F005F808BDB1D602003C
:10B89000648A0020F0B595B01C4615460F46084650
:10B8A0001A9E00F0D3FA182109A8FAF7D6FD0E96D1
:10B8B000CDE909540023082203A9384600F0D9FA3B
:10B8C00005980690BDF81000ADF81C00BDF81200F8
:10B8D000ADF81E0000208DF821000398082600F026
:10B8E0000300012802D0022818D032E00398334622
:10B8F000850AC0F3C2008DF8200003980FA9C0F399
:10B900008314A200384600F0B4FA09A8009006ABF0
:10B9100022460FA9284600F0F5F91AE00398840D95
:10B92000C0F3C2008DF82000082C01D2254600E0AB
:10B93000082533462A460FA9384600F09AFA2E44C5
:10B94000641B09AB06AA29460FA800F055F9002C84
:10B95000EAD1384600F07EFA15B0F0BD0A4A012956
:10B9600002EBC00007D0022907D0032907D0042921
:10B9700007D00020704702207047042070470079EC
:10B980007047407970470000640F03002DE9F04FC5
:10B990008DB0FDF777FA18B100200DB0BDE8F08F3B
:10B9A0007E4C4FF0000BC4F818B4BFF34F8F6068A3
:10B9B0000290A568D846284004EB80000CE000BF48
:10B9C000D4F8180470B921680298814201D86160E6
:10B9D000E2E7284004EB80000C3002A9FEF737FABA
:10B9E0000028EDD1002005AA029901EA050304EB25
:10B9F0008303491CDB6842F82030401C0291022876
:10BA0000F2D3059800F00300022802D001284DD09F
:10BA1000AAE005985022810D8946B2EB905F00D8CC
:10BA200050210E4666F39F50059008315C4800F0A7
:10BA3000C4F9070078D000F009FA4346082205A9A6
:10BA4000384600F01EFA029908F1080A2940681ADF
:10BA50008000001D864222D9504D0C3530B1C2B253
:10BA600004EB8101301A90460C3104E02946F2B211
:10BA7000002590462846C6B25346384600F001FAE3
:10BA80000AEB080325B132462946384600F0F9F999
:10BA9000029909F1030001EB900002903BE004EBF6
:10BAA00081015346324638460C31EFE70598C0F322
:10BAB0008310062800D30620059960F38911C1F38D
:10BAC0008310801C05918100354800F076F907004D
:10BAD0004AD000F0BBF94346082205A9384600F0D9
