:020000040002F8
:1060000070620020C1630200C9630200CB6302001A
:10601000CD630200CF630200D163020000000000E4
:10602000000000000000000000000000D363020038
:10603000D563020000000000D7630200D9630200AC
:10604000E5680200DB6302003D700200916B020014
:10605000DB630200DB63020081670200ED6902007E
:10606000DB630200DB630200DB630200DB63020030
:10607000DB630200DB630200DB630200DB63020020
:10608000DB6302003D690200DB630200DB630200A8
:10609000DB630200DB630200A16C0200DB63020031
:1060A000DB630200DB630200DB630200DB630200F0
:1060B000DB630200DB630200000000000000000060
:1060C000DB630200DB630200DB630200DB630200D0
:1060D000DB630200DB630200DB6302000000000000
:1060E00000000000000000000000000000000000B0
:1060F00000000000000000000000000000000000A0
:10610000000000000000000000000000000000008F
:10611000000000000000000000000000000000007F
:10612000000000000000000000000000000000006F
:10613000000000000000000000000000000000005F
:10614000000000000000000000000000000000004F
:10615000000000000000000000000000000000003F
:10616000000000000000000000000000000000002F
:10617000000000000000000000000000000000001F
:10618000000000000000000000000000000000000F
:1061900000000000000000000000000000000000FF
:1061A00000000000000000000000000000000000EF
:1061B00000000000000000000000000000000000DF
:1061C00000000000000000000000000000000000CF
:1061D00000000000000000000000000000000000BF
:1061E00000000000000000000000000000000000AF
:1061F000000000000000000000000000000000009F
:10620000DFF80CD000F07CF900480047F996020056
:106210007062002030B450E8012F93B2C489234447
:106220008489A34228BF1B1B0489A34202BFBFF37A
:106230002F8F002007E0C3EA020340E80134002C5E
:10624000E9D14FF001000A6030BC704750E8012FDF
:10625000C2EA024240E801210029F7D1704730B478
:1062600050E8022F1FFAA2F3C488A34202BFBFF373
:106270002F8F00200DE0C48923448489A34228BFC6
:106280001B1BC2EA034340E80234002CE8D14FF064
:1062900001000A6030BC704750E8022FC2EA224277
:1062A00040E802210029F7D17047034653E8022F46
:1062B000D988B2EB324F4FF0000017BF92B241EADB
:1062C000014142EA014104E05A68B2EB324F08BF93
:1062D000012043E80212002AE8D1704730B4044696
:1062E00054E8000F0D4644E80053002BF8D1156028
:1062F00030BC704730B4044654E8000F40EA010552
:1063000044E80053002BF7D1156030BC704730B41F
:10631000044654E8000F00EA010544E80053002B4E
:10632000F7D1156030BC704730B4044654E8000F14
:1063300080EA010544E80053002BF7D1156030BC1A
:10634000704730B4044654E8000F00EB010544E800
:106350000053002BF7D1156030BC704730B40446B1
:1063600054E8000FA0EB010544E80053002BF7D1DF
:10637000156030BC704770B404464FF0000054E81C
:10638000006F0D68AE4207BF44E80023012044E8D7
:1063900000630E60002B1CBF0020F0E770BC70474C
:1063A00030B4044654E8000F88422CBF451A054615
:1063B00044E80053002BF5D1156030BC7047000055
:1063C0000648804706480047FEE7FEE7FEE7FEE78F
:1063D000FEE7FEE7FEE7FEE7FEE7FEE7A56C02004C
:1063E000016202002DE9F05F0546002092469B46BF
:1063F00088460646814640241BE0284641464746DB
:10640000224600F06CF853465A46C01A914110D308
:1064100011461846224600F016F82D1A67EB0108BF
:106420004F4622460120002100F00DF817EB00092D
:106430004E41201EA4F10104DFDC484631462A46C5
:106440004346BDE8F09F202A04DB203A00FA02F11F
:10645000002070479140C2F1200320FA03F3194352
:10646000904070470048704750D8020010B5431A5A
:10647000934209D28318881803E010F8011D03F82D
:10648000011D521EF9D210BD40EA01039B0703D043
:1064900009E008C9121F08C0042AFAD203E011F863
:1064A000013B00F8013B521EF9D210BDD2B201E00F
:1064B00000F8012B491EFBD270470022F6E710B509
:1064C00013460A4604461946FFF7F0FF204610BD62
:1064D000421C10F8011B0029FBD1801A7047202AAA
:1064E00004DB203A21FA02F00021704721FA02F37E
:1064F000D040C2F120029140084319467047000085
:10650000064C074D06E0E06840F0010394E8070000
:1065100098471034AC42F6D3FFF776FE34E0020021
:1065200054E0020070B58C1810F8015B15F00703F9
:1065300001D110F8013B2A1106D110F8012B03E01C
:1065400010F8016B01F8016B5B1EF9D12B0705D424
:106550000023521E0DD401F8013BFAE710F8013B6D
:10656000CB1A921C03E013F8015B01F8015B521E89
:10657000F9D5A142D8D3002070BD00000EB50D4959
:106580000D4805F0C9F808B100F0D8FE0B4A07CA5B
:106590008DE807006946002005F046F808B100F0D4
:1065A000CDFE0121064804F0EDFF002801D000F0E7
:1065B000C5FE0EBD3D710200A0CE0200A4D30200B4
:1065C000F22A002010B505F031F9002803D0BDE80B
:1065D000104000F0B3BE10BD034800224FF400513C
:1065E000006800F0F7BE000090CE02002DE9F041F7
:1065F00007460A26102000F09FF800250024FF20FF
:1066000000F0AAF8641CA4B2B442F8D36D1CADB279
:10661000802DF3D3132000F08FF800245FF00005E5
:1066200004FB06F07919405C00F096F86D1CADB2E1
:10663000B542F5D3641CA4B2802CEFD302490120EB
:106640000870BDE8F0810000282B002070B51620EE
:1066500003F0D7FF0A2003F025FC162003F0DFFF2C
:10666000D22000F069F83F2000F076F8002000F01A
:1066700063F86F2000F070F8012000F05DF803204F
:1066800000F06AF8002000F067F82B2000F064F8B2
:106690002B2000F061F8062000F04EF83F2000F0BB
:1066A0005BF82A2000F048F8002000F055F80020A0
:1066B00000F052F8302000F03FF8132000F04CF8C2
:1066C000502000F039F8572000F046F8602000F024
:1066D00033F8222000F040F8612000F02DF850201F
:1066E00000F03AF8802000F037F8822000F024F81B
:1066F000122000F031F8E32000F01EF8332000F003
:106700002BF8232000F018F80A4D0024285D00F033
:1067100023F8641C2A2CF9D3242000F00DF8054D31
:1067200000242A35285D00F017F8641C2A2CF9D3C0
:1067300070BD0000C0D3020010B50446172003F05E
:1067400060FF182003F05DFF204600F089FABDE8E5
:106750001040182003F063BF10B50446182003F062
:106760005EFF182003F04DFF172003F058FF20466E
:1067700000F076FABDE81040182003F050BF00008A
:106780002DE9F04700268AB0DFF85091B0464FF46B
:106790008075012437460696284603F077FF38B106
:1067A000D9F80403204203D0284603F065FF2643AE
:1067B0002D1D64007F1CADB2082FEDD34FF4BE74C5
:1067C000204603F063FF48B1204603F055FF46F032
:1067D000004606AA0121002003F03AFF404D16F0C2
:1067E000FF0F15D00127002437420DD009EB84019B
:1067F000D1F81005D1F81015C0F3042055F8242065
:10680000C1F3014102B190477F00641C082CEBD317
:10681000002E5FDA4FF0FF30CDF8108054E02819D9
:1068200010F8507F90F9000027F0C008401C3BD0C2
:1068300007A9404603F0D7F910B34FEA971940462D
:1068400001F072FF55F820701FB1B9F1030F03D0AA
:1068500006E0B9F1030F27D104A9404603F0CBF9B4
:106860004FF0A04101EB8800D0F8000706A9C0F363
:10687000014A404603F0B7F918B1BAF1020F03D04C
:1068800012E0BAF1030F0FD1B9F1030F08D1BAF139
:10689000020F1DD00221404603F0A2FE761CF6B284
:1068A00017B149464046B847641C042CB7D3002EA4
:1068B00010D06A460121002003F0CAFE0699009814
:1068C000884207D006900498002634460790A6E731
:1068D0000321E0E70AB0BDE8F08700000060004057
:1068E0008837002070B54FF48076304603F0CAFA3E
:1068F000114CB50560B1304603F0CBFA0120C5F864
:106900000803607920B90120607121680020884760
:106910004FF48276304603F0B5FA00280AD03046AC
:1069200003F0B7FA0220C5F808032168BDE87040FB
:106930000120084770BD00004C2B0020024902488E
:10694000091F096800680847A02B00202DE9F041C5
:10695000DFF8908001278CB0054688F8067000208B
:10696000214E02E00A5C3254401CA842FAD30024B3
:1069700005940694022104940A940AAB04AA0846DA
:106980000B9402F097FB020005F103054FF00200A3
:106990004FEA950101940DD007940894CDE9026166
:1069A000ADF80400ADF80600099401A907A802F0AB
:1069B00090FB0EE0CDE90261ADF80400ADF80600F1
:1069C00001A904A802F07DFB08B100F0B7FC02F0B9
:1069D00051FB08B100F0B2FCC8F81C700CB0BDE867
:1069E000F0810000E02A0020283200202DE9FE433B
:1069F0004FF48278404604F0AFF94C4F00254C4CE0
:106A0000012600B3404604F0AFF994F82E0010B10F
:106A100094F82F10D1B18DF800506168019121894F
:106A2000ADF80810E26832B1218B61836260218188
:106A3000E56010B102E0257400E03E602168684620
:106A4000884784F82F5094F82E0060B34FF4807775
:106A5000384604F081F930B3384604F085F9628B8A
:106A600094F82D108A420AD9A2EB010080B260830B
:106A70002289A2EB0000626802EB400005E007D12A
:106A8000E06828B184F82F60658304F053F904E0CE
:106A90008A4202D184F82F606583404604F064F98D
:106AA0002248001D06604FF48877384604F054F9F8
:106AB00048B1384604F058F9257402208DF80000DA
:106AC0002168684688474FF48A77384604F044F9CD
:106AD00028B1384604F048F92574BDE8FE834FF02C
:106AE00000484FF48C7967691DE000BFB7FA87F062
:106AF00028FA00F109EB80058F43284604F02CF9B1
:106B000088B1284604F030F9A5F58C75E8088DF8B1
:106B1000040045F38000401C8DF800608DF80500EE
:106B2000216868468847002FE0D1D6E70070004012
:106B30000838002070B50E46144900EB400001EB08
:106B4000C0051446E86A183520B101280FD0022884
:106B500005D113E0284600F077FAA04201D20024C4
:106B600011E022463146284600F0A6FA0BE02846FE
:106B700000F06AFAA042F4D20446F2E73146284611
:106B800000F06DFA0446204670BD0000E83F00208A
:106B9000F8B51248124E04464FF48C7104F059FBBC
:106BA00000281AD00025C4F81851D4F81801009014
:106BB000F07F3446FF2806D0A17F11B103F028FDF5
:106BC00001E003F033FD65772572D4E9002101B0BF
:106BD00004F10800BDE8F0401047F8BD0030004067
:106BE000E437002000B587B0182003F0E5FC17203B
:106BF00003F0E2FC162003F0DFFC00231B200093CF
:106C00001A461946019303F08FFC182003F007FD84
:106C1000162003F004FD0F4B0DF1080C0FCB8CE890
:106C20000F00FF208DF80B008DF80A001A208DF858
:106C3000090019208DF8080006480023064A02A919
:106C4000B03804F03FFE002801D000F077FB07B019
:106C500000BD000068D40200F9C50200FFF7C2BF02
:106C600010B50C490C4C012308700022627001F52C
:106C70000070C0E90013A0F58071C0E9021201465E
:106C8000064804F0D9FE08B100F058FB60780028EF
:106C9000FCD010BD28340020282B0020B8D30200DF
:106CA00004F042BAF0B5D34AD3494FF08054136888
:106CB000D4F830010978D4F83421451CC1F303110C
:106CC00007D08446164601270025BCF1060F04D0E4
:106CD00013E003F0FF0C0E46F5E7032E05D0042E5B
:106CE00003D0052E01D0062E07D1B4F82463DFF8B7
:106CF0000CC3C6F30426CCF80060DEB2062E06D123
:106D0000032904D1DFF8FCC2BD4ECCF87460461CE8
:106D100006D084464FEA0206BCF1060F04D013E009
:106D200003F0FF0C0E46F7E7032E05D0042E03D028
:106D3000052E01D0062E07D1D4F84462DFF8C8C270
:106D4000C6F34236CCF80060DEB2062E08D1032925
:106D500006D1AE4ED6F800C02CF0807CC6F800C03C
:106D6000461C05D084461646BCF1060F04D014E03C
:106D700003F0FF0C0E46F7E7032E05D0042E03D0D8
:106D8000052E01D0062E08D14FF08046C6F80C51D2
:106D9000C6F810519C4E361F3560DEB2062E08D163
:106DA000032906D1DFF860C203260CF1640CCCF88D
:106DB0000060DEB2062E11D103290FD1DFF850C2D8
:106DC0000526CCF80060924E78363760904E083633
:106DD00035600CF1040C3F26CCF80060461C05D051
:106DE00084461646BCF1060F04D087E003F0FF0C82
:106DF0000E46F7E7032E7CD0042E7FD0052E01D05F
:106E0000062E7BD1834E3668DFF80CC2CCF80060CA
:106E1000804E361D36680CF1040CCCF800607D4EB7
:106E2000083636680CF1040CCCF80060794E0C364C
:106E300036680CF1040CCCF80060764E10363668DB
:106E40000CF1040CCCF80060724E143636680CF16C
:106E5000040CCCF800606F4E18363668DFF8B8C105
:106E60000CF1200CCCF800606A4E1C3636680CF130
:106E7000040CCCF80060674E203636680CF1040C28
:106E8000CCF80060634E243636680CF1040CCCF864
:106E90000060604E283636680CF1040CCCF80060B7
:106EA0005C4E2C3636680CF1040CCCF80060594E60
:106EB00030363668DFF860C10CF1400CCCF8006069
:106EC000544E343636680CF1040CCCF80060514E48
:106ED000383636680CF1040CCCF800604D4E3C3668
:106EE00036680CF1040CCCF800604A4E4036366827
:106EF00000E003E00CF1040CCCF80060461C05D067
:106F000084461646BCF1060F04D011E003F0FF0CD6
:106F10000E46F7E7032E05D0042E03D0052E01D030
:106F2000062E05D1D4F858423C4E04F04F0434608C
:106F3000441C04D003461146062B02D010E0DBB2FD
:106F4000FAE7032905D0042903D0052901D0062931
:106F500006D133490B68DB0702D06FF001030B60E9
:106F600006280CD1032A0AD0042A08D0052A06D004
:106F7000062A04D12B48016841F48061016023484E
:106F80007438016841F470010160BFF34F8FBFF3A3
:106F90006F8F4FF01021D1F80002002803DBD1F8E9
:106FA0000402002822DA204A176020480368002BD8
:106FB000FCD01523C1F800320468002CFCD0C1F8C5
:106FC000043201680029FCD0156001680029FCD05A
:106FD000BFF34F8F0D48F0380168154A01F4E061A6
:106FE00011430160BFF34F8F00BFFDE71249114805
:106FF0000860F0BDE00F00F0E80F00F04035014000
:107000000DF0ADBA00C007403C050040FCED00E0CB
:10701000105600400404001020C50040E40E00405B
:10702000000400403C17004004E5014000E401403A
:107030000400FA050090D003482C002001480068A5
:1070400000470000542B00200269C1688A4203D81F
:107050008068401A104400E0501A401E70472DE925
:10706000F047C4681746894606464FF00008306965
:10707000A04201D9051B02E0B168201A0D1AB068C0
:107080006D1E001BA84200D80546BD4200D33D46F8
:1070900070682A4620444946FFF7E8F9B0687F1B2C
:1070A0002C44A844A944A04200D10024F460002F3D
:1070B000DDD14046BDE8F0872DE9F0410446884621
:1070C000D4E90207C51BE168606816460844B5426A
:1070D00006D94146FFF7CAF9B819E060BDE8F0816A
:1070E0002A464146FFF7C2F9761B08EB05013246F6
:1070F0006068FFF7BBF9E660F0E702E008C8121F1E
:1071000008C1002AFAD170477047002001E001C190
:10711000121F002AFBD170470121202803DA814089
:107120000548014003E0402802DA2038814009B1D7
:107130000120704700207047FC06FFBD10B50446D3
:107140000078002822D10121606804F01BFA08B100
:1071500000F0F4F8606801220023B0F900100C4838
:10716000046AA14201DD427100E04371C4783CB180
:10717000B42901DAC3708370BDE8104004F06CBB21
:10718000038A9942F8DDC2708270F5E710BD0000F5
:10719000E02A002010B5FFF7F1F9BDE81040FFF735
:1071A00011BA800701D00020704701207047C368E2
:1071B0008B4206D811440069491E814201D8012042
:1071C00070470020704790F82400012801D01F204C
:1071D0007047EE20704710B501220221002001F017
:1071E00075F808B1072810D107220221012001F00B
:1071F0006DF808B1072808D100210A22084601F0DD
:1072000065F808B1072800D1002010BD022000F069
:107210005FBF000070B50024064D06E068680121DC
:1072200010F8340004F084F8641C28788442F5D304
:10723000002070BD602B0020F8B516460C460546B0
:107240000A2A01D20720F8BD04F06CF918B904F03D
:1072500033F90028F7D1134F102113487D603C709B
:10726000BE60FFF72AF90020C7E904000F4E0DE0C9
:1072700005EBC4003168009181788DF80110007829
:107280000B4A694604F0A6F80028DCD1641EE4B27B
:10729000EED2BDE8F84005480021064A001D00F086
:1072A0005FB80000602B002058380020E8D40200AE
:1072B0007D930200858B020072B603F01FFC00BFB5
:1072C00003F076FA0028FBD111481249401AC4088D
:1072D000012000EB044010A103F084FB114800687A
:1072E000C00700D000BE022000EB04400EA103F056
:1072F00079FBBFF34F8F0B48E43801680E4A01F465
:10730000E06111430160BFF34F8F00BFFDE7000054
:10731000DCE0020064E00200466174616C2065728A
:10732000726F7200F0ED00E053797374656D207236
:1073300065736574000000000400FA050EB50021B5
:107340000091CDE901106A4644F20100FFF7B4FF55
:107350000EBD0000014801F07CBC0000802B002025
:107360003AB100680129426100D00021016100208A
:10737000704707207047000038B51148082358228D
:10738000416800910F49006802F067FB002815D1A1
:107390000D4A69460D4801F061FC04000ED101213F
:1073A0000A4801F0D2FC0123094A1946074801F0B6
:1073B00028FC0649012008390870204638BD000025
:1073C000F0D40200783800204DC20200802B00204B
:1073D000FFFF7F0070B50446007F0D4608B1002016
:1073E00070BDA26101F0B0FF401941F10001C4E994
:1073F0000201206900B125612146BDE870400020EE
:1074000005F0A6BA014600200877012005F0A0BAD1
:1074100030B5EFF3108172B60D4A9468012324B1A0
:107420000370002900D162B630BD93604FF0E023B5
:10743000D3F88051074C25401560C3F88041D3F83C
:10744000844154605A17C3F8842100220270E8E78F
:10745000D0380020FC06FFBD0B498A68002A11D0F5
:1074600000280FD1EFF3108072B60B684FF0E022C6
:10747000C2F800314B68C2F8043100228A6000284B
:1074800000D162B670470000D038002010B5134A12
:1074900001211348FFF764FF08B1FFF74FFF1048C1
:1074A000104A0121001DFFF75BFF08B1FFF746FFFF
:1074B0000B480D4A01210830FFF752FF08B1FFF7D2
:1074C0003DFF0748094A01210C30FFF749FF00281A
:1074D00003D0BDE81040FFF731BF10BD9571020029
:1074E00090CE020059860200498E02004D860200AD
:1074F00070B51500044609D00020286034B120681A
:1075000020B1A079800703D0072070BD0E2070BD88
:10751000084600F01FFBC0B2142804D02179814234
:1075200003D8042070BD052070BDE288216800FBEF
:1075300002102860002070BD2DE9FC470025178847
:107540000646158090F82D001446894630B13A461B
:107550002146484600F012FB051E09D1B0784FF0D5
:107560000C0A18B32088C846001DB84202D95046FC
:10757000BDE8FC87684679DF0028F9D1208803211F
:1075800008F8001020881921401C80B2208008F8DB
:1075900000102088401C80B2208000EB0801BDF85C
:1075A000000005F0FDF9218808442080F0780222CF
:1075B000C8B1218896F9033001F1030C4846BC4557
:1075C000D5D8425421884FF0010C491C89B2218042
:1075D00000F801C02188491C89B2218009F80130D6
:1075E0002088401C20807068B8B1218890F9003054
:1075F00001F1030C4846BC45B9D8425421880A22FF
:10760000491C89B2218042542188491C89B22180B9
:1076100009F801302088401C2080308950B1CDE924
:1076200000474B460622022106F1080005F07AFACF
:10763000051E9DD1308A50B1CDE900474B46072247
:10764000032106F1100005F06DFA051E90D1308B74
:1076500050B1CDE900474B461522142106F1180020
:1076600005F060FA051E83D1306A30B13B462246F0
:10767000494601F076F9051EDBD1706A30B13B4610
:107680002246494602F00CF9051ED2D196F82C008C
:1076900038B13B4622464946304604F0F7FE051E07
:1076A000C7D1307838B13B4622464946304602F0D1
:1076B00081F9051EBDD128465AE718B504460020B9
:1076C000ADF8000013466A46204600F006F8002890
:1076D00002D0BDF80000204418BD70B5C8B1C2B1D9
:1076E0000024158803E0065D641C3444A4B2A5425E
:1076F00003D8061976789E4201D08C42F3D38C428F
:1077000007D2005DA31C401E9BB280B21C188C42A5
:1077100001D9002070BD138070BD80F83010704713
:107720002DE9F0410D00044606D02CB195F87A0001
:107730000026012803D006E00E20BDE8F08195F870
:107740009800012829D0D5F8A000042825D0D5F824
:107750009C00042821D04FF00108A6702C2205F1CE
:107760007801201DFEF782FE84F83060D5F8A40071
:107770006063D5F8A800A0634FF6FF70A4F8240456
:1077800004F58260C4F82004C4F82664A4F82A64CE
:1077900084F82C64207810B104E00720CDE7FF20A6
:1077A00084F8540004F155072046C4F81074FFF71C
:1077B0000AFDA4F8140404F2144239462846FFF7DF
:1077C000BBFE0028B9D104F23120C4F818042046C9
:1077D000FFF7F9FCA4F81C0404F21C4205F13C007C
:1077E000D4F81814FFF7A8FE0028A6D184F8518019
:1077F000208BA4F8480084F83C80266484F850600C
:10780000606900216064454604F13C02781E72DF25
:10781000002892D1257090E710B50288102A1BD05D
:10782000112A20D0262A1DD1007A0C46012801D029
:10783000022817D1A0780521401CB0FBF1F201FB12
:107840001201204600F03AF800280BD0A16B002965
:1078500008D0BDE810400847C27B012A02D18088C9
:10786000A1F8240410BD0C46002184F82E14808851
:10787000B4F824148842F5D120790028F2D10121EE
:10788000DFE710B5044690F8540074DF012084F857
:107890002E04002084F8300484F85000062120468D
:1078A00001F020FC002808D1A178204600F006F85D
:1078B00010B1A16B01B18847002010BD2DE9F05F28
:1078C000044600780F4698B1A7700025C4F82654E6
:1078D000A4F82A5484F82C54A079012608B1012F69
:1078E00009D0E07980B1012F05D0022F03D00BE041
:1078F0000820BDE8F09F616B21B184F82D64082059
:10790000884701E084F82D5404F2274100200A5CE6
:107910000AB1304603E0401C0628F8D300204FF09F
:1079200002084FF0030B012F06D0022F0CD0032FBB
:107930000FD0042F15D110E0A17929B194F82410AB
:1079400011B908B130460DE0E17911B108B14046F6
:1079500008E0207A08B1584604E0607A08B10420B3
:1079600000E02846A070616B41B1032801D00428D3
:1079700004D1607910B194F82E0498B184F82F5492
:1079800004F13C0018210746FEF797FD84F83C609F
:1079900004F12C0004F00EFA58B194F82C0084F88D
:1079A000510008E084F8305484F82F640720884799
:1079B000E6E784F8516094F8240058B104F12800F7
:1079C00004F0F8F920B194F8280084F8520001E09E
:1079D00084F8526084F85050A27804F2264104F5ED
:1079E00082694FF0060A052A64D2DFE802F07C03C0
:1079F0000F22420084F83160C4F82054C4E9101505
:107A000084F83C808020A4F8480055E084F8318058
:107A100094F82420384612B10722027001E080F861
:107A200000B0228A8281C4F820544160E168B960C4
:107A300042E06069B860208BB88194F824003D462C
:107A40000028204602D084F83CA001E084F83C6085
:107A500005F03AF850B185F814800421204601F071
:107A600041FB38BB052184F8311021E084F831B0A6
:107A70001EE0E069B860208CB88194F824003D468F
:107A80000028204602D084F83CA001E084F83C6045
:107A900005F01AF848B185F814800421204601F059
:107AA00021FB38B984F831A002E0042084F83100C9
:107AB000C4F82094A07878B13A4604F15400D4F880
:107AC000201472DF00287FF414AF94F8301094F87B
:107AD000540073DF0028F6D1616B11B194F83100C6
:107AE0008847002005E784F83150F5E770B50400B9
:107AF00012D001461C221448FEF7B8FC1248134D60
:107B00000560206850B17ADF002806D1206801683E
:107B100029604068686005E00E2070BD0B487BDF7F
:107B20000028FAD108484FF6FF711438084A20F8A7
:107B3000041B0549343901600021FFF711FC0028BE
:107B4000EBD0032070BD0000DC360020442B002069
:107B500061CA020010B5044600F006F808B12046DC
:107B600010BD142010BD0000142801D30020704760
:107B70000146014801F0BBBFFC3600207CB505463C
:107B800008880C460930904201D90C207CBD68461B
:107B90006DDF0028FAD121880820685420881B2135
:107BA000401C80B2208029542088401C80B2208054
:107BB0002844DDF801100160BDF80510818020889F
:107BC000801D80B220809DF80010490800D001215E
:107BD00029542088401C208000207CBDF8B5264C0C
:107BE000054601880026A089212933D00ADC102906
:107BF00012D0112921D013292BD100231A46852117
:107C00007FDF14E03B2933D052292CD0562920D1D4
:107C1000A888132176DF0AE0072000F079FB08B17D
:107C2000FFF78CFBA988A181144802F0B3F8002863
:107C30000FD0BDE8F840FFF781BB4FF6FF70A08181
:107C40002079002805D00D480C3090F8540074DFDE
:107C50002671F8BD0096A88869468FDF0028F8D005
:107C6000FFF76CFBF8BD00231A461946B1DFDEE7CB
:107C7000A888132176DFDAE7E02A0020E82D00202B
:107C800010B51A4C0188606810290ED011292BD12B
:107C9000401E606028D1FFF79EFA002824D021689A
:107CA000002921D0BDE810400847D0B900210122A9
:107CB000084600F00BFB08B107280FD1072202216C
:107CC000012000F003FB08B1072807D1042202219C
:107CD000002000F0FBFA20B1072802D0216801B192
:107CE00088476068401C606010BD00003C2B00208D
:107CF0002DE9F04701883B4E40F2F3194FF6FF752E
:107D000010291BD011293ED0122954D0502946D118
:107D1000C188F289841D914241D1618902293ED1F5
:107D20008688304601F0CCFB050038D004F10C0009
:107D300000F08AF9A8B3294630464EE0C17B878817
:107D4000044601292BD1A846284601F0B9FB0500BD
:107D500017D02F8000202872234843464A460168E6
:107D6000C5F80A104068C5F80E0004F1100105F1CD
:107D70000A0001F01CFC6872F08900280FD1294626
:107D80002AE0042013E0808801F09AFB040006D06A
:107D90006068FFF737FB08B104F048FB2580BDE8B9
:107DA000F087FFE76868FFF72DFB0028F7D0BDE8F4
:107DB000F04704F03BBB87880646384601F080FB5D
:107DC0000400ECD02B464A4606F1080104F10A00F3
:107DD00001F0EDFB607221463846BDE8F04700F047
:107DE00007BE0000DC360020442B00202DE9F04FB8
:107DF000044686880188424897B0834610290CD0F3
:107E0000112950D0103019296AD01A2974D1217A39
:107E10000C09042C4DD301224CE0394D083DA868D3
:107E2000C0430B9069680BA801F082FE0B990CA867
:107E300000F078FD2C220CA96846FEF717FB0027FE
:107E4000E946A84610E000BF09EB47005FF00005D7
:107E5000B0F804A008EB85005146001D01F03CFE7F
:107E60006D1C1E2DF6D37F1C0098B842ECD8142E42
:107E700005D317B00420BDE8F04FFFF75FBA3146D5
:107E8000584601F03FFE314608F1040001F03AFE89
:107E9000E07B012830D017B03146BDE8F04F1848DC
:107EA000001D01F02FBE17B03146BDE8F04F01F0C4
:107EB00013BE0022314601F010F9032C01D3012238
:107EC00000E000220E4831460C3001F006F9022C89
:107ED00001D3012200E0002209483146083006E0C3
:107EE000217A002908D1617AC1F3C002314617B066
:107EF000BDE8F04F01F0F1B817B0BDE8F08F000019
:107F00000037002070B5334D04008EB02DCD08AE83
:107F100086E82D005BD0E9B30868A061214608A877
:107F200062DF002851D1207801258DF83200ADF8AC
:107F30003050A21C0CA92846A8DF002845D12021DA
:107F40006846FEF7BAFA0220ADF8000020788DF8F6
:107F500002008DF80C509DF80D00F426ADF8046079
:107F600040F00C008DF81150ADF806508DF80D0062
:107F70008DF81250608804F10C02694600F0DCFBB9
:107F8000002822D120216846FEF797FA0320ADF899
:107F9000000000E01BE020788DF802008DF80C5006
:107FA0009DF80D008DF81150ADF8046040F0100000
:107FB0008DF81250ADF806508DF80D008DF8135065
:107FC0006088221D694600F0B7FB0EB070BD0E2020
:107FD000FBE70000C4D4020070B588B00446002955
:107FE00024D0002C22D008462188102920D05029E6
:107FF00024D057291AD10546A188406906AAFFF75F
:1080000077FA002812D1069E307800280ED0182169
:108010006846FEF752FA01208DF800000195A0880D
:10802000ADF808000396A9696846884708B070BD96
:1080300008B02146BDE8704003F06CBD08B0214691
:10804000BDE8704003F046BE007800F001007047C4
:108050000149085C704700007CD402000649095CB5
:108060004FF0A040D0F81005C84010F0010000D03B
:10807000012080F0010070477CD402002DE9FC4112
:108080000646C0074FF000050ED0104F0024012215
:10809000385D009500231146019502F057FA641CE3
:1080A000042CF4D300F046F8B0070DD5074E002499
:1080B000361D0022305D032300951146019502F024
:1080C00045FA641C042CF4D3BDE8FC8178D402008A
:1080D00007490B5C4FF0A041D1F8042501209840DE
:1080E00020EA0203C1F808351040C1F80C057047BA
:1080F00078D402000249085C012102F09EBA000017
:1081000078D402000249085C002102F096BA00000F
:1081100078D402000649095C4FF0A040D0F804056D
:10812000C84010F0010000D0012080F0010070472D
:1081300078D4020010B500242046FFF7DBFF641C52
:10814000042CF9D310BD10B500242046FFF7DAFF48
:10815000641C042CF9D310BD10B50246064B4FF039
:10816000FF3000215C5C944201D1084610BD491CDF
:108170000429F7D310BD00007CD4020070B50C4E6A
:108180000C004FF0000530600BD0012000F06AF8C1
:1081900008B1022004E0002000F064F800B10B20D8
:1081A0002070706810B9FFF716F80546284670BDB4
:1081B0003C2B002010B5002000F0DAF908B10628A9
:1081C00006D1012000F0D4F908B1062800D1002022
:1081D00010BD00002DE9F0470D468146FFF7BCFFBA
:1081E0000446042836D2DFF874801B481C4EA8F1E0
:1081F0000C0725B3012D0ED0022D2BD104EB44002A
:1082000030444578002D25D0B968002922D0284671
:10821000BDE8F047084704EB4401755C0E447178F3
:1082200049B10E4A4FF48041093A8068FFF7D2F80D
:1082300008B987F80390B17808F80410E2E780687D
:10824000FFF7E0F804EB4401314418F804008D789E
:10825000A842D7D0BDE8F08780D40200382B002098
:1082600078360020042801D2FFF7F8BE00207047BE
:108270000146144810B58089042910D0072917D069
:108280000A291ED1002000F043F808B1FFF756F884
:10829000FFF790FF08B1FFF751F833DF02E0132139
:1082A00076DF0CE000280CD0BDE81040FFF746B8A0
:1082B000A0F57F41FF3904D10348FFF7E2FA08280F
:1082C000F0D110BDE02A0020F42D002070B500236D
:1082D000042810D20D4D00EB4004012A02D10129DF
:1082E0000CD00022094E00EB4000304461B101295E
:1082F00006D0022906D00723184670BD0E30C2B240
:108300002A55F9E74270F7E78270F5E778360020E2
:108310000020704770B506461E480024C0E9016180
:10832000B00720D50025012211462846FFF7CEFFD1
:108330006D1C0446042D02D2002CF4D013E094B935
:1083400040F2333204211448FEF776FF04000AD1CC
:10835000FEF760FF040006D10F48104A0021001FFD
:10836000FEF7FEFF0446F00712D00120FFF786FE5D
:1083700074B909480A4A00210C38FEF7F1FF0400DD
:1083800006D10548074A01210838FEF7E9FF0446EF
:10839000204670BD2C2B00208CD40200BD8602002C
:1083A000319602000D7202002DE9F05F6E4C054619
:1083B00000266078B34618B184F801B001F020F9C6
:1083C0006A4F4FF47A694FF4C87A4FF00108182DBC
:1083D00069D2DFE805F00C1313384754696E727BDD
:1083E000727BC58484848484B3B6B9BCC5C501F0EE
:1083F00007F93868FFF706F806465CE00020FFF74B
:1084000089FE00284FF0000008D0FFF773FE022D10
:1084100002D14FF4E16008E0484606E0FFF772FE43
:10842000022D01D1C82000E05046410CC0034FF49A
:108430007A72801841F10001257052000023FDF787
:10844000D1FF01462AE00020FFF764FE00284FF02C
:10845000000004D0FFF74EFE4FF44870E5E7FFF749
:1084600051FEDFE70020FFF755FE00284FF0000027
:1084700002D0FFF73FFECFE7FFF744FED4E700202E
:10848000FFF748FE00284FF0000002D0FFF732FE51
:1084900001E0FFF737FE257040F6CD410022386835
:1084A000FEF798FF064646E00020FFF711FE257014
:1084B00008E0002051E025703DE084F801800120B3
:1084C000FFF706FE002240F26661E8E784F80180CB
:1084D0000120FFF7FDFD00224FF40051DFE778682F
:1084E000FEF790FF0646D5F1110000D02EB1022014
:1084F000FFF700FE84F802B01DE0012816D980B213
:10850000C8214843C117C90341EA5041C0034FF491
:108510007A72801841F1000152000023FDF762FFDA
:10852000014600227868FEF755FF06460220FFF755
:10853000E9FD84F802803046BDE8F09F01F060F864
:10854000B9E701F05DF8B4E701F05AF804E001F092
:1085500057F80020FFF7D6FD0120FFF7D3FDAAE76B
:10856000FFF7F1FDA7E700002C2B002080D40200CC
:10857000012104F03EBB00002DE9F8430546861CAE
:1085800000208DF8000090460F464FF00109684624
:10859000FEF73EFF1B4C20683860D4E90001401A0A
:1085A000A16804F21C47081A0EE00121384601F0C8
:1085B000B9FA01F053F80146384601F0B3FAD4E9AC
:1085C0000001401AA168081A401C8642EDD8B8F193
:1085D000000F03D0052065F3891002E0062065F343
:1085E0009F50A2682168114004EB8101C860206897
:1085F000304420609DF80000FEF72EFF4846BDE89D
:10860000F8830000C43B002070B50D4604460A29DB
:1086100002D10D21FFF7F8FFA0682268411CA1607C
:108620001554D4E90101814204D32046BDE87040CD
:1086300001F089BC70BD0000034803C8814201D12C
:108640000120704700207047C43B002001490120F1
:1086500008727047E02A002010B54FF0A040D0F813
:108660001015C90E11F0010F0ED01021C0F80C1515
:1086700006490020C8710870FEF7F0FA0448406807
:10868000BDE81040FEF7BEBE10BD0000E02A00208D
:1086900090CE0200034630B50748002104784268B6
:1086A00006E000BF02EBC10005789D4203D0491CE3
:1086B000A142F7DB002030BD602B002000780221B2
:1086C000FFF788BD05494FF0FF32082841F8202008
:1086D00002D3084480F84820704700008837002003
:1086E000F0B54FF0FF3512B10023082601E0082352
:1086F0000C260C4C05E000BF54F823707F1C04D0FE
:108700005B1CB342F8D32846F0BD26185DB286F84C
:10871000305044F82310002AF5D1E11881F84800C0
:10872000F1E70000883700200249084490F9300042
:1087300070470000883700202DE9F0438146887893
:1087400091B090460C4600B901208DF83E0020887B
:10875000ADF83C0000250095607C694603F0DAFE28
:108760006E46A07C711C03F0D5FEE07B00289DF8CE
:10877000020002D040F0080001E020F008008DF86F
:108780000200217C11B140F0100001E020F0100047
:108790008DF80200217B11B140F0010001E020F0D2
:1087A00001008DF80200217D09B1022100E00121C4
:1087B00061F342008DF802001C2102A8FDF77DFE46
:1087C000607BC10601D4800617D50E950EAFE07C04
:1087D000791C03F09FFE9DF83800079720F00F00EA
:1087E000401C20F0F00010308DF838009DF83A0061
:1087F00020F00600801C8DF83A00607B8DF80800A0
:10880000A07B8DF80900142109A8FDF756FE0FA8DA
:10881000CDE90906A088ADF83000A06820B1E08855
:10882000ADF82C00A0680D90A06998B30195008860
:10883000ADF81000A06901AD01A94088ADF81200A3
:10884000A069406806950390A069007B03F062FE72
:10885000A069691C407B03F05DFEA069807A002856
:108860009DF8060002D040F0080001E020F008006A
:108870008DF80600A169C97A11B140F0100001E03D
:1088800020F010008DF80600A169097A19B140F0B6
:10889000010002E00DE020F001008DF80600A16962
:1088A000897B09B1022100E0012161F342008DF8CA
:1088B0000600E06900B10590434609AA02A94846AE
:1088C000AADF11B0BDE8F08370B5084C050009D0EF
:1088D00010342168002907D00868206049682846BC
:1088E0008847F6E70834F4E770BD000074370020CD
:1088F000054A012120B1012805D19170FFF7E4BF9D
:1089000051700020FAE770477437002010B5D0E9A5
:108910000234D1E90220D11AA04101D3012010BDB7
:10892000002010BD73B58CB00646002000900D9855
:1089300080B100246D4621460DA801F0D8F830B171
:10894000009805EB400084800098401C0090641C57
:10895000142CF0D32C2269463046FDF787FD0EB06B
:1089600070BD2DE9F04117880646B81D14460D4626
:10897000984202D90C20BDE8F081318807220629EF
:108980000AD34FF4486C4FF6FF73614501D9994201
:1089900002D17088062801D21046ECE7604501D963
:1089A0009842F9D1994203D0984201D08142F3D83C
:1089B0000520E85520881221401C80B220802954CF
:1089C0002088401C80B220804119308803F0E8FFE5
:1089D0002188084480B220804119708803F0E0FFAC
:1089E0002188084420800020C5E7FEF7A7BC0000CE
:1089F00038B54A7A0F4B62B100220A7259690029D0
:108A000006D001228DF80020ADF8020068468847A4
:108A100038BD0A7A62B19B684C6802461946204606
:108A2000FEF7D8FC0028F3D0BDE8384003F0FEBCC8
:108A30005B68F1E7DC36002070B588B006460020A0
:108A400005900690ADF81410ADF816100190029044
:108A500001AA05A9304690DF050021D002F01AFCDA
:108A60000346114811493246401AC108012000EB63
:108A7000014004460E4901F0C0FFBDF8042012B9C0
:108A8000BDF8060028B1BDF80630204609A101F066
:108A9000B4FFBDF808201AB12046164901F0A6FF20
:108AA00008B0284670BD000064E0020064E00200E7
:108AB00054D80200546865207265717565737465D9
:108AC000642054582F5258207061636B6574206C79
:108AD000656E67746820697320746F6F206C6F6EA9
:108AE000672062792025752F2575206F6374657462
:108AF000732E0000A0D802002DE9FF410C4620B1E2
:108B00004FF4064004B0BDE8F0812079002748F218
:108B1000096538B141F61D5601281BD0022826D020
:108B2000681DEFE70220207102970397E06801902B
:108B3000694601A803F0EEFA50B102988188E180FD
:108B400000882081BDF80010029803F061FBD9E78E
:108B50002846D7E70A4B6A460021A01D03F092FA87
:108B600038B1074918398F61CF61A842CAD1304660
:108B7000C8E703488188019803F04AFBF5E7000045
:108B8000C82B002070B500240F4D10E0686800EB82
:108B9000C406307802F086FC7178012901D00121E9
:108BA00000E000214140307800F0EAF9641C2878A8
:108BB0008442EBDBD5E90401084303D0BDE87040F3
:108BC00003F0E2BE70BD0000602B002010B5002154
:108BD000024800F0BDFF80F3100010BDE03F002010
:108BE0004FF480328A400168C1F848230068C0F819
:108BF000082370474FF4A07202EB810189B200F0A4
:108C00002FBA2DE9F04105460E464FF4A07000EB57
:108C1000860081B228684FF48034B440984622F030
:108C20007F47C0F808432868C0F84843286802F026
:108C30007BF8286800EB8600C0F840752868C0F80B
:108C40004443B8F1000F02D02868C0F80443BDE8DF
:108C5000F0810068D0F804057047000070B54379D2
:108C6000224C44F823204279241D04EBC202204BFD
:108C70001579204A9A1AD3082DB10824022000EB56
:108C800003401DA12EE002680D88C2F8085590F936
:108C900004208978002A4FEA411106DA02F00F0217
:108CA00002F1E02282F8141D03E002F1E02282F8D2
:108CB000001490F90410012201F01F0502FA05F5D5
:108CC0004909890001F1E021C1F80051417904EB23
:108CD000C1010A71417944F831000320002400EBFE
:108CE00003400EA101F07EFE204670BD9C2B0020AB
:108CF000BCE0020064E0020052544320696E7374C9
:108D0000616E636520616C726561647920696E696A
:108D10007469616C697A65642E0000005254433AAC
:108D200020696E697469616C697A65642E0000005F
:108D300090F90400012100F01F02914040098000D9
:108D400000F1E020C0F8001270470A46022100F04E
:108D50000DB94FF4827100F083B900680121016000
:108D6000704700680121416070472DE9F05F0746B8
:108D70000C464FF4A07000EB84001FFA80FA3868AC
:108D80004FF48036A6409B4622F07F45C0F84863EA
:108D90003868C0F808633868D0F8048500EB8402AE
:108DA000D2F84095C2F840855146386801F0BCFFC2
:108DB000A9EB080020F07F40012806D1102002F026
:108DC000AFFA5146386801F0AFFF3868D0F8048533
:108DD000C0F84463A5EB080121F07F413868012900
:108DE00000EB840010D0C0F840553868D0F8041566
:108DF0006FF07F4C6A1A521E22F07F42ACEB0B03DD
:108E0000934217D362B118E06D1CC0F84055102092
:108E100002F086FA3868D0F8040540450AD10CE023
:108E200000EB84006D1CC0F840553868D0F804058C
:108E3000884202D00D20BDE8F09F0122314638461D
:108E400000F094F80020F6E710B54FF0A040D0F8FD
:108E50001005C00E10F0010F0FD108488068FEF712
:108E6000D1FA0748816911B1012904D101E001213A
:108E700000E0022181610021417010BD90CE02000E
:108E8000E02A002010B503780022072B06D2DFE885
:108E900003F005040610202930000A7010BD0123DC
:108EA0000B7003898B818388CB81C06888600A74CA
:108EB00010BD02220A7002898A818288CA81C26832
:108EC0008A60807D062802D00020087410BD012031
:108ED000FBE703220A70C2888A810289CA81C068BE
:108EE000886010BD04230B70C0888881CA818A60A5
:108EF00010BD0520087010BD70B5064D0646002453
:108F000055F8241009B130468847641C042CF7D367
:108F100070BD00000439002030B50446006887B0F9
:108F20000D46806800281FD018216846FDF7C5FA55
:108F30000195A0680590207910B1012810D107E0B3
:108F400001208DF8000020690290E068039005E0A0
:108F500002208DF80000E068000302906069049030
:108F6000206881686846884707B030BD0368C3F849
:108F70004413002A02D00068C0F8041370470000B0
:108F80002DE9F84F0E463449804601EB5001C007E9
:108F9000097801D00F0901E001F00F074FF0000937
:108FA000424601204946FDF74EFADFF8B0A00446DC
:108FB0000D46052F4ED2DFE807F003161B282C00C4
:108FC000002E47D00121404603F0FCFB8DF80090B5
:108FD0006846FEF71DFA5046D0E904120C431543CB
:108FE000CAE9044532E00EB1022114E0002112E08A
:108FF0004EB10321404603F0E5FB4046BDE8F84F83
:10900000012103F07FBD012105E0002E22D10421C2
:1090100001E02EB103214046BDE8F84F03F0D2BB7A
:109020000021404603F0CEFB0021404603F06AFDDC
:109030008DF800906846FEF7EBF95046E243D0E920
:1090400004341A4024EA0501CAE904219DF800000D
:10905000FEF702FABDE8F88F58380020602B002098
:1090600010B5006842581AB101F05EFE012010BD33
:10907000002010BD0D4808B5007888B1684602F0A0
:1090800031FF80B106210170684602F039FF0848BF
:10909000017809B10121C17302F0E6FF002008BD8B
:1090A00048F2016008BD48F2076008BDD02B0020DF
:1090B000043A00201FB501A9684602F0E3FF04B09E
:1090C00010BD18B10323002203F0B0BD48F20460C4
:1090D00070470223002203F0A9BD0AB100F012BDBF
:1090E00000F0FABC70B50D460446B0F81414D0F880
:1090F00010040122FEF7E1FA00B1057004F13C0210
:1091000004F5826104F1540072DF70BD406802F022
:1091100009BF000006484A8883899A4207D10A8815
:10912000A2F52063773B02D18988C91EC1817047AF
:10913000E02A002010B50949094800F072FD08B185
:10914000FEF7FCF8F721064800F05FFD002803D089
:10915000BDE81040FEF7F2B810BD00001591020006
:10916000D42D002070B510B14FF4064070BD1A4CDC
:109170000025E07B08B1E57301E000F0A1F820785C
:10918000082826D2DFE800F02504080C102514205A
:10919000BDE8704000F022B8BDE8704000F07EB835
:1091A000BDE8704000F060B8BDE8704000F03CB829
:1091B0006088094900EB8000643901EB8000406859
:1091C000BDE8704002F0D6BD6560BDE8704002F0B9
:1091D000DFBD48F20E6070BD043A00201149F0B4C2
:1091E0008A1C00200346A1F164050C18A67A4EB132
:1091F000A37200EB800405EB8404E66816B9247CB6
:10920000012C0AD0401C80B20528EED30B704B8095
:109210004B60F0BC41F61D5070471080F0BC00F070
:109220003DB80000043A00200C48418801EB81025F
:10923000A0F1640101EB8201CA6852B105210170FD
:10924000074802218180016800230222054800F0BE
:1092500073BF042202704968F6E70000043A002058
:10926000D82B00204C2C002038B50A49084803248C
:109270000B684268898803EB810153880470DB1C0A
:1092800000201B0400909B0B034801F05FF838BDE1
:10929000043A0020D82B00204C2C0020074910B5A0
:1092A0004888091D02F086FF18B1BDE81040FFF79D
:1092B000DBBFBDE81040FFF7B7BF0000043A002055
:1092C000F0B51F481F490125067802248B88A0F1BC
:1092D0006402082E19D2DFE806F00418181B222FAA
:1092E0002F170189491C01810021418080F80F104E
:1092F00001EB810312F8233043B100234418491CC9
:1093000089B2A3720529F3D30570F0BD0123F5E7F7
:1093100042685288D21C1A448A800470F0BD468884
:109320000D6806EB860602EB860256680E605560F5
:1093300013818C80062100E007210170F0BD000040
:10934000043A0020D82B002010B50B48FFF781FC11
:10935000094A083AD2E90434C018D2E9063244F185
:109360000001C31A71EB020204D24FF08072801820
:1093700041F1000110BD0000802B002010B5C0B2EB
:10938000FFF788F90446007802F08CF8014660780F
:10939000012801D0012000E0002090EA010F08D050
:1093A0000449D1E90401084303D1BDE8104003F0AA
:1093B000EBBA10BD602B0020428800EB82020C3219
:1093C0008A4201D9022070478188A1F57F42FF3A85
:1093D00006D0018821B18068401C01D00020704770
:1093E00001207047884204D20068401C01D001204F
:1093F00070470020704700002DE9F0412D4F0025F7
:1094000020B17D604FF40640BDE8F081087901226B
:1094100058B1294E01280CD0264C4FF002080834D0
:10942000022820D0032841D127E00A7102F0B0FCC5
:109430003AE0002000EB800116F82110022908D044
:10944000401C80B20528F5D33A707D6041F61D506E
:10945000DAE700EB800006F8205006EB8000406859
:1094600002F088FC20E00D71A4F8048000230222A1
:109470001248216800F060FE16E00D71206802F0CD
:1094800079FC0D4923686431498801EB810206EBC0
:109490008201D1F804C0C4F800C04B60A3880B81DE
:1094A000A4F8048006F822500028ADD07D6048F270
:1094B0000D60A9E7D02B0020A03900204C2C002003
:1094C0000146034802888A4200D00020704700000D
:1094D000C83600202DE9FC5F0E008346DDE90C470D
:1094E000C6F1000098469246814600D40846012500
:1094F00003E000BF90FBFAF06D1C5045FADAA84576
:1095000000D9454624B1002E01DB780700D5641E42
:10951000B80702D5B8F1000F0AD0F80708D13CB15E
:10952000A54205D220215846641EFFF76DF8F6E7E4
:10953000002E02DA4E462D2102E0780703D52B21BA
:109540005846FFF761F807F0030002280BD1B8F185
:10955000000F08D13CB1A54205D230215846641E07
:10956000FFF752F8F6E7CDE9004743465246314649
:10957000584603F01BFABDE8FC9F02460020126823
:10958000530713D502F00300012802D002280CD1A2
:1095900005E0C2F383100B68801C184404E002232A
:1095A000086803EB92521044086001207047F0B540
:1095B0008488A518944200D82246A41AC288D618D6
:1095C0009A4200D81346D21A4B880788BB420CD364
:1095D0004088834209D88888A04206D3A84204D88C
:1095E000C888904201D3B04201D90020F0BD0120CB
:1095F000F0BD800701D000207047012070470000B7
:109600000A4810B5807860B1002401E0022C06D031
:109610002046FEF76FFD641C042CF7D310BD032415
:10962000F6E7BDE81040FEF785BD00002C2B0020BA
:1096300003480179C90702D00078FEF7B5BE70472C
:109640002C2B0020F721018017214180002101717E
:109650004171FB2181711B21C17170472DE9FF41CF
:109660000026234800F05BFA2148001F074600F05F
:1096700056FA204C60680090A56800E000986946A2
:10968000284004EB80000C30FFF777FF0028F5D16D
:1096900001AA009901EA050304EB8303491CDB6876
:1096A00042F82030401C00910228F2D3019800F0CB
:1096B000030001280BD0022810D10198032101EBEF
:1096C00090500099BDF80A6001EB900005E0019808
:1096D000BDF80A60C0F3831008440090384600F0DB
:1096E0001BFA08B10098606004B03046BDE8F08114
:1096F000DC3F0020C43B0020ACB0FDF73DFE08B1CC
:10970000FDF71CFE57490320FEF704FE08B1FDF7E4
:1097100015FE69460020FEF731FD08B1FDF70EFE8B
:1097200001F0CAFA08B1FDF709FE01F0C3FC08B167
:10973000FDF704FE002469460120009401F030FB8F
:1097400008B1FDF7FBFD684601F0C2FB08B1FDF76B
:10975000F5FD9DF8080044A120F00F00401C20F00A
:10976000F00010308DF80800162202A87CDF08B146
:10977000FDF7E4FD0094F020ADF800004FF4167002
:109780000194ADF80200ADF804404FF4C870ADF894
:10979000060068467ADF08B1FDF7D0FDFFF7CAFC86
:1097A0003748019001A9374800F0FFFA08B1FDF7EA
:1097B000C5FD3548009069463448FEF7A3FB08B163
:1097C000FDF7BCFDAC216846FCF777FE02208DF862
:1097D00000008DF8024005208DF803000120ADF84F
:1097E0004C002A498DF87C004FF4486014392290CF
:1097F000149144F2506023902548299021486946ED
:109800000C30FDF78DFF08B1FDF798FD1D480121D3
:109810000C30FDF782FF1C216846FCF74EFE4FF42A
:10982000A030CDE900404FF4F02002901948059097
:10983000032519488DF80C500690ADF80E408DF8B0
:1098400010406846FEF752F908B1FDF777FDFDF7C5
:109850001DFE1248C0F80057FCF7BEFE02F030FFB4
:10986000FCE70000718202004D6F74696F6E2D502D
:109870006F77657265642045696E6B54616700009F
:1098800025AD0200E82D00209DBA0200082B002023
:10989000CDBA0200F9BA0200EB89020010000050B4
:1098A00070B5144682880E4605462088111D014475
:1098B000921C994201D8FE2A01D90C2070BD521C7D
:1098C00032542088FF21401C80B2208031542088EF
:1098D000401C80B220808119288803F061F821881B
:1098E000084480B22080AA8842B1A96841B13044BE
:1098F000FCF7BCFD2088A98808442080002070BDAA
:10990000072070BD2DE9F047C5881E1DB6FBF5F791
:109910008946B6FBF5F1044605FB176C40791668DD
:109920006843DDF820A0F718001F874200D9C61A47
:10993000166001E02468491E0029FBD1A5EB0C0745
:109940008846B74216D818E004EB0C00001D09EB5E
:109950000803BAF1000F3A4602D00146184600E06B
:109960001946FCF783FD2468F61B4FF0000CB84441
:10997000B54201D9374600E02F46002EE4D1BDE8BC
:10998000F087000030B5024651B101F09FF8002188
:10999000074C08E034F821301568AB4202D1116061
:1099A000002030BD491C8142F4D3052030BD0000A9
:1099B00000000000F8B50F4601781446054601295D
:1099C00001D1687830B12088821C9A4232D80129AE
:1099D00002D006E00720F8BD69780144891C99424D
:1099E00028D8181A801E86B2ADF800602188B81CED
:1099F000084469467DDF0028EDD12978022904D08A
:109A00006878BDF80020904205D3BDF80000B04250
:109A100001D809200AE00820012905D16978B1425E
:109A200002D8ADF8001001E0ADF80060BDF80010FC
:109A3000FE2901D90C20F8BD2288491CB95421887F
:109A4000491C89B2218078542088401C2080BDF8B0
:109A50000010084420800020F8BD10B531B1B2FBE1
:109A6000F3F403FB14241CB1092010BD0E2010BD1B
:109A700001600021416081608281C381084610BD80
:109A800070B50C460546FCF7C5FB002802D02188BE
:109A90002868084470BD10B50A8849888A4203D1F5
:109AA000FCF7FAFB012010BD002010BD70B50C467C
:109AB0000546FCF7D4FB002802D0618828680844DA
:109AC00070BD10B50A8849888A4203D1FCF7BEFBF5
:109AD000012010BD002010BD01F01F0301229A409B
:109AE000D243490900EB8100114600F021B84A0930
:109AF00050F8220001F01F0201219140084000D0DF
:109B00000120704701F01F0301229A40490900EB30
:109B10008100114600F021B8002100F014B80121A5
:109B200000F01BB808B56A46FCF70BFC009808BDAE
:109B300008B56A46FCF7EBFB009808BD08B56A4615
:109B4000FCF7FFFB08BD08B56A46FCF7E0FB08BD63
:109B500008B56A46FCF7C2FB08BD08B56A46FCF7C3
:109B6000C9FB009808BD08B56A46FCF7F7FB0098EA
:109B700008BD38B5044600258DF800506846FDF74D
:109B800047FC21686268086890420ED9401E086050
:109B90000178238AE26801FB0325227A2168101AE2
:109BA000C0B20A79824200D208719DF80000FDF728
:109BB00053FC284638BD38B5054600208DF8000016
:109BC0000C466846FDF724FCE868298A201AB0FB99
:109BD000F1F12A681068431C136001709DF80000C1
:109BE000FDF73AFC38BDC20800F007030120895C8C
:109BF00098400840704710B5C20800F00703885C21
:109C000001249C402043885410BD28B1A1F11702C3
:109C1000E12A03D3072070470E20704701800020FF
:109C2000704710B560B10161F72120F8021B20F8E0
:109C3000021BFB2100F8021BFFF704FD002010BDF2
:109C40000E2010BDF0B5858893B00C46002D39D19B
:109C5000018800263F4F24293BD006DC102909D07B
:109C600011290CD0232958D14FE03A290BD055297E
:109C700053D129E00146204601F082FF4DE0A01DAE
:109C8000FFF7E0FC49E02246408934F8061F814294
:109C900000D808466080172800D21720608010691D
:109CA00070B1607960B1D7E90001CDE90301ADF889
:109CB0000E506088ADF81000136903A9104698474C
:109CC0006671267113B0F0BD0146204601F0ACFF6D
:109CD00023E0011D2C2206A8FCF7C8FBBDF81800E4
:109CE000BDF81C2004EBC0014A732269AAB1D7E970
:109CF0000423CDE90423ADF81200487B8DF814004D
:109D00002269204604A9904707E0017A207B884217
:109D100000D201462846FEF78FFEA07A0028D1D057
:109D2000E1882846A5DF012580B11128CAD001F0BD
:109D3000B1FA02460848094913B0401AC00805EBB9
:109D40000040BDE8F04006A100F050BEA672E572EA
:109D5000B8E70000ACD4020064E0020064E0020056
:109D600073645F626C655F67617474635F65786379
:109D700068616E67655F6D74755F72657175657337
:109D80007428292072657475726E65642025732E9F
:109D90000000000020B10278DE2A03D008207047BE
:109DA0000E20704741800020704760B159B10278A1
:109DB000DE2A0AD009684160DE2101704FF6FF718A
:109DC0004180002070470E207047082070477FB503
:109DD000054600294DD0002D4BD008780C46DE28D2
:109DE00047D1A8886188884202D1204602F078FED7
:109DF0002888012825D002283BD011283AD05128A4
:109E000037D135F8040F6188884232D1A978A81C6F
:109E100002292ED1017A042903D0062901D005296F
:109E200027D10021009102228DF8002001914FF4EA
:109E3000C07202910391ADF80420007A05280FD07A
:109E400010E0297A2046012913D1A988428891423D
:109E50000FD10121017204B0BDE8704002F040BE94
:109E6000ADF8041028886946B0DF002801D0616889
:109E700088477FBDA88861888842FAD14FF6FF7075
:109E800060807FBD00F180400068002800D0012084
:109E9000704708B500F18040002101600068009023
:109EA00008BD00002DE9F041040007D0044E4FF436
:109EB0007A47751C3846A847641EFAD1BDE8F08180
:109EC000B0D3020070B50B4C207808B185250FE0A7
:109ED0000020A06060602061E060074801F0FAF9AE
:109EE000054601F033F908B901F0DEF901202070D0
:109EF000284670BD74370020F188020038B500256F
:109F00008DF800506846FDF783FA074CE068401E64
:109F1000E060E06810B901F0EDF9A5709DF800006F
:109F2000FDF79AFA38BD0000743700200FB408B569
:109F30000399002904D004AA00926A4600F00FF8A1
:109F400001B05DF814FB10B582680446002A05D004
:109F5000D4E90403216898470020A06010BD2DE9D2
:109F6000FC4791460C00804676D014F8011B39B1AD
:109F700025290ED04046FEF747FB20780028F4D173
:109F800098F80C00002867D04046BDE8FC47FFF772
:109F9000DABF0020012221782B291BD02D2902D0E5
:109FA000302908D102E040F0010001E040F0020059
:109FB000641C002AEFD100252A290ED02178A1F1B6
:109FC00030020A2A11D205EB850201EB4205641C1E
:109FD000303DF1E740F00400EAE7D9F800100B1D2E
:109FE000C9F800300968641C0D44217800232E292B
:109FF0000BD114F8011FA1F130020A2A05D203EB9C
:10A00000830201EB4203303BF3E76C290DD0682952
:10A010000BD0692921D00BDC252918D0582931D043
:10A0200063290ED0642915D117E014F8011FECE75D
:10A03000702969D0732932D075291BD0782909D1AC
:10A0400020E0D9F80000011DC9F800100178404651
:10A05000FEF7DAFA641C90E76CE0D9F800100A1DEC
:10A06000C9F800200968CDE900500A224046FFF7F0
:10A0700031FAEFE7D9F800100A1DC9F80020096885
:10A080000A2206E0D9F800100A1DC9F80020096864
:10A090001022CDE90050404602F088FCDAE7D9F8FA
:10A0A000001000270A1DC9F800200E68C00705D15E
:10A0B00012E04046761C7F1CFEF7A6FA3178002994
:10A0C000F7D104E0202140466D1EFEF79DFABD4207
:10A0D000C0D9002DF6D1BDE74EB13046FCF7F8F9F6
:10A0E000074604E0202140466D1EFEF78DFABD4272
:10A0F00006D9002DF6D103E04046761CFEF784FA1F
:10A1000031780029F8D1A5E7D9F80000011DC9F878
:10A110000010056830214046FEF776FA7821404667
:10A12000FEF772FA08200021CDE900010346102253
:10A130002946B0E7BDE8FC872DE9F84388460500CD
:10A140002C482D499946A0EB01004FEAD0004FF072
:10A150000101164601EB004424D0286800282CD0C9
:10A16000002E34D0696840464FF010070A68511E2F
:10A1700011EA080F11D1014672432846FDF717F87E
:10A1800000282ED028684B463246046901B041466B
:10A190002846A446BDE8F04360472046174B18A266
:10A1A000009722E00E2000902046144B1EA220A112
:10A1B00000F02BFC0E20BDE8F8830820009020461C
:10A1C0000E4B26A21AA100F020FC0820F3E709207C
:10A1D00000902046094B24A215A100F016FC09208E
:10A1E000E9E7064B214A2046009711A100F00DFC3B
:10A1F0001020E0E7D4E0020064E00200EBD60200A9
:10A20000616464725F69735F706167655F616C69E7
:10A21000676E656428705F66732C20706167655F88
:10A220006164647229000000705F667300000000C2
:10A23000257320636865636B206661696C656420C3
:10A24000696E202573282920776974682076616CEF
:10A25000756520307825782E00000000705F6673E9
:10A260002D3E705F617069006C656E00E4DC020079
:10A27000044801214174007A08B100207047012090
:10A2800070470000B03A0020012801D0032808D10F
:10A290000449002201284A7400D00020087401F00B
:10A2A00093BE7047B03A002070B50246022801D034
:10A2B000032A45D1234C207A002841D0012833D0ED
:10A2C000022831D120480023022A006802D0032A44
:10A2D0002AD11BE0E360017911B1012924D10DE0FD
:10A2E000D0E90565711B4FF48056B14200D3314669
:10A2F000294481614569A9420ED015E00169491CD4
:10A300000161426991420FD1237213E0E168491C57
:10A31000E160082908D9E3602372022A0AD00D21DE
:10A32000FEF7FAFD01F0F4FD607C28B1BDE8704055
:10A3300000F012BF0021F3E7BDE8704001F044BE19
:10A3400070BD0000B03A0020E02B00202DE9F84F4E
:10A3500090468A463A493B4A0500A1EB02014FEA82
:10A36000D1014FF00102DDF828901E464FF00E009B
:10A3700002EB01441AD0B8F1000F1CD02868002865
:10A3800022D00920002E29D069684968B6FBF1F275
:10A3900001FB1261002926D000902B4B20462BA2F6
:10A3A00035A100F032FB0920BDE8F88F009020466F
:10A3B000254B3CA203E00090234B20463BA22EA15C
:10A3C00000F023FB0E20EFE70820009020461E4BF4
:10A3D00038A229A100F019FB0820E5E700902046EB
:10A3E000194B37A2DCE75046FCF7DBFE102798B18B
:10A3F0004046FCF7D6FEA0B1324651462846FCF74F
:10A40000D6FE98B1CDF80090286833464246C4681D
:10A4100051462846A047C7E720460B4B29A2009784
:10A4200008E02046084B2DA2009703E0064B20468B
:10A4300033A2009710A100F0E8FA1020B4E7000062
:10A44000D4E0020064E00200D8D6020021286C6546
:10A450006E202520705F66732D3E705F666C6173A1
:10A46000685F696E666F2D3E70726F6772616D5FB7
:10A47000756E697429000000257320636865636B3D
:10A48000206661696C656420696E20257328292027
:10A49000776974682076616C756520307825782E30
:10A4A00000000000705F667300000000705F737250
:10A4B00063000000705F66732D3E705F617069001D
:10A4C0006C656E00616464725F69735F616C69677B
:10A4D0006E65643332286465737429006164647244
:10A4E0005F69735F616C69676E65643332282875D4
:10A4F000696E7433325F7429705F73726329000070
:10A50000616464725F69735F77697468696E5F62C2
:10A510006F756E647328705F66732C206465737446
:10A520002C206C656E29000070B541EA4201DDE91E
:10A5300004564FF0A04441EA830141EA052104EBAF
:10A54000800041EA0641C0F8001770BD70B541EACD
:10A550004201DDE904564FF0A04441EA830141EA9B
:10A56000052104EB800041EA0641C0F8001770BDE8
:10A5700070B541EA4201DDE904564FF0A04441EADA
:10A58000830141EA052104EB800041EA0641C0F85D
:10A59000001770BD70B541EA4201DDE904564FF085
:10A5A000A04441EA830141EA052104EB800041EA2D
:10A5B0000641C0F8001770BD1CB5002100910B4684
:10A5C000012201911146FFF7AFFF1CBD1CB5002110
:10A5D00000910B46012201911146FFF7DBFF1CBDE4
:10A5E0004FF0A04202EB8000D0F8002722F4403266
:10A5F000C0F80027D0F8002742EA0141C0F8001750
:10A6000070474FF0A04201218140C2F80C157047FD
:10A610004FF0A04201218140C2F80C1570474FF065
:10A62000A04201218140C2F8081570474FF0A042B6
:10A6300001218140C2F80815704701224FF0A04364
:10A64000824011B1C3F808257047C3F80C25704744
:10A6500018B5084B6C4601441B68009306E000BF28
:10A6600054F82030D3F81035401C08C28142F7D886
:10A6700018BD0000D4D40200034908B508440021E5
:10A6800001600068009008BD006000400249405829
:10A69000012800D0002070470060004070477047DC
:10A6A00008B5034A00924023024A00F005F808BDAD
:10A6B0003DC40200C43A0020F0B595B01C461546D2
:10A6C0000F4608461A9E00F0D3FA182109A8FBF796
:10A6D000F4FE0E96CDE909540023082203A938465A
:10A6E00000F0D9FA05980690BDF81000ADF81C00EE
:10A6F000BDF81200ADF81E0000208DF8210003986F
:10A70000082600F00300012802D0022818D032E009
:10A7100003983346850AC0F3C2008DF820000398E1
:10A720000FA9C0F38314A200384600F0B4FA09A8B8
:10A73000009006AB22460FA9284600F0F5F91AE072
:10A740000398840DC0F3C2008DF82000082C01D2BC
:10A75000254600E0082533462A460FA9384600F072
:10A760009AFA2E44641B09AB06AA29460FA800F0EA
:10A7700055F9002CEAD1384600F07EFA15B0F0BD4C
:10A780000A4A012902EBC00007D0022907D0032999
:10A7900007D0042907D0002070470220704704200A
:10A7A00070470079704740797047000064E002000C
:10A7B0002DE9F04F8DB0FDF73FFF18B100200DB02F
:10A7C000BDE8F08F7E4C4FF0000BC4F818B4BFF317
:10A7D0004F8F60680290A568D846284004EB80003F
:10A7E0000CE000BFD4F8180470B9216802988142C7
:10A7F00001D86160E2E7284004EB80000C3002A938
:10A80000FEF7BBFE0028EDD1002005AA029901EA5F
:10A81000050304EB8303491CDB6842F82030401C2D
:10A8200002910228F2D3059800F00300022802D01A
:10A8300001284DD0AAE005985022810D8946B2EB3F
:10A84000905F00D850210E4666F39F500590083166
:10A850005C4800F0C4F9070078D000F009FA4346DC
:10A86000082205A9384600F01EFA029908F1080AE4
:10A870002940681A8000001D864222D9504D0C35AF
:10A8800030B1C2B204EB8101301A90460C3104E0C1
:10A890002946F2B2002590462846C6B253463846AD
:10A8A00000F001FA0AEB080325B132462946384682
:10A8B00000F0F9F9029909F1030001EB9000029010
:10A8C0003BE004EB81015346324638460C31EFE75A
:10A8D0000598C0F38310062800D30620059960F37D
:10A8E0008911C1F38310801C05918100354800F067
:10A8F00076F907004AD000F0BBF94346082205A9C3
:10A90000384600F0D0F908F1080800260FE0029858
:10A91000434600EA0501401C04EB81010290042239
:10A9200038460C3100F0BFF908F10408761C059890
:10A93000C0F38310B042EAD847B1D4F81054D4F829
:10A94000180478B1384600F097F934E01EE0E86862
:10A950004079012804D12A68284639461268904770
:10A96000E8680568002DF2D1384600F085F98DF8C9
:10A9700000B06846FCF74CFDD4F8180408B90298FA
:10A9800060609DF80000FCF767FD14E0D4F8104407
:10A9900005E02168204689688847E0680468002C43
:10A9A000F7D109480949401AC008022101EB0040CB
:10A9B00007A100F017F8FDF73FFE80F00100FEE66A
:10A9C000C43B0020FCE00200DCE0020064E0020086
:10A9D0004261636B656E647320666C757368656451
:10A9E0000000000000231A4601F004BF08B501234F
:10A9F00000926A4601F0FEFE08BD1CB5CDE90023B9
:10AA000002236A4601F0F6FE1CBD3EB5069C8DE8A9
:10AA10001C0003236A4601F0EDFE3EBD2DE9F04720
:10AA20000E4680461C469246082940D894F80C9061
:10AA3000002020731946104601F0FCF90025B542AC
:10AA400006D218F805201BA12046FFF76FFA03E095
:10AA50001AA12046FFF76AFA6D1C082DEFD318A142
:10AA60002046FFF763FA0025B54212D218F80570A8
:10AA70007E2F08D8FBF7F6FC0068C05D10F03E0F93
:10AA800001D03A4600E02E220EA12046FFF74EFAF2
:10AA900003E00DA12046FFF749FA6D1C082DE3D312
:10AAA00001222146504601F0A7F984F80C90BDE838
:10AAB000F0870000202530327800000020202000A0
:10AAC0007C000000256300002000000002480349CC
:10AAD000401AC00870470000FCE0020064E0020079
:10AAE00013B56846FEF74EFF08B100201CBD0248B2
:10AAF000009950F831001CBD64E0020070B50948AF
:10AB00000125D0F8104480F8205407E0E068457132
:10AB10002168204649688847E0680468002CF5D120
:10AB200070BD0000C43B00202DE9FF4781460C9D0D
:10AB300000200C462F7B2873984616462946184657
:10AB400001F078F9072E42D2DFE806F004090F166B
:10AB50001F2A360049462846FFF7E8F937E04946FC
:10AB600028462268FFF7E2F931E0D4E9002349469C
:10AB70002846FFF7DBF92AE0A0680090D4E900231B
:10AB800049462846FFF7D2F921E0D4E90201CDE990
:10AB90000001D4E9002349462846FFF7C7F916E02B
:10ABA00004F1080007C88DE80700D4E900234946EE
:10ABB0002846FFF7BBF90AE004F108000FC88DE84A
:10ABC0000F00D4E9002349462846FFF7AFF90022D9
:10ABD0002946404601F010F92F73BDE8FF872DE9A3
:10ABE000F041058A80462D1F4819C01CB0FBF5F0C6
:10ABF000C6B24046FEF7BDFF041E19D000202071EA
:10AC000001206071E58000272546761EC4F800808B
:10AC10000BE04046FEF7ADFF60B16179491C617100
:10AC2000286005467F1CC0F80080B742F1D320465B
:10AC3000BDE8F081204600F002F80020F8E72DE999
:10AC4000F041457901466B1E002201E00968521C63
:10AC50009A42FBD30F680146002605E038460C688F
:10AC6000FEF7A9FF2146761CAE42F7D3BDE8F0817E
:10AC70000121001DFEF756BF10B504460121001D3D
:10AC8000FEF771FF10F0FF0F04D12046BDE8104021
:10AC9000FFF7D5BF10BD1CB501920122009201AA99
:10ACA000FEF730FE1CBD1CB501920022009201AAE5
:10ACB000FEF728FE1CBD0000064910B500204870B4
:10ACC000091D0860BFF35F8F0349044800F070FA64
:10ACD000002010BDA82B002040D50200DC38002049
:10ACE00008B500208DF800006846FCF791FBF1EEF6
:10ACF000100A20F09F00E1EE100ABFF35F8F0849B1
:10AD00004020C1F880029DF80000FCF7A5FB00F090
:10AD10001DFA08B141DF08BD20BF40BF20BF08BDFC
:10AD200004E000E0FCF70ABB08B50022425040589E
:10AD3000009008BD024A1060101D016070470000BD
:10AD40002C760040030103481844C0F81425C0F8CD
:10AD5000101570470070004002494058002800D08C
:10AD60000120704700700040034908B508440022E4
:10AD700002600068009008BD00700040024619B1F2
:10AD800040205100884070478020FAE720B10349F5
:10AD900009680160002070470E207047A0D70200AC
:10ADA0002DE9FE4307460E460846FFF7EFFF002851
:10ADB0007CD100240094019406208DF800704FF09F
:10ADC0000108ADF8040002948DF802806946202045
:10ADD000326869DF3649374A891AC908012202EB0D
:10ADE000014530B100F056FA024628463249FFF7D5
:10ADF000FDFD00948DF801808DF8024001940294CD
:10AE00008DF8034069464020326869DF30B100F0B8
:10AE100041FA024628462949FFF7E8FD00948DF8DB
:10AE20000070F720ADF802000194029469462320D7
:10AE3000326869DF30B100F02DFA02462846204919
:10AE4000FFF7D4FD0094019402948DF800806946C8
:10AE50000120326869DF30B100F01CFA0246284652
:10AE60001849FFF7C3FD4FF4B060009001940294BD
:10AE70006946A120326869DF30B100F00BFA024662
:10AE800028461149FFF7B2FD0094019402948DF811
:10AE900000406946A020326869DF30B100F0FAF95D
:10AEA000024628460949FFF7A1FD0020BDE8FE83C0
:10AEB000ECE0020064E0020090DE0200D8DE020056
:10AEC00024DF0200F0DD02003CDE02009CDD020017
:10AED0002DE9F0410546076860DF804619491A48A8
:10AEE0002A68081AC608BA4219D9022000EB06449B
:10AEF00016A12046FFF776FD20463A461FA12B6893
:10AF0000FFF77BFD4FF08050D0F80C0129688002DC
:10AF100000F10050421A204625A1FFF767FDB8F165
:10AF200000004FF001040AD000F0B4F9024604EB2F
:10AF300006402AA1FFF75AFD4046BDE8F0812F48A0
:10AF40000470F9E7ECE0020064E00200496E7375FA
:10AF50006666696369656E742052414D20616C6C50
:10AF60006F636174656420666F7220746865205336
:10AF70006F66744465766963652E00004368616E90
:10AF80006765207468652052414D20737461727446
:10AF9000206C6F636174696F6E2066726F6D203014
:10AFA00078257820746F20307825782E00000000F6
:10AFB0004D6178696D756D2052414D2073697A65D8
:10AFC00020666F72206170706C69636174696F6E66
:10AFD00020697320307825782E00000073645F624A
:10AFE0006C655F656E61626C652829207265747599
:10AFF000726E65642025732E00000000472C00202F
:10B0000030B51548ADF5017D0078002821D04FF40A
:10B01000FA7500BFADF8005280A9684661DF38B10B
:10B02000052816D00DF5017DBDE83040FCF786B946
:10B030006C460A497DA800F0BBF806E0D0E9002183
:10B04000204690477DA800F0CAF87F980028E1D0FC
:10B05000F4E70DF5017D30BD472C0020A4D7020098
:10B06000F8B5134C2078C0B10120A07001F0B0F900
:10B07000112814D0022001F0C3F900258DF80050EA
:10B080006846FCF7C5F911DF064625709DF80000FB
:10B09000FCF7E2F92EB13046F8BD0820F8BD0020DB
:10B0A000F8BDA57001F05AFA032001F0A9F9F6E7FE
:10B0B000442C00207CB5194C207808B108207CBDB8
:10B0C0000120A070002001F083F9112819D0002080
:10B0D00001F096F912480026006801908DF8006092
:10B0E0006846FCF795F90F4901A810DF05000AD062
:10B0F000002020709DF80000FCF7AEF92DB1284625
:10B100007CBD00207CBD0120F3E7A670667001F0D5
:10B1100041FA012001F074F9F3E70000442C00200B
:10B1200038D70200B97202000EB50749684600F030
:10B130003FF805E0D0E900108847684600F04FF876
:10B1400002980028F6D10EBD54D7020001480078BD
:10B1500070470000442C00200548817819B1007820
:10B1600018B1FFF77DBF08207047FFF7A3BF0000AD
:10B17000442C00201FB568464BDF30B1052814D0A1
:10B1800004B0BDE81040FCF7D9B8084901A800F0A8
:10B190000FF806E0D0E900210098904701A800F0E0
:10B1A0001EF803980028E6D0F4E71FBDC0D70200C0
:10B1B000016009684160AFF3008010B5D0E900215B
:10B1C0005368994201D1002104E0D1E90034A3423F
:10B1D00002D01946816010BD08314160F0E78168F6
:10B1E00000290BD0026892680A44826041684B686B
:10B1F0009A4203D108314160FFF7DFBF704770B555
:10B200000D460646446804E0B2682946904718B1E6
:10B21000246820680028F7D120682860256070BD68
:10B2200040680068704741680868002801D00268DB
:10B230000A60704702460020526806E08B4203D144
:10B2400008681060012070471A461368002BF5D17A
:10B2500070474058002800D0012070470C4A10B5B4
:10B2600002F594730EE0991AC91001EBD1714910DF
:10B2700002EBC1010C68844201D90B4602E005D201
:10B2800001F108029A42EED3002010BD486810BDBB
:10B2900060D5020000B5FFF7E1FF002800D10148AA
:10B2A00000BD00004CD5020008480068012110F0E4
:10B2B000010F06D14FF0E020C02280F80024C0F832
:10B2C00000110349012008607047000000E100E020
:10B2D000180500400649024600200B790BB1852075
:10B2E00070470A6001220A7100224A71704700000B
:10B2F0004C2B002004490120086004480168C1F378
:10B3000000410029FAD170470C00004018040040A9
:10B31000002802D00149800108477047E1D40200AB
:10B32000002802D0014980010847704711D502006A
:10B330002DE9F0418846054600F046FD234E0028E1
:10B3400028461AD0FDF7F0F9304490F848008009FB
:10B35000032802D001280ED007E04FF0A040D0F81B
:10B360001005E84010F0010F05D003212846BDE884
:10B37000F041FFF735B90221F8E700F031FD002870
:10B3800022D02846FDF7D0F904464FF4807000EB38
:10B3900084000F4F81B207EB8400D0F8102542F0F3
:10B3A0000102C0F810250846FFF766F9B8F1000F52
:10B3B0000AD02846FDF7B8F956F82000002803D037
:10B3C0000120A040C7F80403BDE8F08188370020C1
:10B3D000006000402DE9FC41DFF8BC80044608EB2A
:10B3E0000400002790F930001346C0170E46401C99
:10B3F00001D008274CE0B0781946C0F3400220463F
:10B40000FDF76EF90546401C41D0B078410719D4CC
:10B41000C0070AD04FF0A04000EB8401D1F800072C
:10B4200020F00200C1F8000707E0002173782046F1
:10B4300000910A460191FFF79BF8174920465431C5
:10B44000FEF7D9FBB078800718D51448317800EBA7
:10B450008500D0F81025124B1A40C0F810254FF483
:10B46000F8524FF4403302EA042203EA01410A434E
:10B47000D0F810150A43C0F8102509E008EB0500C4
:10B48000327810F8481F41EA8211017000E0042769
:10B490003846BDE8FC81000088370020006000408D
:10B4A000FFE0FCFF4FF0A041D1F81015C14011F0B2
:10B4B000010000D00120704770B5174D95F8580075
:10B4C00008B1082070BD0020411E2A18401CC0B2DF
:10B4D00082F830102028F8D300242046FDF7F2F837
:10B4E000641CE4B20C2CF8D300240C49C0206C6519
:10B4F00081F8000401264020891FC1F800014FF4A3
:10B50000BE70FFF7B9F80649F007C1F8040385F8E3
:10B510005860204670BD00008837002006E000E03B
:10B5200000600040034890F85800002800D0012037
:10B5300070470000883700200121B1EB507F01D116
:10B54000012070470020704738B50D4600F0BEFC62
:10B55000040014D000208DF800006846FBF758FF67
:10B56000207928B19DF80000FBF776FF112038BD47
:10B570000120256020719DF80000FBF76DFF002081
:10B5800038BD00002DE9F041254C064612200D463D
:10B59000C4F808032348017C022918D0027C014624
:10B5A0004FF4807891F82E10012A12D00222C4F8AC
:10B5B000042301270774466005810022C26021B37D
:10B5C000458390F82D103046FFF7B4FB25E012209C
:10B5D00002E0C2682AB10220C4F804031120BDE8C9
:10B5E000F081C660058361B947463846FFF7B4FB72
:10B5F0000028FAD03846FFF7B7FB29463046FFF758
:10B6000099FB0220C4F8040307E029463046FFF7FF
:10B6100091FB4046FFF7A8FB27600020DFE7000012
:10B62000007000400838002070B50C4626490A7C9E
:10B630000AB1112070BD2279244D0AB1012A01D12D
:10B6400000222A6001EB4002137F1BB911F82D3F45
:10B650005B1C0B70E1791177217A51772178627840
:10B66000302301F0030103EA02121143A2784FF4E0
:10B67000E06303EA02221143E2784FF4805303EAC5
:10B680000232114322794FF4E02303EA02421143CC
:10B6900062794FF4801303EA02521143A2791B012D
:10B6A00003EA02620A4B114303EB0012C2F81815B9
:10B6B000227AE179FFF746FB207908B1012801D110
:10B6C00001202860002070BD08380020007500406F
:10B6D0000070004070B505460E48017C09B111208C
:10B6E00070BD00EB45010A7F1AB110F82D2F521ED4
:10B6F000027000240C774C77224621462846FFF73B
:10B7000021FB40F2FF72D143284600F04FF820465B
:10B7100070BD0000083800202DE9F0411F4C05469F
:10B7200094F82C0010B10820BDE8F08144F8101BFB
:10B730001B4928780860091D68780860E878A077B8
:10B74000012727770020207060776060154EE07732
:10B750006FF00040C6F808034FF48270FFF704FB57
:10B76000B015FFF701FB4FF48A70FFF7FDFAA878D8
:10B770000D49400181F800048020C91FC1F8000173
:10B780000220C6F80403A07F10B10120C6F804030C
:10B790000348F03807600020C6E7000008380020A2
:10B7A000F07500400070004007E000E02DE9F04136
:10B7B00017460C460546C1EA07401A4E06EB05112E
:10B7C000C1F81C0500212846FFF7D8FA23460121BD
:10B7D00001EB4502144CC907D140626913F5006FB3
:10B7E0001BD00A436261C6F8040301212846FFF713
:10B7F000C5FA6A004FF00041D140A7F5E0636269E5
:10B80000FF3B05D00A436261C6F80403BDE8F0813E
:10B810008A436261C6F80803F8E78A436261C6F8A2
:10B820000803E2E7007000400838002008490020C3
:10B830000A7C012A01D00820704791F82E30054A71
:10B8400001210BB111607047024A121DFAE7000096
:10B85000083800200070004070B517496FF00040B4
:10B86000C1F8080380214FF0E02201200025C2F832
:10B87000801111490831086042F210744FF48A7641
:10B880003046FFF769FA20B90020FFF741FD641E3A
:10B89000F6D10A4805600A4E3574002406EB4400D0
:10B8A000007F10B1E0B2FFF715FF641C082CF5D340
:10B8B00086F82C5070BD00000070004000750040FC
:10B8C000083800202DE9FC470C46154601798046D2
:10B8D000574A01EBC10002EB80069946307F10B158
:10B8E0000820BDE8FC87534AD8F80000074652F804
:10B8F0002110FFF729FE08B11120F2E7C6E900592F
:10B90000207B0128207802D8FEF782FE01E0FEF7B6
:10B910008DFE4FF0000ACDF800A0CDF804A02078ED
:10B92000534652460121FEF735FE60784FF0FF3551
:10B93000FF2806D08146FEF76BFE4846FEF746FE1E
:10B9400000E0A946A078FF2809D00022054601237F
:10B95000CDF800A01146CDF804A0FEF71BFEA0789C
:10B9600086F82000E078F077E078FF280BD0217986
:10B9700011B1FEF74DFE01E0FEF758FEE078FEF74C
:10B9800025FE2079B0772178C7F80815C7F80C95FF
:10B99000C7F81055A068C7F82405217B607B00B16B
:10B9A0000120012904D0022905D0032908D105E08E
:10B9B00040F0020004E040F0040001E040F0060026
:10B9C000C7F85405A079C7F8C005306810B1402009
:10B9D000C7F804030720C7F800053068012108B341
:10B9E000D8F80000627940F3073000284FEA42128D
:10B9F00006DA00F00F0000F1E02080F8142D03E0DB
:10BA000000F1E02080F80024D8F8000040F307306F
:10BA100000F01F0201FA02F24009800000F1E0206C
:10BA2000C0F80021504686F81DA0317759E7000084
:10BA3000E4370020D8D402002DE9F04105460F4636
:10BA40000079154900EBC00001EB80041646607FC9
:10BA500010B11120BDE8F081206820B116F0140F5C
:10BA600001D10120607797E80F0004F10C0888E805
:10BA70000F00E07FFF2806D0A17F11B1FEF7D6FDB1
:10BA800001E0FEF7C5FD33463A4621462868BDE889
:10BA9000F04100F0B7BD0000E43700200178002934
:10BAA0000FD1084A03E003695B5C5354491C838A45
:10BAB0008B42F8D8044899B241620249406AFAF7C9
:10BAC00045BF704728330020E02A002010B550B150
:10BAD00003280ED10220FCF71BFC002809D0BDE88A
