:020000040002F8
:1060000008A10020C1630200C9630200CB63020043
:10601000CD630200CF630200D163020000000000E4
:10602000000000000000000000000000D363020038
:10603000D563020000000000D7630200D9630200AC
:10604000B9680200DB630200DD720200316E0200FB
:10605000DB630200DB630200556702008D6C020007
:10606000DB630200DB630200DB630200DB63020030
:10607000DB630200DB630200DB630200DB63020020
:10608000DB630200B16B0200DB630200DB63020032
:10609000DB630200DB630200416F0200DB6302008E
:1060A000DB630200DB630200DB630200DB630200F0
:1060B000DB630200DB630200000000000000000060
:1060C000DB630200DB630200DB630200DB630200D0
:1060D000DB630200DB630200DB6302000000000000
:1060E00000000000000000000000000000000000B0
:1060F00000000000000000000000000000000000A0
:10610000000000000000000000000000000000008F
:10611000000000000000000000000000000000007F
:10612000000000000000000000000000000000006F
:10613000000000000000000000000000000000005F
:10614000000000000000000000000000000000004F
:10615000000000000000000000000000000000003F
:10616000000000000000000000000000000000002F
:10617000000000000000000000000000000000001F
:10618000000000000000000000000000000000000F
:1061900000000000000000000000000000000000FF
:1061A00000000000000000000000000000000000EF
:1061B00000000000000000000000000000000000DF
:1061C00000000000000000000000000000000000CF
:1061D00000000000000000000000000000000000BF
:1061E00000000000000000000000000000000000AF
:1061F000000000000000000000000000000000009F
:10620000DFF80CD000F086F90048004729A802000A
:1062100008A1002030B450E8012F93B2C489234470
:106220008489A34228BF1B1B0489A34202BFBFF37A
:106230002F8F002007E0C3EA020340E80134002C5E
:10624000E9D14FF001000A6030BC704750E8012FDF
:10625000C2EA024240E801210029F7D1704730B478
:1062600050E8022F1FFAA2F3C488A34202BFBFF373
:106270002F8F00200DE0C48923448489A34228BFC6
:106280001B1BC2EA034340E80234002CE8D14FF064
:1062900001000A6030BC704750E8022FC2EA224277
:1062A00040E802210029F7D17047034653E8022F46
:1062B000D988B2EB324F4FF0000017BF92B241EADB
:1062C000014142EA014104E05A68B2EB324F08BF93
:1062D000012043E80212002AE8D1704730B4044696
:1062E00054E8000F0D4644E80053002BF8D1156028
:1062F00030BC704730B4044654E8000F40EA010552
:1063000044E80053002BF7D1156030BC704730B41F
:10631000044654E8000F00EA010544E80053002B4E
:10632000F7D1156030BC704730B4044654E8000F14
:1063300080EA010544E80053002BF7D1156030BC1A
:10634000704730B4044654E8000F00EB010544E800
:106350000053002BF7D1156030BC704730B40446B1
:1063600054E8000FA0EB010544E80053002BF7D1DF
:10637000156030BC704770B404464FF0000054E81C
:10638000006F0D68AE4207BF44E80023012044E8D7
:1063900000630E60002B1CBF0020F0E770BC70474C
:1063A00030B4044654E8000F88422CBF451A054615
:1063B00044E80053002BF5D1156030BC7047000055
:1063C0000648804706480047FEE7FEE7FEE7FEE78F
:1063D000FEE7FEE7FEE7FEE7FEE7FEE7456F0200A9
:1063E000016202002DE9F05F0546002092469B46BF
:1063F00088460646814640241BE0284641464746DB
:10640000224600F076F853465A46C01A914110D3FE
:1064100011461846224600F016F82D1A67EB0108BF
:106420004F4622460120002100F00DF817EB00092D
:106430004E41201EA4F10104DFDC484631462A46C5
:106440004346BDE8F09F202A04DB203A00FA02F11F
:10645000002070479140C2F1200320FA03F3194352
:10646000904070470048704750F0020010B5431A42
:10647000934209D28318881803E010F8011D03F82D
:10648000011D521EF9D210BD40EA01039B0703D043
:1064900009E008C9121F08C0042AFAD203E011F863
:1064A000013B00F8013B521EF9D210BDD2B201E00F
:1064B00000F8012B491EFBD270470022F6E710B509
:1064C00013460A4604461946FFF7F0FF204610BD62
:1064D000CAB2401E10F8011F8A4202D00029F9D129
:1064E00000207047421C10F8011B0029FBD1801AC4
:1064F0007047202A04DB203A21FA02F0002170477D
:1065000021FA02F3D040C2F120029140084319461B
:1065100070470000064C074D06E0E06840F00103BC
:1065200094E8070098471034AC42F6D3FFF76CFEAE
:1065300064F8020084F8020070B58C1810F8015B52
:1065400015F0070301D110F8013B2A1106D110F80C
:10655000012B03E010F8016B01F8016B5B1EF9D110
:106560002B0705D40023521E0DD401F8013BFAE796
:1065700010F8013BCB1A921C03E013F8015B01F801
:10658000015B521EF9D5A142D8D3002070BD000096
:106590000EB50E490E4806F02FFA08B101F0EEF8DC
:1065A0000B4A121D07CA8DE807006946002006F055
:1065B000ABF908B101F0E2F80121064806F052F902
:1065C000002801D001F0DAF80EBD0000DD730200F2
:1065D00098EA0200F02A002010B506F097FA002889
:1065E00003D0BDE8104001F0C9B810BD0348002237
:1065F0004FF40051406801F00DB9000088EA020034
:1066000010B5162005F06DF90A2004F071FD162072
:1066100005F075F90A2004F06BFD00F0D1FA1220A4
:1066200000F075F800F0CCFA012000F070F8C720F7
:1066300000F07DF8002000F07AF8002000F077F8F4
:10664000112000F064F8012000F071F8442000F0FF
:106650005EF8002000F06BF8182000F068F8452084
:1066600000F055F8C72000F062F8002000F05FF855
:10667000002000F05CF8002000F059F83C2000F009
:1066800046F8052000F053F8182000F040F880206C
:1066900000F04DF84E2000F03AF8002000F047F8E6
:1066A0004F2000F034F8C72000F041F8BDE810405A
:1066B000002000F03CB82DE9F041044605462420B6
:1066C00000F025F8002741F28836207800F02FF8F6
:1066D000641C7F1CB742F8D3262000F018F8002471
:1066E000287800F024F8641C6D1CB442F8D3BDE88F
:1066F000F041AFF3008010B5222000F008F8F72039
:1067000000F015F8BDE810402020AFF3008010B570
:106710000446172005F0E5F8182005F0E2F82046B9
:1067200000F0EEFBBDE81040182005F0E8B810B509
:106730000446182005F0E3F8182005F0D2F81720D9
:1067400005F0DDF8204600F0DBFBBDE81040182026
:1067500005F0D5B82DE9F04700268AB0DFF8509152
:10676000B0464FF48075012437460696284605F05A
:10677000FDF838B1D9F80403204203D0284605F0CB
:10678000EBF826432D1D64007F1CADB2082FEDD31E
:106790004FF4BE74204605F0E9F848B1204605F0F4
:1067A000DBF846F0004606AA0121002005F0C0F8FB
:1067B000404D16F0FF0F15D00127002437420DD0B1
:1067C00009EB8401D1F81005D1F81015C0F30420AD
:1067D00055F82420C1F3014102B190477F00641CA9
:1067E000082CEBD3002E5FDA4FF0FF30CDF810808D
:1067F00054E0281910F8507F90F9000027F0C008E5
:10680000401C3BD007A9404604F013FB10B34FEAED
:106810009719404602F03EFA55F820701FB1B9F1C1
:10682000030F03D006E0B9F1030F27D104A94046B6
:1068300004F007FB4FF0A04101EB8800D0F80007FF
:1068400006A9C0F3014A404604F0F3FA18B1BAF1C0
:10685000020F03D012E0BAF1030F0FD1B9F1030F09
:1068600008D1BAF1020F1DD00221404605F028F8E8
:10687000761CF6B217B149464046B847641C042C52
:10688000B7D3002E10D06A460121002005F050F841
:1068900006990098884207D006900498002634464E
:1068A0000790A6E70321E0E70AB0BDE8F087000003
:1068B000006000405856002070B54FF48076304696
:1068C00004F006FC114CB50560B1304604F007FC3D
:1068D0000120C5F80803607920B9012060712168A2
:1068E000002088474FF48276304604F0F1FB002800
:1068F0000AD0304604F0F3FB0220C5F808032168F3
:10690000BDE870400120084770BD0000682B0020E2
:1069100030B51A49CA8A022A08D0042A06D0072AA2
:1069200018D140EA00100022C3B222E00022C3B214
:106930000DE0002006E000BF02FB04040D68401CCF
:1069400080B22B554C8A8442F6D8521C92B2888A67
:106950009042EED830BD002006E000BF02FB0404E8
:106960000D68401C80B22B554C8A8442F6D8521CCC
:1069700092B2888A9042EED830BD0000EC540020DC
:106980002DE9F04F814624481C46884683880999A2
:1069900093464B4527D3C288424524D3012901D0D1
:1069A000002635E00025681E00EB440719E009EBDE
:1069B00005000026A0EB040A0FE000BFBAF1000FAB
:1069C0000DD408EB0600001B09D481B21FFA8AF02F
:1069D0005A4600F079F8761C36B2B742EEDC6D1CF0
:1069E0002DB2AF42E3DCBDE8F08F002509EB0607CE
:1069F0007F1E09E008EB0500401E81B2B8B25A467E
:106A000000F062F86D1C2DB2A542F3DB761C36B2A5
:106A1000A642EADBE7E70000EC5400202DE9F84F3E
:106A20008246154800244FF0010980461FE00025EA
:106A300017E0D8F82800671C6E1C474346432A46D7
:106A400021460E4806F069FE0028B1B2B8B253469E
:106A5000CDF8009001D0002200E0FF22FFF790FF68
:106A60006D1CD8F8241040468D42E2D3641C416A64
:106A70008C42DCD3BDE8F88FE02A002040340020AF
:106A800070B50D4C049D206021816281A581022595
:106A9000E5824E074FEAD10000D0401C6082A282FE
:106AA000E381258223B1B42B02D0A280E18070BDA6
:106AB000A180E28070BD0000EC5400200149086014
:106AC00070470000EC540020F0B5384CA388834296
:106AD0004BD3E3888B4248D32346E7891E895D89DF
:106AE000CFB15A2F1AD0B42F1CD0B7F5877F3CD125
:106AF0000B46281A401E80B2218AD9B1012916D02E
:106B0000022904D0032930D1F11A491E8BB2281A68
:106B1000401E80B20EE003460846EDE7711A491E9A
:106B20008BB2E9E7301A401E83B2681AE2E7F11A25
:106B3000491E8BB29E4218D3854216D31B49E58A63
:106B40004C8A0968022D11D0042D20D0072D0CD1BC
:106B5000444304EB5304DB075B0FF025DD40085D85
:106B60001201A843DA4002430A55F0BD444304EB46
:106B7000D3048020002A0D5D03F0070220FA02F002
:106B800002D028430855F0BD85430D55F0BD444360
:106B900004EB930094079B075D0F0A5CC023EB4056
:106BA0009A43230EEB4013430B54F0BDEC540020EA
:106BB00002490248091F096800680847B82B0020ED
:106BC00070B500244FF0A0454FF4C876D5F81005F5
:106BD000C00E10F0010F07D00A2004F089FA641CDF
:106BE000B442F3D3002070BD012070BD2DE9F04107
:106BF000DFF8908001278CB0054688F806700020E9
:106C0000214E02E00A5C3254401CA842FAD3002410
:106C100005940694022104940A940AAB04AA084637
:106C20000B9402F0D7FF020005F103054FF00200BC
:106C30004FEA950101940DD007940894CDE90261C3
:106C4000ADF80400ADF80600099401A907A802F008
:106C5000F7FF0EE0CDE90261ADF80400ADF80600E3
:106C600001A904A802F0E4FF08B100F087FD02F0DA
:106C7000D9FE08B100F082FDC8F81C700CB0BDE868
:106C8000F0810000E02A0020403200202DE9FE4380
:106C90004FF48278404605F0CFF94C4F00254C4C1C
:106CA000012600B3404605F0CFF994F82E0010B14C
:106CB00094F82F10D1B18DF80050616801912189AD
:106CC000ADF80810E26832B1218B618362602181E6
:106CD000E56010B102E0257400E03E60216868467E
:106CE000884784F82F5094F82E0060B34FF48077D3
:106CF000384605F0A1F930B3384605F0A5F9628BA6
:106D000094F82D108A420AD9A2EB010080B2608368
:106D10002289A2EB0000626802EB400005E007D187
:106D2000E06828B184F82F60658305F073F904E00A
:106D30008A4202D184F82F606583404605F084F9C9
:106D40002248001D06604FF48877384605F074F934
:106D500048B1384605F078F9257402208DF8000016
:106D60002168684688474FF48A77384605F064F909
:106D700028B1384605F068F92574BDE8FE834FF068
:106D800000484FF48C7967691DE000BFB7FA87F0BF
:106D900028FA00F109EB80058F43284605F04CF9ED
:106DA00088B1284605F050F9A5F58C75E8088DF8EE
:106DB000040045F38000401C8DF800608DF805004C
:106DC000216868468847002FE0D1D6E70070004070
:106DD000D856002070B50E46144900EB400001EB78
:106DE000C0051446E86A183520B101280FD00228E2
:106DF00005D113E0284600F077FAA04201D2002422
:106E000011E022463146284600F0A6FA0BE028465B
:106E100000F06AFAA042F4D20446F2E7314628466E
:106E200000F06DFA0446204670BD00007C5E002034
:106E3000F8B51248124E04464FF48C7105F079FBF8
:106E400000281AD00025C4F81851D4F81801009071
:106E5000F07F3446FF2806D0A17F11B104F048FD31
:106E600001E004F053FD65772572D4E9002101B0FB
:106E700004F10800BDE8F0401047F8BD00300040C4
:106E8000B456002000B587B0182004F005FD172087
:106E900004F002FD162004F0FFFC00231B200093E9
:106EA0001A461946019304F0AFFC182004F027FDA0
:106EB000162004F024FD0F4B0DF1080C0FCB8CE8CD
:106EC0000F00FF208DF80B008DF80A001A208DF8B6
:106ED000090019208DF8080006480023064A02A977
:106EE000083805F05FFE002801D000F047FC07B02D
:106EF00000BD0000C0EA0200D9E00200FFF7C2BFF7
:106F000010B50C490C4C012308700022227001F5C9
:106F10000070C0E90013A0F58071C0E902120146BB
:106F2000064805F0F9FE08B100F028FC207800289A
:106F3000FCD010BDDC520020402B0020B8EA02003B
:106F400005F062BAF0B5D34AD3494FF080541368C4
:106F5000D4F830010978D4F83421451CC1F3031169
:106F600007D08446164601270025BCF1060F04D041
:106F700013E003F0FF0C0E46F5E7032E05D0042EB8
:106F800003D0052E01D0062E07D1B4F82463DFF814
:106F90000CC3C6F30426CCF80060DEB2062E06D180
:106FA000032904D1DFF8FCC2BD4ECCF87460461C46
:106FB00006D084464FEA0206BCF1060F04D013E067
:106FC00003F0FF0C0E46F7E7032E05D0042E03D086
:106FD000052E01D0062E07D1D4F84462DFF8C8C2CE
:106FE000C6F34236CCF80060DEB2062E08D1032983
:106FF00006D1AE4ED6F800C02CF0807CC6F800C09A
:10700000461C05D084461646BCF1060F04D014E099
:1070100003F0FF0C0E46F7E7032E05D0042E03D035
:10702000052E01D0062E08D14FF08046C6F80C512F
:10703000C6F810519C4E361F3560DEB2062E08D1C0
:10704000032906D1DFF860C203260CF1640CCCF8EA
:107050000060DEB2062E11D103290FD1DFF850C235
:107060000526CCF80060924E78363760904E083690
:1070700035600CF1040C3F26CCF80060461C05D0AE
:1070800084461646BCF1060F04D087E003F0FF0CDF
:107090000E46F7E7032E7CD0042E7FD0052E01D0BC
:1070A000062E7BD1834E3668DFF80CC2CCF8006028
:1070B000804E361D36680CF1040CCCF800607D4E15
:1070C000083636680CF1040CCCF80060794E0C36AA
:1070D00036680CF1040CCCF80060764E1036366839
:1070E0000CF1040CCCF80060724E143636680CF1CA
:1070F000040CCCF800606F4E18363668DFF8B8C163
:107100000CF1200CCCF800606A4E1C3636680CF18D
:10711000040CCCF80060674E203636680CF1040C85
:10712000CCF80060634E243636680CF1040CCCF8C1
:107130000060604E283636680CF1040CCCF8006014
:107140005C4E2C3636680CF1040CCCF80060594EBD
:1071500030363668DFF860C10CF1400CCCF80060C6
:10716000544E343636680CF1040CCCF80060514EA5
:10717000383636680CF1040CCCF800604D4E3C36C5
:1071800036680CF1040CCCF800604A4E4036366884
:1071900000E003E00CF1040CCCF80060461C05D0C4
:1071A00084461646BCF1060F04D011E003F0FF0C34
:1071B0000E46F7E7032E05D0042E03D0052E01D08E
:1071C000062E05D1D4F858423C4E04F04F043460EA
:1071D000441C04D003461146062B02D010E0DBB25B
:1071E000FAE7032905D0042903D0052901D006298F
:1071F00006D133490B68DB0702D06FF001030B6047
:1072000006280CD1032A0AD0042A08D0052A06D061
:10721000062A04D12B48016841F4806101602348AB
:107220007438016841F470010160BFF34F8FBFF300
:107230006F8F4FF01021D1F80002002803DBD1F846
:107240000402002822DA204A176020480368002B35
:10725000FCD01523C1F800320468002CFCD0C1F822
:10726000043201680029FCD0156001680029FCD0B7
:10727000BFF34F8F0D48F0380168154A01F4E06103
:1072800011430160BFF34F8F00BFFDE71249114862
:107290000860F0BDE00F00F0E80F00F0403501405D
:1072A0000DF0ADBA00C007403C050040FCED00E029
:1072B000105600400404001020C50040E40E0040B9
:1072C000000400403C17004004E5014000E4014098
:1072D0000400FA050090D003602C002001480068EB
:1072E00000470000702B00200269C1688A4203D861
:1072F0008068401A104400E0501A401E70472DE983
:10730000F047C4681746894606464FF000083069C2
:10731000A04201D9051B02E0B168201A0D1AB0681D
:107320006D1E001BA84200D80546BD4200D33D4655
:1073300070682A4620444946FFF798F8B0687F1BDA
:107340002C44A844A944A04200D10024F460002F9A
:10735000DDD14046BDE8F0872DE9F041044688467E
:10736000D4E90207C51BE168606816460844B542C7
:1073700006D94146FFF77AF8B819E060BDE8F08118
:107380002A464146FFF772F8761B08EB05013246A4
:107390006068FFF76BF8E660F0E702E008C8121FCC
:1073A00008C1002AFAD170477047002001E001C1EE
:1073B000121F002AFBD170470121202803DA8140E7
:1073C0000548014003E0402802DA2038814009B135
:1073D0000120704700207047FC06FFBD10B5044631
:1073E0000078002822D10121606805F03BFA08B13D
:1073F00000F0C4F9606801220023B0F900100C48C5
:10740000046AA14201DD427100E04371C4783CB1DD
:10741000B42901DAC3708370BDE8104005F08CBB5D
:10742000C3899942F8DDC2708270F5E710BD000093
:10743000E02A0020074840F28112C16A097811F061
:10744000FF0105D01A2903D040F21311C181704702
:10745000C2817047E02A002010B5FFF799F8BDE817
:107460001040FFF7B9B800002DE9FF4F9BB09046E0
:107470000D461046042A65D2012D63DB282D61DC00
:1074800000EBC00101EB4810554901444E575449E7
:10749000A43908444457284602F01CFEC11700EBEB
:1074A0005170C7104146284602F0F6FD0B9097FB3D
:1074B000F6F006FB1070301A099097FBF6F0001BEF
:1074C0000A90601E10AF1A901D283BD821463846FE
:1074D000FEF7F3FF01213819894600F8011C00204E
:1074E00017E000250CE0785D494606F0D7FB6A1CE2
:1074F0007855A24203DA79194978484078556D1CCD
:10750000A542F0DB0221484606F0C8FB814608F19F
:1075100001008046A042E4DB0020DDF86CB058E0BA
:1075200009998A4501DB012100E000210A9801EB5D
:1075300000090B991B98451810A8CDE90C501A9812
:107540001D2801D9AFF3008021462846FEF7B5FF7C
:1075500000201CE01BF808002978621E48400E90AD
:10756000691C2846FEF782FF002128190F4600F803
:10757000011C08E00D980E99C05D06F08FFBE95DD7
:107580004840E8557F1CA742F4DB08F10100804623
:107590004845DFDB002150460AE00A9A914201D1BA
:1075A000099A801A1E9A1BF80130491C1354304462
:1075B0004945F2DB0B990020514405E00C9A135C1D
:1075C0001E9A401C53543144A042F7DBCB440AF1CD
:1075D00001008246B042A3DB1FB0BDE8F08F00007F
:1075E00074EB0200800701D0002070470120704733
:1075F000C3688B4206D811440069491E814201D8F4
:10760000012070470020704790F82400012801D025
:107610001F207047EE20704710B501220221002084
:1076200001F0DCF808B1072810D10722022101205F
:1076300001F0D4F808B1072808D100210A22084631
:1076400001F0CCF808B1072800D1002010BD0220BD
:1076500000F0C6BF70B50024064D06E06868012141
:1076600010F8340004F0D4FF641C28788442F5D369
:10767000002070BD782B0020F8B516460C46054654
:107680000A2A01D20720F8BD05F0BCF818B905F0A8
:1076900083F80028F7D1134F102113487D603C7008
:1076A000BE60FEF70AFF0020C7E904000F4E0DE0A0
:1076B00005EBC4003168009181788DF801100078E5
:1076C0000B4A694604F0F6FF0028DCD1641EE4B2E0
:1076D000EED2BDE8F84005480021064A001D00F042
:1076E0005FB80000782B002028570020C8EC02006B
:1076F00081A30200F190020072B604F06FFB00BF9C
:1077000004F0C6F90028FBD111481249401AC408F8
:10771000012000EB044010A104F0D4FA11480068E5
:10772000C00700D000BE022000EB04400EA104F010
:10773000C9FABFF34F8F0B48E43801680E4A01F4D1
:10774000E06111430160BFF34F8F00BFFDE7000010
:107750000CF9020094F80200466174616C206572B5
:10776000726F7200F0ED00E053797374656D2072F2
:1077700065736574000000000400FA050EB5002171
:107780000091CDE901106A4644F20100FFF7B4FF11
:107790000EBD0000014801F08CBE0000982B0020B7
:1077A0003AB100680129426100D000210161002046
:1077B000704707207047000038B511480823582249
:1077C000416800910F49006803F065FA002815D15F
:1077D0000D4A69460D4801F071FE04000ED10121E9
:1077E0000A4801F0E2FE0123094A1946074801F060
:1077F00038FE0649012008390870204638BD0000CF
:10780000D0EC020048570020CDDC0200982B00206D
:10781000FFFF7F0070B50446007F0D4608B10020D1
:1078200070BDA26102F092FD401941F10001C4E96E
:107830000201206900B125612146BDE870400020A9
:1078400006F048BE014600200877012006F042BE3F
:1078500030B5EFF3108172B60D4A9468012324B15C
:107860000370002900D162B630BD93604FF0E02371
:10787000D3F88051074C25401560C3F88041D3F8F8
:10788000844154605A17C3F8842100220270E8E74B
:10789000A0570020FC06FFBD0B498A68002A11D0C2
:1078A00000280FD1EFF3108072B60B684FF0E02282
:1078B000C2F800314B68C2F8043100228A60002807
:1078C00000D162B670470000A057002070B51029A3
:1078D00002D830FA01F401D0AFF30080491E12D46F
:1078E0001D6820FA01F405F0070604F00104C6F152
:1078F000070602EBE505B4402E7834432C701C6873
:10790000641C1C60EAE770BD2DE9F05F9046834679
:107910008A46072A71D8084605F013FF0746002556
:107920004FF0030964E000245FE02A4621465846F0
:1079300002F096FBC8BBB8F1080F5ED2DFE808F092
:10794000040C13182028363D601900EBD07121F08B
:10795000010181423BD011E005EBD57020F0010020
:10796000A84234D00AE094FBF9F109FB114004E08D
:10797000611991FBF9F209FB121040B3002627E0D0
:1079800094FBF9F005EBD57180EA6100C007F4E7DC
:1079900004FB05F090FBF9F209FB120100EBD07239
:1079A00022F00102801A0844E7E71DE004FB05F01D
:1079B00090FBF9F209FB120106E004FB05F191FBD3
:1079C000F9F309FB131160194140C807D5E70126F7
:1079D0002A462146504602F043FB80EA06032A4627
:1079E0002146504606F0D6FA641CBC429DDB6D1C55
:1079F000BD4298DBBDE8F09FFFE7AFF3008070B5B4
:107A00001500044609D00020286034B1206820B158
:107A1000A079800703D0072070BD0E2070BD0846F6
:107A200000F020FBC0B2142804D02179814203D891
:107A3000042070BD052070BDE288216800FB0210A3
:107A40002860002070BD2DE9FC47002517880646F8
:107A5000158090F82D001446894630B13A462146EB
:107A6000484600F013FB051E09D1B0784FF00C0A10
:107A700018B32088C846001DB84202D95046BDE858
:107A8000FC87684679DF0028F9D12088032108F8AF
:107A9000001020881921401C80B2208008F80010B6
:107AA0002088401C80B2208000EB0801BDF8000057
:107AB00006F038FD218808442080F0780222C8B101
:107AC000218896F9033001F1030C4846BC45D5D80E
:107AD000425421884FF0010C491C89B2218000F8E2
:107AE00001C02188491C89B2218009F80130208811
:107AF000401C20807068B8B1218890F9003001F1F5
:107B0000030C4846BC45B9D8425421880A22491C76
:107B100089B2218042542188491C89B2218009F808
:107B200001302088401C2080308950B1CDE90047C9
:107B30004B460622022106F1080006F0C5FD051E8F
:107B40009DD1308A50B1CDE900474B460722032131
:107B500006F1100006F0B8FD051E90D1308B50B133
:107B6000CDE900474B461522142106F1180006F016
:107B7000ABFD051E83D1306A30B13B4622464946F3
:107B800001F0A5F9051EDBD1706A30B13B462246F3
:107B9000494602F09BFF051ED2D196F82C0038B161
:107BA0003B4622464946304606F0B0F9051EC7D18D
:107BB000307838B13B4622464946304603F010F84B
:107BC000051EBDD128465AE718B504460020ADF879
:107BD000000013466A46204600F006F8002802D04E
:107BE000BDF80000204418BD70B5C8B1C2B1002472
:107BF000158803E0065D641C3444A4B2A54203D892
:107C0000061976789E4201D08C42F3D38C4207D27B
:107C1000005DA31C401E9BB280B21C188C4201D98F
:107C2000002070BD138070BD80F8301070472DE9C2
:107C3000F0410D00044606D02CB195F87A000026DC
:107C4000012803D006E00E20BDE8F08195F89800E9
:107C5000012829D0D5F8A000042825D0D5F89C000B
:107C6000042821D04FF00108A6702C2205F17801DC
:107C7000201DFEF7FBFB84F83060D5F8A40060639C
:107C8000D5F8A800A0634FF6FF70A4F8240404F50B
:107C90008260C4F82004C4F82664A4F82A6484F836
:107CA0002C64207810B104E00720CDE7FF2084F891
:107CB000540004F155072046C4F81074FFF7A4FCE3
:107CC000A4F8140404F2144239462846FFF7BBFE18
:107CD0000028B9D104F23120C4F818042046FFF777
:107CE00093FCA4F81C0404F21C4205F13C00D4F8F7
:107CF0001814FFF7A8FE0028A6D184F85180208B25
:107D0000A4F8480084F83C80266484F850606069D8
:107D100000216064454604F13C02781E72DF0028B1
:107D200092D1257090E710B50288102A1BD0112A35
:107D300020D0262A1DD1007A0C46012801D0022825
:107D400017D1A0780521401CB0FBF1F201FB120114
:107D5000204600F03AF800280BD0A16B002908D08B
:107D6000BDE810400847C27B012A02D18088A1F8F3
:107D7000240410BD0C46002184F82E148088B4F829
:107D800024148842F5D120790028F2D10121DFE7BF
:107D900010B5044690F8540074DF012084F82E04D6
:107DA000002084F8300484F850000621204601F0B9
:107DB000D6FF002808D1A178204600F006F810B1BF
:107DC000A16B01B18847002010BD2DE9F05F04468A
:107DD00000780F4698B1A7700025C4F82654A4F87F
:107DE0002A5484F82C54A079012608B1012F09D017
:107DF000E07980B1012F05D0022F03D00BE00820DD
:107E0000BDE8F09F616B21B184F82D64082088479C
:107E100001E084F82D5404F2274100200A5C0AB1E5
:107E2000304603E0401C0628F8D300204FF002083B
:107E30004FF0030B012F06D0022F0CD0032F0FD0D1
:107E4000042F15D110E0A17929B194F8241011B9AB
:107E500008B130460DE0E17911B108B1404608E0C3
:107E6000207A08B1584604E0607A08B1042000E0A6
:107E70002846A070616B41B1032801D0042804D1C9
:107E8000607910B194F82E0498B184F82F5404F15D
:107E90003C0018210746FEF710FB84F83C6004F113
:107EA0002C0005F0FBF958B194F82C0084F851002F
:107EB00008E084F8305484F82F6407208847E6E708
:107EC00084F8516094F8240058B104F1280005F0BA
:107ED000E5F920B194F8280084F8520001E084F814
:107EE000526084F85050A27804F2264104F5826969
:107EF0004FF0060A052A64D2DFE802F07C030F2265
:107F0000420084F83160C4F82054C4E9101584F8A4
:107F10003C808020A4F8480055E084F8318094F833
:107F20002420384612B10722027001E080F800B028
:107F3000228A8281C4F820544160E168B96042E03D
:107F40006069B860208BB88194F824003D46002811
:107F5000204602D084F83CA001E084F83C6006F0A2
:107F600085FB50B185F814800421204601F0F7FE0E
:107F700038BB052184F8311021E084F831B01EE0CF
:107F8000E069B860208CB88194F824003D46002850
:107F9000204602D084F83CA001E084F83C6006F062
:107FA00065FB48B185F814800421204601F0D7FE16
:107FB00038B984F831A002E0042084F83100C4F814
:107FC0002094A07878B13A4604F15400D4F82014F3
:107FD00072DF00287FF414AF94F8301094F8540046
:107FE00073DF0028F6D1616B11B194F83100884736
:107FF000002005E784F83150F5E7000070B5040073
:1080000012D001461C221448FEF730FA1248134DD4
:108010000560206850B17ADF002806D12068016829
:1080200029604068686005E00E2070BD0B487BDF6A
:108030000028FAD108484FF6FF711438084A20F892
:10804000041B0549343901600021FFF7A9FB002812
:10805000EBD0032070BD0000AC550020602B002049
:1080600005E6020010B5044600F006F808B1204607
:1080700010BD142010BD0000142801D3002070474B
:108080000146014802F051BECC5500207CB50546A2
:1080900008880C460930904201D90C207CBD684606
:1080A0006DDF0028FAD121880820685420881B2120
:1080B000401C80B2208029542088401C80B220803F
:1080C0002844DDF801100160BDF80510818020888A
:1080D000801D80B220809DF80010490800D0012149
:1080E00029542088401C208000207CBDF8B5264CF7
:1080F0000546018800266089212933D00ADC102931
:1081000012D0112921D013292BD100231A46852101
:108110007FDF14E03B2933D052292CD0562920D1BF
:10812000A888132176DF0AE0072000F079FB08B168
:10813000FFF724FBA9886181144802F051FF002851
:108140000FD0BDE8F840FFF719BB4FF6FF70608114
:108150002079002805D00D480C3090F8540074DFC9
:108160002671F8BD0096A88869468FDF0028F8D0F0
:10817000FFF704FBF8BD00231A461946B1DFDEE71E
:10818000A888132176DFDAE7E02A0020E82D002016
:1081900010B51A4C0188606810290ED011292BD116
:1081A000401E606028D1FFF737FA002824D02168EC
:1081B000002921D0BDE810400847D0B90021012294
:1081C000084600F00BFB08B107280FD10722022157
:1081D000012000F003FB08B1072807D10422022187
:1081E000002000F0FBFA20B1072802D0216801B17D
:1081F00088476068401C606010BD0000582B00205C
:108200002DE9F04701883B4E40F2F3194FF6FF7518
:1082100010291BD011293ED0122954D0502946D103
:10822000C188F289841D914241D1618902293ED1E0
:108230008688304602F0D4F9050038D004F10C00ED
:1082400000F08AF9A8B3294630464EE0C17B878802
:10825000044601292BD1A846284602F0C1F90500A1
:1082600017D02F8000202872234843464A460168D1
:10827000C5F80A104068C5F80E0004F1100105F1B8
:108280000A0002F02DFA6872F08900280FD1294601
:108290002AE0042013E0808802F0A2F9040006D04E
:1082A0006068FFF7CFFA08B105F000FE2580BDE851
:1082B000F087FFE76868FFF7C5FA0028F7D0BDE848
:1082C000F04705F0F3BD87880646384602F088F986
:1082D0000400ECD02B464A4606F1080104F10A00DE
:1082E00002F0FEF9607221463846BDE8F04700F022
:1082F00035BE0000AC550020602B00202DE9F04F6A
:10830000044686880188424897B0834610290CD0DD
:10831000112950D0103019296AD01A2974D1217A24
:108320000C09042C4DD301224CE0394D083DA868BE
:10833000C0430B9069680BA802F01BFD0B990CA8B9
:1083400000F0A6FD2C220CA96846FEF78FF8002746
:10835000E946A84610E000BF09EB47005FF00005C2
:10836000B0F804A008EB85005146001D02F0D2FCD5
:108370006D1C1E2DF6D37F1C0098B842ECD8142E2D
:1083800005D317B00420BDE8F04FFFF7F7B9314629
:10839000584602F0D5FC314608F1040002F0D0FC4A
:1083A000E07B012830D017B03146BDE8F04F1848C7
:1083B000001D02F0C5BC17B03146BDE8F04F02F019
:1083C000A9BC0022314601F0C5FC032C01D30122D7
:1083D00000E000220E4831460C3001F0BBFC022CBC
:1083E00001D3012200E0002209483146083006E0AE
:1083F000217A002908D1617AC1F3C002314617B051
:10840000BDE8F04F01F0A6BC17B0BDE8F08F00004A
:10841000D055002070B5334D04008EB02DCD08AE80
:1084200086E82D005BD0E9B30868A061214608A862
:1084300062DF002851D1207801258DF83200ADF897
:108440003050A21C0CA92846A8DF002845D12021C5
:108450006846FEF732F80220ADF8000020788DF86B
:1084600002008DF80C509DF80D00F426ADF8046064
:1084700040F00C008DF81150ADF806508DF80D004D
:108480008DF81250608804F10C02694600F00AFC75
:10849000002822D120216846FEF70FF80320ADF80E
:1084A000000000E01BE020788DF802008DF80C50F1
:1084B0009DF80D008DF81150ADF8046040F01000EB
:1084C0008DF81250ADF806508DF80D008DF8135050
:1084D0006088221D694600F0E5FB0EB070BD0E20DD
:1084E000FBE70000A4EC020070B588B00446002948
:1084F00024D0002C22D008462188102920D05029D1
:1085000024D057291AD10546A188406906AAFFF749
:1085100076FA002812D1069E307800280ED0182155
:108520006846FDF7CAFF01208DF800000195A0887C
:10853000ADF808000396A9696846884708B070BD81
:1085400008B02146BDE8704004F078BC08B0214670
:10855000BDE8704004F052BD007800F001007047A3
:108560000149085C704700005CEC02000649095CA8
:108570004FF0A040D0F81005C84010F0010000D026
:10858000012080F0010070475CEC02002DE9FC4105
:108590000646C0074FF000050ED0104F0024012200
:1085A000385D009500231146019503F03FF9641CE6
:1085B000042CF4D300F046F8B0070DD5074E002484
:1085C000361D0022305D032300951146019503F00E
:1085D0002DF9641C042CF4D3BDE8FC8158EC020096
:1085E00007490B5C4FF0A041D1F8042501209840C9
:1085F00020EA0203C1F808351040C1F80C057047A5
:1086000058EC02000249085C012103F086B9000021
:1086100058EC02000249085C002103F07EB900001A
:1086200058EC02000649095C4FF0A040D0F8040560
:10863000C84010F0010000D0012080F00100704718
:1086400058EC020010B500242046FFF7DBFF641C45
:10865000042CF9D310BD10B500242046FFF7DAFF33
:10866000641C042CF9D310BD10B50246064B4FF024
:10867000FF3000215C5C944201D1084610BD491CCA
:108680000429F7D310BD00005CEC020070B50C4E5D
:108690000C004FF0000530600BD0012000F06AF8AC
:1086A00008B1022004E0002000F064F800B10B20C3
:1086B0002070706810B9FEF7AFFF0546284670BD00
:1086C000582B002010B5002000F0DAF908B1062878
:1086D00006D1012000F0D4F908B1062800D100200D
:1086E00010BD00002DE9F0470D468146FFF7BCFFA5
:1086F0000446042836D2DFF874801B481C4EA8F1CB
:108700000C0725B3012D0ED0022D2BD104EB440014
:1087100030444578002D25D0B968002922D028465C
:10872000BDE8F047084704EB4401755C0E447178DE
:1087300049B10E4A4FF48041093A8068FFF76AF860
:1087400008B987F80390B17808F80410E2E7806868
:10875000FFF778F804EB4401314418F804008D78F1
:10876000A842D7D0BDE8F08760EC0200542B00206F
:1087700048550020042801D2FFF7F8BE00207047BA
:108780000146144810B54089042910D0072917D094
:108790000A291ED1002000F043F808B1FEF7EEFFD1
:1087A000FFF790FF08B1FEF7E9FF33DF02E0132186
:1087B00076DF0CE000280CD0BDE81040FEF7DEBFED
:1087C000A0F57F41FF3904D10348FFF7E1FA0828FB
:1087D000F0D110BDE02A0020F42D002070B5002358
:1087E000042810D20D4D00EB4004012A02D10129CA
:1087F0000CD00022094E00EB4000304461B1012949
:1088000006D0022906D00723184670BD0E30C2B22A
:108810002A55F9E74270F7E78270F5E748550020DE
:108820000020704770B506461E480024C0E901616B
:10883000B00720D50025012211462846FFF7CEFFBC
:108840006D1C0446042D02D2002CF4D013E094B920
:1088500040F2333204211448FEF70EFF04000AD11F
:10886000FEF7F8FE040006D10F48104A0021001F51
:10887000FEF796FF0446F00712D00120FFF786FEB0
:1088800074B909480A4A00210C38FEF789FF040030
:1088900006D10548074A01210838FEF781FF044642
:1088A000204670BD482B00206CEC0200BD8B0200FE
:1088B00061A702004F7602002DE9F05F6E4C05467D
:1088C00000266078B34618B184F801B001F030FF9B
:1088D0006A4F4FF47A694FF4C87A4FF00108182DA7
:1088E00069D2DFE805F00C1313384754696E727BC8
:1088F000727BC58484848484B3B6B9BCC5C501F0D9
:1089000017FF3868FEF79EFF06465CE00020FFF781
:1089100089FE00284FF0000008D0FFF773FE022DFB
:1089200002D14FF4E16008E0484606E0FFF772FE2E
:10893000022D01D1C82000E05046410CC0034FF485
:108940007A72801841F10001257052000023FDF772
:1089500049FD01462AE00020FFF764FE00284FF0A1
:10896000000004D0FFF74EFE4FF44870E5E7FFF734
:1089700051FEDFE70020FFF755FE00284FF0000012
:1089800002D0FFF73FFECFE7FFF744FED4E7002019
:10899000FFF748FE00284FF0000002D0FFF732FE3C
:1089A00001E0FFF737FE257040F6CD410022386820
:1089B000FEF730FF064646E00020FFF711FE257067
:1089C00008E0002051E025703DE084F8018001209E
:1089D000FFF706FE002240F26661E8E784F80180B6
:1089E0000120FFF7FDFD00224FF40051DFE778681A
:1089F000FEF728FF0646D5F1110000D02EB1022067
:108A0000FFF700FE84F802B01DE0012816D980B2FD
:108A1000C8214843C117C90341EA5041C0034FF47C
:108A20007A72801841F1000152000023FDF7DAFC50
:108A3000014600227868FEF7EDFE06460220FFF7A9
:108A4000E9FD84F802803046BDE8F09F01F070FE39
:108A5000B9E701F06DFEB4E701F06AFE04E001F051
:108A600067FE0020FFF7D6FD0120FFF7D3FDAAE740
:108A7000FFF7F1FDA7E70000482B002060EC0200A3
:108A8000012105F088BE00002DE9F8430546861C4B
:108A900000208DF8000090460F464FF0010968460F
:108AA000FEF7D6FE1B4C20683860D4E90001401A5E
:108AB000A16804F21C47081A0EE00121384602F0B2
:108AC00052F901F063FE0146384602F04CF9D4E950
:108AD0000001401AA168081A401C8642EDD8B8F17E
:108AE000000F03D0052065F3891002E0062065F32E
:108AF0009F50A2682168114004EB8101C860206882
:108B0000304420609DF80000FEF7C6FE4846BDE8F0
:108B1000F8830000585A002070B50D4604460A2913
:108B200002D10D21FFF7F8FFA0682268411CA16067
:108B30001554D4E90101814204D32046BDE87040B8
:108B400002F027BB70BD0000034803C8814201D179
:108B50000120704700207047585A002010B54FF090
:108B6000A040D0F81015C90E11F0010F0DD1102141
:108B7000C0F80C15054900200870FEF7BFF904483D
:108B80008068BDE81040FEF75DBE10BDE02A002001
:108B900088EA0200034630B507480021047842689D
:108BA00006E000BF02EBC10005789D4203D0491CDE
:108BB000A142F7DB002030BD782B00200078022195
:108BC000FFF790BD10B54FF400434FF0FF329942CC
:108BD0002CD2012808D002280FD0042816D008284B
:108BE00016D007281CD019E001EB8100022101EB0F
:108BF0004000032190FBF1F00EE001EB410000EB9F
:108C0000C100401C00EBD070401005E0C80003E03C
:108C100001EB810000EBC100002805DAAFF3008012
:108C20000029FBD1182010BD9842FCDB104610BD76
:108C300005494FF0FF32082841F8202002D30844AC
:108C400080F848207047000058560020F0B54FF0DB
:108C5000FF3512B10023082601E008230C260C4C36
:108C600005E000BF54F823707F1C04D05B1CB342A6
:108C7000F8D32846F0BD26185DB286F8305044F887
:108C80002310002AF5D1E11881F84800F1E700002F
:108C9000585600200249084490F9300070470000FF
:108CA000585600202DE9F0438146887891B09046CF
:108CB0000C4600B901208DF83E002088ADF83C003C
:108CC00000250095607C694605F094F96E46A07C0D
:108CD000711C05F08FF9E07B00289DF8020002D09E
:108CE00040F0080001E020F008008DF80200217C2F
:108CF00011B140F0100001E020F010008DF80200EA
:108D0000217B11B140F0010001E020F001008DF85D
:108D10000200217D09B1022100E0012161F342003E
:108D20008DF802001C2102A8FDF7C7FB607BC1067D
:108D300001D4800617D50E950EAFE07C791C05F0A6
:108D400059F99DF83800079720F00F00401C20F0DB
:108D5000F00010308DF838009DF83A0020F0060041
:108D6000801C8DF83A00607B8DF80800A07B8DF8A0
:108D70000900142109A8FDF7A0FB0FA8CDE90906F9
:108D8000A088ADF83000A06820B1E088ADF82C00D4
:108D9000A0680D90A06998B301950088ADF8100007
:108DA000A06901AD01A94088ADF81200A069406832
:108DB00006950390A069007B05F01CF9A069691C69
:108DC000407B05F017F9A069807A00289DF806001D
:108DD00002D040F0080001E020F008008DF8060005
:108DE000A169C97A11B140F0100001E020F0100033
:108DF0008DF80600A169097A19B140F0010002E07E
:108E00000DE020F001008DF80600A169897B09B111
:108E1000022100E0012161F342008DF80600E069C3
:108E200000B10590434609AA02A94846AADF11B03D
:108E3000BDE8F08370B5084C050009D010342168F6
:108E4000002907D008682060496828468847F6E767
:108E50000834F4E770BD000044560020054A0121A3
:108E600020B1012805D19170FFF7E4BF51700020B7
:108E7000FAE770474456002010B5D0E90234D1E932
:108E80000220D11AA04101D3012010BD002010BD45
:108E900073B58CB00646002000900D9880B1002478
:108EA0006D4621460DA801F040FF30B1009805EB5A
:108EB000400084800098401C0090641C142CF0D367
:108EC0002C2269463046FDF7D1FA0EB070BD2DE96F
:108ED000F04117880646B81D14460D46984202D93F
:108EE0000C20BDE8F0813188072206290AD34FF40F
:108EF000486C4FF6FF73614501D9994202D17088E1
:108F0000062801D21046ECE7604501D99842F9D114
:108F1000994203D0984201D08142F3D80520E85508
:108F200020881221401C80B2208029542088401CB7
:108F300080B220804119308805F0F4FA2188084475
:108F400080B220804119708805F0ECFA218808442D
:108F500020800020C5E7FEF711BC000038B54A7A32
:108F60000F4B62B100220A725969002906D0012212
:108F70008DF80020ADF802006846884738BD0A7AAF
:108F800062B19B684C68024619462046FEF742FCD7
:108F90000028F3D0BDE8384004F088BF5B68F1E7F3
:108FA000AC55002070B588B00646002005900690AC
:108FB000ADF81410ADF816100190029001AA05A9A1
:108FC000304690DF050021D003F0D4FA0346114863
:108FD00011493246401AC108012000EB0140044605
:108FE0000E4902F07AFEBDF8042012B9BDF8060061
:108FF00028B1BDF80630204609A102F06EFEBDF88A
:1090000008201AB12046164902F060FE08B0284632
:1090100070BD000094F8020094F8020084F0020091
:109020005468652072657175657374656420545861
:109030002F5258207061636B6574206C656E677485
:109040006820697320746F6F206C6F6E672062797F
:109050002025752F2575206F63746574732E0000AD
:10906000D0F002002DE9FF410C4620B14FF406403C
:1090700004B0BDE8F0812079002748F2096538B1D5
:1090800041F61D5601281BD0022826D0681DEFE7A7
:109090000220207102970397E0680190694601A8B9
:1090A00004F060FD50B102988188E1800088208141
:1090B000BDF80010029804F0D3FDD9E72846D7E7A1
:1090C0000A4B6A460021A01D04F004FD38B107498F
:1090D00018398F61CF61A842CAD13046C8E703482A
:1090E0008188019804F0BCFDF5E70000E02B00202A
:1090F00070B500240F4D10E0686800EBC4063078AE
:1091000003F040FB7178012901D0012100E000212A
:109110004140307800F08AFB641C28788442EBDB05
:10912000D5E90401084303D0BDE8704005F0EEB96D
:1091300070BD0000782B00202DE9F74F029804F055
:1091400000FB00258046441E35E0062C00D1052496
:1091500000272DE00026601C40F34009A4EB060B1D
:10916000B9F1FF3F03D0A8EB0700401E00E03846EE
:10917000824602465946029800F072FFA0B9019853
:10918000B5EBC00F10DA009805F0070100EBE50021
:10919000C1F1070100785246C84000F0010359466A
:1091A000029804F0F7FE6D1C761C022ED6DB7F1CA5
:1091B0004745CFDBA41E012CC7DA0198B5EBC00FE1
:1091C00001D0AFF30080BDE8FE8F00002DE9F04133
:1091D0001746072916D8394A52F8200041EAC0023A
:1091E00010460021431240F237546343491C83EA7E
:1091F00040000A29F6DB40EA822445F2124044404E
:10920000E01301D0AFF300805FF0000544FA05F0F1
:1092100000F001032A460821384604F0BBFE6D1C0D
:10922000052DF3DDC4F3801307220821384604F02E
:10923000B1FE0822C4F3C0131146384604F0AAFE5A
:10924000C4F3002308220721384604F0A3FE0925B1
:1092500044FA05F000F00103C5F10E01082238467A
:1092600004F098FE6D1C0F2DF2DB384604F069FA0D
:109270000646002544FA05F000F00103711B0822A0
:109280003846491E04F086FE6D1C082DF2DB0825C9
:1092900044FA05F000F001037219082138460F3A2C
:1092A00004F078FE6D1C0F2DF2DBA6F108023846A3
:1092B000BDE8F0410123082104F06CBE18EC020067
:1092C0002DE9F34F83B08B46039804F03AFA072454
:1092D0008046C51F0CE0002322460621039804F0B7
:1092E00059FE002306222146039804F053FEA41CD5
:1092F000AC42F0DB6FF003063446254603E035460A
:1093000001E0290000D56942002C01DB204600E085
:109310006042884202DD210000D56142022901D06D
:10932000042915D10023E21CE91C039804F053FE24
:1093300008EB05010023E21C091F039804F04BFE13
:1093400008EB04020023E91C121F039804F043FEFB
:109350006D1C042DD5DD641C042CD0DD69465846F7
:1093600000F058FE8146002729E0002624E027B9B6
:109370000EB3A9F1010086421DD0A9F10100874278
:1093800000D1C6B14FF0FF344FEA0D0A4FF0FF3560
:1093900055EA040029D000231AF806101AF807002D
:1093A0000A194119039804F0F5FD6D1C012DEFDD3C
:1093B000641C012CEADD761C4E45D8DB7F1C4F4532
:1093C000D3DB5846BBF1070F2DDB0021C21241F65B
:1093D00025735A43491C82EA40000C29F6DB40EA17
:1093E0000B36B01403D0AFF300800123D4E7002480
:1093F0005FF0000506F0010008EB05078146034613
:109400000B3F22463946039804F0C4FD4B463A46CA
:109410002146039804F0BEFD76106D1C032DE9DB98
:10942000641C062CE4DB05B0BDE8F08F10B500210C
:10943000024801F0B3FC80F3100010BD745E002000
:109440004FF480328A400168C1F848230068C0F8B0
:10945000082370474FF4A07202EB810189B200F03B
:1094600055BA2DE9F04105460E464FF4A07000EBC9
:10947000860081B228684FF48034B440984622F0C8
:109480007F47C0F808432868C0F84843286802F0BE
:10949000BBFD286800EB8600C0F840752868C0F85E
:1094A0004443B8F1000F02D02868C0F80443BDE877
:1094B000F0810068D0F804057047000070B543796A
:1094C000224C44F823204279241D04EBC202204B95
:1094D0001579204A9A1AD3082DB10824022000EBEE
:1094E00003401DA12EE002680D88C2F8085590F9CE
:1094F00004208978002A4FEA411106DA02F00F02AF
:1095000002F1E02282F8141D03E002F1E02282F869
:10951000001490F90410012201F01F0502FA05F56C
:109520004909890001F1E021C1F80051417904EBBA
:10953000C1010A71417944F831000320002400EB95
:1095400003400EA102F0BEFB204670BDB42B0020EC
:10955000ECF8020094F8020052544320696E7374D0
:10956000616E636520616C726561647920696E6902
:109570007469616C697A65642E0000005254433A44
:1095800020696E697469616C697A65642E000000F7
:1095900090F90400012100F01F0291404009800071
:1095A00000F1E020C0F8001270470A46022100F0E6
:1095B00033B94FF4827100F0A9B90068012101604C
:1095C000704700680121416070472DE9F05F074650
:1095D0000C464FF4A07000EB84001FFA80FA386844
:1095E0004FF48036A6409B4622F07F45C0F8486382
:1095F0003868C0F808633868D0F8048500EB840246
:10960000D2F84095C2F840855146386802F0FCFC1B
:10961000A9EB080020F07F40012806D1102002F0BD
:10962000EFFF5146386802F0EFFC3868D0F8048547
:10963000C0F84463A5EB080121F07F413868012997
:1096400000EB840010D0C0F840553868D0F80415FD
:109650006FF07F4C6A1A521E22F07F42ACEB0B0374
:10966000934217D362B118E06D1CC0F8405510202A
:1096700002F0C6FF3868D0F8040540450AD10CE076
:1096800000EB84006D1CC0F840553868D0F8040524
:10969000884202D00D20BDE8F09F012231463846B5
:1096A00000F0BAF80020F6E710B54FF0A040D0F86F
:1096B0001005C00E10F0010F0FD10848C068FEF76A
:1096C000C1F80748816911B1012904D101E00121E4
:1096D00000E0022181610021417010BD88EA020092
:1096E000E02A00202DE9F843104D0F4680461E4623
:1096F00091466946286801F0E1FA040014D01C2163
:10970000FCF7DBFE01202071C4F81490380BC4F87C
:109710000080C4E902606946286801F0F0FA04F0AC
:10972000BFF90020BDE8F8830420FBE7E0EE02006B
:1097300010B503780022072B06D2DFE803F00504FA
:109740000610202930000A7010BD01230B70038918
:109750008B818388CB81C06888600A7410BD022227
:109760000A7002898A818288CA81C2688A60807D83
:10977000062802D00020087410BD0120FBE7032258
:109780000A70C2888A810289CA81C068886010BD57
:1097900004230B70C0888881CA818A6010BD0520AF
:1097A000087010BD70B5064D0646002455F824100B
:1097B00009B130468847641C042CF7D370BD000003
:1097C000D457002030B50446006887B00D46806845
:1097D00000281FD018216846FCF76FFE0195A0688D
:1097E0000590207910B1012810D107E001208DF8F3
:1097F000000020690290E068039005E002208DF8E7
:109800000000E068000302906069049020688168AD
:109810006846884707B030BD0368C3F84413002A80
:1098200002D00068C0F80413704700002DE9F84F1B
:109830000E463449804601EB5001C007097801D03B
:109840000F0901E001F00F074FF000094246012027
:109850004946FCF7F8FDDFF8B0A004460D46052F99
:109860004ED2DFE807F003161B282C00002E47D04D
:109870000121404604F068FD8DF800906846FDF730
:10988000E7FF5046D0E904120C431543CAE90445EA
:1098900032E00EB1022114E0002112E04EB10321AA
:1098A000404604F051FD4046BDE8F84F012104F068
:1098B000FBBE012105E0002E22D1042101E02EB1E2
:1098C00003214046BDE8F84F04F03EBD002140466C
:1098D00004F03AFD0021404604F0E6FE8DF80090C9
:1098E0006846FDF7B5FF5046E243D0E904341A401C
:1098F00024EA0501CAE904219DF80000FDF7CCFF28
:10990000BDE8F88F28570020782B002010B500689C
:1099100042581AB102F078FB012010BD002010BDA2
:1099200070B5027800253C4C96B001267AB12146EC
:10993000012A897901D0022A07D14068002804D180
:10994000002902D0E661E671A57116B070BD4068CD
:109950000028FAD1079503950121069504950595F0
:109960000C950CAB03AA08460D9500F033F998B39B
:1099700010951595ADF8406013951495ADF84260BB
:109980002648CDE9110610A913A800F059F908B12D
:10999000FDF7F4FE1198E062FDF74CFD0195099585
:1099A0000A95022102950B950E950EAB09AA084661
:1099B0000F9500F00FF90028C7D101A909A800F000
:1099C00011F908B1FDF7DAFEDDE9010240888100F6
:1099D00021630020124B14E0FFE706A903A800F062
:1099E00001F908B1FDF7CAFE0798E06203A800F08C
:1099F000ABF80028D0D0FDF7C1FECDE7155C1D54B3
:109A0000401C8842FAD309A800F09EF808B1FDF77F
:109A1000B5FEE66199E70000E02A002088EA02002E
:109A2000403200200D4808B5007888B1684603F040
:109A300067FF80B106210170684603F06FFF084898
:109A4000017809B10121017304F01CF8002008BD60
:109A500048F2016008BD48F2076008BDE82B00200D
:109A600098580020F0B587B014216846FCF725FD12
:109A7000304C207818B16846FFF794FE57E0201D5F
:109A800001F06EF998BB40F6F8700168481C02D1ED
:109A90004FF0102041694FF08050026940694B1C23
:109AA00001D100FB02F1244800220161A1F54051DF
:109AB000C160224901F002FD002823D121481C2366
:109AC0008C221F49006801F0E6F803F04FFB050007
:109AD00016D0022D14D000270126062D14D005A87B
:109AE00003F00EFF98B106700C2D1BD200E01EE0B3
:109AF000DFE805F0181018101817181718121412AC
:109B000048F20A6007B0F0BD26706760B3E748F21C
:109B10000760F7E7077105E0032100E0022101710A
:109B200000E0067105A803F0F9FE03F0ABFF00208A
:109B3000E8E70000E82B00206C2C0020F0EE02008B
:109B4000E457002068EE020038B5040014D06946DE
:109B500004F008F8B0B1BDF8000000EB80010B483C
:109B600000EB8100C16851B1A17A41B1C168491EC1
:109B7000C1600020A07238BD48F2046038BD48F2D0
:109B8000056038BD48F2096038BD000070580020FB
:109B900038B504460E48007888B19CB1684603F099
:109BA000AFFE90B104210170002101712168C160F4
:109BB000684603F0B3FE03F065FF002038BD48F2AD
:109BC000016038BD48F2046038BD48F2076038BD16
:109BD000E82B00201FB501A9684603F07BFF04B005
:109BE00010BD0000F8B50D46040018D0BDB169469F
:109BF00003F0B8FFB0B1BDF800000C4900EB8000E5
:109C000001EB800001210C30666801F0ACF82E6099
:109C100060680C3068600120A0720020F8BD48F236
:109C20000460F8BD48F20960F8BD000070580020DB
:109C300018B10323002204F0F5BD48F20460704718
:109C40000223002204F0EEBD094910B50A69042A76
:109C50000AD0084A096942F821000548012110305C
:109C600001F081F8002010BD48F20B6010BD00002B
:109C7000C82B0020D45700202DE9F05F98461746E6
:109C80008A4681460025DDF828B00EE000240AEB64
:109C9000050607E0324609EB04010123584604F0AB
:109CA00079F9641CBC42F5DB6D1C4545EEDBBDE873
:109CB000F09F70B5044608680D4600B91444182298
:109CC000281DFCF7D3FB2C6070BD10B5426801EB7A
:109CD0004101914201DAAFF30080002A16DD81686C
:109CE000914213D1C16802EB420399420ED101693E
:109CF00091420BD14169914208D10168B1EB820FC9
:109D000006DB8369934203DB012302E0002308E0C2
:109D100000238069B0EB820F03DB914201DB01205D
:109D200000E00020184410BD70B51C4615460B46D7
:109D300028B1224629461846FFF7BBFF0023181911
:109D400022462946FFF7B5FF21462846BDE8704068
:109D5000FFF7BBBF0AB100F0F3BF00F0DBBF70B587
:109D60000D460446B0F81414D0F810040122FDF793
:109D70002BFF00B1057004F13C0204F5826104F18F
:109D8000540072DF70BD000010B5002821D0114BC7
:109D90000022001F196803E0814203D80A4649687F
:109DA0000029F9D152B11368841A9C4204D1006889
:109DB00018441060104602E0506000E0186039B1AD
:109DC00002680B1A934203D10B681A440260496877
:109DD000416010BD642C0020406803F0B1BD00005C
:109DE00006484A8843899A4207D10A88A2F5206327
:109DF000773B02D18988C91E81817047E02A002003
:109E000010B50949094801F032F808B1FDF7B6FC70
:109E1000F721064801F01FF8002803D0BDE81040E4
:109E2000FDF7ACBC10BD0000E19D0200D42D002068
:109E300070B510B14FF4064070BD1A4C0025207B60
:109E400008B1257301E000F0A1F82078082826D297
:109E5000DFE800F02504080C10251420BDE8704050
:109E600000F022B8BDE8704000F07EB8BDE8704058
:109E700000F060B8BDE8704000F03CB86088094967
:109E800000EB8000283901EB80004068BDE870409D
:109E900003F04CB96560BDE8704003F055B948F275
:109EA0000E6070BD985800201149F0B48A1C002043
:109EB0000346A1F128050C18A67A4EB1A37200EB57
:109EC000800405EB8404E66816B9247C012C0AD0D2
:109ED000401C80B20228EED30B704B804B60F0BC6C
:109EE00041F61D5070471080F0BC00F03DB80000F6
:109EF000985800200C48418801EB8102A0F128010C
:109F000001EB8201CA6852B10521017007480221A4
:109F10008180016800230122054801F033BA042240
:109F200002704968F6E7000098580020F02B0020E6
:109F30006C2C002038B50A49084803240B68426895
:109F4000898803EB810153880470DB1C00201B040B
:109F500000909B0B034801F069FB38BD9858002026
:109F6000F02B00206C2C0020074910B54888091DF3
:109F700003F048FE18B1BDE81040FFF7DBBFBDE8B5
:109F80001040FFF7B7BF000098580020F0B51F48F9
:109F90001F490125067802248B88A0F12802082E8B
:109FA00019D2DFE806F00418181B222F2F17018999
:109FB000491C01810021418080F80C1001EB8103D4
:109FC00012F8233043B100234418491C89B2A3720C
:109FD0000229F3D30570F0BD0123F5E742685288EA
:109FE000D21C1A448A800470F0BD46880D6806EBC6
:109FF000860602EB860256680E60556013818C80DF
:10A00000062100E007210170F0BD000098580020F3
:10A01000F02B002030B50346012815D0072093FB14
:10A02000F0F0801C202B11D09A0002EB40026FF060
:10A03000010404EB4004521C92FBF4F25400421E53
:10A040000A2505EB830306E0002030BD1A24F6E75D
:10A050008B541B1B521E012AFADA06220A7030BDED
:10A0600010B50378A3F115049C2C07D8002905DB53
:10A07000994203DA002A01DB9A4201DBAFF3008048
:10A0800002FB031100EBE10001F007014078C8403A
:10A0900000F0010010BD000070B505460C46042913
:10A0A00001D3AFF3008000F015F804EBC401084AB7
:10A0B00001EB4411064B0A44A43319445257495743
:10A0C00012FB01F1C21700EB5270C1EBE00070BD52
:10A0D000D0EA0200014610B5401E272819D880207A
:10A0E00000EB01104843403002290DDB072291FBB1
:10A0F000F2F26FF01803921C534337300A3303FB1C
:10A100000200072900DB2438A0F1D001B1F5E64FA9
:10A1100001D9AFF3008010BD2DE9F04788B0824629
:10A1200003F00FFB0446002528463EE0814600264A
:10A130001C216846FCF7C1F9002728E04246394651
:10A140005046FFF78DFF484509D1761C052E03D0F8
:10A150001CDD05F1010519E005F1030516E02246B5
:10A1600069463046FFF7A5FDB9F1000F07D121463A
:10A170006846FFF7AAFD00EB800005EBC0054246EC
:10A1800039465046FFF76CFF814601267F1CA742E7
:10A19000D4DB23466A4631464846FFF7C5FD00EB4F
:10A1A000800005EBC00508F101008046A0424FF099
:10A1B0000000BBDB3EE0814600261C216846FCF720
:10A1C0007CF9002728E03A4641465046FFF748FF11
:10A1D000484509D1761C052E03D01CDD05F101058B
:10A1E00019E005F1030516E0224669463046FFF7FF
:10A1F00060FDB9F1000F07D121466846FFF765FD04
:10A2000000EB800005EBC0053A4641465046FFF79B
:10A2100027FF814601267F1CA742D4DB23466A46DE
:10A2200031464846FFF780FD00EB800005EBC00596
:10A2300008F101008046A0424FF00000BBDB8046E1
:10A24000671E24E000261EE0424631465046FFF7D6
:10A2500007FF81464246711C5046FFF701FF484503
:10A2600010D108F1010231465046FFF7F9FE48458A
:10A2700008D108F10102711C5046FFF7F1FE484574
:10A2800000D1ED1C761CBE42DEDB08F10108B845AA
:10A29000D8DB4FF0000847460DE0002608E03A46BC
:10A2A00031465046FFF7DCFE08B108F10108761C84
:10A2B000A642F4DB7F1CA742EFDB08EB8800644377
:10A2C0008100604200EB800011EB400000D540426D
:10A2D0002044401E90FBF4F0401E00EB800008B0CC
:10A2E00005EB4000BDE8F0872DE9F74F0E465FEA29
:10A2F000000800D136BB002425464FF0FF3B4FF449
:10A3000000491BE008EB05104768D0F80CA04F454A
:10A3100018D2CA4516D20078029902F02FFD1028F3
:10A3200010D801218140B94204DD50440444241D69
:10A330004C4502DB5846BDE8FE8F6D1CB542E1D3AB
:10A340004C4501D3AFF300802046F4E710B50B482D
:10A35000FFF7AFF8094A083AD2E90434C018D2E945
:10A36000063244F10001C31A71EB020204D24FF02D
:10A370008072801841F1000110BD0000982B002070
:10A3800010B5C0B2FEF706FC0446007802F0FAF9F8
:10A3900001466078012801D0012000E0002090EA09
:10A3A000010F08D00449D1E90401084303D1BDE8F5
:10A3B000104004F0ABB810BD782B0020428800EBB1
:10A3C00082020C328A4201D9022070478188A1F5AD
:10A3D0007F42FF3A06D0018821B18068401C01D03D
:10A3E0000020704701207047884204D20068401C5A
:10A3F00001D00120704700207047000010B50A49C5
:10A4000041600A4800F0ACFC58B902F00FF8074967
:10A410001C238C22087404488C39001F006800F04B
:10A420003AFC002010BD0000E4EE02004459002078
:10A430002DE9F0412D4F002520B17D604FF40640FD
:10A44000BDE8F0810879012258B1294E01280CD0CD
:10A45000264C4FF002080834022820D0032841D1AE
:10A4600027E00A7102F070FE3AE0002000EB800164
:10A4700016F82110022908D0401C80B20228F5D31A
:10A480003A707D6041F61D50DAE700EB800006F877
:10A49000205006EB8000406802F048FE20E00D717D
:10A4A000A4F80480002301221248216800F06AFF0A
:10A4B00016E00D71206802F039FE0D49236828313D
:10A4C000498801EB810206EB8201D1F804C0C4F88F
:10A4D00000C04B60A3880B81A4F8048006F82250CA
:10A4E0000028ADD07D6048F20D60A9E7E82B002080
:10A4F000705800206C2C00202DE9FE4F0C4682463F
:10A50000112101EB8A0808FB08F0C01DC11700EB00
:10A510005170012101EBE0012046FBF7CEFF84F8EA
:10A52000008043460122002106200094FFF7A4FB8F
:10A5300001234246062100200094FFF79DFB0923DA
:10A5400000211A4608460094FFF796FBA8F1080080
:10A5500009230822002105460094FFF78DFB0823FC
:10A560000922294600200094FFF786FB01A95046E6
:10A57000FFF750FD064600271BE00025A6F1010964
:10A580000DF1040B12E017B97DB14D450DD04F45CB
:10A5900000D155B100941BF805101BF807000523E6
:10A5A0001A46801E891EFFF767FB6D1CB542EADB69
:10A5B0007F1CB742E1DBBAF1070F0FDBA8F10B00FC
:10A5C00006230322002105460094FFF755FB0323D1
:10A5D0000622294600200094FFF74EFBBDE8FE8FBF
:10A5E0000146034802888A4200D0002070470000DC
:10A5F000985500202DE9FC5F0E008346DDE90C47ED
:10A60000C6F1000098469246814600D408460125CE
:10A6100003E000BF90FBFAF06D1C5045FADAA84544
:10A6200000D9454624B1002E01DB780700D5641E11
:10A63000B80702D5B8F1000F0AD0F80708D13CB12D
:10A64000A54205D220215846641EFEF765FAF6E7BA
:10A65000002E02DA4E462D2102E0780703D52B2189
:10A660005846FEF759FA07F0030002280BD1B8F15B
:10A67000000F08D13CB1A54205D230215846641ED6
:10A68000FEF74AFAF6E7CDE900474346524631461F
:10A69000584603F05DFFBDE8FC9F024600201268AB
:10A6A000530713D502F00300012802D002280CD171
:10A6B00005E0C2F383100B68801C184404E00223F9
:10A6C000086803EB925210440860012070470000B4
:10A6D0000248007A002800D0012070474459002029
:10A6E000F0B58488A518944200D82246A41AC288DE
:10A6F000D6189A4200D81346D21A4B880788BB4214
:10A700000CD34088834209D88888A04206D3A84247
:10A7100004D8C888904201D3B04201D90020F0BDCE
:10A720000120F0BD800701D0002070470120704754
:10A730000A4810B5807860B1002401E0022C06D0F0
:10A740002046FDF75FFF641C042CF7D310BD0324E3
:10A75000F6E7BDE81040FDF775BF0000482B00206C
:10A7600003480179C90702D00078FEF7A5B8704701
:10A77000482B0020F7210180172141800021017121
:10A780004171FB2181711B21C17170472DE9FF418E
:10A790000026234800F0E1FA2148001F074600F098
:10A7A000DCFA204C60680090A56800E000986946DB
:10A7B000284004EB80000C30FFF76FFF0028F5D134
:10A7C00001AA009901EA050304EB8303491CDB6835
:10A7D00042F82030401C00910228F2D3019800F08A
:10A7E000030001280BD0022810D10198032101EBAE
:10A7F00090500099BDF80A6001EB900005E00198C7
:10A80000BDF80A60C0F3831008440090384600F099
:10A81000A1FA08B10098606004B03046BDE8F0814C
:10A82000705E0020585A002030B5ABB0FCF7C4FF72
:10A8300008B1FCF7A3FF76490320FDF7F3FF08B149
:10A84000FCF79CFF69460020FDF720FF08B1FCF7EC
:10A8500095FF01F0A1FB08B1FCF790FF01F09AFD14
:10A8600008B1FCF78BFF002469460120009401F039
:10A8700007FC08B1FCF782FF684601F099FC08B1BB
:10A88000FCF77CFF9DF8080062A120F00F00401C3F
:10A8900020F0F00010308DF80800162202A87CDFAE
:10A8A00008B1FCF76BFF0094F020ADF800004FF406
:10A8B00016700194ADF80200ADF804404FF4C87072
:10A8C000ADF8060068467ADF08B1FCF757FFFFF7DE
:10A8D00097FA5648019001A9554800F08CFB08B141
:10A8E000FCF74CFF5348009069465348FDF792FD32
:10A8F00008B1FCF743FFAC216846FBF7DEFD022000
:10A900008DF800008DF8024005208DF8030001202D
:10A91000ADF84C0048498DF87C004FF448602E3962
:10A920002290149144F2506023904448299040486A
:10A9300069460C30FDF77BF908B1FCF71FFF3C4876
:10A9400001210C30FDF770F91C216846FBF7B5FDBD
:10A950004FF4A030CDE900404FF4F0200290384889
:10A960000590032537488DF80C500690ADF80E4041
:10A970008DF810406846FDF741FB08B1FCF7FEFE7C
:10A980003148C0F80057314A01213148FCF708FF2F
:10A9900008B1FCF7F3FE2E482E4A0121001DFCF7FA
:10A9A000FFFE08B1FCF7EAFE29482B4A01210830D6
:10A9B000FCF7F6FE08B1FCF7E1FE41F2883000F04A
:10A9C0004FF81D4C403C6063E8B1FF21C822009164
:10A9D0004FF487731146FCF753F8606BFCF76EF881
:10A9E000FF20FBF795FFFBF701FE1C48FFF72CF952
:10A9F00008B1FCF7C3FEFFF735F808B1FCF7BEFE5F
:10AA000003F0CEFBFCE72BB04FF0FF3030BD000071
:10AA1000818702004D6F74696F6E2D506F7765727C
:10AA200065642045696E6B546167000005C00200D3
:10AA3000E82D0020C5CD0200202B0020F5CD02001E
:10AA400021CE0200578F02001000005059740200FE
:10AA50008CEA02005D8B0200A99602002199020097
:10AA6000F0B50B30154D20F007010024144A0FE01B
:10AA700003688B420BD38B4205D95E1A4318476893
:10AA8000C3E9006700E04368136002C004E0021DF0
:10AA900010680028ECD12046002802D1286808B1AF
:10AAA0000020F0BD064A07481060074A121A22F03B
:10AAB0000702C0E9002401202860D7E7682C0020A5
:10AAC000642C00200C6100200881002070B5144621
:10AAD00082880E4605462088111D0144921C994229
:10AAE00001D8FE2A01D90C2070BD521C3254208896
:10AAF000FF21401C80B2208031542088401C80B24D
:10AB000020808119288803F00DFD2188084480B237
:10AB10002080AA8842B1A96841B13044FBF7A6FC65
:10AB20002088A98808442080002070BD072070BDBF
:10AB30002DE9F047C5881E1DB6FBF5F78946B6FB23
:10AB4000F5F1044605FB176C407916686843DDF89B
:10AB500020A0F718001F874200D9C61A166001E02E
:10AB60002468491E0029FBD1A5EB0C078846B74293
:10AB700016D818E004EB0C00001D09EB0803BAF12D
:10AB8000000F3A4602D00146184600E01946FBF78E
:10AB90006DFC2468F61B4FF0000CB844B54201D997
:10ABA000374600E02F46002EE4D1BDE8F0870000D4
:10ABB00030B5024651B101F0F9F80021074C08E028
:10ABC00034F821301568AB4202D11160002030BD4D
:10ABD000491C8142F4D3052030BD00000000000074
:10ABE000F8B50F46017814460546012901D1687869
:10ABF00030B12088821C9A4232D8012902D006E066
:10AC00000720F8BD69780144891C994228D8181A90
:10AC1000801E86B2ADF800602188B81C08446946E1
:10AC20007DDF0028EDD12978022904D06878BDF8AD
:10AC30000020904205D3BDF80000B04201D80920A1
:10AC40000AE00820012905D16978B14202D8ADF89F
:10AC5000001001E0ADF80060BDF80010FE2901D938
:10AC60000C20F8BD2288491CB9542188491C89B29E
:10AC7000218078542088401C2080BDF800100844B2
:10AC800020800020F8BD10B5FBF70FFB08B10020B5
:10AC900010BD112010BD10B531B1B2FBF3F403FBB0
:10ACA00014241CB1092010BD0E2010BD016000212C
:10ACB000416081608281C381084610BD70B50C4639
:10ACC0000546FBF7A7FA002802D021882868084427
:10ACD00070BD10B50A8849888A4203D1FBF7DCFAB7
:10ACE000012010BD002010BD70B50C460546FBF7D5
:10ACF000B6FA002802D061882868084470BD10B5F3
:10AD00000A8849888A4203D1FBF7A0FA012010BDC6
:10AD1000002010BD01F01F0301229A40D2434909CF
:10AD200000EB8100114600F024B84A0950F82200D7
:10AD300001F01F0201219140084000D0012070471E
:10AD400001F01F0301229A40490900EB81001146DE
:10AD500000F029B8002100F017B8012100F023B855
:10AD6000012100F016B808B56A46FBF7EAFA009828
:10AD700008BD08B56A46FBF7CAFA009808BD08B5D1
:10AD80006A46FBF7DEFA08BD08B56A46FBF7BFFA6C
:10AD900008BD08B56A46FBF7ADFA08BD08B56A46B6
:10ADA000FBF79CFA08BD08B56A46FBF7A3FA0098C2
:10ADB00008BD08B56A46FBF7D1FA009808BD38B55A
:10ADC000044600258DF800506846FCF741FD2168D7
:10ADD0006268086890420ED9401E08600178238A94
:10ADE000E26801FB0325227A2168101AC0B20A79B1
:10ADF000824200D208719DF80000FCF74DFD284604
:10AE000038BD38B5054600208DF800000C46684670
:10AE1000FCF71EFDE868298A201AB0FBF1F12A68C8
:10AE20001068431C136001709DF80000FCF734FDAE
:10AE300038BDC20800F007030120895C9840084033
:10AE4000704710B5C20800F00703885C01249C40DD
:10AE50002043885410BD28B1A1F11702E12A03D381
:10AE6000072070470E20704701800020704710B502
:10AE700060B10161F72120F8021B20F8021BFB21C1
:10AE800000F8021BFFF776FC002010BD0E2010BD5D
:10AE9000F0B5858893B00C46002D39D10188002685
:10AEA0003F4F24293BD006DC102909D011290CD0B2
:10AEB000232958D14FE03A290BD0552953D129E005
:10AEC0000146204601F0F0FF4DE0A01DFFF752FCC7
:10AED00049E02246408934F8061F814200D80846DE
:10AEE0006080172800D217206080106970B16079E7
:10AEF00060B1D7E90001CDE90301ADF80E506088DB
:10AF0000ADF81000136903A91046984766712671C1
:10AF100013B0F0BD0146204602F01AF823E0011DEF
:10AF20002C2206A8FBF7A2FABDF81800BDF81C20D9
:10AF300004EBC0014A732269AAB1D7E90423CDE921
:10AF40000423ADF81200487B8DF8140022692046D6
:10AF500004A9904707E0017A207B884200D201468D
:10AF60002846FEF71FF8A07A0028D1D0E1882846AD
:10AF7000A5DF012580B11128CAD001F0FBFA0246F5
:10AF80000848094913B0401AC00805EB0040BDE865
:10AF9000F04006A100F09ABEA672E572B8E7000084
:10AFA0008CEC020094F8020094F8020073645F6273
:10AFB0006C655F67617474635F65786368616E6711
:10AFC000655F6D74755F726571756573742829208E
:10AFD00072657475726E65642025732E0000000022
:10AFE00020B10278DE2A03D0082070470E20704777
:10AFF00041800020704760B159B10278DE2A0AD042
:10B0000009684160DE2101704FF6FF714180002028
:10B0100070470E207047082070477FB5054600290D
:10B020004DD0002D4BD008780C46DE2847D1A8889B
:10B030006188884202D1204603F024FB2888012839
:10B0400025D002283BD011283AD0512837D135F8E5
:10B05000040F6188884232D1A978A81C02292ED118
:10B06000017A042903D0062901D0052927D100211E
:10B07000009102228DF8002001914FF4C0720291DC
:10B080000391ADF80420007A05280FD010E0297A4A
:10B090002046012913D1A988428891420FD101216C
:10B0A000017204B0BDE8704003F0ECBAADF80410D2
:10B0B00028886946B0DF002801D0616888477FBDD5
:10B0C000A88861888842FAD14FF6FF7060807FBD02
:10B0D00000F180400068002800D00120704708B5CA
:10B0E00000F18040002101600068009008BD000070
:10B0F0002DE9F041040007D0044E4FF47A47751C47
:10B100003846A847641EFAD1BDE8F081B0EA0200D3
:10B1100070B50B4C207808B185250FE00020A060A9
:10B1200060602061E060074801F044FA054601F0E4
:10B130007DF908B901F028FA01202070284670BD79
:10B14000445600205D8E020038B500258DF8005071
:10B150006846FCF77DFB074CE068401EE060E06855
:10B1600010B901F037FAA5709DF80000FCF794FBC8
:10B1700038BD0000445600200FB408B503990029DB
:10B1800004D004AA00926A4600F00FF801B05DF8FE
:10B1900014FB10B582680446002A05D0D4E90403E4
:10B1A000216898470020A06010BD2DE9FC4791461A
:10B1B0000C00804676D014F8011B39B125290ED039
:10B1C0004046FDF7A9FC20780028F4D198F80C003F
:10B1D000002867D04046BDE8FC47FFF7DABF0020F3
:10B1E000012221782B291BD02D2902D0302908D10A
:10B1F00002E040F0010001E040F00200641C002A7F
:10B20000EFD100252A290ED02178A1F130020A2A97
:10B2100011D205EB850201EB4205641C303DF1E7DC
:10B2200040F00400EAE7D9F800100B1DC9F800301F
:10B230000968641C0D44217800232E290BD114F8D1
:10B24000011FA1F130020A2A05D203EB830201EBB0
:10B250004203303BF3E76C290DD068290BD06929F4
:10B2600021D00BDC252918D0582931D063290ED0E4
:10B27000642915D117E014F8011FECE7702969D093
:10B28000732932D075291BD0782909D120E0D9F84B
:10B290000000011DC9F8001001784046FDF73CFC94
:10B2A000641C90E76CE0D9F800100A1DC9F8002072
:10B2B0000968CDE900500A224046FFF79BF9EFE705
:10B2C000D9F800100A1DC9F8002009680A2206E012
:10B2D000D9F800100A1DC9F8002009681022CDE92C
:10B2E0000050404603F034F9DAE7D9F8001000279F
:10B2F0000A1DC9F800200E68C00705D112E04046BB
:10B30000761C7F1CFDF708FC31780029F7D104E09A
:10B31000202140466D1EFDF7FFFBBD42C0D9002D28
:10B32000F6D1BDE74EB13046FBF7DCF8074604E046
:10B33000202140466D1EFDF7EFFBBD4206D9002DD2
:10B34000F6D103E04046761CFDF7E6FB3178002994
:10B35000F8D1A5E7D9F80000011DC9F8001005686B
:10B3600030214046FDF7D8FB78214046FDF7D4FB5D
:10B3700008200021CDE90001034610222946B0E74C
:10B38000BDE8FC872DE9F843884605002C482D4987
:10B390009946A0EB01004FEAD0004FF0010116469C
:10B3A00001EB004424D0286800282CD0002E34D093
:10B3B000696840464FF010070A68511E11EA080FED
:10B3C00011D1014672432846FCF712F900282ED00D
:10B3D00028684B463246046901B041462846A446D7
:10B3E000BDE8F04360472046174B18A2009722E0C3
:10B3F0000E2000902046144B1EA220A100F075FCE8
:10B400000E20BDE8F8830820009020460E4B26A2AF
:10B410001AA100F06AFC0820F3E7092000902046FA
:10B42000094B24A215A100F060FC0920E9E7064BB6
:10B43000214A2046009711A100F057FC1020E0E7B8
:10B4400004F9020094F80200CBEE02006164647219
:10B450005F69735F706167655F616C69676E656482
:10B4600028705F66732C20706167655F6164647229
:10B4700029000000705F66730000000025732063E0
:10B480006865636B206661696C656420696E202560
:10B4900073282920776974682076616C756520307F
:10B4A0007825782E00000000705F66732D3E705F77
:10B4B000617069006C656E0014F5020038B5030018
:10B4C0001148124D4FF00E04A0EB05004FEAD000DA
:10B4D0004FF0010505EB004009D061B119600C681F
:10B4E00001B0A446BDE83040114618466047084BFD
:10B4F00008A2009402E0064B08A2009409A100F003
:10B50000F4FB0E2038BD000004F9020094F802009C
:10B5100080EE0200705F667300000000705F617073
:10B5200069000000257320636865636B20666169AC
:10B530006C656420696E20257328292077697468FA
:10B540002076616C756520307825782E000000002B
:10B55000044801214174007A08B10020704701209D
:10B560007047000044590020012801D0032808D169
:10B570000449002201284A7400D00020087402F017
:10B5800031BA70474459002070B50246022801D0F4
:10B59000032A45D1234C207A002841D0012833D0FA
:10B5A000022831D120480023022A006802D0032A51
:10B5B0002AD11BE0E360017911B1012924D10DE00A
:10B5C000D0E90565711B4FF48056B14200D3314676
:10B5D000294481614569A9420ED015E00169491CE1
:10B5E0000161426991420FD1237213E0E168491C65
:10B5F000E160082908D9E3602372022A0AD00D21EC
:10B60000FEF7E0F802F092F9607C28B1BDE87040E6
:10B6100000F012BF0021F3E7BDE8704002F0E2B98C
:10B6200070BD000044590020F82B00202DE9F84F90
:10B6300090468A463A493B4A0500A1EB02014FEA8F
:10B64000D1014FF00102DDF828901E464FF00E00A8
:10B6500002EB01441AD0B8F1000F1CD02868002872
:10B6600022D00920002E29D069684968B6FBF1F282
:10B6700001FB1261002926D000902B4B20462BA203
:10B6800035A100F032FB0920BDE8F88F009020467C
:10B69000254B3CA203E00090234B20463BA22EA169
:10B6A00000F023FB0E20EFE70820009020461E4B01
:10B6B00038A229A100F019FB0820E5E700902046F8
:10B6C000194B37A2DCE75046FBF78CFF102798B1E7
:10B6D0004046FBF787FFA0B1324651462846FBF7AC
:10B6E00087FF98B1CDF80090286833464246C46879
:10B6F00051462846A047C7E720460B4B29A2009792
:10B7000008E02046084B2DA2009703E0064B204698
:10B7100033A2009710A100F0E8FA1020B4E700006F
:10B7200004F9020094F80200B8EE020021286C65CA
:10B730006E202520705F66732D3E705F666C6173AE
:10B74000685F696E666F2D3E70726F6772616D5FC4
:10B75000756E697429000000257320636865636B4A
:10B76000206661696C656420696E20257328292034
:10B77000776974682076616C756520307825782E3D
:10B7800000000000705F667300000000705F73725D
:10B7900063000000705F66732D3E705F617069002A
:10B7A0006C656E00616464725F69735F616C696788
:10B7B0006E65643332286465737429006164647251
:10B7C0005F69735F616C69676E65643332282875E1
:10B7D000696E7433325F7429705F7372632900007D
:10B7E000616464725F69735F77697468696E5F62D0
:10B7F0006F756E647328705F66732C206465737454
:10B800002C206C656E29000070B541EA4201DDE92B
:10B8100004564FF0A04441EA830141EA052104EBBC
:10B82000800041EA0641C0F8001770BD70B541EADA
:10B830004201DDE904564FF0A04441EA830141EAA8
:10B84000052104EB800041EA0641C0F8001770BDF5
:10B8500070B541EA4201DDE904564FF0A04441EAE7
:10B86000830141EA052104EB800041EA0641C0F86A
:10B87000001770BD70B541EA4201DDE904564FF092
:10B88000A04441EA830141EA052104EB800041EA3A
:10B890000641C0F8001770BD1CB5002100910B4691
:10B8A000012201911146FFF7AFFF1CBD1CB500211D
:10B8B00000910B46012201911146FFF7DBFF1CBDF1
:10B8C0004FF0A04202EB8000D0F8002722F4403273
:10B8D000C0F80027D0F8002742EA0141C0F800175D
:10B8E00070474FF0A04201218140C2F80C1570470B
:10B8F0004FF0A04201218140C2F80C1570474FF073
:10B90000A04201218140C2F8081570474FF0A042C3
:10B9100001218140C2F80815704701224FF0A04371
:10B92000824011B1C3F808257047C3F80C25704751
:10B9300018B5084B6C4601441B68009306E000BF35
:10B9400054F82030D3F81035401C08C28142F7D893
:10B9500018BD0000B4EC0200034908B508440021FA
:10B9600001600068009008BD006000400249405836
:10B97000012800D0002070470060004070477047E9
:10B9800008B5034A00924023024A00F005F808BDBA
:10B99000BDDE020058590020F0B595B01C46154692
:10B9A0000F4608461A9E00F0D3FA182109A8FAF7A4
:10B9B00084FD0E96CDE909540023082203A93846D8
:10B9C00000F0D9FA05980690BDF81000ADF81C00FB
:10B9D000BDF81200ADF81E0000208DF8210003987C
:10B9E000082600F00300012802D0022818D032E017
:10B9F00003983346850AC0F3C2008DF820000398EF
:10BA00000FA9C0F38314A200384600F0B4FA09A8C5
:10BA1000009006AB22460FA9284600F0F5F91AE07F
:10BA20000398840DC0F3C2008DF82000082C01D2C9
:10BA3000254600E0082533462A460FA9384600F07F
:10BA40009AFA2E44641B09AB06AA29460FA800F0F7
:10BA500055F9002CEAD1384600F07EFA15B0F0BD59
:10BA60000A4A012902EBC00007D0022907D00329A6
:10BA700007D0042907D00020704702207047042017
:10BA800070470079704740797047000094F80200D1
:10BA90002DE9F04F8DB0FDF757F818B100200DB02B
:10BAA000BDE8F08F7E4C4FF0000BC4F818B4BFF324
:10BAB0004F8F60680290A568D846284004EB80004C
:10BAC0000CE000BFD4F8180470B9216802988142D4
:10BAD00001D86160E2E7284004EB80000C3002A945
