:020000040002F8
:1060000088580020C1630200C9630200CB6302000C
:10601000CD630200CF630200D163020000000000E4
:10602000000000000000000000000000D363020038
:10603000D563020000000000D7630200D9630200AC
:10604000FD680200DB630200096F0200D96A0200EA
:10605000DB630200DB6302009967020091690200C2
:10606000DB630200DB630200DB630200DB63020030
:10607000DB630200DB630200DB630200DB63020020
:10608000DB63020055690200DB630200DB63020090
:10609000DB630200DB630200E96B0200DB630200EA
:1060A000DB630200DB630200DB630200DB630200F0
:1060B000DB630200DB630200000000000000000060
:1060C000DB630200DB630200DB630200DB630200D0
:1060D000DB630200DB630200DB6302000000000000
:1060E00000000000000000000000000000000000B0
:1060F00000000000000000000000000000000000A0
:10610000000000000000000000000000000000008F
:10611000000000000000000000000000000000007F
:10612000000000000000000000000000000000006F
:10613000000000000000000000000000000000005F
:10614000000000000000000000000000000000004F
:10615000000000000000000000000000000000003F
:10616000000000000000000000000000000000002F
:10617000000000000000000000000000000000001F
:10618000000000000000000000000000000000000F
:1061900000000000000000000000000000000000FF
:1061A00000000000000000000000000000000000EF
:1061B00000000000000000000000000000000000DF
:1061C00000000000000000000000000000000000CF
:1061D00000000000000000000000000000000000BF
:1061E00000000000000000000000000000000000AF
:1061F000000000000000000000000000000000009F
:10620000DFF80CD000F02EF900480047E9910200B9
:106210008858002030B450E8012F93B2C489234439
:106220008489A34228BF1B1B0489A34202BFBFF37A
:106230002F8F002007E0C3EA020340E80134002C5E
:10624000E9D14FF001000A6030BC704750E8012FDF
:10625000C2EA024240E801210029F7D1704730B478
:1062600050E8022F1FFAA2F3C488A34202BFBFF373
:106270002F8F00200DE0C48923448489A34228BFC6
:106280001B1BC2EA034340E80234002CE8D14FF064
:1062900001000A6030BC704750E8022FC2EA224277
:1062A00040E802210029F7D17047034653E8022F46
:1062B000D988B2EB324F4FF0000017BF92B241EADB
:1062C000014142EA014104E05A68B2EB324F08BF93
:1062D000012043E80212002AE8D1704730B4044696
:1062E00054E8000F0D4644E80053002BF8D1156028
:1062F00030BC704730B4044654E8000F40EA010552
:1063000044E80053002BF7D1156030BC704730B41F
:10631000044654E8000F00EA010544E80053002B4E
:10632000F7D1156030BC704730B4044654E8000F14
:1063300080EA010544E80053002BF7D1156030BC1A
:10634000704730B4044654E8000F00EB010544E800
:106350000053002BF7D1156030BC704730B40446B1
:1063600054E8000FA0EB010544E80053002BF7D1DF
:10637000156030BC704770B404464FF0000054E81C
:10638000006F0D68AE4207BF44E80023012044E8D7
:1063900000630E60002B1CBF0020F0E770BC70474C
:1063A00030B4044654E8000F88422CBF451A054615
:1063B00044E80053002BF5D1156030BC7047000055
:1063C0000648804706480047FEE7FEE7FEE7FEE78F
:1063D000FEE7FEE7FEE7FEE7FEE7FEE7ED6B020005
:1063E00001620200202A04DB203A00FA02F10020B8
:1063F00070479140C2F1200320FA03F31943904003
:1064000070470000004870470404030040EA01039D
:106410009B0703D009E008C9121F08C0042AFAD25A
:1064200003E011F8013B00F8013B521EF9D270471E
:10643000D2B201E000F8012B491EFBD270470022C6
:10644000F6E710B513460A4604461946FFF7F0FF73
:10645000204610BD421C10F8011B0029FBD1801AF8
:1064600070470000064C074D06E0E06840F001036D
:1064700094E8070098471034AC42F6D3FFF7C4FE07
:106480009C0B0300BC0B030070B58C1810F8015B6B
:1064900015F0070301D110F8013B2A1106D110F8BD
:1064A000012B03E010F8016B01F8016B5B1EF9D1C1
:1064B0002B0705D40023521E0DD401F8013BFAE747
:1064C00010F8013BCB1A921C03E013F8015B01F8B2
:1064D000015B521EF9D5A142D8D3002070BD000047
:1064E0000EB50D490D4804F0BFFF08B100F0A4FE41
:1064F0000B4A07CA8DE807006946002004F03CFFFC
:1065000008B100F099FE0121064804F0E3FE0028DE
:1065100001D000F091FE0EBD596F0200D4D30200ED
:10652000ECFF0200E22A002010B505F027F8002851
:1065300003D0BDE8104000F07FBE10BD2DE9F05F34
:10654000C7080A98002607EBD0009A469046A0F1AB
:10655000010B0C46FF2901D9260ACCB201EB0A0532
:106560006D1E4FF00009FF2D02D94FEA1529EDB23B
:10657000442000F0EEF8F8B200F0FBF80BF0FF005A
:1065800000F0F7F8452000F0E4F8E0B200F0F1F890
:10659000F0B200F0EEF8E8B200F0EBF809F0FF001E
:1065A00000F0E7F84E2000F0D4F8F8B200F0E1F87F
:1065B0004F2000F0CEF8E0B200F0DBF8F0B200F0CF
:1065C000D8F8242000F0C5F80A9800240AFB00F54A
:1065D00007E000BF98F8000000F0CBF808F10108D0
:1065E000641CB4EBD50FF5D3BDE8F05F00F05BB8E9
:1065F00010B5162003F06BFE0A2003F0DFF9162019
:1066000003F073FE0A2003F0D9F900F0ABF9122071
:1066100000F09FF800F0A6F9012000F09AF8C720DA
:1066200000F0A7F8002000F0A4F8002000F0A1F886
:10663000112000F08EF8012000F09BF8442000F0BB
:1066400088F8002000F095F8182000F092F8452016
:1066500000F07FF8C72000F08CF8002000F089F8E7
:10666000002000F086F8002000F083F83C2000F0C5
:1066700070F8052000F07DF8182000F06AF88020FE
:1066800000F077F84E2000F064F8002000F071F878
:106690004F2000F05EF8C72000F06BF8BDE8104016
:1066A000002000F066B810B5222000F052F8FF205C
:1066B00000F05FF8BDE81040202000F04AB82DE956
:1066C000F04104460546242000F043F8002741F23B
:1066D0008836207800F04DF8641C7F1CB742F8D350
:1066E000262000F036F80024287800F042F8641CD8
:1066F0006D1CB442F8D3BDE8F0812DE9F0410446A9
:106700000546242000F025F8002741F2883620783D
:1067100000F02FF8641C7F1CB742F8D3262000F04D
:1067200018F80024287800F024F8641C6D1CB4428A
:10673000F8D3BDE8F041AFF3008010B5222000F09F
:1067400008F8F72000F015F8BDE810402020AFF35E
:10675000008010B50446172003F0B9FD182003F09F
:10676000B6FD204600F020FABDE81040182003F0E6
:10677000BCBD10B50446182003F0B7FD182003F087
:10678000A6FD172003F0B1FD204600F00DFABDE88C
:106790001040182003F0A9BD2DE9F04700268AB06B
:1067A000DFF85091B0464FF48075012437460696C5
:1067B000284603F0C7FD38B1D9F80403204203D0BE
:1067C000284603F0B5FD26432D1D64007F1CADB2A5
:1067D000082FEDD34FF4BE74204603F0B3FD48B14B
:1067E000204603F0A5FD46F0004606AA0121002040
:1067F00003F08AFD404D16F0FF0F15D0012700244D
:1068000037420DD009EB8401D1F81005D1F81015ED
:10681000C0F3042055F82420C1F3014102B1904790
:106820007F00641C082CEBD3002E5FDA4FF0FF30A2
:10683000CDF8108054E0281910F8507F90F900002E
:1068400027F0C008401C3BD007A9404602F063FF78
:1068500010B34FEA9719404601F0C6FA55F8207078
:106860001FB1B9F1030F03D006E0B9F1030F27D12F
:1068700004A9404602F057FF4FF0A04101EB880009
:10688000D0F8000706A9C0F3014A404602F043FFD2
:1068900018B1BAF1020F03D012E0BAF1030F0FD111
:1068A000B9F1030F08D1BAF1020F1DD00221404601
:1068B00003F0FCFC761CF6B217B149464046B847D7
:1068C000641C042CB7D3002E10D06A46012100208E
:1068D00003F01AFD06990098884207D006900498A4
:1068E000002634460790A6E70321E0E70AB0BDE89A
:1068F000F0870000006000401030002070B54FF4B9
:106900008076304603F04AF8114CB50560B1304648
:1069100003F04BF80120C5F80803607920B9012085
:1069200060712168002088474FF48276304603F07A
:1069300035F800280AD0304603F037F80220C5F8B1
:1069400008032168BDE870400120084770BD0000C1
:106950003C2B002002490248091F096800680847CB
:10696000902B002070B500244FF0A0454FF4C8765E
:10697000D5F81005C00E10F0010F07D00A2003F063
:106980001DF8641CB442F3D3002070BD012070BD1B
:106990002DE9FE434FF48278404604F04FF84C4F07
:1069A00000254C4C012600B3404604F04FF894F803
:1069B0002E0010B194F82F10D1B18DF800506168FD
:1069C00001912189ADF80810E26832B1218B618311
:1069D00062602181E56010B102E0257400E03E6054
:1069E00021686846884784F82F5094F82E0060B3D9
:1069F0004FF48077384604F021F830B3384604F07D
:106A000025F8628B94F82D108A420AD9A2EB010076
:106A100080B260832289A2EB0000626802EB400032
:106A200005E007D1E06828B184F82F60658303F0A2
:106A3000F3FF04E08A4202D184F82F606583404668
:106A400004F004F82248001D06604FF488773846A9
:106A500003F0F4FF48B1384603F0F8FF2574022034
:106A60008DF800002168684688474FF48A773846D9
:106A700003F0E4FF28B1384603F0E8FF2574BDE8D1
:106A8000FE834FF000484FF48C7967691DE000BF2A
:106A9000B7FA87F028FA00F109EB80058F43284602
:106AA00003F0CCFF88B1284603F0D0FFA5F58C7524
:106AB000E8088DF8040045F38000401C8DF8006064
:106AC0008DF80500216868468847002FE0D1D6E799
:106AD00000700040E0300020F8B51248124E044625
:106AE0004FF48C7104F00DFA00281AD00025C4F878
:106AF0001851D4F818010090F07F3446FF2806D0D2
:106B0000A17F11B103F0EAFB01E003F0F5FB65772B
:106B10002572D4E9002101B004F10800BDE8F0407D
:106B20001047F8BD00300040BC30002000B587B0F1
:106B3000182003F093FB172003F090FB162003F0BE
:106B40008DFB00231B2000931A461946019303F086
:106B500007FB182003F0C9FB162003F0C6FB0F4B00
:106B60000DF1080C0FCB8CE80F00FF208DF80B0007
:106B70008DF80A001A208DF8090019208DF80800F8
:106B800006480023064A02A9083804F043FD0028FD
:106B900001D000F051FB07B000BD00001000030061
:106BA000B1C80200FFF7C2BF10B50C490C4C01235D
:106BB00008700022227001F50070C0E90013A0F5F2
:106BC0008071C0E902120146064804F0DDFD08B1FB
:106BD00000F032FB20780028FCD010BD202D0020D2
:106BE000242B00200800030004F0F6B8F0B5B548E7
:106BF0000023021D0178101D01254FF08054062945
:106C00000BD11678360708D10678C6F30316032E83
:106C100006D0042E04D0052E02D0062907D00EE09F
:106C2000B4F82463A84FC6F304263E6002E0167849
:106C3000360704D10678C6F30316032E02D00629C0
:106C400004D00FE0A24FA14E7E670EE01678360703
:106C500008D10678C6F30316032E06D0042E04D0FE
:106C6000052E02D0062907D00EE0D4F84462994FD1
:106C7000C6F342363E6002E01678360704D1067845
:106C8000C6F30316032E02D0062906D011E0924E59
:106C9000376827F0807737600EE01678360708D11E
:106CA0000678C6F30316032E06D0042E04D0052E54
:106CB00002D006290AD011E04FF08046C6F80C3108
:106CC000C6F81031834E361F336002E0167836075F
:106CD00004D10678C6F30316032E02D0062905D088
:106CE0000CE07C4F032664373E600AE016783607D6
:106CF00004D10678C6F30316032E02D006290DD060
:106D000014E0764F05263E60744E78363560734E3B
:106D1000083633603F263F1D3E6002E01678360796
:106D200004D10678C6F30316052E02D0062957D0E3
:106D300062E06B4E36686B4F3E60694E361D3668BA
:106D40003F1D3E60664E083636683F1D3E60644E0D
:106D50000C3636683F1D3E60614E103636683F1D6A
:106D60003E605F4E143636683F1D3E605C4E1836FE
:106D700036685C4F20373E60594E1C3636683F1DE2
:106D80003E60574E203636683F1D3E60544E2436D6
:106D900036683F1D3E60524E283636683F1D3E60C5
:106DA0004F4E2C3636683F1D3E604D4E30363668AD
:106DB0004C4F40373E604A4E343636683F1D3E6089
:106DC000474E383636683F1D3E60454E3C36366885
:106DD0003F1D3E60424E403636683F1D3E6002E039
:106DE0001678360708D10678C6F30316032E06D0A8
:106DF000042E04D0052E02D0062907D019E0D4F8BD
:106E00005812394A01F04F01116002E01178090768
:106E10000FD10078C0F30310032803D0042801D059
:106E2000052806D131480168C90702D06FF0010179
:106E30000160D4F83001062808D1D4F834010628BE
:106E400004D12B48016841F4806101602248743804
:106E5000016841F470010160BFF34F8FBFF36F8F82
:106E60004FF01021D1F80002002803DBD1F8040212
:106E7000002822DA1F4A15601F480468002CFCD045
:106E80001524C1F800420568002DFCD0C1F8044269
:106E900001680029FCD0136001680029FCD0BFF311
:106EA0004F8F0D48F0380168144A01F4E061114336
:106EB0000160BFF34F8F00BFFDE712491048086023
:106EC000F0BD0000E00F00F0403501400DF0ADBA1C
:106ED00000C007403C050040FCED00E010560040BB
:106EE0000404001020C50040E40E004000040040EF
:106EF0003C17004004E5014000E401400400FA05AD
:106F00000090D0034C2C002001480068004700008E
:106F1000442B002002E008C8121F08C1002AFAD141
:106F200070477047002001E001C1121F002AFBD109
:106F3000704700000121202803DA81400548014004
:106F400003E0402802DA2038814009B1012070476F
:106F500000207047FC06FFBD10B5044600780028ED
:106F60001CD10121606804F0B5F908B100F064F9A2
:106F70006068B0F900100A4802784AB1B1F5C87FDC
:106F800002DA002101704170BDE8104004F00CBB32
:106F900082899142F8DD01210170F5E710BD000002
:106FA000D82A0020094810B581694FF4C8630A78CF
:106FB00040F2E241062A05D2DFE802F003030505AC
:106FC0000505838110BD818110BD0000D82A0020F5
:106FD00010B5FFF785FA034901200871BDE810409C
:106FE000FFF7A2BAD82A0020800701D000207047FE
:106FF00001207047C3688B4206D811440069491EBE
:10700000814201D8012070470020704730B52548E3
:10701000A5B03C21406A24902348807C8DF89200E2
:107020006846FFF70CFA02208DF8000001248DF865
:10703000024006208DF803003C210FA8FFF7FFF95E
:1070400024A81A4D1490ADF84C402A1D68462968B2
:1070500000F022FA08B100F0EFF8144A0FA80C3241
:10706000A96800F019FA08B100F0E6F818211EA886
:10707000FFF7E5F900208DF88D408DF87840ADF8E8
:1070800084001F908DF88C004FF4486007492090D1
:107090001EAAA1F1160072DF002801D000F0CCF882
:1070A00025B030BDB4D30200A82C0020F42A002063
:1070B00004480121807973DF002801D000F0BCB8BA
:1070C00070470000D82A002038B500240E4D05E096
:1070D000686810F8340003F09FFF641C287884422D
:1070E000F6D300208DF80000684600F00FF900206C
:1070F000C5E904009DF8000000F02CF90348406841
:10710000BDE8384000F0FCB8502B002068000300B8
:1071100070B50024064D06E06868012110F83400BF
:1071200003F09EFF641C28788442F5D3002070BDD4
:10713000502B0020F8B516460C4605460A2A01D207
:107140000720F8BD04F086F818B904F04DF80028BF
:10715000F7D1134F102113487D603C70BE60FFF7DC
:107160006EF90020C7E904000F4E0DE005EBC400E6
:107170003168009181788DF8011000780B4A6946DA
:1071800003F0C0FF0028DCD1641EE4B2EED2BDE8FB
:10719000F84005480021064A001D00F05FB80000D5
:1071A000502B00203031002068000300F98B0200D2
:1071B0004582020072B603F013FB00BF03F06AF9C8
:1071C0000028FBD111481249401AC408012000EBE5
:1071D000044010A103F078FA11480068C00700D0FD
:1071E00000BE022000EB04400EA103F06DFABFF3D5
:1071F0004F8F0B48E43801680E4A01F4E0611143F7
:107200000160BFF34F8F00BFFDE700003C0C03009F
:10721000CC0B0300466174616C206572726F720062
:10722000F0ED00E053797374656D207265736574D9
:10723000000000000400FA050EB500210091CDE920
:1072400001106A4644F20100FFF7B4FF0EBD0000D2
:10725000014801F05EB80000702B00203AB10068D0
:107260000129426100D00021016100207047072000
:107270007047000038B51148082358224168009132
:107280000F49006802F079F9002815D10D4A6946C6
:107290000D4801F043F804000ED101210A4801F025
:1072A000B4F80123094A1946074801F00AF80649CB
:1072B000012008390870204638BD00007000030026
:1072C00050310020B5C40200702B0020FFFF7F006A
:1072D00070B50446007F0D4608B1002070BDA26164
:1072E00001F070FC401941F10001C4E9020120697C
:1072F00000B125612146BDE87040002005F002BCC8
:10730000014600200877012005F0FCBB30B5EFF303
:10731000108172B60D4A9468012324B103700029CC
:1073200000D162B630BD93604FF0E023D3F88051B6
:10733000074C25401560C3F88041D3F88441546060
:107340005A17C3F8842100220270E8E7A831002010
:10735000FC06FFBD0B498A68002A11D000280FD116
:10736000EFF3108072B60B684FF0E022C2F80031E4
:107370004B68C2F8043100228A60002800D162B64E
:1073800070470000A83100202DE9F041064608684A
:107390000C46411C4FF0A0474FF0010506D005FAFE
:1073A00000F1C7F80815206802F062FF6068411C10
:1073B00002D0002102F040FF3168A069C1F8240525
:1073C000607D227D31681043C1F86C05D4E900125C
:1073D0003068C0F81425C0F80C15207D012815D19F
:1073E000A068411C02D0002102F026FFE068411C89
:1073F00005D08540C7F80855E06802F039FFD4E9A8
:1074000002123068C0F80825C0F81015BDE8F081F8
:107410002DE9F041064608680C46411C4FF0A04794
:107420004FF0010506D005FA00F1C7F808152068ED
:1074300002F028FF6068411C02D0002102F005FF25
:107440003168A069C1F82405607D217D3268084358
:10745000C2F86C05D4E900123068C0F80C15C0F809
:107460001425207D012815D1A068411C02D00021DF
:1074700002F0EBFEE068411C05D08540C7F80855D6
:10748000E06802F0FFFED4E902123068C0F8082577
:10749000C0F81015BDE8F0812DE9FC4700251788DC
:1074A0000646158090F82D001446894630B13A46BC
:1074B0002146484600F0FCF8051E09D1B0784FF08F
:1074C0000C0A18B32088C846001DB84202D950469D
:1074D000BDE8FC87684679DF0028F9D120880321C0
:1074E00008F8001020881921401C80B2208008F87C
:1074F00000102088401C80B2208000EB0801BDF8FD
:10750000000005F0CEFC218808442080F07802229B
:10751000C8B1218896F9033001F1030C4846BC45F7
:10752000D5D8425421884FF0010C491C89B22180E2
:1075300000F801C02188491C89B2218009F8013076
:107540002088401C20807068B8B1218890F90030F4
:1075500001F1030C4846BC45B9D8425421880A229F
:10756000491C89B2218042542188491C89B221805A
:1075700009F801302088401C2080308950B1CDE9C5
:1075800000474B460622022106F1080005F04EFD99
:10759000051E9DD1308A50B1CDE900474B460722E8
:1075A000032106F1100005F041FD051E90D1308B3E
:1075B00050B1CDE900474B461522142106F11800C1
:1075C00005F034FD051E83D1306A30B13B462246BA
:1075D000494600F026FD051EDBD1706A30B13B46FE
:1075E0002246494601F0E4FE051ED2D196F82C0051
:1075F00038B13B4622464946304605F0A3F8051E01
:10760000C7D1307838B13B4622464946304601F072
:1076100059FF051EBDD128465AE707B586B001229D
:1076200000230093ADF810200193029303938DF88B
:1076300002204989ADF8001008A9039104A902911C
:107640006946AEDF09B000BD70B5040012D0014636
:107650001C221448FEF7DAFE1248134D056020681C
:1076600050B17ADF002806D120680168296040689F
:10767000686005E00E2070BD0B487BDF0028FAD162
:1076800008484FF6FF711438084A20F8041B0549D2
:10769000343901600021FFF7E1FD0028EBD0032021
:1076A00070BD0000642F0020262B002081CF020037
:1076B0007CB5054608880C460930904201D90C205B
:1076C0007CBD68466DDF0028FAD121880820685407
:1076D00020881B21401C80B2208029542088401C17
:1076E00080B220802844DDF801100160BDF805104B
:1076F00081802088801D80B220809DF8001049087C
:1077000000D0012129542088401C208000207CBD0D
:1077100070B5018800263F4C8AB0054621295FD00C
:1077200015DC3D483D4A1029A0EB02004FEAD0008D
:107730004FF0030202EB004013D0112940D013296F
:107740003CD100231A46852120897FDF56E03B2962
:107750005BD052294DD0562930D18088132176DF55
:107760004CE02FA102F0B0FFA98821812F4802F040
:107770009DF808B1FFF760FDFFF7CAFC08B1FFF7FD
:107780005BFD01202A49CDE90206ADF80000019118
:10779000ADF8020003AB06AA0146049601F0C6F854
:1077A000694606A801F0F0F808B1FFF745FD01F0C1
:1077B00007F808B1FFF740FD0198A0610AB070BD5D
:1077C0001CA102F081FF4FF6FF702081FFF77CFCC7
:1077D00008B1FFF731FD0AB0BDE87040FFF768BCA3
:1077E0000196808801A98FDF0028E7D0FFF724FDEC
:1077F000E4E700231A4619462089B1DF0028DDD0CE
:107800000AB0BDE87040FFF717BD8088132176DF0E
:10781000F4E70000D82A00203C0C0300CC0B030046
:10782000436F6E6E6563746564000000D42C0020A5
:10783000B8D30200446973636F6E6E6563746564E8
:10784000000000002DE9F04701883B4E40F2F3199B
:107850004FF6FF7510291BD011293ED0122954D0A4
:10786000502946D1C188F289841D914241D1618954
:1078700002293ED18688304601F04EFB050038D003
:1078800004F10C0000F078F9A8B3294630464EE028
:10789000C17B8788044601292BD1A846284601F0E0
:1078A0003BFB050017D02F80002028722348434659
:1078B0004A460168C5F80A104068C5F80E0004F190
:1078C000100105F10A0001F0E9FB6872F089002857
:1078D0000FD129462AE0042013E0808801F01CFB28
:1078E000040006D06068FFF70BFD08B104F002FF4A
:1078F0002580BDE8F087FFE76868FFF701FD0028F5
:10790000F7D0BDE8F04704F0F5BE87880646384654
:1079100001F002FB0400ECD02B464A4606F10801B8
:1079200004F10A0001F0BAFB607221463846BDE856
:10793000F04700F0BDBB0000642F0020262B002084
:107940002DE9F04F044686880188424897B0834667
:1079500010290CD0112950D0103019296AD01A29B9
:1079600074D1217A0C09042C4DD301224CE0394DFD
:10797000083DA868C0430B9069680BA801F06BFE36
:107980000B990CA800F02EFB2C220CA96846FEF7E0
:107990003DFD0027E946A84610E000BF09EB47007F
:1079A0005FF00005B0F804A008EB85005146001D0B
:1079B00001F022FE6D1C1E2DF6D37F1C0098B842EC
:1079C000ECD8142E05D317B00420BDE8F04FFFF714
:1079D00033BC3146584601F025FE314608F104001B
:1079E00001F020FEE07B012830D017B03146BDE821
:1079F000F04F1848001D01F015BE17B03146BDE824
:107A0000F04F01F0F9BD0022314600F0E1FF032CF8
:107A100001D3012200E000220E4831460C3000F074
:107A2000D7FF022C01D3012200E000220948314691
:107A3000083006E0217A002908D1617AC1F3C0023A
:107A4000314617B0BDE8F04F00F0C2BF17B0BDE837
:107A5000F08F0000882F002030B58DB004462E4BEB
:107A6000086860610FCB08AD85E80F0004F11201D2
:107A700008A862DF00284CD1A07C8DF8320041F2CA
:107A80002350ADF8300022460CA90120A8DF0028C1
:107A90003FD120216846FEF7D2FC41F22450ADF8D8
:107AA0000000A07C8DF8020001259DF80D00ADF8C6
:107AB000065040F012008DF81150ADF804508DF8CA
:107AC0000D008DF81350208804F10A02694600F079
:107AD00093F900281DD120216846FEF7B0FC41F241
:107AE0002550ADF80000A07C8DF802009DF80D0037
:107AF000ADF8065040F00A008DF81150ADF8045072
:107B00008DF80D008DF812502088A21C694600F0F7
:107B100073F90DB030BD00003800030030B40288A6
:107B2000502A10D1034630F8062F4C88A2420AD1C1
:107B30004289012A07D14C69002C04D0027B988825
:107B4000A44630BC604730BC704707B586B0012200
:107B500000230093ADF810200193029303938DF856
:107B600002204989ADF8001008A9039104A90291E7
:107B70006946AEDF09B000BD007800F00100704733
:107B80002DE9F8430546861C00208DF8000090463C
:107B90000F464FF001096846FFF7B8FB1B4C206801
:107BA0003860D4E90001401AA16804F21C47081AA1
:107BB0000EE00121384601F048FD01F0C7FA014608
:107BC000384601F042FDD4E90001401AA168081AC4
:107BD000401C8642EDD8B8F1000F03D0052065F3B4
:107BE000891002E0062065F39F50A26821681140C9
:107BF00004EB8101C8602068304420609DF80000DB
:107C0000FFF7A8FB4846BDE8F88300006034002079
:107C100070B50D4604460A2902D10D21FFF7F8FF81
:107C2000A0682268411CA1601554D4E90101814279
:107C300004D32046BDE8704001F045BF70BD000090
:107C4000034803C8814201D10120704700207047DA
:107C50006034002070B5114C01214FF0A0406279D2
:107C600042B1D0F810154FF00005C90E11F0010F08
:107C700008D011E0D0F81005C00E10F0010F00D1AF
:107C8000617170BD1021C0F80C15E570FEF78AFF18
:107C90000348C069FFF734FB657170BDD82A002026
:107CA000B4D3020070B50D461C491D4A1D4C891AFB
:107CB000C908032202EB01430D2807D00E281ED06D
:107CC00001210F2826D0102815D125E0184616A12D
:107CD00002F0FAFC2A461B492089FFF736FF0028EC
:107CE00019D0A0F54051023915D0082813D043F21D
:107CF000014188420FD0BDE87040FFF79DBA184699
:107D000011A102F0E1FC2089BDE8704005220D4977
:107D1000FFF783BC216170BD616170BD3C0C030045
:107D2000CC0B0300D82A002053656E642062757462
:107D3000746F6E207374617465206368616E67652B
:107D40002E000000A82C0020427574746F6E322043
:107D5000707265737365642E00000000034630B5D1
:107D6000074800210478426806E000BF02EBC1002A
:107D700005789D4203D0491CA142F7DB002030BDAD
:107D8000502B002005494FF0FF32082841F82020F1
:107D900002D3084480F848207047000010300020CB
:107DA000F0B54FF0FF3512B10023082601E008239B
:107DB0000C260C4C05E000BF54F823707F1C04D047
:107DC0005B1CB342F8D32846F0BD26185DB286F896
:107DD000305044F82310002AF5D1E11881F848000A
:107DE000F1E70000103000200249084490F930000B
:107DF00070470000103000202DE9F043814688785C
:107E000091B090460C4600B901208DF83E002088C4
:107E1000ADF83C0000250095607C694604F0D6FC76
:107E20006E46A07C711C04F0D1FCE07B00289DF81C
:107E3000020002D040F0080001E020F008008DF8B8
:107E40000200217C11B140F0100001E020F0100090
:107E50008DF80200217B11B140F0010001E020F01B
:107E600001008DF80200217D09B1022100E001210D
:107E700061F342008DF802001C2102A8FEF7DFFA30
:107E8000607BC10601D4800617D50E950EAFE07C4D
:107E9000791C04F09BFC9DF83800079720F00F0038
:107EA000401C20F0F00010308DF838009DF83A00AA
:107EB00020F00600801C8DF83A00607B8DF80800E9
:107EC000A07B8DF80900142109A8FEF7B8FA0FA8C5
:107ED000CDE90906A088ADF83000A06820B1E0889F
:107EE000ADF82C00A0680D90A06998B301950088AA
:107EF000ADF81000A06901AD01A94088ADF81200ED
:107F0000A069406806950390A069007B04F05EFCC0
:107F1000A069691C407B04F059FCA069807A0028A4
:107F20009DF8060002D040F0080001E020F00800B3
:107F30008DF80600A169C97A11B140F0100001E086
:107F400020F010008DF80600A169097A19B140F0FF
:107F5000010002E00DE020F001008DF80600A169AB
:107F6000897B09B1022100E0012161F342008DF813
:107F70000600E06900B10590434609AA02A94846F7
:107F8000AADF11B0BDE8F08370B5084C050009D038
:107F900010342168002907D0086820604968284605
:107FA0008847F6E70834F4E770BD0000FC2F002096
:107FB000054A012120B1012805D19170FFF7E4BFE6
:107FC00051700020FAE77047FC2F002010B5D0E96F
:107FD0000234D1E90220D11AA04101D3012010BD01
:107FE000002010BD73B58CB00646002000900D989F
:107FF00080B100246D4621460DA801F008FB30B188
:10800000009805EB400084800098401C0090641CA0
:10801000142CF0D32C2269463046FEF7F7F90EB047
:1080200070BD2DE9F04117880646B81D14460D466F
:10803000984202D90C20BDE8F08131880722062938
:108040000AD34FF4486C4FF6FF73614501D999424A
:1080500002D17088062801D21046ECE7604501D9AC
:108060009842F9D1994203D0984201D08142F3D885
:108070000520E85520881221401C80B22080295418
:108080002088401C80B220804119308804F009FF0C
:108090002188084480B220804119708804F001FFD3
:1080A0002188084420800020C5E7FFF7C5B80000FC
:1080B00038B54A7A0F4B62B100220A725969002919
:1080C00006D001228DF80020ADF8020068468847EE
:1080D00038BD0A7A62B19B684C6802461946204650
:1080E000FFF7F6F80028F3D0BDE8384004F002BBF3
:1080F0005B68F1E7642F002070B588B00646002069
:1081000005900690ADF81410ADF81610019002908D
:1081100001AA05A9304690DF050021D002F012FF28
:108120000346114811493246401AC108012000EBAC
:10813000014004460E4902F0D2FABDF8042012B9FB
:10814000BDF8060028B1BDF80630204609A102F0AE
:10815000C6FABDF808201AB12046164902F0B8FA4E
:1081600008B0284670BD0000CC0B0300CC0B030008
:108170000804030054686520726571756573746541
:10818000642054582F5258207061636B6574206CC2
:10819000656E67746820697320746F6F206C6F6EF2
:1081A000672062792025752F2575206F63746574AB
:1081B000732E0000540403002DE9FF410C4620B14A
:1081C0004FF4064004B0BDE8F0812079002748F262
:1081D000096538B141F61D5601281BD0022826D06A
:1081E000681DEFE70220207102970397E068019075
:1081F000694601A804F0C0F850B102988188E18076
:1082000000882081BDF80010029804F033F9D9E706
:108210002846D7E70A4B6A460021A01D04F064F8FF
:1082200038B1074918398F61CF61A842CAD13046A9
:10823000C8E703488188019804F01CF9F5E70000BD
:10824000B82B002070B500240F4D10E0686800EBDB
:10825000C406307802F0BEFF7178012901D00121F7
:1082600000E000214140307800F0F2F9641C2878E9
:108270008442EBDBD5E90401084303D0BDE870403C
:1082800004F05CBC70BD0000502B002010B5002134
:10829000024801F0F5F980F3100010BD7C38002091
:1082A0004FF480328A400168C1F848230068C0F862
:1082B000082370474FF4A07202EB810189B200F0ED
:1082C00037BA2DE9F04105460E464FF4A07000EB99
:1082D000860081B228684FF48034B440984622F07A
:1082E0007F47C0F808432868C0F84843286802F070
:1082F0008DFB286800EB8600C0F840752868C0F840
:108300004443B8F1000F02D02868C0F80443BDE828
:10831000F0810068D0F804057047000070B543791B
:10832000224C44F823204279241D04EBC202204B46
:108330001579204A9A1AD3082DB10824022000EB9F
:1083400003401DA12EE002680D88C2F8085590F97F
:1083500004208978002A4FEA411106DA02F00F0260
:1083600002F1E02282F8141D03E002F1E02282F81B
:10837000001490F90410012201F01F0502FA05F51E
:108380004909890001F1E021C1F80051417904EB6C
:10839000C1010A71417944F831000320002400EB47
:1083A00003400EA102F090F9204670BD8C2B0020F6
:1083B0001C0C0300CC0B030052544320696E7374F1
:1083C000616E636520616C726561647920696E69B4
:1083D0007469616C697A65642E0000005254433AF6
:1083E00020696E697469616C697A65642E000000A9
:1083F00090F90400012100F01F0291404009800023
:1084000000F1E020C0F8001270470A46022100F097
:1084100015B94FF4827100F08BB900680121016039
:10842000704700680121416070472DE9F05F074601
:108430000C464FF4A07000EB84001FFA80FA3868F5
:108440004FF48036A6409B4622F07F45C0F8486333
:108450003868C0F808633868D0F8048500EB8402F7
:10846000D2F84095C2F840855146386802F0CEFAFD
:10847000A9EB080020F07F40012806D1102002F06F
:10848000C3FD5146386802F0C1FA3868D0F8048557
:10849000C0F84463A5EB080121F07F413868012949
:1084A00000EB840010D0C0F840553868D0F80415AF
:1084B0006FF07F4C6A1A521E22F07F42ACEB0B0326
:1084C000934217D362B118E06D1CC0F840551020DC
:1084D00002F09AFD3868D0F8040540450AD10CE056
:1084E00000EB84006D1CC0F840553868D0F80405D6
:1084F000884202D00D20BDE8F09F01223146384667
:1085000000F09CF80020F6E72DE9F843104D0F46E7
:1085100080461E4691466946286801F041F80400ED
:1085200014D01C21FDF78BFF01202071C4F814909A
:10853000380BC4F80080C4E902606946286801F07D
:1085400050F803F0B7FE0020BDE8F8830420FBE7F5
:108550008002030010B503780022072B06D2DFE863
:1085600003F005040610202930000A7010BD012315
:108570000B7003898B818388CB81C06888600A7403
:1085800010BD02220A7002898A818288CA81C2686B
:108590008A60807D062802D00020087410BD01206A
:1085A000FBE703220A70C2888A810289CA81C068F7
:1085B000886010BD04230B70C0888881CA818A60DE
:1085C00010BD0520087010BD70B5064D064600248C
:1085D00055F8241009B130468847641C042CF7D3A1
:1085E00070BD0000DC31002030B50446006887B063
:1085F0000D46806800281FD018216846FDF71FFF30
:108600000195A0680590207910B1012810D107E0EC
:1086100001208DF8000020690290E068039005E0D9
:1086200002208DF80000E068000302906069049069
:10863000206881686846884707B030BD0368C3F882
:108640004413002A02D00068C0F8041370470000E9
:108650002DE9F84F0E463449804601EB5001C00722
:10866000097801D00F0901E001F00F074FF0000970
:10867000424601204946FDF7B5FEDFF8B0A00446AA
:108680000D46052F4ED2DFE807F003161B282C00FD
:10869000002E47D00121404604F06EF98DF800907D
:1086A0006846FEF733FE5046D0E904120C431543EA
:1086B000CAE9044532E00EB1022114E0002112E0C3
:1086C0004EB10321404604F057F94046BDE8F84F4B
:1086D000012104F09BBC012105E0002E22D10421E0
:1086E00001E02EB103214046BDE8F84F04F044B943
:1086F0000021404604F040F90021404604F086FC89
:108700008DF800906846FEF701FE5046E243D0E93E
:1087100004341A4024EA0501CAE904219DF8000046
:10872000FEF718FEBDE8F88F30310020502B0020F6
:1087300010B5006842581AB102F068F9012010BD66
:10874000002010BD10B501788EB0002920D14068FE
:1087500000281DD10090012101906B4607AA084610
:1087600000F0E4F8144CA8B10121ADF81010ADF8F8
:1087700012101248CDE9050104A90AA800F00CF96D
:1087800008B1FEF759FD0598C4F81800FEF70AFC79
:108790000EB010BD02A907A800F0D0F808B1FEF78E
:1087A0004BFD0398A06107A800F09CF80028EDD0CD
:1087B000FEF742FDEAE70000D82A0020B4D3020009
:1087C0000D4808B5007888B1684603F0A3FC80B175
:1087D00006210170684603F0ABFC0848017809B136
:1087E0000121017303F058FD002008BD48F201602B
:1087F00008BD48F2076008BDC02B0020A032002051
:10880000F0B587B014216846FDF719FE304C20788A
:1088100018B16846FFF7D8FE57E0201D00F012FFA0
:1088200098BB40F6F8700168481C02D14FF0102048
:1088300041694FF08050026940694B1C01D100FB37
:1088400002F1244800220161A1F54051C160224992
:1088500001F0CEFA002823D121481C238C221F4985
:10886000006800F08AFE03F02FFB050016D0022DF1
:1088700014D000270126062D14D005A803F04AFCC9
:1088800098B106700C2D1BD200E01EE0DFE805F069
:1088900018101810181718171812141248F20A6036
:1088A00007B0F0BD26706760B3E748F20760F7E7EE
:1088B000077105E0032100E00221017100E006716B
:1088C00005A803F035FC03F0E7FC0020E8E7000012
:1088D000C02B0020502C002090020300EC3100201F
:1088E0000802030038B5040014D0694603F044FDC3
:1088F000B0B1BDF8000000EB80010B4800EB810037
:10890000C16851B1A17A41B1C168491EC16000205E
:10891000A07238BD48F2046038BD48F2056038BD29
:1089200048F2096038BD0000783200201FB501A967
:10893000684603F0D9FC04B010BD0000F8B50D4640
:10894000040018D0BDB1694603F016FDB0B1BDF802
:1089500000000C4900EB800001EB800001210C308D
:10896000666800F072FE2E6060680C30686001205E
:10897000A0720020F8BD48F20460F8BD48F209601A
:10898000F8BD00007832002018B10323002204F063
:10899000DFBB48F2046070470223002204F0D8BB1A
:1089A000094910B50A69042A0AD0084A096942F837
:1089B000210005480121103000F047FE002010BDC5
:1089C00048F20B6010BD0000A02B0020DC3100201D
:1089D0000AB100F027BE00F00FBE406803F0BABB3A
:1089E00070B510B14FF4064070BD1A4C0025207BC5
:1089F00008B1257301E000F0A1F82078082826D2FC
:108A0000DFE800F02504080C10251420BDE87040B4
:108A100000F022B8BDE8704000F07EB8BDE87040BC
:108A200000F060B8BDE8704000F03CB860880949CB
:108A300000EB8000283901EB80004068BDE8704001
:108A400003F022BA6560BDE8704003F02BBA48F22B
:108A50000E6070BDA03200201149F0B48A1C0020C5
:108A60000346A1F128050C18A67A4EB1A37200EBBB
:108A7000800405EB8404E66816B9247C012C0AD036
:108A8000401C80B20228EED30B704B804B60F0BCD0
:108A900041F61D5070471080F0BC00F03DB800005A
:108AA000A03200200C48418801EB8102A0F128018E
:108AB00001EB8201CA6852B1052101700748022109
:108AC0008180016800230122054801F0F5B80422E5
:108AD00002704968F6E70000A0320020C82B002091
:108AE000502C002038B50A49084803240B68426816
:108AF000898803EB810153880470DB1C00201B0470
:108B000000909B0B034801F02BFA38BDA0320020E7
:108B1000C82B0020502C0020074910B54888091D9B
:108B200003F07AFC18B1BDE81040FFF7DBBFBDE8E9
:108B30001040FFF7B7BF0000A0320020F0B51F487B
:108B40001F490125067802248B88A0F12802082EEF
:108B500019D2DFE806F00418181B222F2F170189FD
:108B6000491C01810021418080F80C1001EB810338
:108B700012F8233043B100234418491C89B2A37270
:108B80000229F3D30570F0BD0123F5E7426852884E
:108B9000D21C1A448A800470F0BD46880D6806EB2A
:108BA000860602EB860256680E60556013818C8043
:108BB000062100E007210170F0BD0000A032002076
:108BC000C82B002010B50B48FFF7A3FB094A083A51
:108BD000D2E90434C018D2E9063244F10001C31AC4
:108BE00071EB020204D24FF08072801841F1000153
:108BF00010BD0000702B002010B5C0B2FFF7AEF81A
:108C00000446007802F0E6FA01466078012801D0B7
:108C1000012000E0002090EA010F08D00449D1E9CA
:108C20000401084303D1BDE8104003F087BF10BD25
:108C3000502B0020428800EB82020C328A4201D97C
:108C4000022070478188A1F57F42FF3A06D0018853
:108C500021B18068401C01D000207047012070477E
:108C6000884204D20068401C01D0012070470020D7
:108C700070470000F0B5634C89B06078217880F0CF
:108C800001000840E17881F0010108427ED0FDF743
:108C90004DFF4FF0A04101251020C1F80805ADF8A7
:108CA0000450ADF806500027CDE9035704AB06AADF
:108CB000294628460597FFF739FEA0692026007847
:108CC00006285CD2DFE800F003152A456E844E4882
:108CD000029001A906A8FFF757FE08B1FEF7ACFA0B
:108CE000FFF76EFD08B1FEF7A7FAFDF781FC4748D4
:108CF00011E0454801A9001D029006A8FFF744FEB7
:108D000008B1FEF799FAFFF75BFD08B1FEF794FA98
:108D1000FDF76EFC3E48FDF7F0FC30E03A4801A953
:108D20000830029006A8FFF72FFE08B1FEF784FA7C
:108D3000FFF746FD08B1FEF77FFAFDF759FC34480E
:108D4000FDF7BDFC304A2023A432194612200096BC
:108D500013E02D4801A90C30029006A8FFF714FE7D
:108D600008B1FEF769FAFFF72BFD08B1FEF764FAC8
:108D70002023284A194612200096FDF7DFFB0298AF
:108D8000A061FEF70FF9A770657000E035E01E489E
:108D9000E570001F002240F26661C069FEF798FA94
:108DA00009B0F0BD184801A91030029006A8FFF7DD
:108DB000EBFD08B1FEF740FAFFF702FD08B1FEF740
:108DC0003BFA144A20238032194612200096D4E739
:108DD0000D4801A9001F029006A8FFF7D5FD08B1B4
:108DE000FEF72AFAFFF7ECFC08B1FEF725FA20237C
:108DF000094A194612200096BFE709B0BDE8F040C5
:108E000001F0E0BDD82A0020B8D30200DCD802006F
:108E100064EC0200DCD40200DCD5020010B50A4983
:108E200041600A4800F00EFC58B901F0E7FF07491D
:108E30001C238C22087404488C39001F006800F041
:108E40009CFB002010BD0000840203004C33002076
:108E50002DE9F0412D4F002520B17D604FF40640F3
:108E6000BDE8F0810879012258B1294E01280CD0C3
:108E7000264C4FF002080834022820D0032841D1A4
:108E800027E00A7103F00EF83AE0002000EB8001C1
:108E900016F82110022908D0401C80B20228F5D310
:108EA0003A707D6041F61D50DAE700EB800006F86D
:108EB000205006EB8000406802F0E6FF20E00D71D4
:108EC000A4F80480002301221248216800F0F4FE77
:108ED00016E00D71206802F0D7FF0D492368283194
:108EE000498801EB810206EB8201D1F804C0C4F885
:108EF00000C04B60A3880B81A4F8048006F82250C0
:108F00000028ADD07D6048F20D60A9E7C02B00209D
:108F100078320020502C00200146034802888A4203
:108F200000D0002070470000502F00202DE9FC5F8A
:108F30000E008346DDE90C47C6F1000098469246D4
:108F4000814600D40846012503E000BF90FBFAF0FB
:108F50006D1C5045FADAA84500D9454624B1002ECB
:108F600001DB780700D5641EB80702D5B8F1000F01
:108F70000AD0F80708D13CB1A54205D220215846B5
:108F8000641EFEF745FEF6E7002E02DA4E462D215E
:108F900002E0780703D52B215846FEF739FE07F08B
:108FA000030002280BD1B8F1000F08D13CB1A54253
:108FB00005D230215846641EFEF72AFEF6E7CDE9B9
:108FC0000047434652463146584603F07FFFBDE80E
:108FD000FC9F000070B50D46044600684FF4887190
:108FE00001F0D0FF4FF49071206801F0CBFF4FF4F7
:108FF0009271206801F0C6FF4FF4A271206801F061
:10900000C1FF4FF4AC71206801F0BCFF206811492A
:10901000C0F804132068690740F30730090E0028E0
:1090200006DA00F00F0000F1E02080F8141D03E0E4
:1090300000F1E02080F800142068012140F307309F
:1090400000F01F0291404009800000F1E020C0F8CC
:10905000001170BD10034200024600201268530741
:1090600013D502F00300012802D002280CD105E03C
:10907000C2F383100B68801C184404E002230868C4
:1090800003EB925210440860012070470248007AB6
:10909000002800D0012070474C330020F0B58488B0
:1090A000A518944200D82246A41AC288D6189A421B
:1090B00000D81346D21A4B880788BB420CD340888D
:1090C000834209D88888A04206D3A84204D8C88819
:1090D000904201D3B04201D90020F0BD0120F0BD83
:1090E000800701D0002070470120704706480749DB
:1090F000401AC008032101EB00400AB104A100E0BE
:1091000008A101F0E1BA00003C0C0300CC0B030005
:109110005265636569766564204C4544204F4E2155
:10912000000000005265636569766564204C454423
:10913000204F464621000000172101804180002178
:10914000017141711B218171C17170472DE9FF418E
:109150000026234800F073FA2148001F074600F05C
:109160006EFA204C60680090A56800E0009869469F
:10917000284004EB80000C30FFF76EFF0028F5D18B
:1091800001AA009901EA050304EB8303491CDB688B
:1091900042F82030401C00910228F2D3019800F0E0
:1091A000030001280BD0022810D10198032101EB04
:1091B00090500099BDF80A6001EB900005E001981D
:1091C000BDF80A60C0F3831008440090384600F0F0
:1091D00033FA08B10098606004B03046BDE8F08111
:1091E000783800206034002088B000240122042058
:1091F000009423461146019400F0A0FF00221B209A
:10920000009423461146019400F098FFFEF732F8CF
:1092100008B1FEF711F840F2333204215448FDF74B
:1092200089FF08B1FEF708F801F0B8FB08B1FEF7B6
:1092300003F801F097FD08B1FDF7FEFF6946012034
:10924000009401F01FFC08B1FDF7F6FF684601F03D
:1092500099FC08B1FDF7F0FF9DF8080045A120F04A
:109260000F00401C20F0F00010308DF8080016228E
:1092700002A87CDF08B1FDF7DFFF00944FF4966091
:10928000ADF800000194ADF80200ADF804404FF4D1
:10929000C870ADF8060068467ADF08B1FDF7CCFF6C
:1092A00000213A4800F049FA08B1FDF7C5FF3848F7
:1092B00001A9CDE900403548143000F002FB08B1A7
:1092C000FDF7BAFF33480090304869461838FEF77A
:1092D000C3FB08B1FDF7B0FFFDF798FE1C216846FF
:1092E000FDF7ADF84FF4A020CDE9004080100290CA
:1092F00003208DF80C002848059028480690ADF80A
:109300000E408DF810406846FEF79EF908B1FDF753
:1093100093FFFDF7CDFEFDF7E3F802F045F9204A93
:1093200001212048FDF79AFF08B1FDF785FF1D4890
:109330001D4A0121001DFDF791FF08B1FDF77CFFDB
:109340001A48FFF72DFB08B1FDF776FFFFF758FA33
:1093500008B1FDF771FF1348002218384FF400518F
:109360008069FDF7B5FF00BFFFF784FCFCE7000054
:10937000042B00204D6F74696F6E2D506F776572EE
:1093800065642045696E6B5461670000C02C002045
:1093900009AA0200ED9002006DBC0200AB80020041
:1093A000D16F0200CCD30200557C02004587020039
:1093B00070B5144682880E4605462088111D01446A
:1093C000921C994201D8FE2A01D90C2070BD521C72
:1093D00032542088FF21401C80B2208031542088E4
:1093E000401C80B220808119288803F05AFD218812
:1093F000084480B22080AA8842B1A96841B13044B3
:10940000FDF704F82088A98808442080002070BD5A
:10941000072070BD2DE9F047C5881E1DB6FBF5F786
:109420008946B6FBF5F1044605FB176C40791668D2
:109430006843DDF820A0F718001F874200D9C61A3C
:10944000166001E02468491E0029FBD1A5EB0C073A
:109450008846B74216D818E004EB0C00001D09EB53
:109460000803BAF1000F3A4602D00146184600E060
:109470001946FCF7CBFF2468F61B4FF0000CB844EC
:10948000B54201D9374600E02F46002EE4D1BDE8B1
:10949000F087000030B5024651B101F089F9002192
:1094A000074C08E034F821301568AB4202D1116056
:1094B000002030BD491C8142F4D3052030BD00009E
:1094C00000000000F8B50F46017814460546012952
:1094D00001D1687830B12088821C9A4232D80129A3
:1094E00002D006E00720F8BD69780144891C994242
:1094F00028D8181A801E86B2ADF800602188B81CE2
:10950000084469467DDF0028EDD12978022904D07E
:109510006878BDF80020904205D3BDF80000B04245
:1095200001D809200AE00820012905D16978B14253
:1095300002D8ADF8001001E0ADF80060BDF80010F1
:10954000FE2901D90C20F8BD2288491CB954218874
:10955000491C89B2218078542088401C2080BDF8A5
:109560000010084420800020F8BD10B5FCF79DFED7
:1095700008B1002010BD112010BD10B531B1B2FBF3
:10958000F3F403FB14241CB1092010BD0E2010BD00
:1095900001600021416081608281C381084610BD65
:1095A00070B50C460546FCF735FE002802D0218830
:1095B0002868084470BD10B50A8849888A4203D1DA
:1095C000FCF76AFE012010BD002010BD70B50C46EE
:1095D0000546FCF744FE002802D06188286808444C
:1095E00070BD10B50A8849888A4203D1FCF72EFE67
:1095F000012010BD002010BD01F01F0301229A4080
:10960000D243490900EB8100114600F024B84A0911
:1096100050F8220001F01F0201219140084000D0C3
:109620000120704701F01F0301229A40490900EB15
:109630008100114600F029B8002100F017B801217F
:1096400000F023B8012100F016B808B56A46FCF70F
:1096500078FE009808BD08B56A46FCF758FE0098E9
:1096600008BD08B56A46FCF76CFE08BD08B56A4639
:10967000FCF74DFE08BD08B56A46FCF73BFE08BD89
:1096800008B56A46FCF72AFE08BD08B56A46FCF72D
:1096900031FE009808BD08B56A46FCF75FFE0098E9
:1096A00008BD38B5044600258DF800506846FDF722
:1096B0002DFE21686268086890420ED9401E08603D
:1096C0000178238AE26801FB0325227A2168101AB7
:1096D000C0B20A79824200D208719DF80000FDF7FD
:1096E00039FE284638BD38B5054600208DF8000003
:1096F0000C466846FDF70AFEE868298A201AB0FB86
:10970000F1F12A681068431C136001709DF8000095
:10971000FDF720FE38BDC20800F007030120895C78
:1097200098400840704710B5C20800F00703885CF5
:1097300001249C402043885410BD10B560B10161E4
:10974000172120F8021B20F8021B1B2100F8021B26
:10975000FFF7F2FC002010BD0E2010BDF0B585888B
:1097600093B00C46002D39D1018800263F4F2429A3
:109770003BD006DC102909D011290CD0232958D15F
:109780004FE03A290BD0552953D129E00146204614
:1097900002F07AFA4DE0A01DFFF7CEFC49E0224628
:1097A000408934F8061F814200D808466080172897
:1097B00000D217206080106970B1607960B1D7E97C
:1097C0000001CDE90301ADF80E506088ADF810003E
:1097D000136903A9104698476671267113B0F0BD4E
:1097E0000146204602F0A4FA23E0011D2C2206A81F
:1097F000FCF70CFEBDF81800BDF81C2004EBC001FE
:109800004A732269AAB1D7E90423CDE90423ADF84C
:109810001200487B8DF814002269204604A9904765
:1098200007E0017A207B884200D201462846FEF7F5
:1098300063FCA07A0028D1D0E1882846A5DF012565
:1098400080B11128CAD001F07DFB024608480949C1
:1098500013B0401AC00805EB0040BDE8F04006A177
:1098600000F036BFA672E572B8E7000020000300E2
:10987000CC0B0300CC0B030073645F626C655F6705
:10988000617474635F65786368616E67655F6D744A
:10989000755F7265717565737428292072657475BA
:1098A000726E65642025732E0000000020B10278DE
:1098B000DE2A03D0082070470E2070474180002028
:1098C000704760B159B10278DE2A0AD00968416058
:1098D000DE2101704FF6FF714180002070470E209D
:1098E0007047082070477FB5054600294DD0002DF0
:1098F0004BD008780C46DE2847D1A888618888427A
:1099000002D1204603F070FB2888012825D00228C8
:109910003BD011283AD0512837D135F8040F61884F
:10992000884232D1A978A81C02292ED1017A0429B3
:1099300003D0062901D0052927D100210091022258
:109940008DF8002001914FF4C07202910391ADF89F
:109950000420007A05280FD010E0297A204601293A
:1099600013D1A988428891420FD10121017204B01C
:10997000BDE8704003F038BBADF804102888694694
:10998000B0DF002801D0616888477FBDA888618862
:109990008842FAD14FF6FF7060807FBD00F18040B1
:1099A0000068002800D00120704708B500F1804011
:1099B000002101600068009008BD00002DE9F04121
:1099C000040007D0044E4FF47A47751C3846A84768
:1099D000641EFAD1BDE8F0810000030070B50B4CA5
:1099E000207808B185250FE00020A060606020612C
:1099F000E060074801F0E2FA054601F0FFF908B916
:109A000001F0C6FA01202070284670BDFC2F00200E
:109A1000B17F020038B500258DF800506846FDF78B
:109A200075FC074CE068401EE060E06810B901F08A
:109A3000D5FAA5709DF80000FDF78CFC38BD00003C
:109A4000FC2F0020F0B505460478154889B016466D
:109A500040F82420124A0869121DA2F1080742F8B2
:109A60002400487F385520226846FCF7CFFC049438
:109A70002878385C48B10EB10A4A00E000226946F5
:109A8000281D01F0E9FF09B0F0BD0EB1064A00E063
:109A90000022694605F10C0001F0B0FEF3E700007A
:109AA000342B002061CD0200A9CB02000FB408B511
:109AB0000399002904D004AA00926A4600F00FF826
:109AC00001B05DF814FB10B582680446002A05D089
:109AD000D4E90403216898470020A06010BD2DE957
:109AE000FC4791460C00804676D014F8011B39B132
:109AF00025290ED04046FEF78BF820780028F4D1B7
:109B000098F80C00002867D04046BDE8FC47FFF7F6
:109B1000DABF0020012221782B291BD02D2902D069
:109B2000302908D102E040F0010001E040F00200DD
:109B3000641C002AEFD100252A290ED02178A1F13A
:109B400030020A2A11D205EB850201EB4205641CA2
:109B5000303DF1E740F00400EAE7D9F800100B1DB2
:109B6000C9F800300968641C0D44217800232E29AF
:109B70000BD114F8011FA1F130020A2A05D203EB20
:109B8000830201EB4203303BF3E76C290DD06829D7
:109B90000BD0692921D00BDC252918D0582931D0C8
:109BA00063290ED0642915D117E014F8011FECE7E2
:109BB000702969D0732932D075291BD0782909D131
:109BC00020E0D9F80000011DC9F8001001784046D6
:109BD000FEF71EF8641C90E76CE0D9F800100A1D2F
:109BE000C9F800200968CDE900500A224046FFF775
:109BF0009DF9EFE7D9F800100A1DC9F8002009689F
:109C00000A2206E0D9F800100A1DC9F800200968E8
:109C10001022CDE90050404603F058F9DAE7D9F8B0
:109C2000001000270A1DC9F800200E68C00705D1E2
:109C300012E04046761C7F1CFDF7EAFF31780029D0
:109C4000F7D104E0202140466D1EFDF7E1FFBD4243
:109C5000C0D9002DF6D1BDE74EB13046FCF7FAFB76
:109C6000074604E0202140466D1EFDF7D1FFBD42AE
:109C700006D9002DF6D103E04046761CFDF7C8FF5B
:109C800031780029F8D1A5E7D9F80000011DC9F8FD
:109C90000010056830214046FDF7BAFF78214046A4
:109CA000FDF7B6FF08200021CDE900010346102290
:109CB0002946B0E7BDE8FC872DE9F8438846050052
:109CC0002C482D499946A0EB01004FEAD0004FF0F7
:109CD0000101164601EB004424D0286800282CD04E
:109CE000002E34D0696840464FF010070A68511EB4
:109CF00011EA080F11D1014672432846FDF77AF99F
:109D000000282ED028684B463246046901B04146EF
:109D10002846A446BDE8F04360472046174B18A2EA
:109D2000009722E00E2000902046144B1EA220A196
:109D300000F0DDFC0E20BDE8F883082000902046EE
:109D40000E4B26A21AA100F0D2FC0820F3E709204E
:109D500000902046094B24A215A100F0C8FC092060
:109D6000E9E7064B214A2046009711A100F0BFFC0D
:109D70001020E0E7340C0300CC0B03006B0203005F
:109D8000616464725F69735F706167655F616C696C
:109D9000676E656428705F66732C20706167655F0D
:109DA0006164647229000000705F66730000000047
:109DB000257320636865636B206661696C65642048
:109DC000696E202573282920776974682076616C74
:109DD000756520307825782E00000000705F66736E
:109DE0002D3E705F617069006C656E00980803001D
:109DF00038B503001148124D4FF00E04A0EB0500DA
:109E00004FEAD0004FF0010505EB004009D061B1E9
:109E100019600C6801B0A446BDE8304011461846F0
:109E20006047084B08A2009402E0064B08A2009489
:109E300009A100F05CFC0E2038BD0000340C0300CA
:109E4000CC0B030020020300705F6673000000006B
:109E5000705F617069000000257320636865636B43
:109E6000206661696C656420696E2025732829204D
:109E7000776974682076616C756520307825782E56
:109E800000000000044801214174007A08B100205C
:109E900070470120704700004C330020012801D09A
:109EA000032808D10449002201284A7400D0002068
:109EB000087402F0A1B970474C33002070B5024617
:109EC000022801D0032A45D1234C207A002841D012
:109ED000012833D0022831D120480023022A00680B
:109EE00002D0032A2AD11BE0E360017911B10129D4
:109EF00024D10DE0D0E90565711B4FF48056B142C5
:109F000000D33146294481614569A9420ED015E04C
:109F10000169491C0161426991420FD1237213E02A
:109F2000E168491CE160082908D9E3602372022A2C
:109F30000AD00D21FEF758FB02F002F9607C28B12F
:109F4000BDE8704000F060BF0021F3E7BDE870405D
:109F500002F052B970BD00004C330020D02B00201D
:109F60002DE9F84F90468A463A493B4A0500A1EB55
:109F700002014FEAD1014FF00102DDF828901E46A0
:109F80004FF00E0002EB01441AD0B8F1000F1CD0C4
:109F90002868002822D00920002E29D06968496845
:109FA000B6FBF1F201FB1261002926D000902B4B89
:109FB00020462BA235A100F09AFB0920BDE8F88FBE
:109FC00000902046254B3CA203E00090234B204606
:109FD0003BA22EA100F08BFB0E20EFE708200090A3
:109FE00020461E4B38A229A100F081FB0820E5E79E
:109FF00000902046194B37A2DCE75046FCF7F4FFEF
:10A00000102798B14046FCF7EFFFA0B13246514609
:10A010002846FCF7EFFF98B1CDF80090286833464A
:10A020004246C46851462846A047C7E720460B4B26
:10A0300029A2009708E02046084B2DA2009703E0D4
:10A04000064B204633A2009710A100F050FB1020D1
:10A05000B4E70000340C0300CC0B030058020300EB
:10A0600021286C656E202520705F66732D3E705F21
:10A07000666C6173685F696E666F2D3E70726F67A4
:10A0800072616D5F756E697429000000257320632D
:10A090006865636B206661696C656420696E202564
:10A0A00073282920776974682076616C7565203083
:10A0B0007825782E00000000705F667300000000B5
:10A0C000705F737263000000705F66732D3E705F97
:10A0D000617069006C656E00616464725F69735FD2
:10A0E000616C69676E656433322864657374290036
:10A0F000616464725F69735F616C69676E65643324
:10A1000032282875696E7433325F7429705F7372F8
:10A1100063290000616464725F69735F77697468C2
:10A12000696E5F626F756E647328705F66732C2052
:10A13000646573742C206C656E29000070B541EA6B
:10A140004201DDE904564FF0A04441EA830141EAAF
:10A15000052104EB800041EA0641C0F8001770BDFC
:10A1600070B541EA4201DDE904564FF0A04441EAEE
:10A17000830141EA052104EB800041EA0641C0F871
:10A18000001770BD70B541EA4201DDE904564FF099
:10A19000A04441EA830141EA052104EB800041EA41
:10A1A0000641C0F8001770BD70B541EA4201DDE913
:10A1B00004564FF0A04441EA830141EA052104EB33
:10A1C000800041EA0641C0F8001770BD70B541EA51
:10A1D0004201DDE904564FF0A04441EA830141EA1F
:10A1E000052104EB800041EA0641C0F8001770BD6C
:10A1F00070B541EA4201DDE904564FF0A04441EA5E
:10A20000830141EA052104EB800041EA0641C0F8E0
:10A21000001770BD1CB5002100910B460122019171
:10A22000FFF7C2FF1CBD1CB5002100910B460122A7
:10A230000191FFF7CBFF1CBD1CB500220B4600921D
:10A2400011460192FFF7B0FF1CBD1CB500220B4662
:10A25000009211460192FFF7B9FF1CBD1CB5002109
:10A2600000910B46012201911146FFF779FF1CBDB9
:10A270001CB5002100910B46012201911146FFF708
:10A2800093FF1CBD1CB5002100910B4601220191DA
:10A290001146FFF79BFF1CBD1CB5002100910B462A
:10A2A000012201911146FFF7A3FF1CBD4FF0A04210
:10A2B00002EB8000D0F8002722F44032C0F80027DB
:10A2C000D0F8002742EA0141C0F8001770474FF06C
:10A2D000A04201218140C2F80C1570474FF0A04206
:10A2E00001218140C2F80C1570474FF0A0420121B6
:10A2F0008140C2F8081570474FF0A042012181400B
:10A30000C2F808157047000018B5084B6C460144A8
:10A310001B68009306E000BF54F82030D3F81035D6
:10A32000401C08C28142F7D818BD00004800030055
:10A33000034908B50844002101600068009008BD89
:10A340000060004002494058012800D000207047BA
:10A3500000600040F0B595B01C4615460F46084613
:10A360001A9E00F0F7FA182109A8FCF768F80E9673
:10A37000CDE909540023082203A9384600F0FDFA6C
:10A3800005980690BDF81000ADF81C00BDF812004D
:10A39000ADF81E0000208DF821000398082600F07B
:10A3A0000300012802D0022818D032E00398334677
:10A3B000850AC0F3C2008DF8200003980FA9C0F3EE
:10A3C0008314A200384600F0D8FA09A8009006AB22
:10A3D00022460FA9284600F019FA1AE00398840DC6
:10A3E000C0F3C2008DF82000082C01D2254600E001
:10A3F000082533462A460FA9384600F0BEFA2E44F7
:10A40000641B09AB06AA29460FA800F079F9002CB5
:10A41000EAD1384600F0A2FA15B0F0BD704700004E
:10A42000084810B50178084A515C19B1001D01F0C7
:10A43000ADFB02E00C3001F0ADFABDE810400020A9
:10A4400002F0D0BBDC2B0020302B002008B5034AE3
:10A4500000924023024AFFF77DFF08BD05C70200B6
:10A46000603300200A4A012902EBC00007D002290C
:10A4700007D0032907D0042907D000207047022005
:10A48000704704207047007970474079704700009A
:10A49000CC0B03002DE9F04F8DB0FDF7D1FB18B1C7
:10A4A00000200DB0BDE8F08F7E4C4FF0000BC4F8DB
:10A4B00018B4BFF34F8F60680290A568D846284053
:10A4C00004EB80000CE000BFD4F8180470B92168D8
:10A4D0000298814201D86160E2E7284004EB8000E5
:10A4E0000C3002A9FEF7B8FD0028EDD1002005AA26
:10A4F000029901EA050304EB8303491CDB6842F877
:10A500002030401C02910228F2D3059800F003008D
:10A51000022802D001284DD0AAE005985022810DD2
:10A520008946B2EB905F00D850210E4666F39F50EB
:10A53000059008315C4800F0C4F9070078D000F0BD
:10A5400009FA4346082205A9384600F01EFA029986
:10A5500008F1080A2940681A8000001D864222D9A5
:10A56000504D0C3530B1C2B204EB8101301A904627
:10A570000C3104E02946F2B2002590462846C6B2C6
:10A580005346384600F001FA0AEB080325B132467B
:10A590002946384600F0F9F9029909F1030001EB68
:10A5A000900002903BE004EB81015346324638466E
:10A5B0000C31EFE70598C0F38310062800D306207E
:10A5C000059960F38911C1F38310801C0591810006
:10A5D000354800F076F907004AD000F0BBF9434651
:10A5E000082205A9384600F0D0F908F1080800262D
:10A5F0000FE00298434600EA0501401C04EB81018C
:10A600000290042238460C3100F0BFF908F104082A
:10A61000761C0598C0F38310B042EAD847B1D4F84D
:10A620001054D4F8180478B1384600F097F934E0A3
:10A630001EE0E8684079012804D12A682846394696
:10A6400012689047E8680568002DF2D1384600F09E
:10A6500085F98DF800B06846FCF758FED4F8180468
:10A6600008B9029860609DF80000FCF773FE14E0E2
:10A67000D4F8104405E02168204689688847E068DE
:10A680000468002CF7D109480949401AC008022182
:10A6900001EB004007A100F017F8FDF7D1FA80F0B8
:10A6A0000100FEE6603400205C0C03003C0C03005B
:10A6B000CC0B03004261636B656E647320666C753E
:10A6C000736865640000000000231A4602F06CB94C
:10A6D00008B5012300926A4602F066F908BD1CB570
:10A6E000CDE9002302236A4602F05EF91CBD3EB5A7
:10A6F000069C8DE81C0003236A4602F055F93EBD16
:10A700002DE9F0470E4680461C469246082940D85F
:10A7100094F80C90002020731946104601F0A2FC1A
:10A720000025B54206D218F805201BA12046FFF7E8
:10A73000BDF903E01AA12046FFF7B8F96D1C082DFA
:10A74000EFD318A12046FFF7B1F90025B54212D288
:10A7500018F805707E2F08D8FBF754FE0068C05D1E
:10A7600010F03E0F01D03A4600E02E220EA1204606
:10A77000FFF79CF903E00DA12046FFF797F96D1C48
:10A78000082DE3D301222146504601F04DFC84F808
:10A790000C90BDE8F08700002025303278000000E2
:10A7A000202020007C000000256300002000000025
:10A7B00002480349401AC008704700005C0C0300BF
:10A7C000CC0B030013B56846FEF764FE08B1002009
:10A7D0001CBD0248009950F831001CBDCC0B030091
:10A7E00070B509480125D0F8104480F8205407E0DE
:10A7F000E06845712168204649688847E068046838
:10A80000002CF5D170BD0000603400202DE9FF4719
:10A8100081460C9D00200C462F7B287398461646D7
:10A820002946184601F01EFC072E42D2DFE806F04A
:10A8300004090F161F2A360049462846FFF736F945
:10A8400037E0494628462268FFF730F931E0D4E97D
:10A85000002349462846FFF729F92AE0A06800901E
:10A86000D4E9002349462846FFF720F921E0D4E93E
:10A870000201CDE90001D4E9002349462846FFF74B
:10A8800015F916E004F1080007C88DE80700D4E9BF
:10A89000002349462846FFF709F90AE004F10800B9
:10A8A0000FC88DE80F00D4E9002349462846FFF77A
:10A8B000FDF800222946404601F0B6FB2F73BDE8A3
:10A8C000FF872DE9F041058A80462D1F4819C01CDD
:10A8D000B0FBF5F0C6B24046FEF7E3FE041E19D009
:10A8E0000020207101206071E58000272546761E3A
:10A8F000C4F800800BE04046FEF7D3FE60B16179FA
:10A90000491C6171286005467F1CC0F80080B74271
:10A91000F1D32046BDE8F081204600F002F8002087
:10A92000F8E72DE9F041457901466B1E002201E070
:10A930000968521C9A42FBD30F680146002605E0C5
:10A9400038460C68FEF7CFFE2146761CAE42F7D3A0
:10A95000BDE8F0810121001DFEF777BE10B5044669
:10A960000121001DFEF797FE10F0FF0F04D12046D5
:10A97000BDE81040FFF7D5BF10BD1CB50192012204
:10A98000009201AAFEF746FD1CBD1CB501920022F3
:10A99000009201AAFEF73EFD1CBD0000064910B55D
:10A9A00000204870091D0860BFF35F8F0349044809
:10A9B00000F056FA002010BD982B0020C0000300C4
:10A9C000B431002008B500208DF800006846FCF77F
:10A9D0009DFCF1EE100A20F09F00E1EE100ABFF39B
:10A9E0005F8F08494020C1F880029DF80000FCF705
:10A9F000B1FC00F003FA08B141DF08BD20BF40BF41
:10AA000020BF08BD04E000E0FCF716BC08B500223A
:10AA100042504058009008BD024A1060101D01606D
:10AA2000704700002C760040030103481844C0F82A
:10AA30001425C0F8101570470070004002494058B6
:10AA4000002800D00120704700700040034908B57D
:10AA50000844002202600068009008BD00700040B9
:10AA6000024619B140205100884070478020FAE723
:10AA700020B1034909680160002070470E2070472B
:10AA800054030300FEB502460E460846FFF7F0FFEA
:10AA9000002868D1002400940194012706208DF835
:10AAA0000020ADF8040002948DF802706946202061
:10AAB000326869DF2C492D4A891AC908012202EB44
:10AAC000014530B100F03EFA024628462849FFF71A
:10AAD000FFFD00948DF801708DF8024001940294FE
:10AAE0008DF8034069464020326869DF30B100F0DC
:10AAF00029FA024628461F49FFF7EAFD00940A207A
:10AB00008DF800000194029469460120326869DFE3
:10AB100030B100F017FA024628461749FFF7D8FD72
:10AB20004FF4B0600090019402946946A12032680D
:10AB300069DF30B100F006FA024628460F49FFF7F8
:10AB4000C7FD0094019402948DF800406946A0204E
:10AB5000326869DF30B100F0F5F90246284608494D
:10AB6000FFF7B6FD0020FEBD4C0C0300CC0B03002C
:10AB7000440A03008C0A0300A4090300F00903003F
:10AB8000500903002DE9F0410546076860DF804663
:10AB900019491A482A68081AC608BA4219D902205F
:10ABA00000EB064416A12046FFF78EFD20463A46EC
:10ABB0001FA12B68FFF793FD4FF08050D0F80C01D8
:10ABC0002968800200F10050421A204625A1FFF7B3
:10ABD0007FFDB8F100004FF001040AD000F0B2F997
:10ABE000024604EB06402AA1FFF772FD4046BDE88D
:10ABF000F0812F480470F9E74C0C0300CC0B0300E4
:10AC0000496E73756666696369656E742052414D5D
:10AC100020616C6C6F636174656420666F72207470
:10AC2000686520536F66744465766963652E00001D
:10AC30004368616E6765207468652052414D2073DA
:10AC400074617274206C6F636174696F6E206672D8
:10AC50006F6D203078257820746F20307825782E1D
:10AC6000000000004D6178696D756D2052414D20E6
:10AC700073697A6520666F72206170706C696361B8
:10AC800074696F6E20697320307825782E0000007B
:10AC900073645F626C655F656E61626C6528292014
:10ACA00072657475726E65642025732E0000000055
:10ACB0004B2C002030B5144891B00078002820D0EB
:10ACC0005FF03405ADF8405010A903A861DF30B142
:10ACD000052816D011B0BDE83040FCF7ADBA03AC82
:10ACE0000A49684600F0BCF807E000BFD0E900213F
:10ACF00020469047684600F0CAF802980028E1D044
:10AD0000F4E711B030BD00004B2C002058030300C5
:10AD1000F8B5134C2078C0B10120A07001F0BCFC44
:10AD2000112814D0022001F0CFFC00258DF800502E
:10AD30006846FCF7EBFA11DF064625709DF8000027
:10AD4000FCF708FB2EB13046F8BD0820F8BD002006
:10AD5000F8BDA57001F05EFD032001F0B5FCF6E73B
:10AD6000482C00207CB5194C207808B108207CBD07
:10AD70000120A070002001F08FFC112819D00020C4
:10AD800001F0A2FC12480026006801908DF80060D6
:10AD90006846FCF7BBFA0F4901A810DF05000AD08E
:10ADA000002020709DF80000FCF7D4FA2DB1284651
:10ADB0007CBD00207CBD0120F3E7A670667001F029
:10ADC00045FD012001F080FCF3E70000482C002045
:10ADD000EC020300B57102000EB50749684600F0A9
:10ADE0003FF805E0D0E900108847684600F04FF8CA
:10ADF00002980028F6D10EBD080303000148007830
:10AE000070470000482C00200548817819B100786F
:10AE100018B1FFF77DBF08207047FFF7A3BF000000
:10AE2000482C00201FB568464BDF30B1052814D0F0
:10AE300004B0BDE81040FCF7FFB9084901A800F0D4
:10AE40000FF806E0D0E900210098904701A800F033
:10AE50001EF803980028E6D0F4E71FBD7403030032
:10AE6000016009684160AFF3008010B5D0E90021AE
:10AE70005368994201D1002104E0D1E90034A34292
:10AE800002D01946816010BD08314160F0E7816849
:10AE900000290BD0026892680A44826041684B68BE
:10AEA0009A4203D108314160FFF7DFBF704770B5A8
:10AEB0000D460646446804E0B2682946904718B13A
:10AEC000246820680028F7D120682860256070BDBC
:10AED00040680068704741680868002801D002682F
:10AEE0000A60704702460020526806E08B4203D198
:10AEF00008681060012070471A461368002BF5D1CE
:10AF000070474058002800D0012070470C4A10B507
:10AF100002F594730EE0991AC91001EBD171491032
:10AF200002EBC1010C68844201D90B4602E005D254
:10AF300001F108029A42EED3002010BD486810BD0E
:10AF4000E000030000B5FFF7E1FF002800D1014851
:10AF500000BD0000CC0003004058002800D00120B4
:10AF6000704708B5002242504058009008BDD0F804
:10AF70000403084000D0012070474058002800D04A
:10AF80000120704708B5002242504058009008BD8B
:10AF900008480068012110F0010F06D14FF0E020B1
:10AFA000C02280F80024C0F8001103490120086085
:10AFB0007047000000E100E0180500400649024625
:10AFC00000200B790BB1852070470A6001220A71BD
:10AFD00000224A71704700003C2B002004490120E8
:10AFE000086004480168C1F300410029FAD17047A4
:10AFF0000C00004018040040002802D001498001E4
:10B000000847704761000300002802D00149800111
:10B01000084770479100030010B5044600F0ECFFAC
:10B0200028B12046BDE810400021FFF73FB9204677
:10B0300000F0EEFF00280FD02046FCF7D5FE074AAF
:10B0400002EB8001D1F8103523F00103C1F810356F
:10B0500001218140C2F8081310BD000000600040CB
:10B060002DE9F0418846054600F0C6FF234E002832
:10B0700028461AD0FCF7B8FE304490F84800800902
:10B08000032802D001280ED007E04FF0A040D0F8EE
:10B090001005E84010F0010F05D003212846BDE857
:10B0A000F041FFF703B90221F8E700F0B1FF0028F3
:10B0B00022D02846FCF798FE04464FF4807000EB3F
:10B0C00084000F4F81B207EB8400D0F8102542F0C6
:10B0D0000102C0F810250846FFF72AF9B8F1000F61
:10B0E0000AD02846FCF780FE56F82000002803D03E
:10B0F0000120A040C7F80403BDE8F0811030002013
:10B10000006000402DE9FC41DFF8BC80044608EBFC
:10B110000400002790F930001346C0170E46401C6B
:10B1200001D008274CE0B0781946C0F34002204611
:10B13000FCF736FE0546401C41D0B078410719D4D3
:10B14000C0070AD04FF0A04000EB8401D1F80007FF
:10B1500020F00200C1F8000707E0002173782046C4
:10B1600000910A460191FFF70DF817492046543126
:10B17000FEF7D9FAB078800718D51448317800EB7B
:10B180008500D0F81025124B1A40C0F810254FF456
:10B19000F8524FF4403302EA042203EA01410A4321
:10B1A000D0F810150A43C0F8102509E008EB050097
:10B1B000327810F8481F41EA8211017000E004273C
:10B1C0003846BDE8FC8100001030002000600040DF
:10B1D000FFE0FCFF4FF0A041D1F81015C14011F085
:10B1E000010000D00120704770B5174D95F8580048
:10B1F00008B1082070BD0020411E2A18401CC0B2B2
:10B2000082F830102028F8D300242046FCF7BAFD3D
:10B21000641CE4B20C2CF8D300240C49C0206C65EB
:10B2200081F8000401264020891FC1F800014FF475
:10B23000BE70FFF77DF80649F007C1F8040385F8F2
:10B240005860204670BD00001030002006E000E08D
:10B2500000600040034890F85800002800D001200A
:10B2600070470000103000200121B1EB507F01D168
:10B2700001207047002070470121B1EB507F01D1C0
:10B28000012070470020704738B50D4600F036FFAA
:10B29000040014D000208DF800006846FCF736F852
:10B2A000207928B19DF80000FCF754F8112038BD32
:10B2B0000120256020719DF80000FCF74BF800206C
:10B2C00038BD10B500F01AFF002802D0002101603F
:10B2D000017110BD2DE9F041254C064612200D46A6
:10B2E000C4F808032348017C022918D0027C0146D7
:10B2F0004FF4807891F82E10012A12D00222C4F85F
:10B30000042301270774466005810022C26021B32F
:10B31000458390F82D103046FFF77EFB25E0122084
:10B3200002E0C2682AB10220C4F804031120BDE87B
:10B33000F081C660058361B947463846FFF77EFB5A
:10B340000028FAD03846FFF781FB29463046FFF740
:10B3500063FB0220C4F8040307E029463046FFF7E8
:10B360005BFB4046FFF772FB27600020DFE7000031
:10B3700000700040E030002070B50C4626490A7C81
:10B380000AB1112070BD2279244D0AB1012A01D1E0
:10B3900000222A6001EB4002137F1BB911F82D3FF8
:10B3A0005B1C0B70E1791177217A517721786278F3
:10B3B000302301F0030103EA02121143A2784FF493
:10B3C000E06303EA02221143E2784FF4805303EA78
:10B3D0000232114322794FF4E02303EA024211437F
:10B3E00062794FF4801303EA02521143A2791B01E0
:10B3F00003EA02620A4B114303EB0012C2F818156C
:10B40000227AE179FFF710FB207908B1012801D1F8
:10B4100001202860002070BDE03000200075004051
:10B420000070004070B505460E48017C09B111203E
:10B4300070BD00EB45010A7F1AB110F82D2F521E86
:10B44000027000240C774C77224621462846FFF7ED
:10B45000EBFA40F2FF72D143284600F04FF8204645
:10B4600070BD0000E03000202DE9F0411F4C054682
:10B4700094F82C0010B10820BDE8F08144F8101BAE
:10B480001B4928780860091D68780860E878A0776B
:10B49000012727770020207060776060154EE077E5
:10B4A0006FF00040C6F808034FF48270FFF7CEFA41
:10B4B000B015FFF7CBFA4FF48A70FFF7C7FAA878F8
:10B4C0000D49400181F800048020C91FC1F8000126
:10B4D0000220C6F80403A07F10B10120C6F80403BF
:10B4E0000348F03807600020C6E70000E030002085
:10B4F000F07500400070004007E000E02DE9F041E9
:10B5000017460C460546C1EA07401A4E06EB0511E0
:10B51000C1F81C0500212846FFF7A2FA23460121A5
:10B5200001EB4502144CC907D140626913F5006F65
:10B530001BD00A436261C6F8040301212846FFF7C5
:10B540008FFA6A004FF00041D140A7F5E0636269CD
:10B55000FF3B05D00A436261C6F80403BDE8F081F1
:10B560008A436261C6F80803F8E78A436261C6F855
:10B570000803E2E700700040E030002008490020A6
:10B580000A7C012A01D00820704791F82E30054A24
:10B5900001210BB111607047024A121DFAE7000049
:10B5A000E03000200070004070B517496FF0004097
:10B5B000C1F8080380214FF0E02201200025C2F8E5
:10B5C000801111490831086042F210744FF48A76F4
:10B5D0003046FFF733FA20B90020FFF70DFD641E57
:10B5E000F6D10A4805600A4E3574002406EB440083
:10B5F000007F10B1E0B2FFF715FF641C082CF5D3F3
:10B6000086F82C5070BD00000070004000750040AE
:10B61000E03000202DE9FC470C46154601798046B4
:10B62000574A01EBC10002EB80069946307F10B10A
:10B630000820BDE8FC87534AD8F80000074652F8B6
:10B640002110FFF721FE08B11120F2E7C6E90059E9
:10B65000207B0128207802D8FEF740FE01E0FEF7AB
:10B660004BFE4FF0000ACDF800A0CDF804A02078E2
:10B67000534652460121FEF7BBFD60784FF0FF357F
:10B68000FF2806D08146FEF729FE4846FEF704FE55
:10B6900000E0A946A078FF2809D000220546012332
:10B6A000CDF800A01146CDF804A0FEF7A1FDA078CA
:10B6B00086F82000E078F077E078FF280BD0217939
:10B6C00011B1FEF70BFE01E0FEF716FEE078FEF783
:10B6D000E3FD2079B0772178C7F80815C7F80C95F5
:10B6E000C7F81055A068C7F82405217B607B00B11E
:10B6F0000120012904D0022905D0032908D105E041
:10B7000040F0020004E040F0040001E040F00600D8
:10B71000C7F85405A079C7F8C005306810B14020BB
:10B72000C7F804030720C7F800053068012108B3F3
:10B73000D8F80000627940F3073000284FEA42123F
:10B7400006DA00F00F0000F1E02080F8142D03E08D
:10B7500000F1E02080F80024D8F8000040F3073022
:10B7600000F01F0201FA02F24009800000F1E0201F
:10B77000C0F80021504686F81DA0317759E7000037
:10B78000BC300020540003002DE9F04105460F466F
:10B790000079154900EBC00001EB80041646607F7C
:10B7A00010B11120BDE8F081206820B116F0140F0F
:10B7B00001D10120607797E80F0004F10C0888E8B8
:10B7C0000F00E07FFF2806D0A17F11B1FEF794FDA6
:10B7D00001E0FEF783FD33463A4621462868BDE87E
:10B7E000F04101F06BB80000BC3000200149024874
:10B7F00001F020BA6C300020002000402DE9F0411B
:10B800000546007916460F4600EB40012C4A01EB35
:10B81000C00102EB810494F82A1011B10820BDE8A0
:10B82000F081284951F820102868FFF72DFD08B154
:10B830001120F4E739462846FBF7A6FD6660386913
:10B84000206030004FF001062DD03F7F4FF48E7105
:10B850002868FFF786FB4FF4A2712868FFF781FB89
:10B8600028681949C0F8041328684FEA471140F3C3
:10B870000730002806DA00F00F0000F1E02080F821
:10B88000141D03E000F1E02080F80014286840F364
:10B89000073000F01F0106FA01F14009800000F1B5
:10B8A000E020C0F8001128680421C0F8001500202D
:10B8B000A061E06184F8290044F8140FA675AEE792
:10B8C0006C3000204C000300800002002DE9F05F86
:10B8D000054600790B4600EB400101EBC00024490E
:10B8E00001EB8004284600F045F810B11120BDE8B6
:10B8F000F09F62614FF00009C4F82090A36084F8C3
:10B9000028904FF48E784E4641462868FFF729FB71
:10B9100028684FF0010AC0F808A02146286801F005
:10B9200019F9606808BBD5F800B067690FE000BF7F
:10B9300094F8280008B10F2615E041465846FFF755
:10B940000BFB0028F4D02146584601F003F9206A89
:10B95000B842F2D3574641462868FFF7FDFA00285F
:10B96000F9D02868C760C4F814903046BFE70000DB
:10B970006C300020007900EB400101EBC00004496D
:10B9800001EB80004069002800D0012070470000D2
:10B990006C3000202DE9F047044600794FF0000993
:10B9A00000EB400101EBC000254901EB8007206856
:10B9B000C0F80095786880B120682249C0F8081363
:10B9C0002068012140F3073000F01F029140400938
:10B9D000800000F1E020C0F880112068D0F80C252C
:10B9E000D0F81485D0F80865D0F810554FF0FF3125
:10B9F000C0F81415C0F80C152068C0F80815C0F878
:10BA00001015501C02D01046FEF704FCB8F1FF3FA1
:10BA100002D04046FEF7FEFB681C02D02846FEF727
:10BA2000F9FB701C02D03046FEF7F4FB2068FFF7EC
:10BA300048FC87F82A90C7F80490BDE8F08700001A
:10BA40006C300020840202000149024801F0A0B9D4
:10BA500098300020002000402DE9F04105461646B0
:10BA600000790F46154A00EBC00102EB810494F8FF
:10BA7000201011B10820BDE8F081114951F82010C3
:10BA80002868FFF701FC08B11120F4E73946284681
:10BA9000FBF7BEFC6660386920601EB1397F28461E
:10BAA000FDF798FA28680821C0F800150020A06169
:10BAB000E0616061012184F82010DCE7983000200B
:10BAC000500003002DE9F04704460E46007927494F
:10BAD00000EBC00001EB800517463046FFF7C4FBC2
