:020000040002F8
:1060000028B00020C1630200C9630200CB63020014
:10601000CD630200CF630200D163020000000000E4
:10602000000000000000000000000000D363020038
:10603000D563020000000000D7630200D9630200AC
:10604000CD6B0200DB6302006D760200B9710200C5
:10605000DB630200DB630200456A02001570020088
:10606000DB630200DB630200DB630200DB63020030
:10607000DB630200DB630200DB630200DB63020020
:10608000DB63020005700200DB630200DB630200D9
:10609000DB630200DB630200D1720200DB630200FB
:1060A000DB630200DB630200DB630200DB630200F0
:1060B000DB630200DB630200000000000000000060
:1060C000DB630200DB630200DB630200DB630200D0
:1060D000DB630200DB630200DB6302000000000000
:1060E00000000000000000000000000000000000B0
:1060F00000000000000000000000000000000000A0
:10610000000000000000000000000000000000008F
:10611000000000000000000000000000000000007F
:10612000000000000000000000000000000000006F
:10613000000000000000000000000000000000005F
:10614000000000000000000000000000000000004F
:10615000000000000000000000000000000000003F
:10616000000000000000000000000000000000002F
:10617000000000000000000000000000000000001F
:10618000000000000000000000000000000000000F
:1061900000000000000000000000000000000000FF
:1061A00000000000000000000000000000000000EF
:1061B00000000000000000000000000000000000DF
:1061C00000000000000000000000000000000000CF
:1061D00000000000000000000000000000000000BF
:1061E00000000000000000000000000000000000AF
:1061F000000000000000000000000000000000009F
:10620000DFF80CD000F07CF900480047E5A202005E
:1062100028B0002030B450E8012F93B2C489234441
:106220008489A34228BF1B1B0489A34202BFBFF37A
:106230002F8F002007E0C3EA020340E80134002C5E
:10624000E9D14FF001000A6030BC704750E8012FDF
:10625000C2EA024240E801210029F7D1704730B478
:1062600050E8022F1FFAA2F3C488A34202BFBFF373
:106270002F8F00200DE0C48923448489A34228BFC6
:106280001B1BC2EA034340E80234002CE8D14FF064
:1062900001000A6030BC704750E8022FC2EA224277
:1062A00040E802210029F7D17047034653E8022F46
:1062B000D988B2EB324F4FF0000017BF92B241EADB
:1062C000014142EA014104E05A68B2EB324F08BF93
:1062D000012043E80212002AE8D1704730B4044696
:1062E00054E8000F0D4644E80053002BF8D1156028
:1062F00030BC704730B4044654E8000F40EA010552
:1063000044E80053002BF7D1156030BC704730B41F
:10631000044654E8000F00EA010544E80053002B4E
:10632000F7D1156030BC704730B4044654E8000F14
:1063300080EA010544E80053002BF7D1156030BC1A
:10634000704730B4044654E8000F00EB010544E800
:106350000053002BF7D1156030BC704730B40446B1
:1063600054E8000FA0EB010544E80053002BF7D1DF
:10637000156030BC704770B404464FF0000054E81C
:10638000006F0D68AE4207BF44E80023012044E8D7
:1063900000630E60002B1CBF0020F0E770BC70474C
:1063A00030B4044654E8000F88422CBF451A054615
:1063B00044E80053002BF5D1156030BC7047000055
:1063C0000648804706480047FEE7FEE7FEE7FEE78F
:1063D000FEE7FEE7FEE7FEE7FEE7FEE7D572020016
:1063E000016202002DE9F05F0546002092469B46BF
:1063F00088460646814640241BE0284641464746DB
:10640000224600F06CF853465A46C01A914110D308
:1064100011461846224600F016F82D1A67EB0108BF
:106420004F4622460120002100F00DF817EB00092D
:106430004E41201EA4F10104DFDC484631462A46C5
:106440004346BDE8F09F202A04DB203A00FA02F11F
:10645000002070479140C2F1200320FA03F3194352
:106460009040704700487047E007030010B5431A9A
:10647000934209D28318881803E010F8011D03F82D
:10648000011D521EF9D210BD40EA01039B0703D043
:1064900009E008C9121F08C0042AFAD203E011F863
:1064A000013B00F8013B521EF9D210BDD2B201E00F
:1064B00000F8012B491EFBD270470022F6E710B509
:1064C00013460A4604461946FFF7F0FF204610BD62
:1064D000421C10F8011B0029FBD1801A7047202AAA
:1064E00004DB203A21FA02F00021704721FA02F37E
:1064F000D040C2F120029140084319467047000085
:10650000064C074D06E0E06840F0010394E8070000
:1065100098471034AC42F6D3FFF776FEC40F030061
:10652000E40F030070B58C1810F8015B15F0070339
:1065300001D110F8013B2A1106D110F8012B03E01C
:1065400010F8016B01F8016B5B1EF9D12B0705D424
:106550000023521E0DD401F8013BFAE710F8013B6D
:10656000CB1A921C03E013F8015B01F8015B521E89
:10657000F9D5A142D8D3002070BD00000EB50D4959
:106580000D4805F0D7FF08B101F094FA0B4A07CA8D
:106590008DE807006946002005F054FF08B101F0BE
:1065A00089FA0121064805F0FBFE002801D001F020
:1065B00081FA0EBD95780200FCE1020088F5020028
:1065C000FC2A002010B506F03FF8002803D0BDE8F3
:1065D000104001F06FBA10BD034800224FF4005183
:1065E000006801F0B3BA0000E4E102002DE9F05FB9
:1065F000C7089A4607EBDA0000269046A0F1010B87
:106600000C46FF2901D9260ACCB20A984FF000099E
:106610000D186D1EFF2D02D94FEA1529EDB2442049
:1066200000F037F9F8B200F044F90BF0FF0000F089
:1066300040F9452000F02DF9E0B200F03AF9F0B24F
:1066400000F037F9E8B200F034F909F0FF0000F08B
:1066500030F94E2000F01DF9F8B200F02AF94F2071
:1066600000F017F9E0B200F024F9F0B200F021F9DF
:10667000242000F00EF90A9D002405FB0AF506E02F
:1066800098F8000000F015F908F10108641CB4EB5B
:10669000D50FF5D3BDE8F05F00F096B810B5162021
:1066A00004F0BDFE0A2004F0B9FABDE8104016203F
:1066B00004F0C3BE122000F0ECB810B5012000F0C9
:1066C000E8F8C72000F0F5F8002000F0F2F800200C
:1066D00000F0EFF8112000F0DCF8012000F0E9F8FC
:1066E000442000F0D6F8002000F0E3F8182000F075
:1066F000E0F8452000F0CDF8C72000F0DAF80020DF
:1067000000F0D7F8002000F0D4F8002000F0D1F815
:106710003C2000F0BEF8052000F0CBF8182000F077
:10672000B8F8802000F0C5F84E2000F0B2F8002044
:1067300000F0BFF84F2000F0ACF8C72000F0B9F827
:10674000BDE81040002000F0B4B800002DE9F04191
:106750001B4C6078002831D1A178606A194E08433B
:106760004FF4A4774FF001050ED100F04FFD4FF02C
:10677000A0411020C1F80805A570FFF78FFF002287
:106780003946B06801F0E2F9606A01280AD1A078C0
:10679000002813D1FFF78EFFA57000223946B0689C
:1067A00001F0D4F9606A022808D1A078002805D148
:1067B000A570FFF782FF65700020A070BDE8F08132
:1067C000E02A0020E4E1020010B5222000F061F888
:1067D000FF2000F06EF8BDE81040202000F059B80E
:1067E0002DE9F04100F119042546242000F051F86C
:1067F000002741F26F36207800F05BF8641C7F1CA4
:10680000B742F8D30024FF2000F053F8641C192C81
:10681000F9D3262000F03DF80024287800F049F84C
:10682000641C6D1CB442F8D30024FF2000F041F832
:10683000641C192CF9D3BDE8F0812DE9F041044620
:106840000546242000F025F8002741F288362078FC
:1068500000F02FF8641C7F1CB742F8D3262000F00C
:1068600018F80024287800F024F8641C6D1CB44249
:10687000F8D3BDE8F041AFF3008010B5222000F05E
:1068800008F8F72000F015F8BDE810402020AFF31D
:10689000008010B50446172004F0C1FD182004F054
:1068A000BEFD204600F0F2FCBDE81040182004F0C8
:1068B000C4BD10B50446182004F0BFFD182004F034
:1068C000AEFD172004F0B9FD204600F0DFFCBDE866
:1068D0001040182004F0B1BD2DE9FF5F074600F01D
:1068E00063F94E484FF0000A4FF0FF0B81680391A7
:1068F000D0E90049CDE900BA55465E46484B49A269
:106900005146052000F0AEFACDE90065444B3A4609
:106910000021B52000F014FA002078E0002772E092
:10692000454807EB87010268406802EB810608EBE7
:10693000880100EB8105206850B91422CDE9002BB5
:106940001346A9B2B0B2CDF808A03C4A00F044FA10
:10695000206801280AD11422CDE9002B1346A9B2E0
:10696000B0B2CDF808A0364A00F036FA2068022806
:106970000BD11422CDE9002B1346314AA9B2B0B293
:10698000CDF808A0783200F027FA206803280BD150
:106990001422CDE9002B1346284AA9B2B0B2CDF893
:1069A00008A0783A00F018FA206804280BD11422C5
:1069B000CDE9002B1346224AA9B2B0B2CDF808A007
:1069C0003C3200F009FA206805280BD11422CDE9E9
:1069D000002B1346194AA9B2B0B2CDF808A0B43AB8
:1069E00000F0FAF9206806280BD11422CDE9002B1B
:1069F0001346124AA9B2B0B2CDF808A03C3A00F052
:106A0000EBF9241D7F1C4F458ADB08F10100039937
:106A10008046884282DBBDE8FF9F0000B061002015
:106A2000302F0020536F6B6F62616E20636861705E
:106A30007465722D000000005C2B0020D0F702006E
:106A400068F602002DE9F04700268AB0DFF8509181
:106A5000B0464FF48075012437460696284604F068
:106A600023FD38B1D9F80403204203D0284604F0AE
:106A700011FD26432D1D64007F1CADB2082FEDD300
:106A80004FF4BE74204604F00FFD48B1204604F0D8
:106A900001FD46F0004606AA0121002004F0E6FCB4
:106AA000404D16F0FF0F15D00127002437420DD0BE
:106AB00009EB8401D1F81005D1F81015C0F30420BA
:106AC00055F82420C1F3014102B190477F00641CB6
:106AD000082CEBD3002E5FDA4FF0FF30CDF810809A
:106AE00054E0281910F8507F90F9000027F0C008F2
:106AF000401C3BD007A9404603F031FF10B34FEADA
:106B00009719404602F0E2F955F820701FB1B9F12B
:106B1000030F03D006E0B9F1030F27D104A94046C3
:106B200003F025FF4FF0A04101EB8800D0F80007EB
:106B300006A9C0F3014A404603F011FF18B1BAF1AB
:106B4000020F03D012E0BAF1030F0FD1B9F1030F16
:106B500008D1BAF1020F1DD00221404604F04EFCCC
:106B6000761CF6B217B149464046B847641C042C5F
:106B7000B7D3002E10D06A460121002004F076FC25
:106B800006990098884207D006900498002634465B
:106B90000790A6E70321E0E70AB0BDE8F087000010
:106BA000006000405064002000EB001101EB8010F9
:106BB000044901EB800104480160092141608160C2
:106BC00070470000642B0020B061002070B54FF4C6
:106BD0008076304604F012F8114CB50560B13046AD
:106BE00004F013F80120C5F80803607920B90120EA
:106BF00060712168002088474FF48276304603F0A8
:106C0000FDFF00280AD0304603F0FFFF0220C5F840
:106C100008032168BDE870400120084770BD0000EE
:106C2000582F002030B51A49CA8A022A08D0042AEF
:106C300006D0072A18D140EA00100022C3B222E091
:106C40000022C3B20DE0002006E000BF02FB0404F6
:106C50000D68401C80B22B554C8A8442F6D8521CD9
:106C600092B2888A9042EED830BD002006E000BF84
:106C700002FB04040D68401C80B22B554C8A8442F0
:106C8000F6D8521C92B2888A9042EED830BD0000ED
:106C9000885F00202DE9F04F814628481E46DDF828
:106CA00028B0838888464B4546D3C188414543D3A5
:106CB000B088410700D0012101EBD000203A10FB41
:106CC00002F0F1884FF0800A484331680F18002520
:106CD0002FE0002424E000BFBBF1FF0F397804F05F
:106CE00007022AFA02F001EA000101D009B908E01E
:106CF00081B108EB050081B209EB040080B2099A6A
:106D000006E008EB050081B209EB040080B25A46A8
:106D100000F004F9E043400700D17F1C641CA4B2DA
:106D2000B088A042D8D83079400700D07F1C6D1CB5
:106D3000ADB2F088A842CCD8BDE8F08F885F0020C3
:106D40002DE9FF4FADF5037D8A46DDE99087834647
:106D500000244FF4807915462646494642A8FFF79D
:106D6000ACFB494602A8FFF7A8FB194842AA838852
:106D70005B4529D3C188514526D3CDB10A2102A84C
:106D800095FBF1F301FB135395FBF1F530330355FC
:106D9000641C24B2002DF3D11146002C0DDD031923
:106DA00013F8013C8B55761C641E36B224B2F4E70E
:106DB000CDE9008707A2869B02E0CDE90087869B8C
:106DC0005146584600F04EF80DF5077DBDE8F08FAE
:106DD000885F0020300000002DE9F04F81462048F8
:106DE0001546099F82889A4688464A4535D3C18808
:106DF000414532D300264FF0800B2CE0002423E0E5
:106E00000B982978FF2804F007022BFA02F001EA18
:106E1000000101D009B908E081B108EB060081B298
:106E200009EB040080B20A9A06E008EB060081B282
:106E300009EB040080B20B9A00F070F8E0434007C1
:106E400000D16D1C641CA4B2BC42D9D3780700D019
:106E50006D1C761CB6B25645D0D3BDE8F08F00004D
:106E6000885F00202DE9FC4F8046194889460D4671
:106E700081884446DDF830B01E461746A14225D32E
:106E8000C1888246A94221D31DE0B088BAF80430F7
:106E90000119994203D9F188444629448DB2F188F9
:106EA000BAF806002944814201D944464D460B9860
:106EB0003346CDE900B029462046FFF7EBFEB08807
:106EC0007F1C204484B23A78002ADED1BDE8FC8FD2
:106ED000885F002070B50D4C049D20602181628187
:106EE000A5810225E5824E074FEAD10000D0401C63
:106EF0006082A282E381258223B1B42B02D0A280DA
:106F0000E18070BDA180E28070BD0000885F00203C
:106F10000149086070470000885F0020F0B5384CD8
:106F2000A38883424BD3E3888B4248D32346E78927
:106F30001E895D89CFB15A2F1AD0B42F1CD0B7F556
:106F4000877F3CD10B46281A401E80B2218AD9B1D6
:106F5000012916D0022904D0032930D1F11A491E83
:106F60008BB2281A401E80B20EE003460846EDE7B9
:106F7000711A491E8BB2E9E7301A401E83B2681AB3
:106F8000E2E7F11A491E8BB29E4218D3854216D30E
:106F90001B49E58A4C8A0968022D11D0042D20D0A6
:106FA000072D0CD1444304EB5304DB075B0FF025A2
:106FB000DD40085D1201A843DA4002430A55F0BDE6
:106FC000444304EBD3048020002A0D5D03F0070244
:106FD00020FA02F002D028430855F0BD85430D5534
:106FE000F0BD444304EB930094079B075D0F0A5CDC
:106FF000C023EB409A43230EEB4013430B54F0BDE8
:10700000885F002002490248091F09680068084794
:10701000A82F00202DE9FE434FF48278404604F06B
:10702000A9FD4C4F00254C4C012600B3404604F00E
:10703000A9FD94F82E0010B194F82F10D1B18DF85D
:107040000050616801912189ADF80810E26832B101
:10705000218B618362602181E56010B102E02574BB
:1070600000E03E6021686846884784F82F5094F815
:107070002E0060B34FF48077384604F07BFD30B3C8
:10708000384604F07FFD628B94F82D108A420AD9AD
:10709000A2EB010080B260832289A2EB000062684B
:1070A00002EB400005E007D1E06828B184F82F60CA
:1070B000658304F04DFD04E08A4202D184F82F601C
:1070C0006583404604F05EFD2248001D06604FF4D3
:1070D0008877384604F04EFD48B1384604F052FD3A
:1070E000257402208DF800002168684688474FF417
:1070F0008A77384604F03EFD28B1384604F042FD58
:107100002574BDE8FE834FF000484FF48C79676921
:107110001DE000BFB7FA87F028FA00F109EB8005FF
:107120008F43284604F026FD88B1284604F02AFD46
:10713000A5F58C75E8088DF8040045F38000401C27
:107140008DF800608DF80500216868468847002F9B
:10715000E0D1D6E700700040D064002070B50E4644
:10716000144900EB400001EBC0051446E86A1835ED
:1071700020B101280FD0022805D113E0284600F0E5
:107180000FFBA04201D2002411E0224631462846DE
:1071900000F03EFB0BE0284600F002FBA042F4D2D8
:1071A0000446F2E73146284600F005FB0446204637
:1071B00070BD00009C6D0020F8B51248124E0446C8
:1071C0004FF48C7104F053FF00281AD00025C4F846
:1071D0001851D4F818010090F07F3446FF2806D0EB
:1071E000A17F11B104F022F901E004F02DF96577D7
:1071F0002572D4E9002101B004F10800BDE8F04097
:107200001047F8BD00300040AC64002000B587B0E6
:10721000182004F0DFF8172004F0DCF8162004F042
:10722000D9F800231B2000931A461946019304F055
:1072300081F8182004F001F9162004F0FEF8104A35
:107240000023D2E90E01526CCDE90201FF208DF836
:107250000B008DF80A001A208DF8090019208DF80E
:107260000800C007049006480592064A02A978382B
:1072700005F036FA002801D000F01CFC07B000BD74
:1072800020F60200C5D60200FFF7C0BF10B50D49B9
:107290000D4C012308700022627001F50070C0E9F6
:1072A0000013A0F58071C0E902120146074805F0FD
:1072B000D1FA18B100F0FEFB00E020BF6078002892
:1072C000FBD010BDA05F0020582B0020A8F50200C5
:1072D00004F038BEF0B5D34AD3494FF08054136858
:1072E000D4F830010978D4F83421451CC1F30311D6
:1072F00007D08446164601270025BCF1060F04D0AE
:1073000013E003F0FF0C0E46F5E7032E05D0042E24
:1073100003D0052E01D0062E07D1B4F82463DFF880
:107320000CC3C6F30426CCF80060DEB2062E06D1EC
:10733000032904D1DFF8FCC2BD4ECCF87460461CB2
:1073400006D084464FEA0206BCF1060F04D013E0D3
:1073500003F0FF0C0E46F7E7032E05D0042E03D0F2
:10736000052E01D0062E07D1D4F84462DFF8C8C23A
:10737000C6F34236CCF80060DEB2062E08D10329EF
:1073800006D1AE4ED6F800C02CF0807CC6F800C006
:10739000461C05D084461646BCF1060F04D014E006
:1073A00003F0FF0C0E46F7E7032E05D0042E03D0A2
:1073B000052E01D0062E08D14FF08046C6F80C519C
:1073C000C6F810519C4E361F3560DEB2062E08D12D
:1073D000032906D1DFF860C203260CF1640CCCF857
:1073E0000060DEB2062E11D103290FD1DFF850C2A2
:1073F0000526CCF80060924E78363760904E0836FD
:1074000035600CF1040C3F26CCF80060461C05D01A
:1074100084461646BCF1060F04D087E003F0FF0C4B
:107420000E46F7E7032E7CD0042E7FD0052E01D028
:10743000062E7BD1834E3668DFF80CC2CCF8006094
:10744000804E361D36680CF1040CCCF800607D4E81
:10745000083636680CF1040CCCF80060794E0C3616
:1074600036680CF1040CCCF80060764E10363668A5
:107470000CF1040CCCF80060724E143636680CF136
:10748000040CCCF800606F4E18363668DFF8B8C1CF
:107490000CF1200CCCF800606A4E1C3636680CF1FA
:1074A000040CCCF80060674E203636680CF1040CF2
:1074B000CCF80060634E243636680CF1040CCCF82E
:1074C0000060604E283636680CF1040CCCF8006081
:1074D0005C4E2C3636680CF1040CCCF80060594E2A
:1074E00030363668DFF860C10CF1400CCCF8006033
:1074F000544E343636680CF1040CCCF80060514E12
:10750000383636680CF1040CCCF800604D4E3C3631
:1075100036680CF1040CCCF800604A4E40363668F0
:1075200000E003E00CF1040CCCF80060461C05D030
:1075300084461646BCF1060F04D011E003F0FF0CA0
:107540000E46F7E7032E05D0042E03D0052E01D0FA
:10755000062E05D1D4F858423C4E04F04F04346056
:10756000441C04D003461146062B02D010E0DBB2C7
:10757000FAE7032905D0042903D0052901D00629FB
:1075800006D133490B68DB0702D06FF001030B60B3
:1075900006280CD1032A0AD0042A08D0052A06D0CE
:1075A000062A04D12B48016841F480610160234818
:1075B0007438016841F470010160BFF34F8FBFF36D
:1075C0006F8F4FF01021D1F80002002803DBD1F8B3
:1075D0000402002822DA204A176020480368002BA2
:1075E000FCD01523C1F800320468002CFCD0C1F88F
:1075F000043201680029FCD0156001680029FCD024
:10760000BFF34F8F0D48F0380168154A01F4E0616F
:1076100011430160BFF34F8F00BFFDE712491148CE
:107620000860F0BDE00F00F0E80F00F040350140C9
:107630000DF0ADBA00C007403C050040FCED00E095
:10764000105600400404001020C50040E40E004025
:10765000000400403C17004004E5014000E4014004
:107660000400FA050090D003503000200148006863
:1076700000470000602F00202DE9FF5F04464448CA
:107680004FF00008C246816803914FF0FF0BD0F81D
:10769000049078E0002772E03E4807EB870102681B
:1076A000406802EB810608EB880100EB8105206849
:1076B00050B91422CDE9002B1346A9B2B0B2CDF8CF
:1076C00008A0354AFFF788FB206801280AD1142258
:1076D000CDE9002B1346A9B2B0B2CDF808A02F4ACD
:1076E000FFF77AFB206802280BD11422CDE9002B8A
:1076F00013462A4AA9B2B0B2CDF808A07832FFF7F3
:107700006BFB206803280BD11422CDE9002B134614
:10771000214AA9B2B0B2CDF808A0783AFFF75CFBD5
:10772000206804280BD11422CDE9002B13461B4AF4
:10773000A9B2B0B2CDF808A03C32FFF74DFB2068EB
:1077400005280BD11422CDE9002B1346124AA9B209
:10775000B0B2CDF808A0B43AFFF73EFB2068062887
:107760000BD11422CDE9002B13460B4AA9B2B0B2BB
:10777000CDF808A03C3AFFF72FFB241D7F1C4F4596
:107780008ADB08F101080399884583DBBDE8FF9F88
:10779000B06100205C2B0020D0F7020068F60200E8
:1077A0000269C1688A4203D88068401A104400E028
:1077B000501A401E70472DE9F047C46817468946A5
:1077C00006464FF000083069A04201D9051B02E0CF
:1077D000B168201A0D1AB0686D1E001BA84200D8AF
:1077E0000546BD4200D33D4670682A4620444946BE
:1077F000FEF73CFEB0687F1B2C44A844A944A0427D
:1078000000D10024F460002FDDD14046BDE8F087B0
:107810002DE9F04104468846D4E90207C51BE1681A
:10782000606816460844B54206D94146FEF71EFE7A
:10783000B819E060BDE8F0812A464146FEF716FE21
:10784000761B08EB050132466068FEF70FFEE66026
:10785000F0E702E008C8121F08C1002AFAD17047F9
:107860007047002001E001C1121F002AFBD17047C0
:107870000121202803DA81400548014003E0402827
:1078800002DA2038814009B101207047002070479A
:10789000FC06FFBD10B504460078002822D1012166
:1078A000606804F07DFD08B100F004F96068012211
:1078B0000023B0F900100C48C46AA14201DDC27176
:1078C00000E0C37144793CB1B42901DA437103711A
:1078D000BDE8104004F0CEBE438B9942F8DD427102
:1078E0000271F5E710BD0000E02A00200649FA22E7
:1078F00038B1012805D0022802D140F21D1048837A
:1079000070474A8370470000E02A002010B5FEF758
:1079100035FEBDE81040FEF755BE800701D00020BF
:10792000704701207047C3688B4206D81144006934
:10793000491E814201D8012070470020704790F80D
:107940002400012801D01F207047EE20704710B599
:1079500001220221002001F08BF808B1072810D184
:1079600007220221012001F083F808B1072808D17D
:1079700000210A22084601F07BF808B1072800D14F
:10798000002010BD022000F075BF000070B500247B
:10799000064D06E06868012110F8340004F0D6FBBB
:1079A000641C28788442F5D3002070BD682F002025
:1079B000F8B516460C4605460A2A01D20720F8BD3E
:1079C00004F0BEFC18B904F085FC0028F7D1134F71
:1079D000102113487D603C70BE60FEF76EFD0020F4
:1079E000C7E904000F4E0DE005EBC40031680091BB
:1079F00081788DF8011000780B4A694604F0F8FB95
:107A00000028DCD1641EE4B2EED2BDE8F84005489F
:107A10000021064A001D00F05FB80000682F00201A
:107A20002065002058040300CD9E02002993020027
:107A300072B603F071FF00BF03F0C8FD0028FBD150
:107A400011481249401AC408012000EB044010A15B
:107A500003F0D6FE11480068C00700D000BE022027
:107A600000EB04400EA103F0CBFEBFF34F8F0B4899
:107A7000E43801680E4A01F4E06111430160BFF38C
:107A80004F8F00BFFDE700006C100300F40F0300F0
:107A9000466174616C206572726F7200F0ED00E0F7
:107AA00053797374656D207265736574000000000E
:107AB0000400FA050EB500210091CDE901106A46D7
:107AC00044F20100FFF7B4FF0EBD0000014801F0D1
:107AD00092BC0000882F00203AB100680129426161
:107AE00000D000210161002070470720704700008E
:107AF00038B5114808235822416800910F490068A1
:107B000002F05FFE002815D10D4A69460D4801F0CC
:107B100077FC04000ED101210A4801F0E8FC0123A2
:107B2000094A1946074801F03EFC06490120083978
:107B30000870204638BD0000600403004065002046
:107B400019D30200882F0020FFFF7F0070B5044684
:107B5000007F0D4608B1002070BDA26102F09CF9C3
:107B6000401941F10001C4E90201206900B1256119
:107B70002146BDE87040002005F00CBF0146002002
:107B80000877012005F006BF30B5EFF3108172B61B
:107B90000D4A9468012324B10370002900D162B614
:107BA00030BD93604FF0E023D3F88051074C25405F
:107BB0001560C3F88041D3F8844154605A17C3F864
:107BC000842100220270E8E798650020FC06FFBDD2
:107BD0000B498A68002A11D000280FD1EFF31080DA
:107BE00072B60B684FF0E022C2F800314B68C2F861
:107BF000043100228A60002800D162B6704700007C
:107C00009865002010B51C4A01211C48FFF764FF4D
:107C100008B1FFF74FFF1948194A0121001DFFF76E
:107C20005BFF08B1FFF746FF1448164A01210830F0
:107C3000FFF752FF08B1FFF73DFF1048124A01213C
:107C40000C30FFF749FF08B1FFF734FF0B480F4A2C
:107C500000211030FFF740FF08B1FFF72BFF074866
:107C60000B4A01211430FFF737FF002803D0BDE88D
:107C70001040FFF71FBF10BD0D790200E4E10200C4
:107C8000FD8D020005960200F18D0200ED950200C7
:107C90004196020070B51500044609D00020286006
:107CA00034B1206820B1A079800703D0072070BDCF
:107CB0000E2070BD084600F01FFBC0B2142804D08F
:107CC0002179814203D8042070BD052070BDE2886F
:107CD000216800FB02102860002070BD2DE9FC47E0
:107CE000002517880646158090F82D001446894611
:107CF00030B13A462146484600F012FB051E09D134
:107D0000B0784FF00C0A18B32088C846001DB8425E
:107D100002D95046BDE8FC87684679DF0028F9D1D2
:107D20002088032108F8001020881921401C80B207
:107D3000208008F800102088401C80B2208000EBD2
:107D40000801BDF8000005F04DFE218808442080A0
:107D5000F0780222C8B1218896F9033001F1030CB2
:107D60004846BC45D5D8425421884FF0010C491CE7
:107D700089B2218000F801C02188491C89B2218084
:107D800009F801302088401C20807068B8B1218833
:107D900090F9003001F1030C4846BC45B9D8425473
:107DA00021880A22491C89B2218042542188491C19
:107DB00089B2218009F801302088401C2080308958
:107DC00050B1CDE900474B460622022106F10800DA
:107DD00006F028F8051E9DD1308A50B1CDE9004744
:107DE0004B460722032106F1100006F01BF8051E82
:107DF00090D1308B50B1CDE900474B46152214216C
:107E000006F1180006F00EF8051E83D1306A30B175
:107E10003B462246494601F076F9051EDBD1706AE1
:107E200030B13B462246494602F076FB051ED2D1D0
:107E300096F82C0038B13B4622464946304605F0BC
:107E40008BFB051EC7D1307838B13B4622464946E8
:107E5000304602F05BFC051EBDD128465AE718B536
:107E600004460020ADF8000013466A46204600F0A4
:107E700006F8002802D0BDF80000204418BD70B5F7
:107E8000C8B1C2B10024158803E0065D641C344407
:107E9000A4B2A54203D8061976789E4201D08C423E
:107EA000F3D38C4207D2005DA31C401E9BB280B26C
:107EB0001C188C4201D9002070BD138070BD80F861
:107EC000301070472DE9F0410D00044606D02CB16A
:107ED00095F87A000026012803D006E00E20BDE8C0
:107EE000F08195F89800012829D0D5F8A000042841
:107EF00025D0D5F89C00042821D04FF00108A670A9
:107F00002C2205F17801201DFEF7B0FA84F83060CC
:107F1000D5F8A4006063D5F8A800A0634FF6FF7001
:107F2000A4F8240404F58260C4F82004C4F826648C
:107F3000A4F82A6484F82C64207810B104E00720A7
:107F4000CDE7FF2084F8540004F155072046C4F81B
:107F50001074FFF7F4FCA4F8140404F21442394638
:107F60002846FFF7BBFE0028B9D104F23120C4F83F
:107F700018042046FFF7E3FCA4F81C0404F21C429A
:107F800005F13C00D4F81814FFF7A8FE0028A6D18C
:107F900084F85180208BA4F8480084F83C80266443
:107FA00084F85060606900216064454604F13C0239
:107FB000781E72DF002892D1257090E710B50288F4
:107FC000102A1BD0112A20D0262A1DD1007A0C4657
:107FD000012801D0022817D1A0780521401CB0FB50
:107FE000F1F201FB1201204600F03AF800280BD014
:107FF000A16B002908D0BDE810400847C27B012AC8
:1080000002D18088A1F8240410BD0C46002184F818
:108010002E148088B4F824148842F5D120790028E1
:10802000F2D10121DFE710B5044690F8540074DF67
:10803000012084F82E04002084F8300484F85000D5
:108040000621204601F0F7FD002808D1A17820463E
:1080500000F006F810B1A16B01B18847002010BDF7
:108060002DE9F05F044600780F4698B1A77000250F
:10807000C4F82654A4F82A5484F82C54A079012674
:1080800008B1012F09D0E07980B1012F05D0022F6E
:1080900003D00BE00820BDE8F09F616B21B184F8AC
:1080A0002D640820884701E084F82D5404F227410C
:1080B00000200A5C0AB1304603E0401C0628F8D3D1
:1080C00000204FF002084FF0030B012F06D0022FC3
:1080D0000CD0032F0FD0042F15D110E0A17929B1B6
:1080E00094F8241011B908B130460DE0E17911B1CE
:1080F00008B1404608E0207A08B1584604E0607AAA
:1081000008B1042000E02846A070616B41B103284B
:1081100001D0042804D1607910B194F82E0498B1EC
:1081200084F82F5404F13C0018210746FEF7C5F9E6
:1081300084F83C6004F12C0004F028FE58B194F857
:108140002C0084F8510008E084F8305484F82F643F
:1081500007208847E6E784F8516094F8240058B176
:1081600004F1280004F012FE20B194F8280084F8ED
:10817000520001E084F8526084F85050A27804F272
:10818000264104F582694FF0060A052A64D2DFE829
:1081900002F07C030F22420084F83160C4F82054BE
:1081A000C4E9101584F83C808020A4F8480055E00C
:1081B00084F8318094F82420384612B107220270E6
:1081C00001E080F800B0228A8281C4F82054416026
:1081D000E168B96042E06069B860208BB88194F8CA
:1081E00024003D460028204602D084F83CA001E04F
:1081F00084F83C6005F0E8FD50B185F81480042156
:10820000204601F018FD38BB052184F8311021E02B
:1082100084F831B01EE0E069B860208CB88194F831
:1082200024003D460028204602D084F83CA001E00E
:1082300084F83C6005F0C8FD48B185F8148004213D
:10824000204601F0F8FC38B984F831A002E004209F
:1082500084F83100C4F82094A07878B13A4604F14B
:108260005400D4F8201472DF00287FF414AF94F87F
:10827000301094F8540073DF0028F6D1616B11B10F
:1082800094F831008847002005E784F83150F5E77D
:1082900070B5040012D001461C221448FEF7E6F81F
:1082A0001248134D0560206850B17ADF002806D1CE
:1082B0002068016829604068686005E00E2070BD94
:1082C0000B487BDF0028FAD108484FF6FF711438BD
:1082D000084A20F8041B0549343901600021FFF7E2
:1082E000FBFB0028EBD0032070BD0000A46300203E
:1082F000502F002061DD020010B5044600F006F8A2
:1083000008B1204610BD142010BD0000142801D370
:10831000002070470146014802F09DBAC463002066
:108320007CB5054608880C460930904201D90C20DE
:108330007CBD68466DDF0028FAD12188082068548A
:1083400020881B21401C80B2208029542088401C9A
:1083500080B220802844DDF801100160BDF80510CE
:1083600081802088801D80B220809DF800104908FF
:1083700000D0012129542088401C208000207CBD91
:10838000F8B5264C054601880026E08A212933D01D
:108390000ADC102912D0112921D013292BD1002356
:1083A0001A4685217FDF14E03B2933D052292CD097
:1083B000562920D1A888132176DF0AE0072000F093
:1083C00079FB08B1FFF776FBA988E182144802F037
:1083D0009DFB00280FD0BDE8F840FFF76BBB4FF6C0
:1083E000FF70E082A079002805D00D480C3090F88D
:1083F000540074DFA671F8BD0096A88869468FDF27
:108400000028F8D0FFF756FBF8BD00231A4619469E
:10841000B1DFDEE7A888132176DFDAE7E02A002063
:108420003832002010B51A4C0188606810290ED02F
:1084300011292BD1401E606028D1FFF788FA00284F
:1084400024D02168002921D0BDE810400847D0B9C8
:1084500000210122084600F00BFB08B107280FD1CC
:1084600007220221012000F003FB08B1072807D1F1
:1084700004220221002000F0FBFA20B1072802D0DC
:10848000216801B188476068401C606010BD000031
:10849000482F00202DE9F04701883B4E40F2F319A8
:1084A0004FF6FF7510291BD011293ED0122954D048
:1084B000502946D1C188F289841D914241D16189F8
:1084C00002293ED18688304601F0E8FD050038D00B
:1084D00004F10C0000F08AF9A8B3294630464EE0BA
:1084E000C17B8788044601292BD1A846284601F084
:1084F000D5FD050017D02F80002028722348434661
:108500004A460168C5F80A104068C5F80E0004F133
:10851000100105F10A0001F041FE6872F08900289F
:108520000FD129462AE0042013E0808801F0B6FD2F
:10853000040006D06068FFF721FB08B104F0DCFFFF
:108540002580BDE8F087FFE76868FFF717FB002884
:10855000F7D0BDE8F04704F0CFBF8788064638461D
:1085600001F09CFD0400ECD02B464A4606F10801C0
:1085700004F10A0001F012FE607221463846BDE89F
:10858000F04700F007BE0000A4630020502F002039
:108590002DE9F04F044686880188424897B083460B
:1085A00010290CD0112950D0103019296AD01A295D
:1085B00074D1217A0C09042C4DD301224CE0394DA1
:1085C000083DA868C0430B9069680BA802F067F9E2
:1085D0000B990CA800F078FD2C220CA96846FDF739
:1085E00045FF0027E946A84610E000BF09EB470019
:1085F0005FF00005B0F804A008EB85005146001DAF
:1086000002F01EF96D1C1E2DF6D37F1C0098B84297
:10861000ECD8142E05D317B00420BDE8F04FFFF7B7
:1086200049BA3146584602F021F9314608F10400B2
:1086300002F01CF9E07B012830D017B03146BDE8CC
:10864000F04F1848001D02F011B917B03146BDE8CF
:10865000F04F02F0F5B80022314601F0E7FA032CA2
:1086600001D3012200E000220E4831460C3001F017
:10867000DDFA022C01D3012200E000220948314634
:10868000083006E0217A002908D1617AC1F3C002DE
:10869000314617B0BDE8F04F01F0C8BA17B0BDE8D9
:1086A000F08F0000C863002070B5334D04008EB019
:1086B0002DCD08AE86E82D005BD0E9B30868A06137
:1086C000214608A862DF002851D1207801258DF8C5
:1086D0003200ADF83050A21C0CA92846A8DF0028B3
:1086E00045D120216846FDF7E8FE0220ADF80000E4
:1086F00020788DF802008DF80C509DF80D00F426BE
:10870000ADF8046040F00C008DF81150ADF8065043
:108710008DF80D008DF81250608804F10C02694646
:1087200000F0DCFB002822D120216846FDF7C5FEC1
:108730000320ADF8000000E01BE020788DF8020077
:108740008DF80C509DF80D008DF81150ADF80460B7
:1087500040F010008DF81250ADF806508DF80D0065
:108760008DF813506088221D694600F0B7FB0EB0EB
:1087700070BD0E20FBE700003804030070B588B020
:108780000446002924D0002C22D008462188102934
:1087900020D0502924D057291AD10546A1884069F4
:1087A00006AAFFF777FA002812D1069E3078002833
:1087B0000ED018216846FDF780FE01208DF80000DC
:1087C0000195A088ADF808000396A9696846884716
:1087D00008B070BD08B02146BDE8704004F0A6B8EE
:1087E00008B02146BDE8704004F080B9007800F080
:1087F000010070470149085C70470000F003030066
:108800000649095C4FF0A040D0F81005C84010F0B0
:10881000010000D0012080F001007047F003030048
:108820002DE9FC410646C0074FF000050ED0104F61
:1088300000240122385D009500231146019502F0C5
:108840008BFD641C042CF4D300F046F8B0070DD562
:10885000074E0024361D0022305D0323009511468B
:10886000019502F079FD641C042CF4D3BDE8FC8171
:10887000EC03030007490B5C4FF0A041D1F804253D
:108880000120984020EA0203C1F808351040C1F8E1
:108890000C057047EC0303000249085C012102F05B
:1088A000DABD0000EC0303000249085C002102F07D
:1088B000D2BD0000EC0303000649095C4FF0A04064
:1088C000D0F80405C84010F0010000D0012080F06D
:1088D00001007047EC03030010B500242046FFF7A9
:1088E000DBFF641C042CF9D310BD10B50024204616
:1088F000FFF7DAFF641C042CF9D310BD10B5024653
:10890000064B4FF0FF3000215C5C944201D10846D9
:1089100010BD491C0429F7D310BD0000F00303006B
:1089200070B50C4E0C004FF0000530600BD00120EC
:1089300000F06AF808B1022004E0002000F064F8BA
:1089400000B10B202070706810B9FFF700F80546E1
:10895000284670BD482F002010B5002000F0DAF93D
:1089600008B1062806D1012000F0D4F908B1062884
:1089700000D1002010BD00002DE9F0470D468146D2
:10898000FFF7BCFF0446042836D2DFF874801B488A
:108990001C4EA8F10C0725B3012D0ED0022D2BD1B2
:1089A00004EB440030444578002D25D0B9680029F7
:1089B00022D02846BDE8F047084704EB4401755C27
:1089C0000E44717849B10E4A4FF48041093A8068EB
:1089D000FFF7BCF808B987F80390B17808F80410DD
:1089E000E2E78068FFF7CAF804EB4401314418F865
:1089F00004008D78A842D7D0BDE8F087F4030300C7
:108A0000442F002040630020042801D2FFF7F8BE65
:108A1000002070470146144810B5C08A042910D0C0
:108A2000072917D00A291ED1002000F043F808B109
:108A3000FFF740F8FFF790FF08B1FFF73BF833DF8F
:108A400002E0132176DF0CE000280CD0BDE81040D6
:108A5000FFF730B8A0F57F41FF3904D10348FFF795
:108A6000E2FA0828F0D110BDE02A002044320020AC
:108A700070B50023042810D20D4D00EB4004012AEC
:108A800002D101290CD00022094E00EB40003044F5
:108A900061B1012906D0022906D00723184670BD0E
:108AA0000E30C2B22A55F9E74270F7E78270F5E757
:108AB000406300200020704770B506461E48002421
:108AC000C0E90161B00720D50025012211462846E2
:108AD000FFF7CEFF6D1C0446042D02D2002CF4D00B
:108AE00013E094B940F2333204211448FEF760FFDA
:108AF00004000AD1FEF74AFF040006D10F48104ACD
:108B00000021001FFEF7E8FF0446F00712D0012005
:108B1000FFF786FE74B909480A4A00210C38FEF7AF
:108B2000DBFF040006D10548074A01210838FEF79B
:108B3000D3FF0446204670BD382F002000040300F8
:108B4000618E02001DA20200857902002DE9F05F0E
:108B50006E4C054600266078B34618B184F801B023
:108B600001F044FB6A4F4FF47A694FF4C87A4FF032
:108B70000108182D69D2DFE805F00C1313384754AB
:108B8000696E727B727BC58484848484B3B6B9BCFD
:108B9000C5C501F02BFB3868FEF7F0FF06465CE028
:108BA0000020FFF789FE00284FF0000008D0FFF7F3
:108BB00073FE022D02D14FF4E16008E0484606E062
:108BC000FFF772FE022D01D1C82000E05046410C93
:108BD000C0034FF47A72801841F1000125705200F1
:108BE0000023FDF7FFFB01462AE00020FFF764FEAB
:108BF00000284FF0000004D0FFF74EFE4FF44870FD
:108C0000E5E7FFF751FEDFE70020FFF755FE0028FC
:108C10004FF0000002D0FFF73FFECFE7FFF744FE22
:108C2000D4E70020FFF748FE00284FF0000002D0F4
:108C3000FFF732FE01E0FFF737FE257040F6CD4129
:108C400000223868FEF782FF064646E00020FFF764
:108C500011FE257008E0002051E025703DE084F809
:108C600001800120FFF706FE002240F26661E8E77E
:108C700084F801800120FFF7FDFD00224FF4005130
:108C8000DFE77868FEF77AFF0646D5F1110000D0DD
:108C90002EB10220FFF700FE84F802B01DE001288B
:108CA00016D980B2C8214843C117C90341EA5041CF
:108CB000C0034FF47A72801841F100015200002382
:108CC000FDF790FB014600227868FEF73FFF06465D
:108CD0000220FFF7E9FD84F802803046BDE8F09FEE
:108CE00001F084FAB9E701F081FAB4E701F07EFA05
:108CF00004E001F07BFA0020FFF7D6FD0120FFF72A
:108D0000D3FDAAE7FFF7F1FDA7E70000382F002009
:108D1000F4030300012105F0ECB800002DE9F8434D
:108D20000546861C00208DF8000090460F464FF047
:108D300001096846FEF728FF1B4C20683860D4E91B
:108D40000001401AA16804F21C47081A0EE0012134
:108D5000384601F09EFD01F077FA0146384601F0F1
:108D600098FDD4E90001401AA168081A401C864207
:108D7000EDD8B8F1000F03D0052065F3891002E0AB
:108D8000062065F39F50A2682168114004EB810121
:108D9000C8602068304420609DF80000FEF718FF8E
:108DA0004846BDE8F88300007869002070B50D469C
:108DB00004460A2902D10D21FFF7F8FFA0682268B6
:108DC000411CA1601554D4E90101814204D320461D
:108DD000BDE8704001F073BF70BD0000034803C8D8
:108DE000814201D10120704700207047786900203E
:108DF0000149012048747047E02A002010B54FF067
:108E0000A040D0F81015C90E11F0010F0ED110219D
:108E1000C0F80C150649002048730870FEF734FAB4
:108E200004484068BDE81040FEF7A8BE10BD000031
:108E3000E02A0020E4E10200034630B507480021A3
:108E40000478426806E000BF02EBC10005789D424D
:108E500003D0491CA142F7DB002030BD682F002061
:108E600000780221FFF788BD05494FF0FF3208283E
:108E700041F8202002D3084480F8482070470000C1
:108E800050640020F0B54FF0FF3512B100230826E2
:108E900001E008230C260C4C05E000BF54F82370B9
:108EA0007F1C04D05B1CB342F8D32846F0BD2618C3
:108EB0005DB286F8305044F82310002AF5D1E1184D
:108EC00081F84800F1E7000050640020024908449E
:108ED00090F9300070470000506400202DE9F04305
:108EE0008146887891B090460C4600B901208DF8F3
:108EF0003E002088ADF83C0000250095607C694666
:108F000004F06EFB6E46A07C711C04F069FBE07BF4
:108F100000289DF8020002D040F0080001E020F097
:108F200008008DF80200217C11B140F0100001E032
:108F300020F010008DF80200217B11B140F00100FB
:108F400001E020F001008DF80200217D09B102212D
:108F500000E0012161F342008DF802001C2102A80B
:108F6000FDF7ABFA607BC10601D4800617D50E95DC
:108F70000EAFE07C791C04F033FB9DF838000797B6
:108F800020F00F00401C20F0F00010308DF8380069
:108F90009DF83A0020F00600801C8DF83A00607BB6
:108FA0008DF80800A07B8DF80900142109A8FDF7B1
:108FB00084FA0FA8CDE90906A088ADF83000A068B2
:108FC00020B1E088ADF82C00A0680D90A06998B39E
:108FD00001950088ADF81000A06901AD01A9408895
:108FE000ADF81200A069406806950390A069007B67
:108FF00004F0F6FAA069691C407B04F0F1FAA0695C
:10900000807A00289DF8060002D040F0080001E0B8
:1090100020F008008DF80600A169C97A11B140F06E
:10902000100001E020F010008DF80600A169097A17
:1090300019B140F0010002E00DE020F001008DF8D0
:109040000600A169897B09B1022100E0012161F3D9
:1090500042008DF80600E06900B10590434609AA78
:1090600002A94846AADF11B0BDE8F08370B5084CEC
:10907000050009D010342168002907D00868206055
:10908000496828468847F6E70834F4E770BD0000D1
:109090003C640020054A012120B1012805D19170CE
:1090A000FFF7E4BF51700020FAE770473C640020EE
:1090B00010B5D0E90234D1E90220D11AA04101D380
:1090C000012010BD002010BD73B58CB006460020F5
:1090D00000900D9880B100246D4621460DA801F046
:1090E000BAFB30B1009805EB400084800098401C2A
:1090F0000090641C142CF0D32C2269463046FDF7F6
:10910000B5F90EB070BD2DE9F04117880646B81DBF
:1091100014460D46984202D90C20BDE8F0813188F2
:10912000072206290AD34FF4486C4FF6FF736145B6
:1091300001D9994202D17088062801D21046ECE785
:10914000604501D99842F9D1994203D0984201D0A3
:109150008142F3D80520E85520881221401C80B2B6
:10916000208029542088401C80B2208041193088FA
:1091700004F038FC2188084480B2208041197088AE
:1091800004F030FC2188084420800020C5E7FEF769
:1091900091BC000038B54A7A0F4B62B100220A72C6
:1091A0005969002906D001228DF80020ADF802008F
:1091B0006846884738BD0A7A62B19B684C680246A7
:1091C00019462046FEF7C2FC0028F3D0BDE838401F
:1091D00004F092B95B68F1E7A463002070B588B031
:1091E0000646002005900690ADF81410ADF8161054
:1091F0000190029001AA05A9304690DF050021D018
:1092000002F056FF0346114811493246401AC10880
:10921000012000EB014004460E4902F0FCFABDF8C3
:10922000042012B9BDF8060028B1BDF8063020466A
:1092300009A102F0F0FABDF808201AB1204616493B
:1092400002F0E2FA08B0284670BD0000F40F0300F7
:10925000F40F0300E407030054686520726571751C
:1092600065737465642054582F5258207061636B85
:109270006574206C656E67746820697320746F6F05
:10928000206C6F6E672062792025752F2575206F01
:1092900063746574732E0000300803002DE9FF41EC
:1092A0000C4620B14FF4064004B0BDE8F0812079AF
:1092B000002748F2096538B141F61D5601281BD038
:1092C000022826D0681DEFE702202071029703973D
:1092D000E0680190694601A803F022FF50B10298AE
:1092E0008188E18000882081BDF80010029803F099
:1092F00095FFD9E72846D7E70A4B6A460021A01D0B
:1093000003F0C6FE38B1074918398F61CF61A84212
:10931000CAD13046C8E703488188019803F07EFF30
:10932000F5E70000D02F002070B500240F4D10E0AD
:10933000686800EBC406307802F0C2FF717801293A
:1093400001D0012100E000214140307800F022FAF4
:10935000641C28788442EBDBD5E90401084303D080
:10936000BDE8704004F032BB70BD0000682F0020E3
:1093700010B50021024801F0A7FA80F3100010BDDB
:10938000946D00204FF480328A400168C1F8482370
:109390000068C0F8082370474FF4A07202EB810107
:1093A00089B200F067BA2DE9F04105460E464FF448
:1093B000A07000EB860081B228684FF48034B4407E
:1093C000984622F07F47C0F808432868C0F8484311
:1093D000286802F0B7FB286800EB8600C0F84075EB
:1093E0002868C0F84443B8F1000F02D02868C0F8DC
:1093F0000443BDE8F0810068D0F804057047000020
:1094000070B54379224C44F823204279241D04EBA3
:10941000C202204B1579204A9A1AD3082DB108248C
:10942000022000EB03401DA12EE002680D88C2F867
:10943000085590F904208978002A4FEA411106DA8C
:1094400002F00F0202F1E02282F8141D03E002F1A3
:10945000E02282F8001490F90410012201F01F05A7
:1094600002FA05F54909890001F1E021C1F800512E
:10947000417904EBC1010A71417944F831000320BC
:10948000002400EB03400EA102F0BAF9204670BDA3
:10949000A42F00204C100300F40F0300525443206B
:1094A000696E7374616E636520616C726561647965
:1094B00020696E697469616C697A65642E000000C8
:1094C0005254433A20696E697469616C697A6564C3
:1094D0002E00000090F90400012100F01F029140CD
:1094E0004009800000F1E020C0F8001270470A46F1
:1094F000022100F045B94FF4827100F0BBB9006859
:1095000001210160704700680121416070472DE929
:10951000F05F07460C464FF4A07000EB84001FFA82
:1095200080FA38684FF48036A6409B4622F07F458B
:10953000C0F848633868C0F808633868D0F8048514
:1095400000EB8402D2F84095C2F840855146386855
:1095500002F0F8FAA9EB080020F07F40012806D1BC
:10956000102002F0EBFD5146386802F0EBFA386843
:10957000D0F80485C0F84463A5EB080121F07F41D1
:109580003868012900EB840010D0C0F840553868D5
:10959000D0F804156FF07F4C6A1A521E22F07F42F9
:1095A000ACEB0B03934217D362B118E06D1CC0F80B
:1095B0004055102002F0C2FD3868D0F8040540453F
:1095C0000AD10CE000EB84006D1CC0F840553868EF
:1095D000D0F80405884202D00D20BDE8F09F01229A
:1095E0003146384600F0CCF80020F6E70449042064
:1095F00088744FF0A0411020C1F80C05FDF744BE5F
:10960000E02A002010B54FF0A040D0F81005C00EA1
:1096100010F0010F0FD108488068FEF7AFFA074835
:10962000416A11B1012904D101E0012100E00221C8
:1096300041620021817010BDE4E10200E02A0020B7
:1096400001490120C8707047E02A00202DE9F84345
:10965000104D0F4680461E4691466946286801F027
:10966000C3F8040014D01C21FCF727FF012020714F
:10967000C4F81490380BC4F80080C4E9026069464D
:10968000286801F0D2F803F0E9FC0020BDE8F88377
:109690000420FBE77006030010B503780022072BB7
:1096A00006D2DFE803F005040610202930000A7016
:1096B00010BD01230B7003898B818388CB81C06827
:1096C00088600A7410BD02220A7002898A81828829
:1096D000CA81C2688A60807D062802D00020087492
:1096E00010BD0120FBE703220A70C2888A8102892B
:1096F000CA81C068886010BD04230B70C08888814F
:10970000CA818A6010BD0520087010BD70B5064D75
:109710000646002455F8241009B130468847641CD9
:109720000A2CF7D370BD0000CC65002030B504468C
:10973000006887B00D46806800281FD01821684651
:10974000FCF7BBFE0195A0680590207910B10128B7
:1097500010D107E001208DF8000020690290E06838
:10976000039005E002208DF80000E06800030290FD
:1097700060690490206881686846884707B030BDFA
:109780000368C3F84413002A02D00068C0F8041329
:10979000704700002DE9F84F0E463449804601EB32
:1097A0005001C007097801D00F0901E001F00F074F
:1097B0004FF00009424601204946FCF744FEDFF81D
:1097C000B0A004460D46052F4ED2DFE807F0031681
:1097D0001B282C00002E47D00121404604F014F82D
:1097E0008DF800906846FEF7CFF95046D0E9041294
:1097F0000C431543CAE9044532E00EB1022114E0DE
:10980000002112E04EB10321404603F0FDFF404627
:10981000BDE8F84F012104F0F5BA012105E0002E62
:1098200022D1042101E02EB103214046BDE8F84FCA
:1098300003F0EABF0021404603F0E6FF0021404666
:1098400004F0E0FA8DF800906846FEF79DF9504666
:10985000E243D0E904341A4024EA0501CAE90421AC
:109860009DF80000FEF7B4F9BDE8F88F20650020F0
:10987000682F002010B5006842581AB102F062F952
:10988000012010BD002010BD70B503780025624C8A
:1098900096B0012693B12246012BD17A927B73D0E8
:1098A000022B72D0052B07D14068002804D1607AC2
:1098B000002801D06572A67216B070BD40680028FD
:1098C000FAD10195029506950795012105950B950D
:1098D0000BAB05AA08460C9500F056F9F0B30F95AE
:1098E000129513951495E5634B48ADF83C603C30F8
:1098F000CDE91006ADF83E600FA912A800F07AF984
:1099000008B1FEF7D7F80021E06B04F0DBF8E06463
:10991000FDF7ECFF039504950895099505210A9537
:109920000D950DAB08AA08460E9500F02DF968B309
:109930000F9512951395149505202564ADF83C00FC
:10994000ADF83E0034480FA94030CDE9100612A80A
:1099500000F050F908B1FEF7ADF800E001E0267222
:10996000AAE701A905A800F017F908B1FEF7A2F8C7
:109970000298606405A800F0E3F808B1FEF79AF8D1
:10998000606C0068E063BEE731E013E0FFE703A925
:1099900008A800F001F908B1FEF78CF80498A0645B
:1099A00008A800F0CDF808B1FEF784F8A06C0068B4
:1099B0002064D2E740680028D2D109B1E57226734D
:1099C00012B1A57303F080FCE07B10B1E57326743F
:1099D00002E0207C0028C3D02574667200F01EF8D7
:1099E0000028BDD016B0BDE87040FEF763B84068EF
:1099F0000028B5D109B1E572267312B1A57303F041
:109A000063FCE07B10B1E573267402E0207C002843
:109A1000A6D0257466724FE7E02A00200D4808B5ED
:109A2000007888B1684603F049FA80B106210170D8
:109A3000684603F051FA0848017809B101214174E0
:109A400003F0FEFA002008BD48F2016008BD48F2AC
:109A5000076008BDD82F0020B4670020F0B587B09C
:109A600014216846FCF729FD304C207818B168466F
:109A7000FFF74CFE58E0201D00F008FFA0BB40F6A9
:109A8000F8700168481C02D14FF0102041694FF076
:109A90008050026940694B1C01D100FB02F124484F
:109AA00000220161A1F58031C160224901F09CFAD8
:109AB000002824D121481C234FF49A721E490068C3
:109AC00000F07FFE03F0CAF8050016D0022D14D076
:109AD00000270126062D14D005A803F0EFF998B150
:109AE00006700C2D1BD200E01EE0DFE805F0181018
:109AF0001810181718171812141248F20A6007B035
:109B0000F0BD26706760B2E748F20760F7E70771BB
:109B100005E0032100E00221017100E0067105A8C3
:109B200003F0DAF903F08CFA0020E8E7D82F0020E0
:109B30005C30002080060300F4650020F805030077
:109B400038B5040014D0694603F0EAFAB0B1BDF8A4
:109B5000000000EB80010B4800EB8100C16851B1AF
:109B6000A17A41B1C168491EC1600020A07238BD10
:109B700048F2046038BD48F2056038BD48F209601B
:109B800038BD0000286700201FB501A9684603F012
:109B90007FFA04B010BD0000F8B50D46040018D0DF
:109BA000BDB1694603F0BCFAB0B1BDF800000C4984
:109BB00000EB800001EB800001210C30666800F0B2
:109BC00068FE2E6060680C3068600120A072002082
:109BD000F8BD48F20460F8BD48F20960F8BD000025
:109BE0002867002018B10323002204F0C9B948F205
:109BF000046070470223002204F0C2B9094910B57D
:109C00000A690A2A0AD0084A096942F82100054867
:109C10000121103000F03DFE002010BD48F20B6025
:109C200010BD0000B82F0020CC6500200AB100F064
:109C30001DBE00F005BE70B50D460446B0F8141404
:109C4000D0F810040122FEF70AF900B1057004F102
:109C50003C0204F5826104F1540072DF70BD40687B
:109C600003F04CB906484A88C38A9A4207D10A8849
:109C7000A2F52063773B02D18988C91E0183704712
:109C8000E02A002010B50949094800F086FE08B115
:109C9000FDF710FFF721064800F073FE002803D0FF
:109CA000BDE81040FDF706BF10BD0000659C020036
:109CB0002432002070B510B14FF4064070BD1A4C2C
:109CC0000025607C08B1657401E000F0A1F82078FF
:109CD000082826D2DFE800F02504080C10251420FF
:109CE000BDE8704000F022B8BDE8704000F07EB8DA
:109CF000BDE8704000F060B8BDE8704000F03CB8CE
:109D00006088094900EB80008C3901EB80004068D5
:109D1000BDE8704002F082BF6560BDE8704002F0AF
:109D20008BBF48F20E6070BDB46700201149F0B4DB
:109D30008A1C00200346A1F18C050C18A67A4EB1AE
:109D4000A37200EB800405EB8404E66816B9247C5A
:109D5000012C0AD0401C80B20728EED30B704B8038
:109D60004B60F0BC41F61D5070471080F0BC00F015
:109D70003DB80000B46700200C48418801EB810227
:109D8000A0F18C0101EB8201CA6852B1052101707A
:109D9000074802218180016800230222054801F062
:109DA00087B8042202704968F6E70000B467002013
:109DB000E02F00205C30002038B50A490848032411
:109DC0000B684268898803EB810153880470DB1CAF
:109DD00000201B0400909B0B034801F0BDF938BD27
:109DE000B4670020E02F00205C300020074910B548
:109DF0004888091D03F0E4F918B1BDE81040FFF7E9
:109E0000DBBFBDE81040FFF7B7BF0000B46700201C
:109E1000F0B51F481F490125067802248B88A0F160
:109E20008C02082E19D2DFE806F00418181B222F26
:109E30002F170189491C01810021418080F81110F0
:109E400001EB810312F8233043B100234418491C6D
:109E500089B2A3720729F3D30570F0BD0123F5E79A
:109E600042685288D21C1A448A800470F0BD468829
:109E70000D6806EB860602EB860256680E6055609A
:109E800013818C80062100E007210170F0BD0000E5
:109E9000B4670020E02F002010B50B48FFF7ABFAA5
:109EA000094A083AD2E90434C018D2E9063244F12A
:109EB0000001C31A71EB020204D24FF080728018C5
:109EC00041F1000110BD0000882F002010B5C0B284
:109ED000FEF7B2FF0446007802F0F2F9014660781E
:109EE000012801D0012000E0002090EA010F08D0F5
:109EF0000449D1E90401084303D1BDE8104003F04F
:109F000065BD10BD682F0020428800EB82020C3234
:109F10008A4201D9022070478188A1F57F42FF3A29
:109F200006D0018821B18068401C01D00020704714
:109F300001207047884204D20068401C01D00120F3
:109F4000704700207047000038B5144BC8215A6B89
:109F500040B101280AD002281ED1BDE83840104681
:109F6000FCF76BBC0020C823009113E01C6C052398
:109F7000B4FBF3F0B4FBF3F503FB15435B4203EBD7
:109F8000830301EBC30100EB8000C0062823000E11
:109F9000C9B20093FCF72AFB38BD0000E02A00207C
:109FA00010B50A4941600A4800F070FC58B901F048
:109FB000DBFF07491C238C22087404488C39001FDE
:109FC000006800F0FEFB002010BD000074060300D6
:109FD000646800202DE9F0412D4F002520B17D60FF
:109FE0004FF40640BDE8F0810879012258B1294EAE
:109FF00001280CD0264C4FF002080834022820D04B
:10A00000032841D127E00A7102F016FE3AE0002051
:10A0100000EB800116F82110022908D0401C80B204
:10A020000728F5D33A707D6041F61D50DAE700EB62
:10A03000800006F8205006EB8000406802F0EEFD3C
:10A0400020E00D71A4F80480002302221248216848
:10A0500000F02EFF16E00D71206802F0DFFD0D49C3
:10A0600023688C31498801EB810206EB8201D1F82B
:10A0700004C0C4F800C04B60A3880B81A4F804801E
:10A0800006F822500028ADD07D6048F20D60A9E7A7
:10A09000D82F0020286700205C30002001460348AC
:10A0A00002888A4200D000207047000090630020A0
:10A0B0002DE9FC5F0E008346DDE90C47C6F1000088
:10A0C00098469246814600D40846012503E000BF29
:10A0D00090FBFAF06D1C5045FADAA84500D94546C8
:10A0E00024B1002E01DB780700D5641EB80702D525
:10A0F000B8F1000F0AD0F80708D13CB1A54205D24B
:10A1000020215846641EFEF751FEF6E7002E02DAC3
:10A110004E462D2102E0780703D52B215846FEF745
:10A1200045FE07F0030002280BD1B8F1000F08D15B
:10A130003CB1A54205D230215846641EFEF736FEDA
:10A14000F6E7CDE90047434652463146584603F00C
:10A150005FFCBDE8FC9F024600201268530713D540
:10A1600002F00300012802D002280CD105E0C2F35E
:10A1700083100B68801C184404E00223086803EB7A
:10A180009252104408600120704700000248007A93
:10A19000002800D00120704764680020F0B5848852
:10A1A000A518944200D82246A41AC288D6189A420A
:10A1B00000D81346D21A4B880788BB420CD340887C
:10A1C000834209D88888A04206D3A84204D8C88808
:10A1D000904201D3B04201D90020F0BD0120F0BD72
:10A1E000800701D000207047012070470A4810B551
:10A1F000807860B1002401E0022C06D02046FEF7F2
:10A200004BFB641C042CF7D310BD0324F6E7BDE818
:10A210001040FEF761BB0000382F00200348017991
:10A22000C90702D00078FEF791BC7047382F002094
:10A23000F721018017214180002101714171FB212B
:10A2400081711B21C17170472DE9FF410026234810
:10A2500000F019FB2148001F074600F014FB204CBA
:10A2600060680090A56800E000986946284004EB0B
:10A2700080000C30FFF76FFF0028F5D101AA00998C
:10A2800001EA050304EB8303491CDB6842F8203034
:10A29000401C00910228F2D3019800F0030001282D
:10A2A0000BD0022810D10198032101EB90500099A6
:10A2B000BDF80A6001EB900005E00198BDF80A6066
:10A2C000C0F3831008440090384600F0D9FA08B172
:10A2D0000098606004B03046BDE8F081906D0020C9
:10A2E00078690020ACB0FDF703FC08B1FDF7E2FB94
:10A2F0005F490320FEF7E0FB08B1FDF7DBFB694691
:10A300000020FEF70DFB08B1FDF7D4FB01F0E2FBE6
:10A3100008B1FDF7CFFB01F0DBFD08B1FDF7CAFB8B
:10A32000002469460120009401F048FC08B1FDF7C3
:10A33000C1FB684601F0DAFC08B1FDF7BBFB9DF8F4
:10A3400008004CA120F00F00401C20F0F00010305D
:10A350008DF80800162202A87CDF08B1FDF7AAFBE1
:10A360000094F020ADF800004FF416700194ADF8A1
:10A370000200ADF804404FF4C870ADF8060068461E
:10A380007ADF08B1FDF796FBFFF77CFC3F480190B0
:10A3900001A93F4800F0C5FB08B1FDF78BFB3D4824
:10A3A000009069463C48FEF77FF908B1FDF782FB53
:10A3B000AC216846FCF781F802208DF800008DF88A
:10A3C000024005208DF803000120ADF84C00324911
:10A3D0008DF87C004FF448703A392290149144F281
:10A3E000506023902D482990294869460C30FDF78C
:10A3F00069FD08B1FDF75EFB254801210C30FDF732
:10A400005EFD1C216846FCF758F84FF4A030CDE9FA
:10A4100000404FF4F020029003208DF80C002048FB
:10A42000059020480690ADF80E408DF81040684623
:10A43000FDF72EFF08B1FDF73DFB01203FDFFDF7E3
:10A44000E1FB042000F0BEFF052000F0BBFF164832
:10A45000FFF7D4FB08B1FDF72DFBFFF7FFFA08B1BA
:10A46000FDF728FBFCF7B8F803F090F9FCE70000D3
:10A47000158A02004D6F74696F6E2D506F7765728B
:10A4800065642045696E6B546167000041BB020042
:10A4900038320020B9C80200382B0020E5C802007D
:10A4A00011C902008F91020089980200F0B50B30AB
:10A4B000154D20F007010024144A0FE003688B4279
:10A4C0000BD38B4205D95E1A43184768C3E900676E
:10A4D00000E04368136002C004E0021D1068002819
:10A4E000ECD12046002802D1286808B10020F0BD38
:10A4F000064A07481060074A121A22F00702C0E90C
:10A50000002401202860D7E7583000205430002074
:10A510002C7000202890002070B5144682880E46CA
:10A5200005462088111D0144921C994201D8FE2A3B
:10A5300001D90C2070BD521C32542088FF21401CD0
:10A5400080B2208031542088401C80B22080811944
:10A55000288803F047FA2188084480B22080AA881E
:10A5600042B1A96841B13044FBF780FF2088A98837
:10A5700008442080002070BD072070BD2DE9F04701
:10A58000C5881E1DB6FBF5F78946B6FBF5F10446F6
:10A5900005FB176C407916686843DDF820A0F718B2
:10A5A000001F874200D9C61A166001E02468491EC0
:10A5B0000029FBD1A5EB0C078846B74216D818E056
:10A5C00004EB0C00001D09EB0803BAF1000F3A463A
:10A5D00002D00146184600E01946FBF747FF246801
:10A5E000F61B4FF0000CB844B54201D9374600E0E5
:10A5F0002F46002EE4D1BDE8F087000030B50246BA
:10A6000051B101F071F90021074C08E034F8213014
:10A610001568AB4202D11160002030BD491C814257
:10A62000F4D3052030BD0000000000002DE9F0410A
:10A63000354A344B0021D2E9015602F10C0E1AE0E2
:10A6400001EBC10700220EEB870710E0D3F800C032
:10A6500047F822C0D3F800C0BCF1040F02D0BCF10F
:10A66000060F01D10C461046521CD2B21B1D95425A
:10A67000ECDC491CC9B28E42E2DC04EBC4010EEBF7
:10A68000810101EB80025568012D34D0002304269E
:10A6900003245DB10627032D0AD04FF0020C4FF0C2
:10A6A000050E022D0CD0052D15D024E0566000E0DB
:10A6B000576051F82020042A18D0062A19D01AE031
:10A6C000956815B1032D03D015E0C2E9016CF0E7E0
:10A6D000C2E9016EEDE7956815B1032D03D00AE0DC
:10A6E000C2E9017CE5E7C2E9017EE2E741F82030FA
:10A6F00001E041F82040BDE8F04103480C30FCF790
:10A70000BBBF0000642B0020B0610020F8B50F46ED
:10A71000017814460546012901D1687830B12088B6
:10A72000821C9A4232D8012902D006E00720F8BDE7
:10A7300069780144891C994228D8181A801E86B26B
:10A74000ADF800602188B81C084469467DDF002808
:10A75000EDD12978022904D06878BDF80020904214
:10A7600005D3BDF80000B04201D809200AE0082056
:10A77000012905D16978B14202D8ADF8001001E095
:10A78000ADF80060BDF80010FE2901D90C20F8BD1D
:10A790002288491CB9542188491C89B221807854E7
:10A7A0002088401C2080BDF8001008442080002034
:10A7B000F8BD10B5FBF779FD08B1002010BD1120E0
:10A7C00010BD10B531B1B2FBF3F403FB14241CB17E
:10A7D000092010BD0E2010BD016000214160816084
:10A7E0008281C381084610BD70B50C460546FBF753
:10A7F00011FD002802D021882868084470BD10B5DA
:10A800000A8849888A4203D1FBF746FD012010BD22
:10A81000002010BD70B50C460546FBF720FD002852
:10A8200002D061882868084470BD10B50A8849883C
:10A830008A4203D1FBF70AFD012010BD002010BDA4
:10A8400001F01F0301229A40D243490900EB810025
:10A85000114600F024B84A0950F8220001F01F0206
:10A8600001219140084000D00120704701F01F03F2
:10A8700001229A40490900EB8100114600F029B8F5
:10A88000002100F017B8012100F023B8012100F0E9
:10A8900016B808B56A46FBF754FD009808BD08B520
:10A8A0006A46FBF734FD009808BD08B56A46FBF719
:10A8B00048FD08BD08B56A46FBF729FD08BD08B587
:10A8C0006A46FBF717FD08BD08B56A46FBF706FDAB
:10A8D00008BD08B56A46FBF70DFD009808BD08B530
:10A8E0006A46FBF73BFD009808BD38B504460025D5
:10A8F0008DF800506846FDF747F9216862680868DE
:10A9000090420ED9401E08600178238AE26801FB5C
:10A910000325227A2168101AC0B20A79824200D235
:10A9200008719DF80000FDF753F9284638BD38B589
:10A93000054600208DF800000C466846FDF724F916
:10A94000E868298A201AB0FBF1F12A681068431CD4
:10A95000136001709DF80000FDF73AF938BDC20898
:10A9600000F007030120895C98400840704710B54B
:10A97000C20800F00703885C01249C4020438854EF
:10A9800010BD28B1A1F11702E12A03D307207047B7
:10A990000E20704701800020704710B560B1016142
:10A9A000F72120F8021B20F8021BFB2100F8021BF4
:10A9B000FFF73EFC002010BD0E2010BDF0B58588CD
:10A9C00093B00C46002D39D1018800263F4F242931
:10A9D0003BD006DC102909D011290CD0232958D1ED
:10A9E0004FE03A290BD0552953D129E001462046A2
:10A9F00001F0D2FF4DE0A01DFFF71AFC49E022460E
:10AA0000408934F8061F814200D808466080172824
:10AA100000D217206080106970B1607960B1D7E909
:10AA20000001CDE90301ADF80E506088ADF81000CB
:10AA3000136903A9104698476671267113B0F0BDDB
:10AA40000146204601F0FCFF23E0011D2C2206A850
:10AA5000FBF70CFDBDF81800BDF81C2004EBC0018D
:10AA60004A732269AAB1D7E90423CDE90423ADF8DA
:10AA70001200487B8DF814002269204604A99047F3
:10AA800007E0017A207B884200D201462846FEF783
:10AA9000A5FBA07A0028D1D0E1882846A5DF0125B2
:10AAA00080B11128CAD001F003FB024608480949C9
:10AAB00013B0401AC00805EB0040BDE8F04006A105
:10AAC00000F0A2BEA672E572B8E700002004030001
:10AAD000F40F0300F40F030073645F626C655F673B
:10AAE000617474635F65786368616E67655F6D74D8
:10AAF000755F726571756573742829207265747548
:10AB0000726E65642025732E0000000020B102786B
:10AB1000DE2A03D0082070470E20704741800020B5
:10AB2000704760B159B10278DE2A0AD009684160E5
:10AB3000DE2101704FF6FF714180002070470E202A
:10AB40007047082070477FB5054600294DD0002D7D
:10AB50004BD008780C46DE2847D1A8886188884207
:10AB600002D1204603F03CF92888012825D002288C
:10AB70003BD011283AD0512837D135F8040F6188DD
:10AB8000884232D1A978A81C02292ED1017A042941
:10AB900003D0062901D0052927D1002100910222E6
:10ABA0008DF8002001914FF4C07202910391ADF82D
:10ABB0000420007A05280FD010E0297A20460129C8
:10ABC00013D1A988428891420FD10121017204B0AA
:10ABD000BDE8704003F004B9ADF804102888694658
:10ABE000B0DF002801D0616888477FBDA8886188F0
:10ABF0008842FAD14FF6FF7060807FBD00F180403F
:10AC00000068002800D00120704708B500F180409E
:10AC1000002101600068009008BD00002DE9F041AE
:10AC2000040007D0044E4FF47A47751C3846A847F5
:10AC3000641EFAD1BDE8F081A0F5020070B50B4C9E
:10AC4000207808B185250FE00020A06060602061B9
:10AC5000E060074801F04CFA054601F085F908B9B3
:10AC600001F030FA01202070284670BD3C640020BD
:10AC70009590020038B500258DF800506846FCF725
:10AC800083FF074CE068401EE060E06810B901F007
:10AC90003FFAA5709DF80000FCF79AFF38BD000050
:10ACA0003C6400200FB408B50399002904D004AA1D
:10ACB00000926A4600F00FF801B05DF814FB10B581
:10ACC00082680446002A05D0D4E904032168984725
:10ACD0000020A06010BD2DE9FC4791460C00804685
:10ACE00076D014F8011B39B125290ED04046FEF765
:10ACF0005DF820780028F4D198F80C00002867D07F
:10AD00004046BDE8FC47FFF7DABF0020012221786A
:10AD10002B291BD02D2902D0302908D102E040F088
:10AD2000010001E040F00200641C002AEFD1002580
:10AD30002A290ED02178A1F130020A2A11D205EB7E
:10AD4000850201EB4205641C303DF1E740F0040050
:10AD5000EAE7D9F800100B1DC9F800300968641C37
:10AD60000D44217800232E290BD114F8011FA1F1E5
:10AD700030020A2A05D203EB830201EB4203303B87
:10AD8000F3E76C290DD068290BD0692921D00BDCA1
:10AD9000252918D0582931D063290ED0642915D11E
:10ADA00017E014F8011FECE7702969D0732932D03D
:10ADB00075291BD0782909D120E0D9F80000011DA0
:10ADC000C9F8001001784046FDF7F0FF641C90E7D9
:10ADD0006CE0D9F800100A1DC9F800200968CDE917
:10ADE00000500A224046FFF763F9EFE7D9F8001058
:10ADF0000A1DC9F8002009680A2206E0D9F80010E7
:10AE00000A1DC9F8002009681022CDE9005040460B
:10AE100002F0FEFDDAE7D9F8001000270A1DC9F894
:10AE200000200E68C00705D112E04046761C7F1C4A
:10AE3000FDF7BCFF31780029F7D104E0202140461E
:10AE40006D1EFDF7B3FFBD42C0D9002DF6D1BDE7A1
:10AE50004EB13046FBF73CFB074604E0202140465C
:10AE60006D1EFDF7A3FFBD4206D9002DF6D103E00C
:10AE70004046761CFDF79AFF31780029F8D1A5E706
:10AE8000D9F80000011DC9F80010056830214046BE
:10AE9000FDF78CFF78214046FDF788FF0820002150
:10AEA000CDE90001034610222946B0E7BDE8FC8742
:10AEB0002DE9F843884605002C482D499946A0EB1A
:10AEC00001004FEAD0004FF00101164601EB0044AB
:10AED00024D0286800282CD0002E34D06968404641
:10AEE0004FF010070A68511E11EA080F11D10146F0
:10AEF00072432846FCF717FD00282ED028684B46E1
:10AF00003246046901B041462846A446BDE8F043F4
:10AF100060472046174B18A2009722E00E200090B1
:10AF20002046144B1EA220A100F07DFC0E20BDE89F
:10AF3000F8830820009020460E4B26A21AA100F0AC
:10AF400072FC0820F3E7092000902046094B24A258
:10AF500015A100F068FC0920E9E7064B214A2046CC
:10AF6000009711A100F05FFC1020E0E764100300DF
:10AF7000F40F03005B060300616464725F69735F32
:10AF8000706167655F616C69676E656428705F6694
:10AF9000732C20706167655F616464722900000032
:10AFA000705F667300000000257320636865636B43
:10AFB000206661696C656420696E202573282920EC
:10AFC000776974682076616C756520307825782EF5
:10AFD00000000000705F66732D3E705F6170690055
:10AFE0006C656E00740C030038B503001148124DF7
:10AFF0004FF00E04A0EB05004FEAD0004FF0010522
:10B0000005EB004009D061B119600C6801B0A4469D
:10B01000BDE83040114618466047084B08A200942E
:10B0200002E0064B08A2009409A100F0FCFB0E20F0
:10B0300038BD000064100300F40F03001006030085
:10B04000705F667300000000705F6170690000004F
:10B05000257320636865636B206661696C65642095
:10B06000696E202573282920776974682076616CC1
:10B07000756520307825782E0000000004480121F5
:10B080004174007A08B10020704701207047000029
:10B0900064680020012801D0032808D10449002257
:10B0A00001284A7400D00020087401F079BF70476D
:10B0B0006468002070B50246022801D0032A45D1F9
:10B0C000234C207A002841D0012833D0022831D1E6
:10B0D00020480023022A006802D0032A2AD11BE05C
:10B0E000E360017911B1012924D10DE0D0E90565B2
:10B0F000711B4FF48056B14200D33146294481611F
:10B100004569A9420ED015E00169491C01614269F7
:10B1100091420FD1237213E0E168491CE1600829D4
:10B1200008D9E3602372022A0AD00D21FEF7FEFA45
:10B1300001F0DAFE607C28B1BDE8704000F01ABF73
:10B140000021F3E7BDE8704001F02ABF70BD0000A8
:10B1500064680020E82F00202DE9F84F90468A46C9
:10B160003A493B4A0500A1EB02014FEAD1014FF0F9
:10B170000102DDF828901E464FF00E0002EB01445C
:10B180001AD0B8F1000F1CD02868002822D009205E
:10B19000002E29D069684968B6FBF1F201FB126103
:10B1A000002926D000902B4B20462BA235A100F081
:10B1B0003AFB0920BDE8F88F00902046254B3CA2C1
:10B1C00003E00090234B20463BA22EA100F02BFB76
:10B1D0000E20EFE70820009020461E4B38A229A140
:10B1E00000F021FB0820E5E700902046194B37A22C
:10B1F000DCE75046FCF791FB102798B14046FCF77E
:10B200008CFBA0B1324651462846FCF78CFB98B126
:10B21000CDF80090286833464246C4685146284617
:10B22000A047C7E720460B4B29A2009708E020461D
:10B23000084B2DA2009703E0064B204633A200974F
:10B2400010A100F0F0FA1020B4E700006410030031
:10B25000F40F03004806030021286C656E202520AA
:10B26000705F66732D3E705F666C6173685F696EB8
:10B27000666F2D3E70726F6772616D5F756E697477
:10B2800029000000257320636865636B206661698F
:10B290006C656420696E202573282920776974689D
:10B2A0002076616C756520307825782E00000000CE
:10B2B000705F667300000000705F737263000000CF
:10B2C000705F66732D3E705F617069006C656E0023
:10B2D000616464725F69735F616C69676E65643332
:10B2E0003228646573742900616464725F69735FF6
:10B2F000616C69676E65643332282875696E7433D2
:10B30000325F7429705F7372632900006164647234
:10B310005F69735F77697468696E5F626F756E6489
:10B320007328705F66732C20646573742C206C65C1
:10B330006E29000070B541EA4201DDE904564FF084
:10B34000A04441EA830141EA052104EB800041EA7F
:10B350000641C0F8001770BD70B541EA4201DDE951
:10B3600004564FF0A04441EA830141EA052104EB71
:10B37000800041EA0641C0F8001770BD70B541EA8F
:10B380004201DDE904564FF0A04441EA830141EA5D
:10B39000052104EB800041EA0641C0F8001770BDAA
:10B3A00070B541EA4201DDE904564FF0A04441EA9C
:10B3B000830141EA052104EB800041EA0641C0F81F
:10B3C000001770BD4FF0A04202EB80000321C0F8CF
:10B3D000001770471CB5002100910B460122019116
:10B3E0001146FFF7A7FF1CBD1CB5002100910B46BD
:10B3F000012201911146FFF7D3FF1CBD4FF0A0427F
:10B4000002EB8000D0F8002722F44032C0F8002779
:10B41000D0F8002742EA0141C0F8001770474FF00A
:10B42000A04201218140C2F80C1570474FF0A042A4
:10B4300001218140C2F80C1570474FF0A042012154
:10B440008140C2F8081570474FF0A04201218140A9
:10B45000C2F80815704701224FF0A043824011B195
:10B46000C3F808257047C3F80C25704718B5084B7A
:10B470006C4601441B68009306E000BF54F820307E
:10B48000D3F81035401C08C28142F7D818BD00001F
:10B4900048040300034908B508440021016000681E
:10B4A000009008BD0060004002494058012800D0CB
:10B4B00000207047006000407047704708B5034A9D
:10B4C00000924023024A00F005F808BD09D50200A9
:10B4D00078680020F0B595B01C4615460F46084622
:10B4E0001A9E00F0D3FA182109A8FAF7E6FF0E9683
:10B4F000CDE909540023082203A9384600F0D9FAFF
:10B5000005980690BDF81000ADF81C00BDF81200BB
:10B51000ADF81E0000208DF821000398082600F0E9
:10B520000300012802D0022818D032E003983346E5
:10B53000850AC0F3C2008DF8200003980FA9C0F35C
:10B540008314A200384600F0B4FA09A8009006ABB4
:10B5500022460FA9284600F0F5F91AE00398840D59
:10B56000C0F3C2008DF82000082C01D2254600E06F
:10B57000082533462A460FA9384600F09AFA2E4489
:10B58000641B09AB06AA29460FA800F055F9002C48
:10B59000EAD1384600F07EFA15B0F0BD0A4A01291A
:10B5A00002EBC00007D0022907D0032907D00429E5
:10B5B00007D00020704702207047042070470079B0
:10B5C0007047407970470000F40F03002DE9F04FF9
:10B5D0008DB0FDF703FC18B100200DB0BDE8F08F71
:10B5E0007E4C4FF0000BC4F818B4BFF34F8F606867
:10B5F0000290A568D846284004EB80000CE000BF0C
:10B60000D4F8180470B921680298814201D86160A9
:10B61000E2E7284004EB80000C3002A9FEF79BFD16
:10B620000028EDD1002005AA029901EA050304EBE8
:10B630008303491CDB6842F82030401C0291022839
:10B64000F2D3059800F00300022802D001284DD063
:10B65000AAE005985022810D8946B2EB905F00D890
:10B6600050210E4666F39F50059008315C4800F06B
:10B67000C4F9070078D000F009FA4346082205A96A
:10B68000384600F01EFA029908F1080A2940681AA3
:10B690008000001D864222D9504D0C3530B1C2B217
:10B6A00004EB8101301A90460C3104E02946F2B2D5
:10B6B000002590462846C6B25346384600F001FAA7
:10B6C0000AEB080325B132462946384600F0F9F95D
:10B6D000029909F1030001EB900002903BE004EBBA
:10B6E00081015346324638460C31EFE70598C0F3E6
:10B6F0008310062800D30620059960F38911C1F351
:10B700008310801C05918100354800F076F9070010
:10B710004AD000F0BBF94346082205A9384600F09C
:10B72000D0F908F1080800260FE00298434600EA25
:10B730000501401C04EB81010290042238460C31C3
:10B7400000F0BFF908F10408761C0598C0F38310D7
:10B75000B042EAD847B1D4F81054D4F8180478B1FC
:10B76000384600F097F934E01EE0E8684079012897
:10B7700004D12A682846394612689047E868056867
:10B78000002DF2D1384600F085F98DF800B06846FA
:10B79000FCF7FAF9D4F8180408B9029860609DF82B
:10B7A0000000FCF715FA14E0D4F8104405E0216815
:10B7B000204689688847E0680468002CF7D109486A
:10B7C0000949401AC008022101EB004007A100F01E
:10B7D00017F8FDF703FB80F00100FEE67869002012
:10B7E0008C1003006C100300F40F03004261636BC4
:10B7F000656E647320666C75736865640000000094
:10B8000000231A4602F018B808B5012300926A46D0
:10B8100002F012F808BD1CB5CDE9002302236A46E8
:10B8200002F00AF81CBD3EB5069C8DE81C000323FF
:10B830006A4602F001F83EBD2DE9F0470E4680460B
:10B840001C469246082940D894F80C90002020739A
:10B850001946104601F0DAFA0025B54206D218F86A
:10B8600005201BA12046FFF71DFA03E01AA1204680
:10B87000FFF718FA6D1C082DEFD318A12046FFF72B
:10B8800011FA0025B54212D218F805707E2F08D89B
:10B89000FAF7E8FD0068C05D10F03E0F01D03A46AF
:10B8A00000E02E220EA12046FFF7FCF903E00DA1D7
:10B8B0002046FFF7F7F96D1C082DE3D3012221463E
:10B8C000504601F085FA84F80C90BDE8F08700003E
:10B8D0002025303278000000202020007C0000006D
:10B8E000256300002000000002480349401AC008F8
:10B8F000704700008C100300F40F030013B5684676
:10B90000FEF77CFE08B100201CBD0248009950F8EB
:10B9100031001CBDF40F030070B509480125D0F8B3
:10B92000104480F8205407E0E06845712168204603
:10B9300049688847E0680468002CF5D170BD0000B4
:10B94000786900202DE9FF4781460C9D00200C46B8
:10B950002F7B2873984616462946184601F056FA5A
:10B96000072E42D2DFE806F004090F161F2A360020
:10B9700049462846FFF796F937E0494628462268A7
:10B98000FFF790F931E0D4E9002349462846FFF754
:10B9900089F92AE0A0680090D4E9002349462846A6
:10B9A000FFF780F921E0D4E90201CDE90001D4E9F3
:10B9B000002349462846FFF775F916E004F1080010
:10B9C00007C88DE80700D4E9002349462846FFF759
:10B9D00069F90AE004F108000FC88DE80F00D4E906
:10B9E000002349462846FFF75DF9002229464046D4
:10B9F00001F0EEF92F73BDE8FF872DE9F041058ACC
:10BA000080462D1F4819C01CB0FBF5F0C6B2404659
:10BA1000FEF76BFF041E19D0002020710120607119
:10BA2000E58000272546761EC4F800800BE04046DE
:10BA3000FEF75BFF60B16179491C617128600546C2
:10BA40007F1CC0F80080B742F1D32046BDE8F081EA
:10BA5000204600F002F80020F8E72DE9F041457992
:10BA600001466B1E002201E00968521C9A42FBD37A
:10BA70000F680146002605E038460C68FEF757FFC0
:10BA80002146761CAE42F7D3BDE8F0810121001DAE
:10BA9000FEF7FFBE10B504460121001DFEF71FFF93
:10BAA00010F0FF0F04D12046BDE81040FFF7D5BFCE
:10BAB00010BD1CB501920122009201AAFEF75EFDA5
:10BAC0001CBD1CB501920022009201AAFEF756FD92
:10BAD0001CBD0000064910B500204870091D086013
