:020000040002F8
:1060000090D20020C1630200C9630200CB6302008A
:10601000CD630200CF630200D163020000000000E4
:10602000000000000000000000000000D363020038
:10603000D563020000000000D7630200D9630200AC
:10604000096F0200DB630200757A02002976020004
:10605000DB630200DB630200716D0200517302001A
:10606000DB630200DB630200DB630200DB63020030
:10607000DB630200DB630200DB630200DB63020020
:10608000DB63020041730200DB630200DB6302009A
:10609000DB630200DB63020055770200DB63020072
:1060A000DB630200DB630200DB630200DB630200F0
:1060B000DB630200DB630200000000000000000060
:1060C000DB630200DB630200DB630200397602005F
:1060D000DB630200DB630200DB6302000000000000
:1060E00000000000000000000000000000000000B0
:1060F00000000000000000000000000000000000A0
:10610000000000000000000000000000000000008F
:10611000000000000000000000000000000000007F
:10612000000000000000000000000000000000006F
:10613000000000000000000000000000000000005F
:10614000000000000000000000000000000000004F
:10615000000000000000000000000000000000003F
:10616000000000000000000000000000000000002F
:10617000000000000000000000000000000000001F
:10618000000000000000000000000000000000000F
:1061900000000000000000000000000000000000FF
:1061A00000000000000000000000000000000000EF
:1061B00000000000000000000000000000000000DF
:1061C00000000000000000000000000000000000CF
:1061D00000000000000000000000000000000000BF
:1061E00000000000000000000000000000000000AF
:1061F000000000000000000000000000000000009F
:10620000DFF80CD000F07CF90048004749A50200F7
:1062100090D2002030B450E8012F93B2C4892344B7
:106220008489A34228BF1B1B0489A34202BFBFF37A
:106230002F8F002007E0C3EA020340E80134002C5E
:10624000E9D14FF001000A6030BC704750E8012FDF
:10625000C2EA024240E801210029F7D1704730B478
:1062600050E8022F1FFAA2F3C488A34202BFBFF373
:106270002F8F00200DE0C48923448489A34228BFC6
:106280001B1BC2EA034340E80234002CE8D14FF064
:1062900001000A6030BC704750E8022FC2EA224277
:1062A00040E802210029F7D17047034653E8022F46
:1062B000D988B2EB324F4FF0000017BF92B241EADB
:1062C000014142EA014104E05A68B2EB324F08BF93
:1062D000012043E80212002AE8D1704730B4044696
:1062E00054E8000F0D4644E80053002BF8D1156028
:1062F00030BC704730B4044654E8000F40EA010552
:1063000044E80053002BF7D1156030BC704730B41F
:10631000044654E8000F00EA010544E80053002B4E
:10632000F7D1156030BC704730B4044654E8000F14
:1063300080EA010544E80053002BF7D1156030BC1A
:10634000704730B4044654E8000F00EB010544E800
:106350000053002BF7D1156030BC704730B40446B1
:1063600054E8000FA0EB010544E80053002BF7D1DF
:10637000156030BC704770B404464FF0000054E81C
:10638000006F0D68AE4207BF44E80023012044E8D7
:1063900000630E60002B1CBF0020F0E770BC70474C
:1063A00030B4044654E8000F88422CBF451A054615
:1063B00044E80053002BF5D1156030BC7047000055
:1063C0000648804706480047FEE7FEE7FEE7FEE78F
:1063D000FEE7FEE7FEE7FEE7FEE7FEE7597702008D
:1063E000016202002DE9F05F0546002092469B46BF
:1063F00088460646814640241BE0284641464746DB
:10640000224600F06CF853465A46C01A914110D308
:1064100011461846224600F016F82D1A67EB0108BF
:106420004F4622460120002100F00DF817EB00092D
:106430004E41201EA4F10104DFDC484631462A46C5
:106440004346BDE8F09F202A04DB203A00FA02F11F
:10645000002070479140C2F1200320FA03F3194352
:106460009040704700487047500E030010B5431A23
:10647000934209D28318881803E010F8011D03F82D
:10648000011D521EF9D210BD40EA01039B0703D043
:1064900009E008C9121F08C0042AFAD203E011F863
:1064A000013B00F8013B521EF9D210BDD2B201E00F
:1064B00000F8012B491EFBD270470022F6E710B509
:1064C00013460A4604461946FFF7F0FF204610BD62
:1064D000421C10F8011B0029FBD1801A7047202AAA
:1064E00004DB203A21FA02F00021704721FA02F37E
:1064F000D040C2F120029140084319467047000085
:10650000064C074D06E0E06840F0010394E8070000
:1065100098471034AC42F6D3FFF776FE34160300EA
:106520005416030070B58C1810F8015B15F00703C2
:1065300001D110F8013B2A1106D110F8012B03E01C
:1065400010F8016B01F8016B5B1EF9D12B0705D424
:106550000023521E0DD401F8013BFAE710F8013B6D
:10656000CB1A921C03E013F8015B01F8015B521E89
:10657000F9D5A142D8D3002070BD00000EB50D4959
:106580000D4806F0BDFC08B101F09AFD0B4A07CAA0
:106590008DE807006946002006F03AFC08B101F0DA
:1065A0008FFD0121064806F0E1FB002801D001F033
:1065B00087FD0EBDA17E02006CE80200F8FB020020
:1065C000F62A002010B506F025FD002803D0BDE80E
:1065D000104001F075BD10BD034800224FF400517A
:1065E000006801F0B9BD000058E802002DE9F0474D
:1065F00017464FEAD00808EBD3000026089AA0F10E
:10660000010A0C46FF2901D9260ACCB28D186D1E4D
:106610004FF00009FF2D02D94FEA1529EDB24420B1
:1066200000F039F908F0FF0000F045F90AF0FF002A
:1066300000F041F9452000F02EF9E0B200F03BF9FE
:10664000F0B200F038F9E8B200F035F909F0FF00D7
:1066500000F031F94E2000F01EF908F0FF0000F0C4
:106660002AF94F2000F017F9E0B200F024F9F0B257
:1066700000F021F9242000F00EF90024FA21384618
:1066800000F02CF9641CFA37142CF7D3BDE8F0475E
:1066900000F096B810B5162005F097FB0A2004F01C
:1066A000B7FFBDE81040162005F0A5BB122000F092
:1066B000F2B810B5012000F0EEF8C72000F0FBF8AA
:1066C000002000F0F8F8002000F0F5F8112000F0AC
:1066D000E2F8012000F0EFF8442000F0DCF80020A0
:1066E00000F0E9F8182000F0E6F8452000F0D3F8B3
:1066F000C72000F0E0F8002000F0DDF8002000F0F6
:10670000DAF8002000F0D7F83C2000F0C4F80520AB
:1067100000F0D1F8182000F0BEF8802000F0CBF88F
:106720004E2000F0B8F8002000F0C5F84F2000F02F
:10673000B2F8C72000F0BFF8BDE81040002000F01C
:10674000BAB800002DE9F0411B4C6078002831D127
:10675000A178E069194E08434FF4A4774FF0010582
:106760000ED100F071FF4FF0A0411020C1F80805D4
:10677000A570FFF78FFF00223946B06801F0ECFCEE
:10678000E06901280AD1A078002813D1FFF78EFF15
:10679000A57000223946B06801F0DEFCE0690228ED
:1067A00008D1A078002805D1A570FFF782FF657099
:1067B0000020A070BDE8F081E02A002058E8020027
:1067C00010B5222000F067F8FF2000F074F8BDE853
:1067D0001040202000F05FB870B500F11904254684
:1067E000242000F058F80026FA21204600F076F820
:1067F000FA34761C132EF7D3E121204600F06EF810
:106800000024FF2000F057F8641C192CF9D326202F
:1068100000F041F80024FA21284600F05FF8641CDB
:10682000FA35132CF7D3E121284600F057F800245D
:10683000FF2000F040F8641C192CF9D370BD2DE93D
:10684000F04104460546242000F025F8002741F2D7
:106850008836207800F02FF8641C7F1CB742F8D3EC
:10686000262000F018F80024287800F024F8641C92
:106870006D1CB442F8D3BDE8F041AFF3008010B511
:10688000222000F008F8F72000F015F8BDE81040CD
:106890002020AFF3008010B50446172005F095FACC
:1068A000182005F092FA204600F00EFFBDE81040D7
:1068B000182005F0A0BA10B50446182005F09BFA80
:1068C000182005F082FA172005F095FA204600F00E
:1068D000FBFEBDE81040182005F08DBA70B50546E6
:1068E0000C46182005F087FA182005F06EFA1720DC
:1068F00005F081FA2146284600F00AFFBDE8704005
:10690000182005F078BA00001FB5104A0023D2E91C
:1069100002015269CDE900011E208DF803001C2000
:106920008DF8020002208DF801001F208DF8000074
:10693000C00703920290064A6946044806F0B6FB77
:10694000002801D001F0BCFB1FBD00007CFE02004E
:106950001DDE020010B5044806F062FC0349022067
:10696000C1F8000710BD00007CFE02007C00005052
:1069700070B5022506460024FA223146284600F06A
:10698000B9FDFA35641CE4B2FA36ADB2142CF3D377
:1069900070BD08B501226946104600F0ABFD9DF8B8
:1069A000000008BD08B501226946002000F0A2FDE4
:1069B0009DF8000008BD00002DE9F04F8BB00746A0
:1069C00000F088FA0920834609904B4800254FF0D3
:1069D000FF080468CDE900854646484B48A2294691
:1069E000052000F0DDFBCDE90065444B3A4600216F
:1069F000B52000F043FB00274FF01409002607EBF9
:106A0000870A00BF3C4806EB8601001F027802EBB4
:106A10008101C9B20391407800EB8A00C0B20690B0
:106A2000207848B9CDF80090CDE901851423394A82
:106A30000699039800F06EFB2078012809D1CDF863
:106A40000090CDE901851423334A0699039800F09C
:106A500061FB207802280AD1CDF80090CDE90185AC
:106A60002D4A142378320699039800F053FB2078BE
:106A700003280AD1CDF80090CDE90185254A1423D9
:106A8000783A0699039800F045FB207804280AD14B
:106A9000CDF80090CDE901851F4A14233C320699B8
:106AA000039800F037FB207805280AD1CDF8009034
:106AB000CDE90185174A1423B43A0699039800F0EA
:106AC00029FB207806280AD1CDF80090CDE9018570
:106AD000104A14233C3A0699039800F01BFB761CDD
:106AE000F6B2641C5E458DD37F1C0998FFB28742C5
:106AF00084D30BB0BDE8F08F4C2B0020642C002019
:106B0000536F6B6F62616E20636861707465722D84
:106B10000000000040FE0200D8FC02002DE9FC4706
:106B200000F0E8F948480025FF260468CDE9006533
:106B30004FF004094FF05008444B45A20A210520AC
:106B400000F02EFBCDE90065404B44A21E2105203C
:106B500000F026FBCDE900653C4B44A23221052024
:106B600000F01EFB5FF0000707EB870108EB8100D8
:106B700000F0FF0A207838B9CDE90065334B3DA21B
:106B80005146322000F00CFB2078012807D1CDE9D6
:106B900000652E4B39A25146322000F001FB2078CF
:106BA000022807D1CDE90056284B34A251463220A5
:106BB00000F0F6FA2078032807D1CDE90065234BD1
:106BC00030A25146322000F0EBFA2078042807D199
:106BD000CDE900561D4B2BA25146322000F0E0FAC1
:106BE0002078052807D1CDE90065184B27A251462A
:106BF000322000F0D5FA2078062807D1CDE90056DA
:106C0000124B22A25146322000F0CAFA20780728FF
:106C100007D1CDE900650D4B1EA25146322000F090
:106C2000BFFA2078082807D10095084B19A25146D1
:106C30003220019500F0B4FA7F1CFFB2641C4F456E
:106C400092D3BDE8FC8700004C2C0020642C00206F
:106C5000566970736E2D45696E6B000042617474E5
:106C60006572792D467265650000000047616D65AB
:106C7000426F79004E756C6C00000000536F6B6FB3
:106C800062616E004D617A65000000004D697272AC
:106C90006F72000049736C616E64000070B5144639
:106CA000042281B10F480F4B002100EB84000C3B04
:106CB000455C5D54491CC9B29142F9D32046FFF7A7
:106CC0002DFF012070BD012802D0022803D004E06E
:106CD00003F0FEFD01E003F0D7FD204600F084FF45
:106CE00070BD0000542C00202DE9F041904609238E
:106CF0001A46F9B108EB081404EB88101A4C00216D
:106D00001A4F0519002001EBC106AC1906EB070666
:106D100014F800C006F800C0401CC0B29042F7D37F
:106D2000491CC9B29942EDD34046FFF745FE012008
:106D3000BDE8F081012806D0022807D0032808D03A
:106D400004280ED008E004F0FFF804E003F0FEFD94
:106D500001E003F0E7FE0446404600F091FE2046C5
:106D6000E6E703F0E9FFF6E7542B00201C5E002065
:106D70002DE9F04700268AB0DFF85091B0464FF475
:106D80008075012437460696284605F06BF838B121
:106D9000D9F80403204203D0284605F059F82643C9
:106DA0002D1D64007F1CADB2082FEDD34FF4BE74CF
:106DB000204605F057F848B1204605F049F846F05E
:106DC000004606AA0121002005F02EF8404D16F0DD
:106DD000FF0F15D00127002437420DD009EB8401A5
:106DE000D1F81005D1F81015C0F3042055F824206F
:106DF000C1F3014102B190477F00641C082CEBD322
:106E0000002E5FDA4FF0FF30CDF8108054E02819E3
:106E100010F8507F90F9000027F0C008401C3BD0CC
:106E200007A9404604F094FA10B34FEA9719404678
:106E300002F046FB55F820701FB1B9F1030F03D0E3
:106E400006E0B9F1030F27D104A9404604F088FAFF
:106E50004FF0A04101EB8800D0F8000706A9C0F36D
:106E6000014A404604F074FA18B1BAF1020F03D097
:106E700012E0BAF1030F0FD1B9F1030F08D1BAF143
:106E8000020F1DD00221404604F08EFF761CF6B2A0
:106E900017B149464046B847641C042CB7D3002EAE
:106EA00010D06A460121002004F0BEFF0699009828
:106EB000884207D006900498002634460790A6E73B
:106EC0000321E0E70AB0BDE8F08700000060004061
:106ED000E886002000EB001101EB8010044901441A
:106EE00003480838016009210171417170470000B1
:106EF000542B00200348A0F10801086003204871CA
:106F000070470000542C002070B54FF48076304656
:106F100004F06EFB114CB50560B1304604F06FFB18
:106F20000120C5F80803607920B90120607121684B
:106F3000002088474FF48276304604F059FB002841
:106F40000AD0304604F05BFB0220C5F80803216834
:106F5000BDE870400120084770BD00008C2C002067
:106F600030B51A49CA8A022A08D0042A06D0072A4C
:106F700018D140EA00100022C3B222E00022C3B2BE
:106F80000DE0002006E000BF02FB04040D68401C79
:106F900080B22B554C8A8442F6D8521C92B2888A11
:106FA0009042EED830BD002006E000BF02FB040492
:106FB0000D68401C80B22B554C8A8442F6D8521C76
:106FC00092B2888A9042EED830BD0000F45B002077
:106FD0002DE9F04F814628481E46DDF828B0838809
:106FE00088464B4546D3C188414543D3B0884107C5
:106FF00000D0012101EBD000203A10FB02F0F18813
:107000004FF0800A484331680F1800252FE0002414
:1070100024E000BFBBF1FF0F397804F007022AFA21
:1070200002F001EA000101D009B908E081B108EBE2
:10703000050081B209EB040080B2099A06E008EB72
:10704000050081B209EB040080B25A4600F004F951
:10705000E043400700D17F1C641CA4B2B088A0426A
:10706000D8D83079400700D07F1C6D1CADB2F088B5
:10707000A842CCD8BDE8F08FF45B00202DE9FF4F8B
:10708000ADF5037D8A46DDE99087834600244FF401
:10709000807915462646494642A8FFF70EFA49462A
:1070A00002A8FFF70AFA194842AA83885B4529D348
:1070B000C188514526D3CDB10A2102A895FBF1F331
:1070C00001FB135395FBF1F530330355641C24B2D7
:1070D000002DF3D11146002C0DDD031913F8013CEE
:1070E0008B55761C641E36B224B2F4E7CDE90087D6
:1070F00007A2869B02E0CDE90087869B5146584651
:1071000000F04EF80DF5077DBDE8F08FF45B002030
:10711000300000002DE9F04F814620481546099FB8
:1071200082889A4688464A4535D3C188414532D33C
:1071300000264FF0800B2CE0002423E00B982978E8
:10714000FF2804F007022BFA02F001EA000101D047
:1071500009B908E081B108EB060081B209EB04002F
:1071600080B20A9A06E008EB060081B209EB04003F
:1071700080B20B9A00F070F8E043400700D16D1C1C
:10718000641CA4B2BC42D9D3780700D06D1C761C15
:10719000B6B25645D0D3BDE8F08F0000F45B0020B6
:1071A0002DE9FC4F8046194889460D4681884446A2
:1071B000DDF830B01E461746A14225D3C18882466D
:1071C000A94221D31DE0B088BAF8043001199942D0
:1071D00003D9F188444629448DB2F188BAF80600F3
:1071E0002944814201D944464D460B983346CDE9A6
:1071F00000B029462046FFF7EBFEB0887F1C2044F4
:1072000084B23A78002ADED1BDE8FC8FF45B00201E
:1072100070B50D4C049D206021816281A5810225FD
:10722000E5824E074FEAD10000D0401C6082A28266
:10723000E381258223B1B42B02D0A280E18070BD0E
:10724000A180E28070BD0000F45B0020014908606D
:1072500070470000F45B0020F0B5384CA3888342EF
:107260004BD3E3888B4248D32346E7891E895D8947
:10727000CFB15A2F1AD0B42F1CD0B7F5877F3CD18D
:107280000B46281A401E80B2218AD9B1012916D096
:10729000022904D0032930D1F11A491E8BB2281AD1
:1072A000401E80B20EE003460846EDE7711A491E03
:1072B0008BB2E9E7301A401E83B2681AE2E7F11A8E
:1072C000491E8BB29E4218D3854216D31B49E58ACC
:1072D0004C8A0968022D11D0042D20D0072D0CD125
:1072E000444304EB5304DB075B0FF025DD40085DEE
:1072F0001201A843DA4002430A55F0BD444304EBAF
:10730000D3048020002A0D5D03F0070220FA02F06A
:1073100002D028430855F0BD85430D55F0BD4443C8
:1073200004EB930094079B075D0F0A5CC023EB40BE
:107330009A43230EEB4013430B54F0BDF45B002043
:1073400002490248091F096800680847E02C00202C
:107350002DE9FE434FF48278404605F0E9F84C4FA2
:1073600000254C4C012600B3404605F0E9F894F89E
:107370002E0010B194F82F10D1B18DF80050616833
:1073800001912189ADF80810E26832B1218B618347
:1073900062602181E56010B102E0257400E03E608A
:1073A00021686846884784F82F5094F82E0060B30F
:1073B0004FF48077384605F0BBF830B3384605F017
:1073C000BFF8628B94F82D108A420AD9A2EB010013
:1073D00080B260832289A2EB0000626802EB400069
:1073E00005E007D1E06828B184F82F60658305F0D7
:1073F0008DF804E08A4202D184F82F60658340460C
:1074000005F09EF82248001D06604FF48877384644
:1074100005F08EF848B1384605F092F82574022040
:107420008DF800002168684688474FF48A7738460F
:1074300005F07EF828B1384605F082F82574BDE8DD
:10744000FE834FF000484FF48C7967691DE000BF60
:10745000B7FA87F028FA00F109EB80058F43284638
:1074600005F066F888B1284605F06AF8A5F58C7530
:10747000E8088DF8040045F38000401C8DF800609A
:107480008DF80500216868468847002FE0D1D6E7CF
:10749000007000408C87002070B50E46144900EB48
:1074A000400001EBC0051446E86A183520B10128F8
:1074B0000FD0022805D113E0284600F076FCA04248
:1074C00001D2002411E022463146284600F0A5FCF6
:1074D0000BE0284600F069FCA042F4D20446F2E733
:1074E0003146284600F06CFC0446204670BD000082
:1074F000089000202DE9F041194D0C460321297018
:10750000010AD21C6970A8701746104603F014F9DE
:10751000DFF850800021064688F800101249032049
:10752000002220C181E8C100091F104805F0BCFEFF
:1075300008B100F0C5FD4046017809B1032007E01D
:1075400020BF40BF30BFF7E7315C04F8011B401C8F
:10755000B842F9D33046BDE8F04102F07BBC0000F0
:10756000705E0020602C0020888500207CFE0200D8
:1075700010B5144B02241C70040A5C709870032030
:10758000D21C04E011F8014B1C54401C80B2904204
:10759000F8D30D4C002121700C48C0E900320C4A90
:1075A000C0E902210A4601460A4805F07DFE28B1DD
:1075B00000F086FD02E020BF40BF30BF20780028E9
:1075C000F9D010BD705E0020602C0020888500205E
:1075D000FB7100207CFE020010B50E4906200E4C07
:1075E0000870002222700D480160012141600C49A1
:1075F000C0E9021201460B4805F056FE28B100F022
:107600005FFD02E020BF40BF30BF20780028F9D0E6
:1076100010BD0000705E0020602C002088850020D6
:10762000FB7100207CFE02000149024802F0B7BE57
:1076300044870020003000400149024802F0AFBEFC
:10764000688700200030024000B587B0182004F0A1
:1076500097FB172004F094FB162004F091FB002305
:107660001B2000931A461946019304F025FB1820AD
:1076700004F0C1FB162004F0BEFB104A0023D2E93F
:107680000E01526CCDE90201FF208DF80B008DF840
:107690000A001A208DF8090019208DF80800C0078B
:1076A000049006480592064A02A9783805F0FEFCC7
:1076B000002801D000F004FD07B000BD90FC0200DE
:1076C00029DE0200FFF7C0BF10B50E490E4C0123A2
:1076D00008700022627001F50070C0E90013A0F587
:1076E0008071C0E902120146084805F0DDFD28B1AD
:1076F00000F0E6FC02E020BF40BF30BF6078002809
:10770000F9D010BD0C5C0020442B002018FC0200B6
:1077100010B50D4C002363700C4AC2E90001A2F5BC
:107720008070C2E902031A460849094805F0BCFD09
:1077300028B100F0C5FC02E020BF40BF30BF607838
:107740000028F9D010BD0000442B00200C5E002062
:1077500018FC020005F0D4B8F0B5B5480023021DAE
:107760000178101D01254FF0805406290BD11678A1
:10777000360708D10678C6F30316032E06D0042E6A
:1077800004D0052E02D0062907D00EE0B4F82463F9
:10779000A84FC6F304263E6002E01678360704D1EF
:1077A0000678C6F30316032E02D0062904D00FE094
:1077B000A24FA14E7E670EE01678360708D10678F4
:1077C000C6F30316032E06D0042E04D0052E02D0D5
:1077D000062907D00EE0D4F84462994FC6F342362A
:1077E0003E6002E01678360704D10678C6F3031629
:1077F000032E02D0062906D011E0924E376827F0FA
:10780000807737600EE01678360708D10678C6F321
:107810000316032E06D0042E04D0052E02D006290E
:107820000AD011E04FF08046C6F80C31C6F810318E
:10783000834E361F336002E01678360704D106788F
:10784000C6F30316032E02D0062905D00CE07C4FA8
:10785000032664373E600AE01678360704D10678BE
:10786000C6F30316032E02D006290DD014E0764F7E
:1078700005263E60744E78363560734E08363360A8
:107880003F263F1D3E6002E01678360704D1067899
:10789000C6F30316052E02D0062957D062E06B4EC0
:1078A00036686B4F3E60694E361D36683F1D3E6040
:1078B000664E083636683F1D3E60644E0C363668AC
:1078C0003F1D3E60614E103636683F1D3E605F4E84
:1078D000143636683F1D3E605C4E183636685C4F85
:1078E00020373E60594E1C3636683F1D3E60574E6D
:1078F000203636683F1D3E60544E243636683F1DA4
:107900003E60524E283636683F1D3E604F4E2C3644
:1079100036683F1D3E604D4E303636684C4F40371E
:107920003E604A4E343636683F1D3E60474E38361C
:1079300036683F1D3E60454E3C3636683F1D3E6012
:10794000424E403636683F1D3E6002E016783607EC
:1079500008D10678C6F30316032E06D0042E04D0F1
:10796000052E02D0062907D019E0D4F85812394A5A
:1079700001F04F01116002E0117809070FD1007882
:10798000C0F30310032803D0042801D0052806D132
:1079900031480168C90702D06FF001010160D4F8D5
:1079A0003001062808D1D4F83401062804D12B4828
:1079B000016841F48061016022487438016841F433
:1079C00070010160BFF34F8FBFF36F8F4FF0102135
:1079D000D1F80002002803DBD1F80402002822DAE3
:1079E0001F4A15601F480468002CFCD01524C1F8FC
:1079F00000420568002DFCD0C1F80442016800294E
:107A0000FCD0136001680029FCD0BFF34F8F0D48F4
:107A1000F0380168144A01F4E06111430160BFF3DA
:107A20004F8F00BFFDE7124910480860F0BD00000D
:107A3000E00F00F0403501400DF0ADBA00C0074046
:107A40003C050040FCED00E010560040040400102E
:107A500020C50040E40E0040000400403C170040F8
:107A600004E5014000E401400400FA050090D00361
:107A7000882D00200148006800470000942C002059
:107A80002DE9F04F87B00646FFF724FA09200025BC
:107A90004FF0FF080590CDE9008583464446484BEA
:107AA00048A229460520FFF77BFB454B32460021C3
:107AB000B520CDE90045FFF7E1FA00274FF01409A2
:107AC0004548002407EBC70107EB870A11EB0006C6
:107AD000424804EB8401027802EB8101C9B20491AF
:107AE000407800EB8A00C0B20390305D48B9CDF811
:107AF0000090CDE90185DDE903101423384AFFF732
:107B000009FB305D012809D1CDF80090CDE9018550
:107B1000DDE903101423334AFFF7FCFA305D022835
:107B20000AD1CDF80090CDE901852E4ADDE9031098
:107B300014237832FFF7EEFA305D03280AD1CDF82E
:107B40000090CDE90185264ADDE903101423783A37
:107B5000FFF7E0FA305D04280AD1CDF80090CDE9B6
:107B60000185204ADDE9031014233C32FFF7D2FAE5
:107B7000305D05280AD1CDF80090CDE90185184A7D
:107B8000DDE903101423B43AFFF7C4FA305D062888
:107B90000AD1CDF80090CDE90185114ADDE9031045
:107BA00014233C3AFFF7B6FA641CE4B25C458FD369
:107BB0007F1C0598FFB2874282D307B0BDE8F08FE3
:107BC000642C0020536F6B6F62616E20636861707C
:107BD0007465722D000000001C5E0020482B002000
:107BE00040FE0200D8FC02002DE9FC47FFF782F9B5
:107BF0000026FF25CDE900564FF004094FF050084C
:107C0000424B43A20A210520FFF7CAFACDE90056EC
:107C10003E4B42A21E210520FFF7C2FACDE90056D5
:107C20003A4B42A232210520FFF7BAFA414F002415
:107C300004EB840108EB810000F0FF0A385D38B9DD
:107C4000CDE90056314B3CA251463220FFF7A8FA4D
:107C5000385D012807D1CDE900562C4B38A251469A
:107C60003220FFF79DFA385D022807D1CDE9006583
:107C7000264B33A251463220FFF792FA385D032893
:107C800007D1CDE90056214B2FA251463220FFF7F4
:107C900087FA385D042807D1CDE900651B4B2AA27D
:107CA00051463220FFF77CFA385D052807D1CDE92F
:107CB0000056164B26A251463220FFF771FA385D66
:107CC000062807D1CDE90065104B21A2514632208C
:107CD000FFF766FA385D072807D1CDE900560B4B50
:107CE0001DA251463220FFF75BFA385D082807D104
:107CF000CDE90065054B18A251463220FFF750FA36
:107D0000641CE4B24C4593D3BDE8FC87642C00208E
:107D1000566970736E2D45696E6B00004261747414
:107D20006572792D467265650000000047616D65DA
:107D3000426F7900482C00204E756C6C00000000EA
:107D4000536F6B6F62616E004D617A6500000000D9
:107D50004D6972726F72000049736C616E6400004D
:107D600070B5064602250024FFF736FCFA2231469C
:107D70002846FFF7FDFBFA35641CE4B2FA36ADB2D3
:107D8000142CF1D370BD01B5FFF726FC0122694622
:107D90001046FFF7EDFB08BD01B5FFF71DFC012202
:107DA00069460020FFF7E4FB08BD0269C1688A420A
:107DB00003D88068401A104400E0501A401E7047F3
:107DC0002DE9F047C4681746894606464FF000087B
:107DD0003069A04201D9051B02E0B168201A0D1AD2
:107DE000B0686D1E001BA84200D80546BD4200D3F6
:107DF0003D4670682A4620444946FEF737FBB06886
:107E00007F1B2C44A844A944A04200D10024F46064
:107E1000002FDDD14046BDE8F0872DE9F041044652
:107E20008846D4E90207C51BE16860681646084425
:107E3000B54206D94146FEF719FBB819E060BDE826
:107E4000F0812A464146FEF711FB761B08EB05013F
:107E500032466068FEF70AFBE660F0E702E008C819
:107E6000121F08C1002AFAD170477047002001E0B4
:107E700001C1121F002AFBD17047000001212028F8
:107E800003DA81400548014003E0402802DA203847
:107E9000814009B10120704700207047FC06FFBDFA
:107EA00010B504460078002822D10121606804F052
:107EB0005DFF08B100F004F9606801220023B0F909
:107EC00000100C48446AA14201DD827100E0837118
:107ED00004793CB1B42901DA0371C370BDE81040E4
:107EE00005F0AEB8838A9942F8DD0271C270F5E7F9
:107EF00010BD0000E02A00200649F02238B1012818
:107F000005D0022802D140F21D10888270478A8273
:107F100070470000E02A002010B5FEF72FFBBDE8F7
:107F20001040FEF74FBB800701D0002070470120B2
:107F30007047C3688B4206D811440069491E8142CC
:107F400001D8012070470020704790F824000128D4
:107F500001D01F207047EE20704710B5012202218A
:107F6000002001F081F808B1072810D10722022172
:107F7000012001F079F808B1072808D100210A2270
:107F8000084601F071F808B1072800D1002010BDA3
:107F9000022000F06BBF000070B50024064D06E023
:107FA0006868012110F8340004F0AEFD641C2878E4
:107FB0008442F5D3002070BDA02C0020F8B51646F1
:107FC0000C4605460A2A01D20720F8BD04F096FEA9
:107FD00018B904F05DFE0028F7D1134F10211348A3
:107FE0007D603C70BE60FEF768FA0020C7E90400BF
:107FF0000F4E0DE005EBC4003168009181788DF8DB
:10800000011000780B4A694604F0D0FD0028DCD14D
:10801000641EE4B2EED2BDE8F84005480021064AED
:10802000001D00F05FB80000A02C0020E0870020B9
:10803000E80A030015A102001D99020072B604F0BF
:1080400049F900BF03F0A0FF0028FBD111481249F5
:10805000401AC408012000EB044010A104F0AEF85F
:1080600011480068C00700D000BE022000EB0440A9
:108070000EA104F0A3F8BFF34F8F0B48E43801685A
:108080000E4A01F4E06111430160BFF34F8F00BF5E
:10809000FDE70000DC16030064160300466174610E
:1080A0006C206572726F7200F0ED00E053797374AA
:1080B000656D207265736574000000000400FA05A8
:1080C0000EB500210091CDE901106A4644F201008D
:1080D000FFF7B4FF0EBD0000014801F086BC0000B0
:1080E000C02C00203AB100680129426100D0002173
:1080F00001610020704707207047000038B5114823
:1081000008235822416800910F49006803F05FF886
:10811000002815D10D4A69460D4801F06BFC04009A
:108120000ED101210A4801F0DCFC0123094A19465D
:10813000074801F032FC0649012008390870204642
:1081400038BD0000F00A03000088002071DA020048
:10815000C02C0020FFFF7F0070B50446007F0D4655
:1081600008B1002070BDA26101F0BAFF401941F1D1
:108170000001C4E90201206900B125612146BDE882
:108180007040002005F0D2BF014600200877012092
:1081900005F0CCBF30B5EFF3108172B60D4A94688C
:1081A000012324B10370002900D162B630BD936071
:1081B0004FF0E023D3F88051074C25401560C3F8F9
:1081C0008041D3F8844154605A17C3F884210022B7
:1081D0000270E8E758880020FC06FFBD0B498A685A
:1081E000002A11D000280FD1EFF3108072B60B686F
:1081F0004FF0E022C2F800314B68C2F8043100228F
:108200008A60002800D162B67047000058880020BC
:1082100010B5184A01211848FFF764FF08B1FFF7AD
:108220004FFF1548154A0121001DFFF75BFF08B1FC
:10823000FFF746FF1048124A01210830FFF752FFAE
:1082400008B1FFF73DFF0C480E4A01210C30FFF743
:1082500049FF08B1FFF734FF07480B4A00211030EF
:10826000FFF740FF002803D0BDE81040FFF728BF0C
:1082700010BD0000197F020058E80200F5930200CB
:10828000F99B0200E9930200E19B020070B5150022
:10829000044609D00020286034B1206820B1A079BC
:1082A000800703D0072070BD0E2070BD084600F087
:1082B0001FFBC0B2142804D02179814203D80420C6
:1082C00070BD052070BDE288216800FB02102860A7
:1082D000002070BD2DE9FC47002517880646158053
:1082E00090F82D001446894630B13A46214648465A
:1082F00000F012FB051E09D1B0784FF00C0A18B33C
:108300002088C846001DB84202D95046BDE8FC8707
:10831000684679DF0028F9D12088032108F8001089
:1083200020881921401C80B2208008F80010208885
:10833000401C80B2208000EB0801BDF8000005F071
:108340001DFF218808442080F0780222C8B12188CE
:1083500096F9033001F1030C4846BC45D5D8425488
:1083600021884FF0010C491C89B2218000F801C01E
:108370002188491C89B2218009F801302088401CDD
:1083800020807068B8B1218890F9003001F1030CA9
:108390004846BC45B9D8425421880A22491C89B2B2
:1083A000218042542188491C89B2218009F801307A
:1083B0002088401C2080308950B1CDE900474B46D1
:1083C0000622022106F1080006F046F9051E9DD19D
:1083D000308A50B1CDE900474B460722032106F110
:1083E000100006F039F9051E90D1308B50B1CDE95F
:1083F00000474B461522142106F1180006F02CF90F
:10840000051E83D1306A30B13B462246494601F011
:1084100074F9051EDBD1706A30B13B4622464946ED
:1084200002F0C0F9051ED2D196F82C0038B13B46B7
:1084300022464946304605F03BFC051EC7D1307840
:1084400038B13B4622464946304602F06DFE051ED5
:10845000BDD128465AE718B504460020ADF8000003
:1084600013466A46204600F006F8002802D0BDF800
:108470000000204418BD70B5C8B1C2B100241588F1
:1084800003E0065D641C3444A4B2A54203D8061977
:1084900076789E4201D08C42F3D38C4207D2005DA5
:1084A000A31C401E9BB280B21C188C4201D9002034
:1084B00070BD138070BD80F8301070472DE9F04119
:1084C0000D00044606D02CB195F87A00002601284C
:1084D00003D006E00E20BDE8F08195F89800012851
:1084E00029D0D5F8A000042825D0D5F89C00042870
:1084F00021D04FF00108A6702C2205F17801201D33
:10850000FDF7B4FF84F83060D5F8A4006063D5F8B7
:10851000A800A0634FF6FF70A4F8240404F582605D
:10852000C4F82004C4F82664A4F82A6484F82C64EF
:10853000207810B104E00720CDE7FF2084F8540034
:1085400004F155072046C4F81074FFF7FEFCA4F8A8
:10855000140404F2144239462846FFF7BBFE0028F3
:10856000B9D104F23120C4F818042046FFF7EDFC1D
:10857000A4F81C0404F21C4205F13C00D4F81814C1
:10858000FFF7A8FE0028A6D184F85180208BA4F81C
:10859000480084F83C80266484F8506060690021BB
:1085A0006064454604F13C02781E72DF002892D1D7
:1085B000257090E710B50288102A1BD0112A20D010
:1085C000262A1DD1007A0C46012801D0022817D195
:1085D000A0780521401CB0FBF1F201FB12012046FE
:1085E00000F03AF800280BD0A16B002908D0BDE8B4
:1085F00010400847C27B012A02D18088A1F82404D8
:1086000010BD0C46002184F82E148088B4F8241480
:108610008842F5D120790028F2D10121DFE710B599
:10862000044690F8540074DF012084F82E040020E2
:1086300084F8300484F850000621204601F0F5FB50
:10864000002808D1A178204600F006F810B1A16BEF
:1086500001B18847002010BD2DE9F05F0446007885
:108660000F4698B1A7700025C4F82654A4F82A54E0
:1086700084F82C54A079012608B1012F09D0E079A3
:1086800080B1012F05D0022F03D00BE00820BDE8F8
:10869000F09F616B21B184F82D640820884701E0C8
:1086A00084F82D5404F2274100200A5C0AB13046B8
:1086B00003E0401C0628F8D300204FF002084FF0DA
:1086C000030B012F06D0022F0CD0032F0FD0042F45
:1086D00015D110E0A17929B194F8241011B908B18D
:1086E00030460DE0E17911B108B1404608E0207A4A
:1086F00008B1584604E0607A08B1042000E028463A
:10870000A070616B41B1032801D0042804D16079C5
:1087100010B194F82E0498B184F82F5404F13C0061
:1087200018210746FDF7C9FE84F83C6004F12C00CF
:1087300004F076FF58B194F82C0084F8510008E05A
:1087400084F8305484F82F6407208847E6E784F8DB
:10875000516094F8240058B104F1280004F060FF3F
:1087600020B194F8280084F8520001E084F85260A7
:1087700084F85050A27804F2264104F582694FF043
:10878000060A052A64D2DFE802F07C030F224200C9
:1087900084F83160C4F82054C4E9101584F83C8092
:1087A0008020A4F8480055E084F8318094F8242013
:1087B000384612B10722027001E080F800B0228A28
:1087C0008281C4F820544160E168B96042E0606988
:1087D000B860208BB88194F824003D4600282046DC
:1087E00002D084F83CA001E084F83C6005F006FF6C
:1087F00050B185F814800421204601F016FB38BBE7
:10880000052184F8311021E084F831B01EE0E069E0
:10881000B860208CB88194F824003D46002820469A
:1088200002D084F83CA001E084F83C6005F0E6FE4C
:1088300048B185F814800421204601F0F6FA38B9D1
:1088400084F831A002E0042084F83100C4F82094B8
:10885000A07878B13A4604F15400D4F8201472DFBD
:1088600000287FF414AF94F8301094F8540073DFAC
:108870000028F6D1616B11B194F8310088470020CF
:1088800005E784F83150F5E770B5040012D00146D1
:108890001C221448FDF7EAFD1248134D05602068BC
:1088A00050B17ADF002806D120680168296040684D
:1088B000686005E00E2070BD0B487BDF0028FAD110
:1088C00008484FF6FF711438084A20F8041B054980
:1088D000343901600021FFF705FC0028EBD00320AC
:1088E00070BD00003C860020842C002095E502002D
:1088F00010B5044600F006F808B1204610BD14205B
:1089000010BD0000142801D3002070470146014823
:1089100002F0A7BC5C8600207CB5054608880C46A2
:108920000930904201D90C207CBD68466DDF0028DB
:10893000FAD121880820685420881B21401C80B26D
:10894000208029542088401C80B220802844DDF8F3
:1089500001100160BDF8051081802088801D80B263
:1089600020809DF80010490800D00121295420885A
:10897000401C208000207CBDF8B5264C05460188AF
:108980000026208A212933D00ADC102912D011298F
:1089900021D013292BD100231A4685217FDF14E033
:1089A0003B2933D052292CD0562920D1A888132115
:1089B00076DF0AE0072000F079FB08B1FFF780FBC3
:1089C000A9882182144802F09BFD00280FD0BDE841
:1089D000F840FFF775BB4FF6FF70208260790028E2
:1089E00005D00D480C3090F8540074DF6671F8BD66
:1089F0000096A88869468FDF0028F8D0FFF760FB53
:108A0000F8BD00231A461946B1DFDEE7A888132116
:108A100076DFDAE7E02A0020502F002010B51A4C4C
:108A20000188606810290ED011292BD1401E60608A
:108A300028D1FFF792FA002824D02168002921D0FC
:108A4000BDE810400847D0B900210122084600F0D7
:108A50000BFB08B107280FD107220221012000F0EB
:108A600003FB08B1072807D104220221002000F0EF
:108A7000FBFA20B1072802D0216801B1884760685D
:108A8000401C606010BD00007C2C00202DE9F047E8
:108A900001883B4E40F2F3194FF6FF7510291BD0A9
:108AA00011293ED0122954D0502946D1C188F289CB
:108AB000841D914241D1618902293ED18688304688
:108AC00001F0F6FB050038D004F10C0000F08AF943
:108AD000A8B3294630464EE0C17B87880446012969
:108AE0002BD1A846284601F0E3FB050017D02F80C4
:108AF00000202872234843464A460168C5F80A10F8
:108B00004068C5F80E0004F1100105F10A0001F0FB
:108B10006BFC6872F08900280FD129462AE00420F6
:108B200013E0808801F0C4FB040006D06068FFF702
:108B30002BFB08B105F08CF82580BDE8F087FFE736
:108B40006868FFF721FB0028F7D0BDE8F04705F083
:108B50007FB887880646384601F0AAFB0400ECD0AF
:108B60002B464A4606F1080104F10A0001F03CFCDC
:108B7000607221463846BDE8F04700F005BE0000AF
:108B80003C860020842C00202DE9F04F0446868886
:108B90000188424897B0834610290CD0112950D043
:108BA000103019296AD01A2974D1217A0C09042CA1
:108BB0004DD301224CE0394D083DA868C0430B90CD
:108BC00069680BA802F06EFB0B990CA800F076FD0B
:108BD0002C220CA96846FDF749FC0027E946A84667
:108BE00010E000BF09EB47005FF00005B0F804A0FB
:108BF00008EB85005146001D02F028FB6D1C1E2D60
:108C0000F6D37F1C0098B842ECD8142E05D317B0C9
:108C10000420BDE8F04FFFF753BA3146584602F042
:108C20002BFB314608F1040002F026FBE07B012813
:108C300030D017B03146BDE8F04F1848001D02F0A3
:108C40001BBB17B03146BDE8F04F02F0FFBA00225F
:108C5000314601F0E5F8032C01D3012200E00022A7
:108C60000E4831460C3001F0DBF8022C01D3012212
:108C700000E0002209483146083006E0217A002948
:108C800008D1617AC1F3C002314617B0BDE8F04F98
:108C900001F0C6B817B0BDE8F08F00006086002074
:108CA00070B5334D04008EB02DCD08AE86E82D0092
:108CB0005BD0E9B30868A061214608A862DF0028FC
:108CC00051D1207801258DF83200ADF83050A21C2A
:108CD0000CA92846A8DF002845D120216846FDF7C9
:108CE000ECFB0220ADF8000020788DF802008DF832
:108CF0000C509DF80D00F426ADF8046040F00C0017
:108D00008DF81150ADF806508DF80D008DF8125009
:108D1000608804F10C02694600F0DAFB002822D1D9
:108D200020216846FDF7C9FB0320ADF8000000E0F4
:108D30001BE020788DF802008DF80C509DF80D0096
:108D40008DF81150ADF8046040F010008DF812500D
:108D5000ADF806508DF80D008DF813506088221D77
:108D6000694600F0B5FB0EB070BD0E20FBE70000B9
:108D7000C00A030070B588B00446002924D0002C36
:108D800022D008462188102920D0502924D05729E4
:108D90001AD10546A188406906AAFFF777FA00288C
:108DA00012D1069E307800280ED018216846FDF7B3
:108DB00084FB01208DF800000195A088ADF8080023
:108DC0000396A9696846884708B070BD08B0214677
:108DD000BDE8704004F0D4BA08B02146BDE8704048
:108DE00004F0AEBB007800F0010070470149085C58
:108DF00070470000780A03000649095C4FF0A04064
:108E0000D0F81005C84010F0010000D0012080F01B
:108E100001007047780A03002DE9FC410646C007AF
:108E20004FF000050ED0104F00240122385D009550
:108E300000231146019502F051FF641C042CF4D369
:108E400000F046F8B0070DD5074E0024361D00226D
:108E5000305D032300951146019502F03FFF641C2D
:108E6000042CF4D3BDE8FC81740A030007490B5CB1
:108E70004FF0A041D1F804250120984020EA0203D8
:108E8000C1F808351040C1F80C057047740A03009A
:108E90000249085C012102F0BCBF0000740A030013
:108EA0000249085C002102F0B4BF0000740A03000C
:108EB0000649095C4FF0A040D0F80405C84010F006
:108EC000010000D0012080F001007047740A030007
:108ED00010B500242046FFF7DBFF641C042CF9D3F7
:108EE00010BD10B500242046FFF7DAFF641C042CE7
:108EF000F9D310BD10B50246064B4FF0FF300021EC
:108F00005C5C944201D1084610BD491C0429F7D38A
:108F100010BD0000780A030070B50C4E0C004FF035
:108F2000000530600BD0012000F06AF808B1022083
:108F300004E0002000F064F800B10B20207070689D
:108F400010B9FFF70AF80546284670BD7C2C0020B2
:108F500010B5002000F0DAF908B1062806D101208A
:108F600000F0D4F908B1062800D1002010BD00009F
:108F70002DE9F0470D468146FFF7BCFF0446042863
:108F800036D2DFF874801B481C4EA8F10C0725B3BD
:108F9000012D0ED0022D2BD104EB44003044457836
:108FA000002D25D0B968002922D02846BDE8F04719
:108FB000084704EB4401755C0E44717849B10E4AD0
:108FC0004FF48041093A8068FFF7C6F808B987F87E
:108FD0000390B17808F80410E2E78068FFF7D4F84E
:108FE00004EB4401314418F804008D78A842D7D02E
:108FF000BDE8F0877C0A0300782C0020D88500208B
:10900000042801D2FFF7F8BE00207047014614483B
:1090100010B5008A042910D0072917D00A291ED1BB
:10902000002000F043F808B1FFF74AF8FFF790FF7F
:1090300008B1FFF745F833DF02E0132176DF0CE0DB
:1090400000280CD0BDE81040FFF73AB8A0F57F41EA
:10905000FF3904D10348FFF7E2FA0828F0D110BD28
:10906000E02A00205C2F002070B50023042810D2D5
:109070000D4D00EB4004012A02D101290CD0002241
:10908000094E00EB4000304461B1012906D00229AD
:1090900006D00723184670BD0E30C2B22A55F9E734
:1090A0004270F7E78270F5E7D8850020002070470E
:1090B00070B506461E480024C0E90161B00720D5FE
:1090C0000025012211462846FFF7CEFF6D1C0446FD
:1090D000042D02D2002CF4D013E094B940F23332C4
:1090E00004211448FEF76AFF04000AD1FEF754FF7A
:1090F000040006D10F48104A0021001FFEF7F2FFBE
:109100000446F00712D00120FFF786FE74B9094823
:109110000A4A00210C38FEF7E5FF040006D1054895
:10912000074A01210838FEF7DDFF0446204670BDDE
:109130006C2C0020880A03005594020069A40200E8
:10914000917F02002DE9F05F6E4C054600266078A5
:10915000B34618B184F801B001F06EF96A4F4FF4CC
:109160007A694FF4C87A4FF00108182D69D2DFE808
:1091700005F00C1313384754696E727B727BC584FB
:1091800084848484B3B6B9BCC5C501F055F9386888
:10919000FEF7FAFF06465CE00020FFF789FE002894
:1091A0004FF0000008D0FFF773FE022D02D14FF4FC
:1091B000E16008E0484606E0FFF772FE022D01D1AB
:1091C000C82000E05046410CC0034FF47A7280186A
:1091D00041F10001257052000023FDF703F901461B
:1091E0002AE00020FFF764FE00284FF0000004D0C2
:1091F000FFF74EFE4FF44870E5E7FFF751FEDFE75B
:109200000020FFF755FE00284FF0000002D0FFF7C6
:109210003FFECFE7FFF744FED4E70020FFF748FE0C
:1092200000284FF0000002D0FFF732FE01E0FFF708
:1092300037FE257040F6CD4100223868FEF78CFFDE
:10924000064646E00020FFF711FE257008E00020EA
:1092500051E025703DE084F801800120FFF706FE13
:10926000002240F26661E8E784F801800120FFF700
:10927000FDFD00224FF40051DFE77868FEF784FF20
:109280000646D5F1110000D02EB10220FFF700FEF6
:1092900084F802B01DE0012816D980B2C8214843E5
:1092A000C117C90341EA5041C0034FF47A728018D4
:1092B00041F1000152000023FDF794F8014600221D
:1092C0007868FEF749FF06460220FFF7E9FD84F8BB
:1092D00002803046BDE8F09F01F0AEF8B9E701F03A
:1092E000ABF8B4E701F0A8F804E001F0A5F800201D
:1092F000FFF7D6FD0120FFF7D3FDAAE7FFF7F1FD49
:10930000A7E700006C2C00207C0A0300012105F077
:109310000ABA00002DE9F8430546861C00208DF8A6
:10932000000090460F464FF001096846FEF732FFF5
:109330001B4C20683860D4E90001401AA16804F28F
:109340001C47081A0EE00121384601F0A5FF01F084
:10935000ADF80146384601F09FFFD4E90001401AFC
:10936000A168081A401C8642EDD8B8F1000F03D05E
:10937000052065F3891002E0062065F39F50A2687E
:109380002168114004EB8101C860206830442060EE
:109390009DF80000FEF722FF4846BDE8F883000074
:1093A000E48B002070B50D4604460A2902D10D2138
:1093B000FFF7F8FFA0682268411CA1601554D4E9AA
:1093C0000101814204D32046BDE8704002F071B92A
:1093D00070BD0000034803C8814201D101207047DD
:1093E00000207047E48B002001490120087270477B
:1093F000E02A002010B51B2002F0F5FC002810D157
:109400004FF0A0411020C1F80C0506490020C8719A
:109410000870FEF757F904484068BDE81040FEF7B1
:10942000B3BE10BDE02A002058E80200034630B564
:10943000074800210478426806E000BF02EBC10043
:1094400005789D4203D0491CA142F7DB002030BDC6
:10945000A02C002000780221FFF78ABD05494FF0BB
:10946000FF32082841F8202002D3084480F8482021
:1094700070470000E8860020F0B54FF0FF3512B1CC
:109480000023082601E008230C260C4C05E000BF51
:1094900054F823707F1C04D05B1CB342F8D32846D9
:1094A000F0BD26185DB286F8305044F82310002A2B
:1094B000F5D1E11881F84800F1E70000E8860020C6
:1094C0000249084490F9300070470000E886002007
:1094D0002DE9F0438146887891B090460C4600B95A
:1094E00001208DF83E002088ADF83C000025009555
:1094F000607C694604F020FC6E46A07C711C04F080
:109500001BFCE07B00289DF8020002D040F0080020
:1095100001E020F008008DF80200217C11B140F03C
:10952000100001E020F010008DF80200217B11B145
:1095300040F0010001E020F001008DF80200217DE3
:1095400009B1022100E0012161F342008DF802001F
:109550001C2102A8FCF7B1FF607BC10601D4800684
:1095600017D50E950EAFE07C791C04F0E5FB9DF855
:109570003800079720F00F00401C20F0F00010305A
:109580008DF838009DF83A0020F00600801C8DF818
:109590003A00607B8DF80800A07B8DF8090014214B
:1095A00009A8FCF78AFF0FA8CDE90906A088ADF845
:1095B0003000A06820B1E088ADF82C00A0680D90C4
:1095C000A06998B301950088ADF81000A06901ADBD
:1095D00001A94088ADF81200A06940680695039083
:1095E000A069007B04F0A8FBA069691C407B04F023
:1095F000A3FBA069807A00289DF8060002D040F005
:10960000080001E020F008008DF80600A169C97A81
:1096100011B140F0100001E020F010008DF80600BC
:10962000A169097A19B140F0010002E00DE020F0D3
:1096300001008DF80600A169897B09B1022100E0D3
:10964000012161F342008DF80600E06900B1059048
:10965000434609AA02A94846AADF11B0BDE8F08333
:1096600070B5084C050009D010342168002907D0D6
:1096700008682060496828468847F6E70834F4E718
:1096800070BD0000D4860020054A012120B10128C8
:1096900005D19170FFF7E4BF51700020FAE77047E1
:1096A000D486002010B5D0E90234D1E90220D11AC5
:1096B000A04101D3012010BD002010BD73B58CB0B6
:1096C0000646002000900D9880B100246D4621468A
:1096D0000DA801F0C6FD30B1009805EB4000848074
:1096E0000098401C0090641C142CF0D32C22694676
:1096F0003046FCF7BBFE0EB070BD2DE9F041178877
:109700000646B81D14460D46984202D90C20BDE805
:10971000F0813188072206290AD34FF4486C4FF6AE
:10972000FF73614501D9994202D17088062801D2A0
:109730001046ECE7604501D99842F9D1994203D02F
:10974000984201D08142F3D80520E85520881221A3
:10975000401C80B2208029542088401C80B2208088
:109760004119308804F00AFD2188084480B2208025
:109770004119708804F002FD2188084420800020EF
:10978000C5E7FEF79DBC000038B54A7A0F4B62B1C1
:1097900000220A725969002906D001228DF80020A2
:1097A000ADF802006846884738BD0A7A62B19B6806
:1097B0004C68024619462046FEF7CEFC0028F3D03E
:1097C000BDE8384004F044BA5B68F1E73C8600200D
:1097D00070B588B00646002005900690ADF81410CC
:1097E000ADF816100190029001AA05A9304690DF4D
:1097F000050021D003F03AF90346114811493246D9
:10980000401AC108012000EB014004460E4902F055
:10981000E0FCBDF8042012B9BDF8060028B1BDF87F
:109820000630204609A102F0D4FCBDF808201AB188
:109830002046164902F0C6FC08B0284670BD00005C
:109840006416030064160300540E03005468652078
:109850007265717565737465642054582F52582071
:109860007061636B6574206C656E677468206973E2
:1098700020746F6F206C6F6E672062792025752FC2
:109880002575206F63746574732E0000A00E0300AD
:109890002DE9FF410C4620B14FF4064004B0BDE86D
:1098A000F0812079002748F2096538B141F61D564C
:1098B00001281BD0022826D0681DEFE70220207166
:1098C00002970397E0680190694601A804F034F814
:1098D00050B102988188E18000882081BDF8001095
:1098E000029804F0A7F8D9E72846D7E70A4B6A465A
:1098F0000021A01D03F0D8FF38B1074918398F6146
:10990000CF61A842CAD13046C8E703488188019890
:1099100004F090F8F5E70000082D002070B5002451
:109920000F4D10E0686800EBC406307803F0A6F92C
:109930007178012901D0012100E0002141403078F7
:1099400000F0F4F9641C28788442EBDBD5E90401CB
:10995000084303D0BDE8704004F004BC70BD0000B3
:10996000A02C002010B50021024801F0A6FC80F3D5
:10997000100010BD009000204FF480328A40016832
:10998000C1F848230068C0F8082370474FF4A0725C
:1099900002EB810189B200F039BA2DE9F0410546A8
:1099A0000E464FF4A07000EB860081B228684FF499
:1099B0008034B440984622F07F47C0F808432868B6
:1099C000C0F84843286802F09BFD286800EB860039
:1099D000C0F840752868C0F84443B8F1000F02D0C1
:1099E0002868C0F80443BDE8F0810068D0F8040599
:1099F0007047000070B54379224C44F82320427927
:109A0000241D04EBC202204B1579204A9A1AD30870
:109A10002DB10824022000EB03401DA12EE00268B6
:109A20000D88C2F8085590F904208978002A4FEA79
:109A3000411106DA02F00F0202F1E02282F8141D51
:109A400003E002F1E02282F8001490F904100122F0
:109A500001F01F0502FA05F54909890001F1E0212D
:109A6000C1F80051417904EBC1010A71417944F810
:109A700031000320002400EB03400EA102F09EFB06
:109A8000204670BDDC2C0020BC16030064160300C9
:109A900052544320696E7374616E636520616C7209
:109AA0006561647920696E697469616C697A65645D
:109AB0002E0000005254433A20696E697469616C4B
:109AC000697A65642E00000090F90400012100F01D
:109AD0001F0291404009800000F1E020C0F8001210
:109AE00070470A46022100F017B94FF4827100F066
:109AF0008DB9006801210160704700680121416053
:109B000070472DE9F05F07460C464FF4A07000EB5C
:109B100084001FFA80FA38684FF48036A6409B46CE
:109B200022F07F45C0F848633868C0F80863386899
:109B3000D0F8048500EB8402D2F84095C2F8408545
:109B40005146386802F0DCFCA9EB080020F07F40A9
:109B5000012806D1102002F0CFFF5146386802F0EC
:109B6000CFFC3868D0F80485C0F84463A5EB080141
:109B700021F07F413868012900EB840010D0C0F843
:109B800040553868D0F804156FF07F4C6A1A521EA1
:109B900022F07F42ACEB0B03934217D362B118E083
:109BA0006D1CC0F84055102002F0A6FF3868D0F8B0
:109BB000040540450AD10CE000EB84006D1CC0F8A0
:109BC00040553868D0F80405884202D00D20BDE821
:109BD000F09F01223146384600F09EF80020F6E75B
:109BE0000449042048724FF0A0411020C1F80C0530
:109BF000FDF768BDE02A002010B51B2002F0F3F845
:109C000000280FD108488068FEF7BEFA0748C169EE
:109C100011B1012904D101E0012100E00221C1615B
:109C20000021817010BD000058E80200E02A0020E9
:109C300010B503780022072B06D2DFE803F00504F5
:109C40000610202930000A7010BD01230B70038913
:109C50008B818388CB81C06888600A7410BD022222
:109C60000A7002898A818288CA81C2688A60807D7E
:109C7000062802D00020087410BD0120FBE7032253
:109C80000A70C2888A810289CA81C068886010BD52
:109C900004230B70C0888881CA818A6010BD0520AA
:109CA000087010BD70B5064D0646002455F8241006
:109CB00009B130468847641C0A2CF7D370BD0000F8
:109CC0008C88002030B50446006887B00D46806857
:109CD00000281FD018216846FCF7EFFB0195A0680B
:109CE0000590207910B1012810D107E001208DF8EE
:109CF000000020690290E068039005E002208DF8E2
:109D00000000E068000302906069049020688168A8
:109D10006846884707B030BD0368C3F84413002A7B
:109D200002D00068C0F80413704700002DE9F84F16
:109D30000E463449804601EB5001C007097801D036
:109D40000F0901E001F00F074FF000094246012022
:109D50004946FCF778FBDFF8B0A004460D46052F16
:109D60004ED2DFE807F003161B282C00002E47D048
:109D70000121404604F0FAF88DF800906846FEF79D
:109D800009FA5046D0E904120C431543CAE90445C8
:109D900032E00EB1022114E0002112E04EB10321A5
:109DA000404604F0E3F84046BDE8F84F012104F0D6
:109DB00043BC012105E0002E22D1042101E02EB197
:109DC00003214046BDE8F84F04F0D0B800214046DA
:109DD00004F0CCF80021404604F02EFC8DF80090F1
:109DE0006846FEF7D7F95046E243D0E904341A40FA
:109DF00024EA0501CAE904219DF80000FEF7EEF906
:109E0000BDE8F88FE0870020A02C002010B5006886
:109E100042581AB102F074FB012010BD002010BDA1
:109E20000AB101F029BA01F011BA70B50D46044625
:109E3000B0F81414D0F810040122FEF70CFB00B1A6
:109E4000057004F13C0204F5826104F1540072DFF4
:109E500070BD000010B5002821D0114B0022001F5A
:109E6000196803E0814203D80A4649680029F9D1FC
:109E700052B11368841A9C4204D1006818441060DF
:109E8000104602E0506000E0186039B102680B1A19
:109E9000934203D10B681A4402604968416010BDC7
:109EA0008C2D0020406803F05DBC000006484A8805
:109EB000038A9A4207D10A88A2F52063773B02D130
:109EC0008988C91E41827047E02A002010B50949DF
:109ED000094801F05BFA08B1FEF7F2F8F7210648ED
:109EE00001F048FA002803D0BDE81040FEF7E8B8BA
:109EF00010BD0000AD9E02003C2F002070B510B1D7
:109F00004FF4064070BD1A4C0025607B08B16573A4
:109F100001E000F0A1F82078082826D2DFE800F060
:109F20002504080C10251420BDE8704000F022B86C
:109F3000BDE8704000F07EB8BDE8704000F060B849
:109F4000BDE8704000F03CB86088094900EB800033
:109F50003C3901EB80004068BDE8704003F040BB35
:109F60006560BDE8704003F049BB48F20E6070BD0B
:109F7000248A00201149F0B48A1C00200346A1F174
:109F80003C050C18A67A4EB1A37200EB800405EBD9
:109F90008404E66816B9247C012C0AD0401C80B2E7
:109FA0000328EED30B704B804B60F0BC41F61D5084
:109FB00070471080F0BC00F03DB80000248A0020FB
:109FC0000C48418801EB8102A0F13C0101EB8201C8
:109FD000CA6852B1052101700748022181800168D9
:109FE00000230222054801F05DBC0422027049688A
:109FF000F6E70000248A0020182D0020942D002070
:10A0000038B50A49084803240B684268898803EB7D
:10A01000810153880470DB1C00201B0400909B0B03
:10A02000034801F049FD38BD248A0020182D002086
:10A03000942D0020074910B54888091D03F0CCFC79
:10A0400018B1BDE81040FFF7DBBFBDE81040FFF7D7
:10A05000B7BF0000248A0020F0B51F481F49012522
:10A06000067802248B88A0F13C02082E19D2DFE882
:10A0700006F00418181B222F2F170189491C018193
:10A080000021418080F80D1001EB810312F823308C
:10A0900043B100234418491C89B2A3720329F3D3A6
:10A0A0000570F0BD0123F5E742685288D21C1A44BE
:10A0B0008A800470F0BD46880D6806EB860602EBC8
:10A0C000860256680E60556013818C80062100E080
:10A0D00007210170F0BD0000248A0020182D002007
:10A0E00010B50B48FFF781FC094A083AD2E904345D
:10A0F000C018D2E9063244F10001C31A71EB020222
:10A1000004D24FF08072801841F1000110BD0000B0
:10A11000C02C002010B5C0B2FFF788F904460078C3
:10A1200002F0ACFD01466078012801D0012000E07A
:10A13000002090EA010F08D00449D1E90401084346
:10A1400003D1BDE8104004F00DB810BDA02C0020D4
:10A15000428800EB82020C328A4201D90220704709
:10A160008188A1F57F42FF3A06D0018821B180683D
:10A17000401C01D00020704701207047884204D263
:10A180000068401C01D0012070470020704700008B
:10A1900038B5144BC821DA6A40B101280AD0022828
:10A1A0001ED1BDE838401046FCF749BB0020C8234B
:10A1B000009113E05C6B0523B4FBF3F0B4FBF3F503
:10A1C00003FB15435B4203EB830301EBC30100EB8D
:10A1D0008000C0062823000EC9B20093FCF706FADF
:10A1E00038BD0000E02A00202DE9F0412D4F002568
:10A1F00020B17D604FF40640BDE8F081087901226E
:10A2000058B1294E01280CD0264C4FF002080834D2
:10A21000022820D0032841D127E00A7103F0EEF98B
:10A220003AE0002000EB800116F82110022908D046
:10A23000401C80B20328F5D33A707D6041F61D5072
:10A24000DAE700EB800006F8205006EB800040685B
:10A2500003F0C6F920E00D71A4F804800023022267
:10A260001248216801F01EFB16E00D71206803F012
:10A27000B7F90D4923683C31498801EB810206EBAF
:10A280008201D1F804C0C4F800C04B60A3880B81E0
:10A29000A4F8048006F822500028ADD07D6048F272
:10A2A0000D60A9E7102D0020E8890020942D0020E2
:10A2B0000146034802888A4200D00020704700000F
:10A2C000288600202DE9FC5F0E008346DDE90C475F
:10A2D000C6F1000098469246814600D40846012502
:10A2E00003E000BF90FBFAF06D1C5045FADAA84578
:10A2F00000D9454624B1002E01DB780700D5641E45
:10A30000B80702D5B8F1000F0AD0F80708D13CB160
:10A31000A54205D220215846641EFFF743F8F6E710
:10A32000002E02DA4E462D2102E0780703D52B21BC
:10A330005846FFF737F807F0030002280BD1B8F1B1
:10A34000000F08D13CB1A54205D230215846641E09
:10A35000FFF728F8F6E7CDE9004743465246314675
:10A36000584603F011FFBDE8FC9F0246002012682A
:10A37000530713D502F00300012802D002280CD1A4
:10A3800005E0C2F383100B68801C184404E002232C
:10A39000086803EB92521044086001207047F8B53A
:10A3A0000E4604464FF48C7102F03FFB00281AD091
:10A3B0000025C4F81851D4F818010090F07F3446F5
:10A3C000FF2806D0A17F11B101F006FD01E001F0E8
:10A3D00019FD65772572D4E9002101B004F1080068
:10A3E000BDE8F0401047F8BDF0B58488A518944248
:10A3F00000D82246A41AC288D6189A4200D813461A
:10A40000D21A4B880788BB420CD34088834209D8B4
:10A410008888A04206D3A84204D8C888904201D3B5
:10A42000B04201D90020F0BD0120F0BD800701D06D
:10A4300000207047012070470A4810B5807860B14D
:10A44000002401E0022C06D02046FEF721FD641C0A
:10A45000042CF7D310BD0324F6E7BDE81040FEF747
:10A4600037BD00006C2C002003480179C90702D0D9
:10A470000078FEF767BE70476C2C0020F721018042
:10A4800017214180002101714171FB2181711B2144
:10A49000C1717047014641F28A300422FDF72AB8A3
:10A4A000014641F28E305122FDF724B82DE9FF41DB
:10A4B0000026234800F0EDFE2148001F074600F06B
:10A4C000E8FE204C60680090A56800E000986946AE
:10A4D000284004EB80000C30FFF747FF0028F5D13F
:10A4E00001AA009901EA050304EB8303491CDB6818
:10A4F00042F82030401C00910228F2D3019800F06D
:10A50000030001280BD0022810D10198032101EB90
:10A5100090500099BDF80A6001EB900005E00198A9
:10A52000BDF80A60C0F3831008440090384600F07C
:10A53000ADFE08B10098606004B03046BDE8F0811F
:10A54000FC8F0020E48B0020ACB0FDF7D7FD08B1F4
:10A55000FDF7B6FD6A490320FEF7AAFD08B1FDF735
:10A56000AFFD69460020FEF7D7FC08B1FDF7A8FD56
:10A5700001F08EFF08B1FDF7A3FD02F087F908B1E5
:10A58000FDF79EFD002469460120009401F0F4FFD0
:10A5900008B1FDF795FD684602F086F808B1FDF7B1
:10A5A0008FFD9DF8080057A120F00F00401C20F0FF
:10A5B000F00010308DF80800162202A87CDF08B1E8
:10A5C000FDF77EFD0094F020ADF800004FF416700A
:10A5D0000194ADF80200ADF804404FF4C870ADF836
:10A5E000060068467ADF08B1FDF76AFDFFF76EFCEA
:10A5F0004A48019001A94A4800F08DFF08B1FDF7D3
:10A600005FFD4848009069464748FEF749FB08B19E
:10A61000FDF756FDAC216846FBF74FFF02208DF891
:10A6200000008DF8024005208DF803000120ADF8F0
:10A630004C003D498DF87C004FF448702C39229035
:10A64000149144F250602390384829903448694668
:10A650000C30FDF733FF08B1FDF732FD3048012122
:10A660000C30FDF728FF1C216846FBF726FF4FF44E
:10A67000A030CDE900404FF4F020029003208DF887
:10A680000C002B4805902B480690ADF80E408DF835
:10A6900010406846FEF7F8F808B1FDF711FD0120FB
:10A6A0003FDFFDF7B5FD042001F060FB052001F060
:10A6B0005DFB4FF0A0461020C6F8080506F5A16620
:10A6C000FCF722F9FCF76EF9174D443DE872FCF7F0
:10A6D00060F92873FCF73EF910207060E87A0428CE
:10A6E00000D9EC720021E87A03F0A8FDA863FDF719
:10A6F00003FCFBF771FF00BF03F0FAFBFCE700006F
:10A700000D9002004D6F74696F6E2D506F776572FA
:10A7100065642045696E6B5461670000FDC40200EA
:10A72000502F00200DD30200242B002039D302002B
:10A7300065D3020083970200F0B50B30154D20F071
:10A7400007010024144A0FE003688B420BD38B42AD
:10A7500005D95E1A43184768C3E9006700E04368FB
:10A76000136002C004E0021D10680028ECD12046EE
:10A77000002802D1286808B10020F0BD064A074829
:10A780001060074A121A22F00702C0E900240120D3
:10A790002860D7E7902D00208C2D00209492002077
:10A7A00090B2002070B5144682880E460546208877
:10A7B000111D0144921C994201D8FE2A01D90C2096
:10A7C00070BD521C32542088FF21401C80B2208072
:10A7D00031542088401C80B220808119288803F0E1
:10A7E000CDFC2188084480B22080AA8842B1A968A3
:10A7F00041B13044FBF73AFE2088A9880844208004
:10A80000002070BD072070BD2DE9F047C5881E1DD2
:10A81000B6FBF5F78946B6FBF5F1044605FB176C68
:10A82000407916686843DDF820A0F718001F8742BA
:10A8300000D9C61A166001E02468491E0029FBD120
:10A84000A5EB0C078846B74216D818E004EB0C00BD
:10A85000001D09EB0803BAF1000F3A4602D0014689
:10A86000184600E01946FBF701FE2468F61B4FF07E
:10A87000000CB844B54201D9374600E02F46002EFF
:10A88000E4D1BDE8F087000070B504263046FFF73C
:10A8900053FF0E4900240A5D0255D20700D1254618
:10A8A000641CE4B2B442F6D3425D521E4A55032DF5
:10A8B00008D0421929445278521C4A70BDE87040B1
:10A8C000FFF7C8BA0278521C0A70F7E7482C00203C
:10A8D00070B504263046FFF72FFF0F4900240A5DAC
:10A8E0000255D20700D12546641CE4B2B442F6D327
:10A8F000425D521E4A5555B14219294412F8012CA5
:10A90000521C01F8012CBDE87040FFF7A3BAC278D1
:10A91000521CCA70F7E70000482C002030B50246F0
:10A9200051B101F0BFFC0021074C08E034F82130A0
:10A930001568AB4202D11160002030BD491C814234
:10A94000F4D3052030BD0000000000002DE9F84FD1
:10A950004FF0090B5C4600275120FFF7EDFEDFF8B2
:10A96000C0A18446002101EBC102002002EB0A09CC
:10A9700004FB01F319F800200CEB0008042A03F88B
:10A98000082001D0062A01D10E460546022A01D12F
:10A990007F1CFFB2401CC0B2A042EBD3491CC9B21D
:10A9A0005945E0D3701C04FB00F10CEB05000A5C78
:10A9B000012A7DD04FF0040E4FF000094FF0030B39
:10A9C000AAB906EBC60808EB0A0202EB050888F8EC
:10A9D00009E004FB06F818F80030042B01D102F856
:10A9E000059018F80030062B01D102F805B00A5C7A
:10A9F000032A12D106EBC608D04408EB0502062351
:10AA0000537204FB06F2135C042B01D108F8059085
:10AA1000125C062A01D108F805B00A5C022A3DD171
:10AA2000B31C04FB03F20092125CC2B906EBC6032E
:10AA300003EB0A0253194FF0020883F809E083F888
:10AA4000128004FB06F818F80030042B01D102F83C
:10AA5000059018F80030062B01D102F805B0009AD5
:10AA6000125C032A1AD106EBC60808EB0A0202EBB5
:10AA70000508052388F809E088F8123004FB06F879
:10AA80007F1E18F80030FFB2042B01D102F80590A8
:10AA900018F80030062B01D102F805B0095C052931
:10AAA00037D1B11C04FB01FE1EF80010C9B900E04B
:10AAB0002FE006EBC60303EB0A0808EB05010622AC
:10AAC0004A7202228A7404FB06F17F1C0A5CFFB200
:10AAD000042A01D108F80590095C062901D108F87B
:10AAE00005B01EF80010032913D106EBC60202EBD5
:10AAF0000A014A1906235372052374439374225C96
:10AB0000042A01D101F80590205C062801D101F842
:10AB100005B06046FFF79EF93846BDE8F88F0000A3
:10AB20001C5E00202DE9FC5F4FF0090B5D460027FD
:10AB30005120FFF701FEDFF8FCA1002202EBC20C5E
:10AB40000CEB0A09002105FB02FC00BF19F80130DB
:10AB500000EB0108042B0CF8083001D0062B01D1C2
:10AB600016460C46022B01D17F1CFFB2491CC9B20C
:10AB7000A942EBD3521CD2B25A45DFD305FB0601E2
:10AB8000621E8B5C012B7CD04FF0040E4FF000094D
:10AB90004FF0030BDBB906EBC608D04408EB040307
:10ABA00000EB040C03F801EC05FB06F3CDF800C044
:10ABB00013F80CC0BCF1040F01D108F80490DDF8C3
:10ABC00000C013F80C30062B01D108F804B08B5CE0
:10ABD000032B1DD106EBC608D04408EB04034FF04D
:10ABE000060C03F801CC05FB06F300EB040CCDF8D2
:10ABF00000C013F80CC0BCF1040F01D108F8049098
:10AC0000DDF800C013F80C30062B01D108F804B0B1
:10AC10008B5C022B47D1A31E0193CB5CFBB906EBE7
:10AC2000C608D04408EB04034FF0020C03F801EC13
:10AC300003F802CC05FB06F300EB040CCDF800C0D2
:10AC400013F80CC0BCF1040F01D108F80490DDF832
:10AC500000C013F80C30062B01D108F804B0019B9A
:10AC6000CB5C032B1FD106EBC608D04408EB0403D2
:10AC70004FF0050C03F801EC7F1E03F802CCFFB285
:10AC800000E051E005FB06F300EB040E13F80EC0E4
:10AC9000BCF1040F01D108F8049013F80E30062B14
:10ACA00001D108F804B08A5C052A3DD1A4F1020E56
:10ACB00011F80E20EAB906EBC60353441A194FF0F7
:10ACC000060C02F801CC4FF0020C02F802CC05FB96
:10ACD00006F800EB040C7F1C18F80C20FFB2042AC5
:10ACE00001D103F8049018F80C20062A01D103F8CA
:10ACF00004B011F80E10032916D106EBC60202EBC0
:10AD00000A010A19062302F8013C052302F8023C55
:10AD100075430219AB5C042B01D101F80490AA5CC5
:10AD2000062A01D101F804B0FFF794F83846BDE8CF
:10AD3000FC9F00001C5E00202DE9FC5F4FF0090B1A
:10AD40005D4600275120FFF7F7FCDFF8F8A100224D
:10AD500002EBC20C0CEB0A09002105FB02FC00BF50
:10AD600019F8013000EB0108042B0CF8083001D071
:10AD7000062B01D116460C46022B01D17F1CFFB2D7
:10AD8000491CC9B2A942EBD3521CD2B25A45DFD3F7
:10AD900005FB0601621C8B5C012B7CD04FF0040E7E
:10ADA0004FF000094FF0030BDBB906EBC608D044A7
:10ADB00008EB040300EB040C83F801E005FB06F349
:10ADC000CDF800C013F80CC0BCF1040F01D108F895
:10ADD0000490DDF800C013F80C30062B01D108F800
:10ADE00004B08B5C032B1DD106EBC608D04408EBE6
:10ADF00004034FF0060C83F801C005FB06F300EBDB
:10AE0000040CCDF800C013F80CC0BCF1040F01D144
:10AE100008F80490DDF800C013F80C30062B01D1BF
:10AE200008F804B08B5C022B47D1A31C0193CB5CC8
:10AE3000FBB906EBC608D04408EB04034FF0020C44
:10AE400083F801E083F802C005FB06F300EB040C75
:10AE5000CDF800C013F80CC0BCF1040F01D108F804
:10AE60000490DDF800C013F80C30062B01D108F86F
:10AE700004B0019BCB5C032B1FD106EBC608D0446A
:10AE800008EB04034FF0050C83F801E07F1E83F804
:10AE900002C0FFB200E04FE005FB06F300EB040E3A
:10AEA00013F80EC0BCF1040F01D108F8049013F898
:10AEB0000E30062B01D108F804B08A5C052A3BD17C
:10AEC00004F1020E11F80E20EAB906EBC603534452
:10AED0001A194FF0060C82F801C04FF0020C82F8EC
:10AEE00002C005FB06F800EB040C7F1C18F80C20D0
:10AEF000FFB2042A01D103F8049018F80C20062AA6
:10AF000001D103F804B011F80E10032914D106EB97
:10AF1000C60202EB0A010A19062353700523937037
:10AF200075430219AB5C042B01D101F80490AA5CB3
:10AF3000062A01D101F804B0FEF78CFF3846BDE8BF
:10AF4000FC9F00001C5E00202DE9F84F4FF0090B1C
:10AF50005C4600275120FFF7EFFBDFF8C8A18446CD
:10AF6000002101EBC102002002EB0A0904FB01F3FE
:10AF700019F800200CEB0008042A03F8082001D07F
:10AF8000062A01D10E460546022A01D17F1CFFB2D6
:10AF9000401CC0B2A042EBD3491CC9B25945E0D312
:10AFA000701E04FB00F10CEB05000A5C012A7DD049
:10AFB0004FF0040E4FF000094FF0030BAAB906EB57
:10AFC000C60808EB0A0202EB050808F809EC04FBC6
:10AFD00006F818F80030042B01D102F8059018F893
:10AFE0000030062B01D102F805B00A5C032A13D108
:10AFF00006EBC608D04408EB0502062302F8093C1C
:10B0000004FB06F2135C042B01D108F80590125CD6
:10B01000062A01D108F805B00A5C022A3DD1B31E08
:10B0200004FB03F20092125CC2B906EBC60303EB09
:10B030000A0253194FF0020803F809EC03F8128CC6
:10B0400004FB06F818F80030042B01D102F8059033
:10B0500018F80030062B01D102F805B0009A125CF6
:10B06000032A1AD106EBC60808EB0A0202EB050810
:10B07000052308F809EC08F8123C04FB06F87F1ECB
:10B0800018F80030FFB2042B01D102F8059018F82F
:10B090000030062B01D102F805B0095C05293BD12F
:10B0A000B11E04FB01FE1EF8001000E034E0C9B937
:10B0B00006EBC60303EB0A0808EB0501062201F8BC
:10B0C000092C022201F8122C04FB06F17F1C0A5CF9
:10B0D000FFB2042A01D108F80590095C062901D1C4
:10B0E00008F805B01EF80010032915D106EBC602BA
:10B0F00002EB0A014A19062302F8093C05237443AE
:10B1000002F8123C225C042A01D101F80590205C6F
:10B11000062801D101F805B06046FEF79BFE3846CF
:10B12000BDE8F88F1C5E0020F8B50F460178144684
:10B130000546012901D1687830B12088821C9A42E5
:10B1400032D8012902D006E00720F8BD6978014411
:10B15000891C994228D8181A801E86B2ADF8006062
:10B160002188B81C084469467DDF0028EDD1297884
:10B17000022904D06878BDF80020904205D3BDF8BC
:10B180000000B04201D809200AE00820012905D1B9
:10B190006978B14202D8ADF8001001E0ADF8006066
:10B1A000BDF80010FE2901D90C20F8BD2288491CE9
:10B1B000B9542188491C89B2218078542088401CC8
:10B1C0002080BDF80010084420800020F8BD10B594
:10B1D00031B1B2FBF3F403FB14241CB1092010BD00
:10B1E0000E2010BD01600021416081608281C38119
:10B1F000084610BD70B50C460546FBF70BF8002855
:10B2000002D021882868084470BD10B50A88498892
:10B210008A4203D1FBF740F8012010BD002010BD89
:10B2200070B50C460546FBF71AF8002802D0618875
:10B230002868084470BD10B50A8849888A4203D13D
:10B24000FBF704F8012010BD002010BD01F01F0322
:10B2500001229A40D243490900EB8100114600F0D7
:10B2600021B84A0950F8220001F01F020121914043
:10B27000084000D00120704701F01F0301229A40CE
:10B28000490900EB8100114600F01CB8002100F0D4
:10B290000FB8012100F016B808B56A46FBF751F85F
:10B2A000009808BD08B56A46FBF731F8009808BD5C
:10B2B00008B56A46FBF72BF808BD08B56A46FBF7E8
:10B2C0000DF808BD08B56A46FBF714F8009808BDEC
:10B2D00008B56A46FBF742F8009808BD38B5044641
:10B2E00000258DF800506846FCF754FF216862681D
:10B2F000086890420ED9401E08600178238AE268EF
:10B3000001FB0325227A2168101AC0B20A79824211
:10B3100000D208719DF80000FCF760FF284638BD98
:10B3200038B5054600208DF800000C466846FCF74D
:10B3300031FFE868298A201AB0FBF1F12A68106809
:10B34000431C136001709DF80000FCF747FF38BDF7
:10B35000C20800F007030120895C9840084070474C
:10B3600010B5C20800F00703885C01249C4020430C
:10B37000885410BD28B1A1F11702E12A03D3072098
:10B3800070470E20704701800020704710B560B1F3
:10B390000161F72120F8021B20F8021BFB2100F8B5
:10B3A000021BFFF76BF8002010BD0E2010BD00003F
:10B3B000F0B5858893B00C46002D39D10188002660
:10B3C0003F4F24293BD006DC102909D011290CD08D
:10B3D000232958D14FE03A290BD0552953D129E0E0
:10B3E0000146204602F002F84DE0A01DFFF746F8A6
:10B3F00049E02246408934F8061F814200D80846B9
:10B400006080172800D217206080106970B16079C1
:10B4100060B1D7E90001CDE90301ADF80E506088B5
:10B42000ADF81000136903A910469847667126719C
:10B4300013B0F0BD0146204602F02CF823E0011DB8
:10B440002C2206A8FBF712F8BDF81800BDF81C2046
:10B4500004EBC0014A732269AAB1D7E90423CDE9FC
:10B460000423ADF81200487B8DF8140022692046B1
:10B4700004A9904707E0017A207B884200D2014668
:10B480002846FEF7A5F9A07A0028D1D0E188284601
:10B49000A5DF012580B11128CAD001F0E7FA0246E4
:10B4A0000848094913B0401AC00805EB0040BDE840
:10B4B000F04006A100F086BEA672E572B8E7000073
:10B4C000A80A0300641603006416030073645F6235
:10B4D0006C655F67617474635F65786368616E67EC
:10B4E000655F6D74755F7265717565737428292069
:10B4F00072657475726E65642025732E00000000FD
:10B5000020B10278DE2A03D0082070470E20704751
:10B5100041800020704760B159B10278DE2A0AD01C
:10B5200009684160DE2101704FF6FF714180002003
:10B5300070470E207047082070477FB505460029E8
:10B540004DD0002D4BD008780C46DE2847D1A88876
:10B550006188884202D1204603F05CF828880128DF
:10B5600025D002283BD011283AD0512837D135F8C0
:10B57000040F6188884232D1A978A81C02292ED1F3
:10B58000017A042903D0062901D0052927D10021F9
:10B59000009102228DF8002001914FF4C0720291B7
:10B5A0000391ADF80420007A05280FD010E0297A25
:10B5B0002046012913D1A988428891420FD1012147
:10B5C000017204B0BDE8704003F024B8ADF8041077
:10B5D00028886946B0DF002801D0616888477FBDB0
:10B5E000A88861888842FAD14FF6FF7060807FBDDD
:10B5F00000F180400068002800D00120704708B5A5
:10B6000000F18040002101600068009008BD00004A
:10B610002DE9F041040007D0044E4FF47A47751C21
:10B620003846A847641EFAD1BDE8F08110FC02003C
:10B6300070B50B4C207808B185250FE00020A06084
:10B6400060602061E060074801F030FA054601F0D3
:10B6500069F908B901F014FA01202070284670BD7C
:10B66000D48600208996020038B500258DF8005058
:10B670006846FCF78FFD074CE068401EE060E0681C
:10B6800010B901F023FAA5709DF80000FCF7A6FDA3
:10B6900038BD0000D48600200FB408B503990029F6
:10B6A00004D004AA00926A4600F00FF801B05DF8D9
:10B6B00014FB10B582680446002A05D0D4E90403BF
:10B6C000216898470020A06010BD2DE9FC479146F5
:10B6D0000C00804676D014F8011B39B125290ED014
:10B6E0004046FDF75FFE20780028F4D198F80C0062
:10B6F000002867D04046BDE8FC47FFF7DABF0020CE
:10B70000012221782B291BD02D2902D0302908D1E4
:10B7100002E040F0010001E040F00200641C002A59
:10B72000EFD100252A290ED02178A1F130020A2A72
:10B7300011D205EB850201EB4205641C303DF1E7B7
:10B7400040F00400EAE7D9F800100B1DC9F80030FA
:10B750000968641C0D44217800232E290BD114F8AC
:10B76000011FA1F130020A2A05D203EB830201EB8B
:10B770004203303BF3E76C290DD068290BD06929CF
:10B7800021D00BDC252918D0582931D063290ED0BF
:10B79000642915D117E014F8011FECE7702969D06E
:10B7A000732932D075291BD0782909D120E0D9F826
:10B7B0000000011DC9F8001001784046FDF7F2FDB8
:10B7C000641C90E76CE0D9F800100A1DC9F800204D
:10B7D0000968CDE900500A224046FEF773FDEFE705
:10B7E000D9F800100A1DC9F8002009680A2206E0ED
:10B7F000D9F800100A1DC9F8002009681022CDE907
:10B800000050404602F0C0FCDAE7D9F800100027EB
:10B810000A1DC9F800200E68C00705D112E0404695
:10B82000761C7F1CFDF7BEFD31780029F7D104E0BE
:10B83000202140466D1EFDF7B5FDBD42C0D9002D4B
:10B84000F6D1BDE74EB13046FAF742FE074604E0B6
:10B85000202140466D1EFDF7A5FDBD4206D9002DF5
:10B86000F6D103E04046761CFDF79CFD31780029B7
:10B87000F8D1A5E7D9F80000011DC9F80010056846
:10B8800030214046FDF78EFD78214046FDF78AFDC8
:10B8900008200021CDE90001034610222946B0E727
:10B8A000BDE8FC872DE9F843884605002C482D4962
:10B8B0009946A0EB01004FEAD0004FF00101164677
:10B8C00001EB004424D0286800282CD0002E34D06E
:10B8D000696840464FF010070A68511E11EA080FC8
:10B8E00011D1014672432846FCF723FB00282ED0D5
:10B8F00028684B463246046901B041462846A446B2
:10B90000BDE8F04360472046174B18A2009722E09D
:10B910000E2000902046144B1EA220A100F061FCD6
:10B920000E20BDE8F8830820009020460E4B26A28A
:10B930001AA100F056FC0820F3E7092000902046E9
:10B94000094B24A215A100F04CFC0920E9E7064BA5
:10B95000214A2046009711A100F043FC1020E0E7A7
:10B96000D416030064160300EB0C030061646472D8
:10B970005F69735F706167655F616C69676E65645D
:10B9800028705F66732C20706167655F6164647204
:10B9900029000000705F66730000000025732063BB
:10B9A0006865636B206661696C656420696E20253B
:10B9B00073282920776974682076616C756520305A
:10B9C0007825782E00000000705F66732D3E705F52
:10B9D000617069006C656E00E41203000448012187
:10B9E0004174007A08B100207047012070470000C0
:10B9F000D08A0020012801D0032808D10449002260
:10BA000001284A7400D00020087401F0FDBE704780
:10BA1000D08A002070B50246022801D0032A45D101
:10BA2000234C207A002841D0012833D0022831D17C
:10BA300020480023022A006802D0032A2AD11BE0F2
:10BA4000E360017911B1012924D10DE0D0E9056548
:10BA5000711B4FF48056B14200D3314629448161B5
:10BA60004569A9420ED015E00169491C016142698E
:10BA700091420FD1237213E0E168491CE16008296B
:10BA800008D9E3602372022A0AD00D21FEF71AF9C1
:10BA900001F05EFE607C28B1BDE8704000F048BF58
:10BAA0000021F3E7BDE8704001F0AEBE70BD0000BC
:10BAB000D08A0020202D00202DE9F84F90468A469C
:10BAC0003A493B4A0500A1EB02014FEAD1014FF090
:10BAD0000102DDF828901E464FF00E0002EB0144F3
