:020000040002F8
:10600000D8560020C1630200C9630200CB630200BE
:10601000CD630200CF630200D163020000000000E4
:10602000000000000000000000000000D363020038
:10603000D563020000000000D7630200D9630200AC
:1060400035690200DB630200F56D0200C9690200D8
:10605000DB630200DB630200D1670200DB63020046
:10606000DB630200DB630200DB630200DB63020030
:10607000DB630200DB630200DB630200DB63020020
:10608000DB6302008D690200DB630200DB63020058
:10609000DB630200DB630200D56A0200DB630200FF
:1060A000DB630200DB630200DB630200DB630200F0
:1060B000DB630200DB630200000000000000000060
:1060C000DB630200DB630200DB630200DB630200D0
:1060D000DB630200DB630200DB6302000000000000
:1060E00000000000000000000000000000000000B0
:1060F00000000000000000000000000000000000A0
:10610000000000000000000000000000000000008F
:10611000000000000000000000000000000000007F
:10612000000000000000000000000000000000006F
:10613000000000000000000000000000000000005F
:10614000000000000000000000000000000000004F
:10615000000000000000000000000000000000003F
:10616000000000000000000000000000000000002F
:10617000000000000000000000000000000000001F
:10618000000000000000000000000000000000000F
:1061900000000000000000000000000000000000FF
:1061A00000000000000000000000000000000000EF
:1061B00000000000000000000000000000000000DF
:1061C00000000000000000000000000000000000CF
:1061D00000000000000000000000000000000000BF
:1061E00000000000000000000000000000000000AF
:1061F000000000000000000000000000000000009F
:10620000DFF80CD000F02EF900480047118802009A
:10621000D856002030B450E8012F93B2C4892344EB
:106220008489A34228BF1B1B0489A34202BFBFF37A
:106230002F8F002007E0C3EA020340E80134002C5E
:10624000E9D14FF001000A6030BC704750E8012FDF
:10625000C2EA024240E801210029F7D1704730B478
:1062600050E8022F1FFAA2F3C488A34202BFBFF373
:106270002F8F00200DE0C48923448489A34228BFC6
:106280001B1BC2EA034340E80234002CE8D14FF064
:1062900001000A6030BC704750E8022FC2EA224277
:1062A00040E802210029F7D17047034653E8022F46
:1062B000D988B2EB324F4FF0000017BF92B241EADB
:1062C000014142EA014104E05A68B2EB324F08BF93
:1062D000012043E80212002AE8D1704730B4044696
:1062E00054E8000F0D4644E80053002BF8D1156028
:1062F00030BC704730B4044654E8000F40EA010552
:1063000044E80053002BF7D1156030BC704730B41F
:10631000044654E8000F00EA010544E80053002B4E
:10632000F7D1156030BC704730B4044654E8000F14
:1063300080EA010544E80053002BF7D1156030BC1A
:10634000704730B4044654E8000F00EB010544E800
:106350000053002BF7D1156030BC704730B40446B1
:1063600054E8000FA0EB010544E80053002BF7D1DF
:10637000156030BC704770B404464FF0000054E81C
:10638000006F0D68AE4207BF44E80023012044E8D7
:1063900000630E60002B1CBF0020F0E770BC70474C
:1063A00030B4044654E8000F88422CBF451A054615
:1063B00044E80053002BF5D1156030BC7047000055
:1063C0000648804706480047FEE7FEE7FEE7FEE78F
:1063D000FEE7FEE7FEE7FEE7FEE7FEE7D96A02001A
:1063E00001620200202A04DB203A00FA02F10020B8
:1063F00070479140C2F1200320FA03F31943904003
:10640000704700000048704758D5020040EA010379
:106410009B0703D009E008C9121F08C0042AFAD25A
:1064200003E011F8013B00F8013B521EF9D270471E
:10643000D2B201E000F8012B491EFBD270470022C6
:10644000F6E710B513460A4604461946FFF7F0FF73
:10645000204610BD421C10F8011B0029FBD1801AF8
:1064600070470000064C074D06E0E06840F001036D
:1064700094E8070098471034AC42F6D3FFF7C4FE07
:1064800088DC0200A8DC020070B58C1810F8015BF3
:1064900015F0070301D110F8013B2A1106D110F8BD
:1064A000012B03E010F8016B01F8016B5B1EF9D1C1
:1064B0002B0705D40023521E0DD401F8013BFAE747
:1064C00010F8013BCB1A921C03E013F8015B01F8B2
:1064D000015B521EF9D5A142D8D3002070BD000047
:1064E0002DE9F05FC7080A98002607EBD0009A460E
:1064F0009046A0F1010B0C46FF2901D9260ACCB227
:1065000001EB0A056D1E4FF00009FF2D02D94FEA7D
:106510001529EDB2442000F038F9F8B200F045F941
:106520000BF0FF0000F041F9452000F02EF9E0B239
:1065300000F03BF9F0B200F038F9E8B200F035F9BC
:1065400009F0FF0000F031F94E2000F01EF9F8B21A
:1065500000F02BF94F2000F018F9E0B200F025F917
:10656000F0B200F022F9242000F00FF90A9800247C
:106570000AFB00F507E000BF98F8000000F015F9ED
:1065800008F10108641CB4EBD50FF5D3BDE8F05F4A
:1065900000F0BFB82DE9F047C708089A4FF000088F
:1065A00007EBD200A0F101090C46FF2902D94FEAFE
:1065B0001428CCB2CD1800266D1EFF2D01D92E0A4D
:1065C000EDB2442000F0E1F8F8B200F0EEF809F086
:1065D000FF0000F0EAF8452000F0D7F8E0B200F044
:1065E000E4F808F0FF0000F0E0F8E8B200F0DDF8B1
:1065F000F0B2BDE8F04700F0D8B82DE9F047C70881
:106600000026DDF82090984615460C46FF2901D952
:10661000260ACCB24E2000F0B8F8F8B200F0C5F867
:106620004F2000F0B2F8E0B200F0BFF8F0B200F096
:10663000BCF8242000F0A9F8002408FB09F604E0C7
:10664000287800F0B2F8641C6D1CB4EBD60FF7D3B9
:10665000BDE8F04700F05DB810B5162002F00DFF60
:10666000642002F0C3FC162002F015FF642002F043
:10667000BDFC00F093F9122000F087F800F08EF9CD
:10668000012000F082F8C72000F08FF8002000F011
:106690008CF8002000F089F8112000F076F8012035
:1066A00000F083F8442000F070F8002000F07DF83E
:1066B000182000F07AF8452000F067F8C72000F0B5
:1066C00074F8002000F071F8002000F06EF800204F
:1066D00000F06BF83C2000F058F8052000F065F859
:1066E000182000F052F8802000F05FF84E2000F0F3
:1066F0004CF8002000F059F84F2000F046F8C72071
:1067000000F053F8002000F050F8BDE8104000F011
:1067100045B910B5222000F038F8FF2000F045F808
:10672000202000F032F8BDE8104000F037B92DE924
:10673000F04104460546242000F027F8002741F2E6
:106740008836207800F031F8641C7F1CB742F8D3FB
:10675000262000F01AF80024287800F026F8641C9F
:106760006D1CB442F8D3BDE8F041AFF3008010B522
:10677000222000F00AF8F72000F017F8202000F09F
:1067800004F8BDE8104000F009B910B50446172020
:1067900002F073FE182002F070FE204600F07AF935
:1067A000BDE81040182002F076BE10B5044618204F
:1067B00002F071FE182002F060FE172002F06BFE5E
:1067C000204600F067F9BDE81040182002F063BED3
:1067D0002DE9F04700268AB0DFF85091B0464FF41B
:1067E0008075012437460696284602F08BFE38B1A4
:1067F000D9F80403204203D0284602F079FE26434C
:106800002D1D64007F1CADB2082FEDD34FF4BE7474
:10681000204602F077FE48B1204602F069FE46F0BD
:10682000004606AA0121002002F04EFE404D16F05F
:10683000FF0F15D00127002437420DD009EB84014A
:10684000D1F81005D1F81015C0F3042055F8242014
:10685000C1F3014102B190477F00641C082CEBD3C7
:10686000002E5FDA4FF0FF30CDF8108054E0281989
:1068700010F8507F90F9000027F0C008401C3BD072
:1068800007A9404602F05EFA10B34FEA9719404656
:1068900001F0E6F955F820701FB1B9F1030F03D0EC
:1068A00006E0B9F1030F27D104A9404602F052FADD
:1068B0004FF0A04101EB8800D0F8000706A9C0F313
:1068C000014A404602F03EFA18B1BAF1020F03D075
:1068D00012E0BAF1030F0FD1B9F1030F08D1BAF1E9
:1068E000020F1DD00221404602F0B6FD761CF6B222
:1068F00017B149464046B847641C042CB7D3002E54
:1069000010D06A460121002002F0DEFD06990098B1
:10691000884207D006900498002634460790A6E7E0
:106920000321E0E70AB0BDE8F08700000060004006
:10693000982F002070B54FF48076304602F046FB69
:10694000114CB50560B1304602F047FB0120C5F897
:106950000803607920B90120607121680020884710
:106960004FF48276304602F031FB00280AD03046E0
:1069700002F033FB0220C5F808032168BDE870402F
:106980000120084770BD0000342B00200249024856
:10699000091F096800680847882B002070B500248B
:1069A0004FF0A0454FF4C876D5F81005C00E10F092
:1069B000010F07D00A2002F019FB641CB442F3D384
:1069C000002070BD012070BDF8B51248124E04467B
:1069D0004FF48C7103F075FB00281AD00025C4F821
:1069E0001851D4F818010090F07F3446FF2806D0E3
:1069F000A17F11B102F048FD01E002F053FD65777F
:106A00002572D4E9002101B004F10800BDE8F0408E
:106A10001047F8BD003000404430002000B587B07A
:106A2000182002F0F1FC172002F0EEFC162002F014
:106A3000EBFC00231B2000931A461946019302F039
:106A400053FC182002F027FD162002F024FD0F4B06
:106A50000DF1080C0FCB8CE80F00FF208DF80B0018
:106A60008DF80A001A208DF8090019208DF8080009
:106A700006480023064A02A9083803F003FD00284F
:106A800001D000F001FB07B000BD000010D20200F1
:106A90002DB1020010B50C490C4C012308700022E6
:106AA000227001F50070C0E90013A0F58071C0E903
:106AB00002120146064803F09FFD08B100F0E4FA17
:106AC00020780028FCD010BDA82C00201C2B002012
:106AD00008D2020003F06EBAF0B5B5480023021DDB
:106AE0000178101D01254FF0805406290BD116782E
:106AF000360708D10678C6F30316032E06D0042EF7
:106B000004D0052E02D0062907D00EE0B4F8246385
:106B1000A84FC6F304263E6002E01678360704D17B
:106B20000678C6F30316032E02D0062904D00FE020
:106B3000A24FA14E7E670EE01678360708D1067880
:106B4000C6F30316032E06D0042E04D0052E02D061
:106B5000062907D00EE0D4F84462994FC6F34236B6
:106B60003E6002E01678360704D10678C6F30316B5
:106B7000032E02D0062906D011E0924E376827F086
:106B8000807737600EE01678360708D10678C6F3AE
:106B90000316032E06D0042E04D0052E02D006299B
:106BA0000AD011E04FF08046C6F80C31C6F810311B
:106BB000834E361F336002E01678360704D106781C
:106BC000C6F30316032E02D0062905D00CE07C4F35
:106BD000032664373E600AE01678360704D106784B
:106BE000C6F30316032E02D006290DD014E0764F0B
:106BF00005263E60744E78363560734E0836336035
:106C00003F263F1D3E6002E01678360704D1067825
:106C1000C6F30316052E02D0062957D062E06B4E4C
:106C200036686B4F3E60694E361D36683F1D3E60CC
:106C3000664E083636683F1D3E60644E0C36366838
:106C40003F1D3E60614E103636683F1D3E605F4E10
:106C5000143636683F1D3E605C4E183636685C4F11
:106C600020373E60594E1C3636683F1D3E60574EF9
:106C7000203636683F1D3E60544E243636683F1D30
:106C80003E60524E283636683F1D3E604F4E2C36D1
:106C900036683F1D3E604D4E303636684C4F4037AB
:106CA0003E604A4E343636683F1D3E60474E3836A9
:106CB00036683F1D3E60454E3C3636683F1D3E609F
:106CC000424E403636683F1D3E6002E01678360779
:106CD00008D10678C6F30316032E06D0042E04D07E
:106CE000052E02D0062907D019E0D4F85812394AE7
:106CF00001F04F01116002E0117809070FD100780F
:106D0000C0F30310032803D0042801D0052806D1BE
:106D100031480168C90702D06FF001010160D4F861
:106D20003001062808D1D4F83401062804D12B48B4
:106D3000016841F48061016022487438016841F4BF
:106D400070010160BFF34F8FBFF36F8F4FF01021C1
:106D5000D1F80002002803DBD1F80402002822DA6F
:106D60001F4A15601F480468002CFCD01524C1F888
:106D700000420568002DFCD0C1F8044201680029DA
:106D8000FCD0136001680029FCD0BFF34F8F0D4881
:106D9000F0380168144A01F4E06111430160BFF367
:106DA0004F8F00BFFDE7124910480860F0BD00009A
:106DB000E00F00F0403501400DF0ADBA00C00740D3
:106DC0003C050040FCED00E01056004004040010BB
:106DD00020C50040E40E0040000400403C17004085
:106DE00004E5014000E401400400FA050090D003EE
:106DF0000C2C002001480068004700003C2B0020BC
:106E000002E008C8121F08C1002AFAD17047704773
:106E1000002001E001C1121F002AFBD170470000D1
:106E20000121202803DA81400548014003E0402881
:106E300002DA2038814009B10120704700207047F4
:106E4000FC06FFBD024901200870032000F0CCBD04
:106E5000D82A002030B52548A5B03C2140682490B0
:106E60002348807C8DF892006846FFF7E8FA0220FC
:106E70008DF8000001248DF8024006208DF80300F3
:106E80003C210FA8FFF7DBFA24A81A4D1490ADF8A7
:106E90004C402A1D6846296800F026FA08B100F027
:106EA000F3F8144A0FA80C32A96800F01DFA08B1D3
:106EB00000F0EAF818211EA8FFF7C1FA00208DF8AB
:106EC0008D408DF87840ADF884001F908DF88C00CF
:106ED0004020084920901EAAA1F1130072DF00286B
:106EE00001D000F0D1F825B030BD000060B902003B
:106EF000302C0020EC2A0020064810B501214078F3
:106F000073DF08B100F0C0F8BDE81040002000F0C9
:106F100085BD0000D82A002038B500240E4D05E0BC
:106F2000686810F8340003F04FF9641C2878844234
:106F3000F6D300208DF80000684600F00FF900201D
:106F4000C5E904009DF8000000F02CF903484068F2
:106F5000BDE8384000F0FCB8482B002060D20200A9
:106F600070B50024064D06E06868012110F8340071
:106F700003F04EF9641C28788442F5D3002070BDDC
:106F8000482B0020F8B516460C4605460A2A01D2C1
:106F90000720F8BD03F036FA18B903F0FDF9002810
:106FA000F7D1134F102113487D603C70BE60FFF78E
:106FB00046FA0020C7E904000F4E0DE005EBC400BF
:106FC0003168009181788DF8011000780B4A69468C
:106FD00003F070F90028DCD1641EE4B2EED2BDE803
:106FE000F84005480021064A001D00F05FB8000087
:106FF000482B00208830002060D202003D8402002F
:107000003180020072B602F01FFD00BF02F060FB8B
:107010000028FBD111481249401AC408012000EB96
:10702000044010A102F06EFC11480068C00700D0B7
:1070300000BE022000EB04400EA102F063FCBFF38F
:107040004F8F0B48E43801680E4A01F4E0611143A8
:107050000160BFF34F8F00BFFDE7000018DD0200A5
:10706000B8DC0200466174616C206572726F720058
:10707000F0ED00E053797374656D2072657365748B
:10708000000000000400FA050EB500210091CDE9D2
:1070900001106A4644F20100FFF7B4FF0EBD000084
:1070A000014801F02CB80000682B00203AB10068BC
:1070B0000129426100D000210161002070470720B2
:1070C0007047000038B511480823582241680091E4
:1070D0000F49006801F05DFD002815D10D4A694691
:1070E0000D4801F011F804000ED101210A4801F009
:1070F00082F80123094A1946074800F0D8FF0649DB
:10710000012008390870204638BD000068D202000E
:10711000A830002069AD0200682B0020FFFF7F002F
:1071200070B50446007F0D4608B1002070BDA26115
:1071300001F06AF9401941F10001C4E90201206936
:1071400000B125612146BDE87040002004F018B967
:10715000014600200877012004F012B930B5EFF3A2
:10716000108172B60D4A9468012324B1037000297E
:1071700000D162B630BD93604FF0E023D3F8805168
:10718000074C25401560C3F88041D3F88441546012
:107190005A17C3F8842100220270E8E7003100206A
:1071A000FC06FFBD0B498A68002A11D000280FD1C8
:1071B000EFF3108072B60B684FF0E022C2F8003196
:1071C0004B68C2F8043100228A60002800D162B600
:1071D00070470000003100202DE9F04106460868A4
:1071E0000C46411C4FF0A0474FF0010506D005FAB0
:1071F00000F1C7F80815206802F010F96068411C1A
:1072000002D0002102F0EEF83168A069C1F824052F
:10721000607D227D31681043C1F86C05D4E900120D
:107220003068C0F81425C0F80C15207D012815D150
:10723000A068411C02D0002102F0D4F8E068411C93
:1072400005D08540C7F80855E06802F0E7F8D4E9B2
:1072500002123068C0F80825C0F81015BDE8F081AA
:107260002DE9F041064608680C46411C4FF0A04746
:107270004FF0010506D005FA00F1C7F8081520689F
:1072800002F0D6F86068411C02D0002102F0B3F889
:107290003168A069C1F82405607D217D326808430A
:1072A000C2F86C05D4E900123068C0F80C15C0F8BB
:1072B0001425207D012815D1A068411C02D0002191
:1072C00002F099F8E068411C05D08540C7F80855E0
:1072D000E06802F0ADF8D4E902123068C0F8082581
:1072E000C0F81015BDE8F0812DE9FC47002517888E
:1072F0000646158090F82D001446894630B13A466E
:107300002146484600F0FCF8051E09D1B0784FF040
:107310000C0A18B32088C846001DB84202D950464E
:10732000BDE8FC87684679DF0028F9D12088032171
:1073300008F8001020881921401C80B2208008F82D
:1073400000102088401C80B2208000EB0801BDF8AE
:10735000000004F0E4F9218808442080F07802223B
:10736000C8B1218896F9033001F1030C4846BC45A9
:10737000D5D8425421884FF0010C491C89B2218094
:1073800000F801C02188491C89B2218009F8013028
:107390002088401C20807068B8B1218890F90030A6
:1073A00001F1030C4846BC45B9D8425421880A2251
:1073B000491C89B2218042542188491C89B221800C
:1073C00009F801302088401C2080308950B1CDE977
:1073D00000474B460622022106F1080004F054FA49
:1073E000051E9DD1308A50B1CDE900474B4607229A
:1073F000032106F1100004F047FA051E90D1308BEE
:1074000050B1CDE900474B461522142106F1180072
:1074100004F03AFA051E83D1306A30B13B46224669
:10742000494600F03AFD051EDBD1706A30B13B469B
:107430002246494601F0D0FA051ED2D196F82C001A
:1074400038B13B4622464946304603F0D5FD051E7D
:10745000C7D1307838B13B4622464946304601F024
:1074600045FB051EBDD128465AE707B586B0012267
:1074700000230093ADF810200193029303938DF83D
:1074800002204989ADF8001008A9039104A90291CE
:107490006946AEDF09B000BD70B5040012D00146E8
:1074A0001C221448FEF7B2FF1248134D05602068F5
:1074B00050B17ADF002806D1206801682960406851
:1074C000686005E00E2070BD0B487BDF0028FAD114
:1074D00008484FF6FF711438084A20F8041B054984
:1074E000343901600021FFF7E1FD0028EBD00320D3
:1074F00070BD0000EC2E00201E2B0020DDB7020026
:107500007CB5054608880C460930904201D90C200C
:107510007CBD68466DDF0028FAD1218808206854B8
:1075200020881B21401C80B2208029542088401CC8
:1075300080B220802844DDF801100160BDF80510FC
:1075400081802088801D80B220809DF8001049082D
:1075500000D0012129542088401C208000207CBDBF
:1075600038B50188314D044621294BD015DC30480F
:10757000304A1029A0EB02004FEAD0004FF003027E
:1075800002EB004013D011292AD0132943D1002344
:107590001A46852168887FDF1CE03B2942D05229AA
:1075A0003AD0562937D18088132176DF12E022A104
:1075B00002F0A8F9012000F031FA002000F026FACC
:1075C000A18869801F4801F089FC08B1FFF75CFDC4
:1075D000FFF7C6FC00281ED0BDE83840FFF754BDB9
:1075E00019A102F08FF9012000F010FA4FF6FF7098
:1075F0006880FFF791FC08B1FFF746FDBDE8384011
:10760000FFF77ABC00200090A08869468FDF002831
:1076100001D0FFF739FD38BD00231A4619466888A6
:10762000B1DFD7E78088132176DFD3E7D82A00209F
:1076300018DD0200B8DC0200436F6E6E656374658E
:10764000640000005C2C0020446973636F6E6E65FB
:1076500063746564000000002DE9F04701883B4E2B
:1076600040F2F3194FF6FF7510291BD011293ED0B7
:10767000122954D0502946D1C188F289841D9142E3
:1076800041D1618902293ED18688304600F054FFFD
:10769000050038D004F10C0000F078F9A8B32946B1
:1076A00030464EE0C17B8788044601292BD1A8468D
:1076B000284600F041FF050017D02F8000202872D7
:1076C000234843464A460168C5F80A104068C5F891
:1076D0000E0004F1100105F10A0000F0E7FF6872E6
:1076E000F08900280FD129462AE0042013E0808881
:1076F00000F022FF040006D06068FFF729FD08B102
:1077000003F052FC2580BDE8F087FFE76868FFF7CB
:107710001FFD0028F7D0BDE8F04703F045BC87887F
:107720000646384600F008FF0400ECD02B464A46D7
:1077300006F1080104F10A0000F0B8FF607221466A
:107740003846BDE8F04700F0EFBB0000EC2E00200B
:107750001E2B00202DE9F04F044686880188424800
:1077600097B0834610290CD0112950D01030192918
:107770006AD01A2974D1217A0C09042C4DD3012224
:107780004CE0394D083DA868C0430B9069680BA8D0
:1077900001F06AFA0B990CA800F060FB2C220CA9EE
:1077A0006846FEF733FE0027E946A84610E000BF12
:1077B00009EB47005FF00005B0F804A008EB850076
:1077C0005146001D01F024FA6D1C1E2DF6D37F1CBE
:1077D0000098B842ECD8142E05D317B00420BDE8A9
:1077E000F04FFFF751BC3146584601F027FA3146B9
:1077F00008F1040001F022FAE07B012830D017B034
:107800003146BDE8F04F1848001D01F017BA17B017
:107810003146BDE8F04F01F0FBB90022314600F0DF
:10782000EDFD032C01D3012200E000220E48314679
:107830000C3000F0E3FD022C01D3012200E0002215
:1078400009483146083006E0217A002908D1617ADA
:10785000C1F3C002314617B0BDE8F04F00F0CEBD15
:1078600017B0BDE8F08F0000102F002030B58DB0AC
:1078700004462E4B086860610FCB08AD85E80F0009
:1078800004F1120108A862DF00284CD1A07C8DF819
:10789000320041F22350ADF8300022460CA90120FD
:1078A000A8DF00283FD120216846FEF7C8FD41F23D
:1078B0002450ADF80000A07C8DF8020001259DF851
:1078C0000D00ADF8065040F012008DF81150ADF8E3
:1078D00004508DF80D008DF81350208804F10A0231
:1078E000694600F0C5F900281DD120216846FEF741
:1078F000A6FD41F22550ADF80000A07C8DF80200F5
:107900009DF80D00ADF8065040F00A008DF81150BA
:10791000ADF804508DF80D008DF812502088A21C8F
:10792000694600F0A5F90DB030BD000040D202005C
:1079300030B40288502A10D1034630F8062F4C8804
:10794000A2420AD14289012A07D14C69002C04D0F5
:10795000027B9888A44630BC604730BC704707B5AE
:1079600086B0012200230093ADF81020019302930A
:1079700003938DF802204989ADF8001008A90391FE
:1079800004A902916946AEDF09B000BD007800F09D
:10799000010070472DE9FC410646C0074FF0000585
:1079A0000ED0104F00240122385D009500231146AF
:1079B000019501F0ABFC641C042CF4D300F036F804
:1079C000B0070DD5074E0024361D0022305D03237D
:1079D00000951146019501F099FC641C042CF4D328
:1079E000BDE8FC8120D2020007490B5C4FF0A041AA
:1079F000D1F804250120984020EA0203C1F8083597
:107A00001040C1F80C05704720D202000249085C02
:107A1000012101F04EBD000020D202000249085CA5
:107A2000002101F046BD000020D2020010B5002464
:107A30002046FFF7EBFF641C042CF9D310BD0000B7
:107A40002DE9F8430546861C00208DF8000090467D
:107A50000F464FF001096846FFF780FB1B4C20687A
:107A60003860D4E90001401AA16804F21C47081AE2
:107A70000EE00121384601F0F1F800F07BFE0146EE
:107A8000384601F0EBF8D4E90001401AA168081A61
:107A9000401C8642EDD8B8F1000F03D0052065F3F5
:107AA000891002E0062065F39F50A268216811400A
:107AB00004EB8101C8602068304420609DF800001C
:107AC000FFF770FB4846BDE8F8830000B0320020A5
:107AD00070B50D4604460A2902D10D21FFF7F8FFC3
:107AE000A0682268411CA1601554D4E901018142BB
:107AF00004D32046BDE8704001F0FDBA70BD00001F
:107B0000034803C8814201D101207047002070471B
:107B1000B032002070B50D461E491F4A1F4C891A0D
:107B2000C908032202EB01430D2807D001250E28C6
:107B30001DD00F2829D0102815D128E0184618A1EB
:107B400001F0E0FE2A461D496088FFF708FF002883
:107B50001AD0A0F54051023916D0082814D043F2AB
:107B60000141884210D0BDE87040FFF78DBA184639
:107B700013A101F0C7FE052210496088FFF775FCCC
:107B80000220FFF74BFF656070BDE56070BD2561A9
:107B900070BD000018DD0200B8DC0200D82A002009
:107BA00053656E6420627574746F6E2073746174B3
:107BB00065206368616E67652E000000302C002030
:107BC000427574746F6E3220707265737365642EC3
:107BD00000000000034630B50748002104784268E1
:107BE00006E000BF02EBC10005789D4203D0491CAE
:107BF000A142F7DB002030BD482B002005494FF0A3
:107C0000FF32082841F8202002D3084480F8482099
:107C100070470000982F0020F0B54FF0FF3512B1EB
:107C20000023082601E008230C260C4C05E000BFC9
:107C300054F823707F1C04D05B1CB342F8D3284651
:107C4000F0BD26185DB286F8305044F82310002AA3
:107C5000F5D1E11881F84800F1E70000982F0020E5
:107C60000249084490F9300070470000982F002026
:107C70002DE9F0438146887891B090460C4600B9D2
:107C800001208DF83E002088ADF83C0000250095CD
:107C9000607C694603F0F4F96E46A07C711C03F029
:107CA000EFF9E07B00289DF8020002D040F00800C8
:107CB00001E020F008008DF80200217C11B140F0B5
:107CC000100001E020F010008DF80200217B11B1BE
:107CD00040F0010001E020F001008DF80200217D5C
:107CE00009B1022100E0012161F342008DF8020098
:107CF0001C2102A8FEF7A3FB607BC10601D480060D
:107D000017D50E950EAFE07C791C03F0B9F99DF8FC
:107D10003800079720F00F00401C20F0F0001030D2
:107D20008DF838009DF83A0020F00600801C8DF890
:107D30003A00607B8DF80800A07B8DF809001421C3
:107D400009A8FEF77CFB0FA8CDE90906A088ADF8CD
:107D50003000A06820B1E088ADF82C00A0680D903C
:107D6000A06998B301950088ADF81000A06901AD35
:107D700001A94088ADF81200A069406806950390FB
:107D8000A069007B03F07CF9A069691C407B03F0CB
:107D900077F9A069807A00289DF8060002D040F0AB
:107DA000080001E020F008008DF80600A169C97AFA
:107DB00011B140F0100001E020F010008DF8060035
:107DC000A169097A19B140F0010002E00DE020F04C
:107DD00001008DF80600A169897B09B1022100E04C
:107DE000012161F342008DF80600E06900B10590C1
:107DF000434609AA02A94846AADF11B0BDE8F083AC
:107E000070B5084C050009D010342168002907D04E
:107E100008682060496828468847F6E70834F4E790
:107E200070BD0000842F0020054A012120B10128E7
:107E300005D19170FFF7E4BF51700020FAE7704759
:107E4000842F002010B5D0E90234D1E90220D11AE4
:107E5000A04101D3012010BD002010BD73B58CB02E
:107E60000646002000900D9880B100246D46214602
:107E70000DA800F0D8FE30B1009805EB40008480DA
:107E80000098401C0090641C142CF0D32C226946EE
:107E90003046FEF7BBFA0EB070BD2DE9F0411788F1
:107EA0000646B81D14460D46984202D90C20BDE87E
:107EB000F0813188072206290AD34FF4486C4FF627
:107EC000FF73614501D9994202D17088062801D219
:107ED0001046ECE7604501D99842F9D1994203D0A8
:107EE000984201D08142F3D80520E855208812211C
:107EF000401C80B2208029542088401C80B2208001
:107F00004119308803F00BFC2188084480B220809E
:107F10004119708803F003FC218808442080002068
:107F2000C5E7FFF7B1B8000038B54A7A0F4B62B128
:107F300000220A725969002906D001228DF800201A
:107F4000ADF802006846884738BD0A7A62B19B687E
:107F50004C68024619462046FFF7E2F80028F3D0A5
:107F6000BDE8384003F020B85B68F1E7EC2E002054
:107F700070B588B00646002005900690ADF8141044
:107F8000ADF816100190029001AA05A9304690DFC5
:107F9000050021D002F0B6F80346114811493246D7
:107FA000401AC108012000EB014004460E4901F0CF
:107FB000B4FCBDF8042012B9BDF8060028B1BDF824
:107FC0000630204609A101F0A8FCBDF808201AB12E
:107FD0002046164901F09AFC08B0284670BD000002
:107FE000B8DC0200B8DC02005CD5020054686520F1
:107FF0007265717565737465642054582F525820EA
:108000007061636B6574206C656E6774682069735A
:1080100020746F6F206C6F6E672062792025752F3A
:108020002575206F63746574732E0000A8D5020057
:1080300070B500240F4D10E0686800EBC40630787E
:1080400002F0A0F97178012901D0012100E000219E
:108050004140307800F058F9641C28788442EBDB0A
:10806000D5E90401084303D0BDE8704003F0A4B98A
:1080700070BD0000482B002010B50021024800F020
:10808000FEFD80F3100010BDCC3600204FF480328E
:108090008A400168C1F848230068C0F80823704787
:1080A0004FF4A07202EB810189B200F09DB92DE975
:1080B000F04105460E464FF4A07000EB860081B2F9
:1080C00028684FF48034B440984622F07F47C0F8C7
:1080D00008432868C0F84843286801F0DBFD286899
:1080E00000EB8600C0F840752868C0F84443B8F13A
:1080F000000F02D02868C0F80443BDE8F081006892
:10810000D0F804057047000070B54379224C44F85C
:1081100023204279241D04EBC202204B1579204A0A
:108120009A1AD3082DB10824022000EB03401DA1A8
:108130002EE002680D88C2F8085590F9042089786D
:10814000002A4FEA411106DA02F00F0202F1E022A2
:1081500082F8141D03E002F1E02282F8001490F985
:108160000410012201F01F0502FA05F549098900F2
:1081700001F1E021C1F80051417904EBC1010A711C
:10818000417944F831000320002400EB03400EA1A4
:1081900001F0B8FB204670BD842B002000DD0200FA
:1081A000B8DC020052544320696E7374616E6365DB
:1081B00020616C726561647920696E697469616CB3
:1081C000697A65642E0000005254433A20696E6952
:1081D0007469616C697A65642E00000090F904008E
:1081E000012100F01F0291404009800000F1E020D1
:1081F000C0F8001270470A46022100F07BB84FF425
:10820000827100F0F1B800680121016070470068D8
:108210000121416070472DE9F05F07460C464FF49D
:10822000A07000EB84001FFA80FA38684FF48036A3
:10823000A6409B4622F07F45C0F848633868C0F8E6
:1082400008633868D0F8048500EB8402D2F84095C2
:10825000C2F840855146386801F01CFDA9EB0800C2
:1082600020F07F40012806D1102001F0A5FF5146E3
:10827000386801F00FFD3868D0F80485C0F8446311
:10828000A5EB080121F07F413868012900EB84004B
:1082900010D0C0F840553868D0F804156FF07F4C06
:1082A0006A1A521E22F07F42ACEB0B03934217D3A3
:1082B00062B118E06D1CC0F84055102001F07CFF41
:1082C0003868D0F8040540450AD10CE000EB840082
:1082D0006D1CC0F840553868D0F80405884202D0BB
:1082E0000D20BDE8F09F01223146384600F002F82B
:1082F0000020F6E70368C3F84413002A02D00068A0
:10830000C0F80413704700002DE9F84F0E463449B9
:10831000804601EB5001C007097801D00F0901E048
:1083200001F00F074FF00009424601204946FEF7D1
:1083300059F8DFF8B0A004460D46052F4ED2DFE80D
:1083400007F003161B282C00002E47D001214046C1
:1083500002F050FF8DF800906846FEF7FFFE504691
:10836000D0E904120C431543CAE9044532E00EB1CA
:10837000022114E0002112E04EB10321404602F038
:1083800039FF4046BDE8F84F012103F06DBA0121E5
:1083900005E0002E22D1042101E02EB10321404648
:1083A000BDE8F84F02F026BF0021404602F022FF50
:1083B0000021404603F058FA8DF800906846FEF719
:1083C000CDFE5046E243D0E904341A4024EA0501C8
:1083D000CAE904219DF80000FEF7E4FEBDE8F88F2D
:1083E00088300020482B002010B5006842581AB190
:1083F00001F050FC012010BD002010BD0AB100F0BA
:108400001DBC00F005BC000010B50B48FFF777FE5F
:10841000094A083AD2E90434C018D2E9063244F1D4
:108420000001C31A71EB020204D24FF0807280186F
:1084300041F1000110BD0000682B002010B5C0B252
:10844000FFF7C8FB0446007801F09CFF0146607806
:10845000012801D0012000E0002090EA010F08D09F
:108460000449D1E90401084303D1BDE8104002F0FA
:10847000A3BF10BD482B00202DE9F8432A4C00254E
:1084800020276068012827D100972848A168202369
:1084900000EBC11219461220FEF722F8A068401C1A
:1084A000A0600A2800D1A56065600022204960888C
:1084B000FEF7DBFF0220FFF7A9FADFF8708040F635
:1084C000B836A8F106084FF47A4900BF08F1010157
:1084D00048468847761EF9D1E068164E01280AD131
:1084E0000320FFF79BFA20233246194612200097FB
:1084F000FEF750F8E560206901280AD10320FFF754
:1085000085FA20233246194612200097FEF775F8A7
:10851000256101F0DDF8002803D1BDE8F84301F042
:1085200087BBBDE8F8830000D82A002076B9020096
:10853000302C0020F6BA02000146034802888A4225
:1085400000D0002070470000D82E00202DE9FC5FED
:108550000E008346DDE90C47C6F1000098469246BE
:10856000814600D40846012503E000BF90FBFAF0E5
:108570006D1C5045FADAA84500D9454624B1002EB5
:1085800001DB780700D5641EB80702D5B8F1000FEB
:108590000AD0F80708D13CB1A54205D2202158469F
:1085A000641EFFF795FAF6E7002E02DA4E462D21FB
:1085B00002E0780703D52B215846FFF789FA07F028
:1085C000030002280BD1B8F1000F08D13CB1A5423D
:1085D00005D230215846641EFFF77AFAF6E7CDE956
:1085E0000047434652463146584603F09DF8BDE8E1
:1085F000FC9F000070B50D46044600684FF488717A
:1086000001F0A0FD4FF49071206801F09BFD4FF444
:108610009271206801F096FD4FF4A271206801F07C
:1086200091FD4FF4AC71206801F08CFD2068114978
:10863000C0F804132068690740F30730090E0028CA
:1086400006DA00F00F0000F1E02080F8141D03E0CE
:1086500000F1E02080F800142068012140F3073089
:1086600000F01F0291404009800000F1E020C0F8B6
:10867000001170BD1003420002460020126853072B
:1086800013D502F00300012802D002280CD105E026
:10869000C2F383100B68801C184404E002230868AE
:1086A00003EB92521044086001207047F0B58488B3
:1086B000A518944200D82246A41AC288D6189A4215
:1086C00000D81346D21A4B880788BB420CD3408887
:1086D000834209D88888A04206D3A84204D8C88813
:1086E000904201D3B04201D90020F0BD0120F0BD7D
:1086F0000E480F4910B5401AC008032101EB004491
:108700004FF002004AB1FFF789F9204609A101F0B4
:10871000F9F80D490120486010BDFFF777F92046B0
:10872000BDE8104009A101F0EDB8000018DD02001D
:10873000B8DC02005265636569766564204C454487
:10874000204F4E2100000000D82A002052656365AA
:1087500069766564204C4544204F46462100000060
:108760001721018041800021017141711B2181711C
:10877000C17170472DE9FF410026234800F06BFAD4
:108780002148001F074600F066FA204C6068009000
:10879000A56800E000986946284004EB80000C3092
:1087A000FFF76AFF0028F5D101AA009901EA050345
:1087B00004EB8303491CDB6842F82030401C009125
:1087C0000228F2D3019800F0030001280BD0022800
:1087D00010D10198032101EB90500099BDF80A6077
:1087E00001EB900005E00198BDF80A60C0F383102A
:1087F00008440090384600F02BFA08B100986060F9
:1088000004B03046BDE8F081C8360020B032002008
:1088100088B04FF48041002001F0E0F808B1FEF785
:1088200033FC00F047FF0120FFF7B4F8FEF74AFCE5
:1088300008B1FEF729FC534A01215348FEF736FCE4
:1088400008B1FEF721FCFEF7E9F840F233320421CB
:108850004E48FEF797FB08B1FEF716FC01F0D4F97D
:1088600008B1FEF711FC01F06BFB08B1FEF70CFC40
:10887000002469460120009401F01CFA08B1FEF7BB
:1088800003FC684601F096FA08B1FEF7FDFB9DF87F
:1088900008003FA120F00F00401C20F0F000103035
:1088A0008DF808000D2202A87CDF08B1FEF7ECFB72
:1088B00000945020ADF80000A0200194ADF8020013
:1088C000ADF804404FF4C870ADF8060068467ADF92
:1088D00008B1FEF7D9FB0021314800F045FA08B194
:1088E000FEF7D2FB2F4801A9CDE900402C481430F7
:1088F00000F0FFFA08B1FEF7C7FB2B4800902848AC
:1089000069461838FEF7B2FF08B1FEF7BDFBFEF767
:10891000A1FA1C216846FDF792FD4FF4A020CDE995
:108920000040861021480590032521488DF80C5001
:1089300006900296ADF80E408DF810406846FEF79E
:10894000ABFD08B1FEF7A0FB0220FFF767F819485E
:108950001949401AC00805EB004018A100F0D2FFE9
:10896000FEF7CAFA0848002231460068FEF7D8FB35
:10897000FDF772FE1748FDF7DAFE00BFFFF77CFD3A
:10898000FCE70000456E020060B90200FC2A0020EE
:108990004E6F726469635F426C696E6B79000000B0
:1089A000482C0020759C0200F1860200DDAA02001E
:1089B000237F020018DD0200B8DC0200426C696E01
:1089C0006B79206578616D706C6520737461727469
:1089D00065642E0076BE020070B5144682880E468D
:1089E00005462088111D0144921C994201D8FE2A97
:1089F00001D90C2070BD521C32542088FF21401C2C
:108A000080B2208031542088401C80B2208081199F
:108A1000288802F084FE2188084480B22080AA8839
:108A200042B1A96841B13044FDF7F0FC2088A98823
:108A300008442080002070BD072070BD2DE9F0475C
:108A4000C5881E1DB6FBF5F78946B6FBF5F1044651
:108A500005FB176C407916686843DDF820A0F7180D
:108A6000001F874200D9C61A166001E02468491E1B
:108A70000029FBD1A5EB0C078846B74216D818E0B1
:108A800004EB0C00001D09EB0803BAF1000F3A4695
:108A900002D00146184600E01946FDF7B7FC2468ED
:108AA000F61B4FF0000CB844B54201D9374600E040
:108AB0002F46002EE4D1BDE8F087000030B5024615
:108AC00051B100F0A9FF0021074C08E034F8213033
:108AD0001568AB4202D11160002030BD491C8142B3
:108AE000F4D3052030BD000000000000F8B50F46AB
:108AF000017814460546012901D1687830B12088F3
:108B0000821C9A4232D8012902D006E00720F8BD23
:108B100069780144891C994228D8181A801E86B2A7
:108B2000ADF800602188B81C084469467DDF002844
:108B3000EDD12978022904D06878BDF80020904250
:108B400005D3BDF80000B04201D809200AE0082092
:108B5000012905D16978B14202D8ADF8001001E0D1
:108B6000ADF80060BDF80010FE2901D90C20F8BD59
:108B70002288491CB9542188491C89B22180785423
:108B80002088401C2080BDF8001008442080002070
:108B9000F8BD10B531B1B2FBF3F403FB14241CB1E2
:108BA000092010BD0E2010BD0160002141608160D0
:108BB0008281C381084610BD70B50C460546FDF79D
:108BC00029FB002802D021882868084470BD10B510
:108BD0000A8849888A4203D1FDF75EFB012010BD57
:108BE000002010BD70B50C460546FDF738FB002887
:108BF00002D061882868084470BD10B50A88498889
:108C00008A4203D1FDF722FB012010BD002010BDD8
:108C100001F01F0301229A40D243490900EB810071
:108C2000114600F021B84A0950F8220001F01F0255
:108C300001219140084000D00120704701F01F033E
:108C400001229A40490900EB8100114600F01CB84E
:108C5000002100F00FB8012100F016B808B56A46EF
:108C6000FDF76FFB009808BD08B56A46FDF74FFB9E
:108C7000009808BD08B56A46FDF749FB08BD08B570
:108C80006A46FDF72BFB08BD08B56A46FDF732FBC7
:108C9000009808BD08B56A46FDF760FB009808BD5E
:108CA00038B5044600258DF800506846FEF756FAA0
:108CB00021686268086890420ED9401E08600178F9
:108CC000238AE26801FB0325227A2168101AC0B2C8
:108CD0000A79824200D208719DF80000FEF762FA1C
:108CE000284638BD38B5054600208DF800000C46F2
:108CF0006846FEF733FAE868298A201AB0FBF1F1DA
:108D00002A681068431C136001709DF80000FEF78C
:108D100049FA38BD10B530B1017A42680368891A42
:108D2000C9B21A6006E00E2010BD03681A68541C10
:108D30001C601170491EC9B2F7D200680021017190
:108D4000084610BDC20800F007030120895C984066
:108D50000840704710B5C20800F00703885C012482
:108D60009C402043885410BD10B560B101611721AB
:108D700020F8021B20F8021B1B2100F8021BFFF742
:108D8000EFFC002010BD0E2010BD0000F0B585885E
:108D900093B00C46002D39D1018800263F4F24297D
:108DA0003BD006DC102909D011290CD0232958D139
:108DB0004FE03A290BD0552953D129E001462046EE
:108DC00001F09AFE4DE0A01DFFF7CAFC49E02246E3
:108DD000408934F8061F814200D808466080172871
:108DE00000D217206080106970B1607960B1D7E956
:108DF0000001CDE90301ADF80E506088ADF8100018
:108E0000136903A9104698476671267113B0F0BD27
:108E10000146204601F0C4FE23E0011D2C2206A8D5
:108E2000FDF7F4FABDF81800BDF81C2004EBC001F2
:108E30004A732269AAB1D7E90423CDE90423ADF826
:108E40001200487B8DF814002269204604A990473F
:108E500007E0017A207B884200D201462846FFF7CE
:108E600087F8A07A0028D1D0E1882846A5DF01251F
:108E700080B11128CAD001F045F9024608480949D5
:108E800013B0401AC00805EB0040BDE8F04006A151
:108E900000F03CBDA672E572B8E7000028D20200DF
:108EA000B8DC0200B8DC020073645F626C655F6767
:108EB000617474635F65786368616E67655F6D7424
:108EC000755F726571756573742829207265747594
:108ED000726E65642025732E0000000020B10278B8
:108EE000DE2A03D0082070470E2070474180002002
:108EF000704760B159B10278DE2A0AD00968416032
:108F0000DE2101704FF6FF714180002070470E2076
:108F10007047082070477FB5054600294DD0002DC9
:108F20004BD008780C46DE2847D1A8886188884253
:108F300002D1204602F086FC2888012825D002288C
:108F40003BD011283AD0512837D135F8040F618829
:108F5000884232D1A978A81C02292ED1017A04298D
:108F600003D0062901D0052927D100210091022232
:108F70008DF8002001914FF4C07202910391ADF879
:108F80000420007A05280FD010E0297A2046012914
:108F900013D1A988428891420FD10121017204B0F6
:108FA000BDE8704002F04EBCADF804102888694658
:108FB000B0DF002801D0616888477FBDA88861883C
:108FC0008842FAD14FF6FF7060807FBD00F180408B
:108FD0000068002800D00120704708B500F18040EB
:108FE000002101600068009008BD00002DE9F041FB
:108FF000040007D0044E4FF47A47751C3846A84742
:10900000641EFAD1BDE8F08100D2020070B50B4CAD
:10901000207808B185250FE00020A0606060206105
:10902000E060074801F0AAF8054600F0D5FF08B94E
:1090300001F08EF801202070284670BD842F00209A
:10904000297E020038B500258DF800506846FEF7ED
:1090500085F8074CE068401EE060E06810B901F058
:109060009DF8A5709DF80000FEF79CF838BD000043
:10907000842F0020F0B505460478154889B01646BF
:1090800040F82420124A0869121DA2F1080742F88C
:109090002400487F385520226846FDF7B7F904942C
:1090A0002878385C48B10EB10A4A00E000226946CF
:1090B000281D01F009FC09B0F0BD0EB1064A00E020
:1090C0000022694605F10C0001F0D0FAF3E7000038
:1090D0002C2B0020DDB5020025B402000FB408B52A
:1090E0000399002904D004AA00926A4600F00FF800
:1090F00001B05DF814FB10B582680446002A05D063
:10910000D4E90403216898470020A06010BD2DE930
:10911000FC4791460C00804676D014F8011B39B10B
:1091200025290ED04046FEF7D3FC20780028F4D144
:1091300098F80C00002867D04046BDE8FC47FFF7D0
:10914000DABF0020012221782B291BD02D2902D043
:10915000302908D102E040F0010001E040F00200B7
:10916000641C002AEFD100252A290ED02178A1F114
:1091700030020A2A11D205EB850201EB4205641C7C
:10918000303DF1E740F00400EAE7D9F800100B1D8C
:10919000C9F800300968641C0D44217800232E2989
:1091A0000BD114F8011FA1F130020A2A05D203EBFA
:1091B000830201EB4203303BF3E76C290DD06829B1
:1091C0000BD0692921D00BDC252918D0582931D0A2
:1091D00063290ED0642915D117E014F8011FECE7BC
:1091E000702969D0732932D075291BD0782909D10B
:1091F00020E0D9F80000011DC9F8001001784046B0
:10920000FEF766FC641C90E76CE0D9F800100A1DBC
:10921000C9F800200968CDE900500A224046FFF74E
:1092200095F9EFE7D9F800100A1DC9F80020096880
:109230000A2206E0D9F800100A1DC9F800200968C2
:109240001022CDE90050404602F06EFADAE7D9F874
:10925000001000270A1DC9F800200E68C00705D1BC
:1092600012E04046761C7F1CFEF732FC3178002964
:10927000F7D104E0202140466D1EFEF729FCBD42D7
:10928000C0D9002DF6D1BDE74EB13046FDF7E2F86A
:10929000074604E0202140466D1EFEF719FCBD4242
:1092A00006D9002DF6D103E04046761CFEF710FCEF
:1092B00031780029F8D1A5E7D9F80000011DC9F8D7
:1092C0000010056830214046FEF702FC7821404638
:1092D000FEF7FEFB08200021CDE900010346102225
:1092E0002946B0E7BDE8FC8770B541EA4201DDE9F7
:1092F00004564FF0A04441EA830141EA052104EB02
:10930000800041EA0641C0F8001770BD70B541EA1F
:109310004201DDE904564FF0A04441EA830141EAED
:10932000052104EB800041EA0641C0F8001770BD3A
:1093300070B541EA4201DDE904564FF0A04441EA2C
:10934000830141EA052104EB800041EA0641C0F8AF
:10935000001770BD70B541EA4201DDE904564FF0D7
:10936000A04441EA830141EA052104EB800041EA7F
:109370000641C0F8001770BD70B541EA4201DDE951
:1093800004564FF0A04441EA830141EA052104EB71
:10939000800041EA0641C0F8001770BD70B541EA8F
:1093A0004201DDE904564FF0A04441EA830141EA5D
:1093B000052104EB800041EA0641C0F8001770BDAA
:1093C0001CB5002100910B4601220191FFF7C2FF5D
:1093D0001CBD1CB5002100910B4601220191FFF735
:1093E000CBFF1CBD1CB500220B460092114601921A
:1093F000FFF7B0FF1CBD1CB500220B4600921146C2
:109400000192FFF7B9FF1CBD1CB5002100910B466E
:10941000012201911146FFF767FF1CBD1CB5002119
:1094200000910B46012201911146FFF793FF1CBDED
:109430001CB5002100910B46012201911146FFF756
:109440009BFF1CBD1CB5002100910B460122019120
:109450001146FFF7A3FF1CBD4FF0A04202EB8000B6
:10946000D0F8002722F44032C0F80027D0F80027B7
:1094700042EA0141C0F8001770474FF0A0420121B5
:109480008140C2F80C1570474FF0A0420121814085
:10949000C2F80C1570474FF0A04201218140C2F87C
:1094A000081570474FF0A04201218140C2F808150D
:1094B000704701224FF0A043824011B1C3F8082544
:1094C0007047C3F80C25704718B5084B6C4601442B
:1094D0001B68009306E000BF54F82030D3F8103525
:1094E000401C08C28142F7D818BD000050D20200CB
:1094F000034908B50844002101600068009008BDD8
:109500000060004002494058012800D00020704708
:109510000060004030B5154A01460020D2F81044E2
:1095200023460AE0DB681D79854205D1401C0A28E4
:10953000F6DB4FF0FF3030BD1B68002BF2D1431C2F
:10954000F9D0CB681871D2F8103443B1DB68CC681D
:109550001B682360D2F81024D268116030BDC2F8B5
:109560001014C96800220A6030BD0000B03200202B
:10957000F0B595B01C4615460F4608461A9E00F0F9
:109580001DFB182109A8FCF75AFF0E96CDE90954D6
:109590000023082203A9384600F025FB0598069011
:1095A000BDF81000ADF81C00BDF81200ADF81E00AB
:1095B00000208DF821000398082600F00300012800
:1095C00002D0022818D032E003983346850AC0F34F
:1095D000C2008DF8200003980FA9C0F38314A200E5
:1095E000384600F000FB09A8009006AB22460FA900
:1095F000284600F03FFA1AE00398840DC0F3C20039
:109600008DF82000082C01D2254600E008253346BD
:109610002A460FA9384600F0E6FA2E44641B09AB2F
:1096200006AA29460FA800F081F9002CEAD1384695
:1096300000F0CAFA15B0F0BD7047012001F010BF6C
:10964000084810B50178084A515C19B1001D01F0B5
:10965000D5F902E00C3001F0D5F8BDE8104000204B
:1096600001F0FEBE9C2B0020282B002008B5034AE9
:1096700000924023024AFFF77BFF08BDB9AF02000A
:10968000183100200A4A012902EBC00007D0022944
:1096900007D0032907D0042907D0002070470220F3
:1096A0007047042070470079704740797047000088
:1096B000B8DC020010B5FFF7C0FF04210348FFF734
:1096C00029FF02490120C968487110BDA8DC0200C9
:1096D0002DE9F04F8DB0FEF713FA18B100200DB050
:1096E000BDE8F08F7E4C4FF0000BC4F818B4BFF308
:1096F0004F8F60680290A568D846284004EB800030
:109700000CE000BFD4F8180470B9216802988142B7
:1097100001D86160E2E7284004EB80000C3002A928
:10972000FEF7AAFF0028EDD1002005AA029901EA60
:10973000050304EB8303491CDB6842F82030401C1E
:1097400002910228F2D3059800F00300022802D00B
:1097500001284DD0AAE005985022810D8946B2EB30
:10976000905F00D850210E4666F39F500590083157
:109770005C4800F0DAF9070078D000F01FFA4346A1
:10978000082205A9384600F036FA029908F1080ABD
:109790002940681A8000001D864222D9504D0C35A0
:1097A00030B1C2B204EB8101301A90460C3104E0B2
:1097B0002946F2B2002590462846C6B2534638469E
:1097C00000F019FA0AEB080325B13246294638465B
:1097D00000F011FA029909F1030001EB90000290E8
:1097E0003BE004EB81015346324638460C31EFE74B
:1097F0000598C0F38310062800D30620059960F36E
:109800008911C1F38310801C05918100354800F057
:109810008CF907004AD000F0D1F94346082205A987
:10982000384600F0E8F908F1080800260FE0029831
:10983000434600EA0501401C04EB8101029004222A
:1098400038460C3100F0D7F908F10408761C059869
:10985000C0F38310B042EAD847B1D4F81054D4F81A
:10986000180478B1384600F0AFF934E01EE0E8683B
:109870004079012804D12A68284639461268904761
:10988000E8680568002DF2D1384600F09DF98DF8A2
:1098900000B06846FDF762FCD4F8180408B90298D5
:1098A00060609DF80000FDF77DFC14E0D4F81044E2
:1098B00005E02168204689688847E0680468002C34
:1098C000F7D109480949401AC008022101EB0040BC
:1098D00007A100F017F8FEF713F980F00100FEE68B
:1098E000B032002038DD020018DD0200B8DC0200D2
:1098F0004261636B656E647320666C757368656442
:109900000000000000231A4601F08CBC08B50123BA
:1099100000926A4601F086FC08BD1CB5CDE9002323
:1099200002236A4601F07EFC1CBD00002DE9F047D1
:109930000E4680461C469246082940D894F80C9062
:10994000002020731946104601F0B6F90025B542F3
:1099500006D218F805201BA12046FFF7BFFB03E045
:109960001AA12046FFF7BAFB6D1C082DEFD318A1F2
:109970002046FFF7B3FB0025B54212D218F8057058
:109980007E2F08D8FCF73EFD0068C05D10F03E0F4A
:1099900001D03A4600E02E220EA12046FFF79EFBA2
:1099A00003E00DA12046FFF799FB6D1C082DE3D3C2
:1099B00001222146504601F061F984F80C90BDE87F
:1099C000F0870000202530327800000020202000A1
:1099D0007C00000025630000200000000B4810B54B
:1099E000FF218160002101604160C0F81814C0F8B7
:1099F000141480F82014064800F0E4F8002803D17D
:109A0000044800F039F9002010BD0000B0320020F9
:109A100038DD020024D4020002480349401AC0087D
:109A20007047000038DD0200B8DC020013B568465C
:109A3000FFF744F808B100201CBD0248009950F817
:109A400031001CBDB8DC020070B509480125D0F812
:109A5000104480F8205407E0E068457121682046F2
:109A600049688847E0680468002CF5D170BD0000A3
:109A7000B03200202DE9FF4781460C9D00200C46A6
:109A80002F7B2873984616462946184601F014F98C
:109A9000072E42D2DFE806F004090F161F2A36000F
:109AA00049462846FFF71AFB37E049462846226810
:109AB000FFF714FB31E0D4E9002349462846FFF7BD
:109AC0000DFB2AE0A0680090D4E90023494628460F
:109AD000FFF704FB21E0D4E90201CDE90001D4E95C
:109AE000002349462846FFF7F9FA16E004F108007A
:109AF00007C88DE80700D4E9002349462846FFF748
:109B0000EDFA0AE004F108000FC88DE80F00D4E96F
:109B1000002349462846FFF7E1FA0022294640463D
:109B200001F0ACF82F73BDE8FF872DE9F041058AFD
:109B300080462D1F4819C01CB0FBF5F0C6B2404648
:109B4000FFF7AEF8041E19D00020207101206071CB
:109B5000E58000272546761EC4F800800BE04046CD
:109B6000FFF79EF860B16179491C61712860054674
:109B70007F1CC0F80080B742F1D32046BDE8F081D9
:109B8000204600F002F80020F8E72DE9F041457981
:109B900001466B1E002201E00968521C9A42FBD369
:109BA0000F680146002605E038460C68FFF79AF872
:109BB0002146761CAE42F7D3BDE8F0810121001D9D
:109BC000FFF74CB8FFF7A6B810B504460121001DF9
:109BD000FFF760F810F0FF0F04D12046BDE81040F9
:109BE000FFF7D3BF10BD1CB501920122009201AA5C
:109BF000FEF724FF1CBD1CB501920022009201AAB1
:109C0000FEF71CFF1CBD0000064910B5002048707F
:109C1000091D0860BFF35F8F0349044800F000FA94
:109C2000002010BD902B0020B0D202000C3100208B
:109C300008B500208DF800006846FDF78FFAF1EEB8
:109C4000100A20F09F00E1EE100ABFF35F8F084971
:109C50004020C1F880029DF80000FDF7A3FA00F053
:109C6000BBF908B141DF08BD20BF40BF20BF08BD20
:109C700004E000E0FDF708BA826800219160826884
:109C80001161826851618268D16082685160806828
:109C90000160704708B5002242504058009008BD4E
:109CA00020B1034909680160002070470E20704709
:109CB000A8D40200FEB502460E460846FFF7F0FFA4
:109CC000002868D1002400940194012706208DF813
:109CD0000020ADF8040002948DF80270694620203F
:109CE000326869DF2C492D4A891AC908012202EB22
:109CF000014530B100F006FA024628462849FFF730
:109D000005FE00948DF801708DF8024001940294D4
:109D10008DF8034069464020326869DF30B100F0B9
:109D2000F1F9024628461F49FFF7F0FD00940A208A
:109D30008DF800000194029469460120326869DFC1
:109D400030B100F0DFF9024628461749FFF7DEFD83
:109D50004FF4B0600090019402946946A1203268EB
:109D600069DF30B100F0CEF9024628460F49FFF70F
:109D7000CDFD0094019402948DF800406946A02026
:109D8000326869DF30B100F0BDF902462846084963
:109D9000FFF7BCFD0020FEBD28DD0200B8DC02009C
:109DA00048DB020090DB0200A8DA0200F4DA0200CD
:109DB00054DA02002DE9F0410546076860DF80466D
:109DC00019491A482A68081AC608BA4219D902203D
:109DD00000EB064416A12046FFF794FD20463A46C4
:109DE0001FA12B68FFF799FD4FF08050D0F80C01B0
:109DF0002968800200F10050421A204625A1FFF791
:109E000085FDB8F100004FF001040AD000F07AF9A6
:109E1000024604EB06402AA1FFF778FD4046BDE864
:109E2000F0812F480470F9E728DD0200B8DC020059
:109E3000496E73756666696369656E742052414D3B
:109E400020616C6C6F636174656420666F7220744E
:109E5000686520536F66744465766963652E0000FB
:109E60004368616E6765207468652052414D2073B8
:109E700074617274206C6F636174696F6E206672B6
:109E80006F6D203078257820746F20307825782EFB
:109E9000000000004D6178696D756D2052414D20C4
:109EA00073697A6520666F72206170706C69636196
:109EB00074696F6E20697320307825782E00000059
:109EC00073645F626C655F656E61626C65282920F2
:109ED00072657475726E65642025732E0000000033
:109EE0000B2C002030B5144891B00078002820D009
:109EF0005FF03405ADF8405010A903A861DF30B120
:109F0000052816D011B0BDE83040FDF7BDB803AC50
:109F10000A49684600F084F807E000BFD0E9002154
:109F200020469047684600F092F802980028E1D059
:109F3000F4E711B030BD00000B2C0020ACD40200BF
:109F40007CB5194C207808B108207CBD0120A07098
:109F5000002000F0FBFF112819D0002001F00EF8BE
:109F600012480026006801908DF800606846FDF7F1
:109F7000F5F80F4901A810DF05000AD00020207075
:109F80009DF80000FDF70EF92DB128467CBD00209C
:109F90007CBD0120F3E7A670667001F095F8012002
:109FA00000F0ECFFF3E70000082C002040D4020092
:109FB000057002000EB50749684600F031F805E06B
:109FC000D0E900108847684600F041F80298002860
:109FD000F6D10EBD5CD40200014800787047000045
:109FE000082C00201FB568464BDF30B1052814D07F
:109FF00004B0BDE81040FDF747B8084901A800F0DB
:10A000000FF806E0D0E900210098904701A800F081
:10A010001EF803980028E6D0F4E71FBDC8D402005C
:10A02000016009684160AFF3008010B5D0E90021FC
:10A030005368994201D1002104E0D1E90034A342E0
:10A0400002D01946816010BD08314160F0E7816897
:10A0500000290BD0026892680A44826041684B680C
:10A060009A4203D108314160FFF7DFBF704770B5F6
:10A070000D460646446804E0B2682946904718B188
:10A08000246820680028F7D120682860256070BD0A
:10A0900040680068704741680868002801D002687D
:10A0A0000A60704702460020526806E08B4203D1E6
:10A0B00008681060012070471A461368002BF5D11C
:10A0C00070474058002800D0012070470C4A10B556
:10A0D00002F594730EE0991AC91001EBD171491081
:10A0E00002EBC1010C68844201D90B4602E005D2A3
:10A0F00001F108029A42EED3002010BD486810BD5D
:10A10000D0D2020000B5FFF7E1FF002800D10148DE
:10A1100000BD0000BCD202004058002800D0012041
:10A12000704708B5002242504058009008BDD0F852
:10A130000403084000D0012070474058002800D098
:10A140000120704708B5002242504058009008BDD9
:10A1500008480068012110F0010F06D14FF0E020FF
:10A16000C02280F80024C0F80011034901200860D3
:10A170007047000000E100E0180500400649024673
:10A1800000200B790BB1852070470A6001220A710B
:10A1900000224A7170470000342B0020044901203E
:10A1A000086004480168C1F300410029FAD17047F2
:10A1B0000C00004018040040002802D00149800132
:10A1C0000847704781D2020010B5044600F03EFDFA
:10A1D00028B12046BDE810400021FFF73DB92046D8
:10A1E00000F040FD00280FD02046FDF739FD074A5A
:10A1F00002EB8001D1F8103523F00103C1F81035CE
:10A2000001218140C2F8081310BD00000060004029
:10A210002DE9F0418846054600F018FD234E002840
:10A2200028461AD0FDF71CFD304490F848008009FC
:10A23000032802D001280ED007E04FF0A040D0F84C
:10A240001005E84010F0010F05D003212846BDE8B5
:10A25000F041FFF701B90221F8E700F003FD002803
:10A2600022D02846FDF7FCFC04464FF4807000EB3A
:10A2700084000F4F81B207EB8400D0F8102542F024
:10A280000102C0F810250846FFF732F9B8F1000FB7
:10A290000AD02846FDF7E4FC56F82000002803D039
:10A2A0000120A040C7F80403BDE8F081982F0020EA
:10A2B000006000402DE9FC41DFF8BC80044608EB5B
:10A2C0000400002790F930001346C0170E46401CCA
:10A2D00001D008274CE0B0781946C0F34002204670
:10A2E000FDF79AFC0546401C41D0B078410719D4CF
:10A2F000C0070AD04FF0A04000EB8401D1F800075E
:10A3000020F00200C1F8000707E000217378204622
:10A3100000910A460191FFF70BF817492046543186
:10A32000FEF718FDB078800718D51448317800EB97
:10A330008500D0F81025124B1A40C0F810254FF4B4
:10A34000F8524FF4403302EA042203EA01410A437F
:10A35000D0F810150A43C0F8102509E008EB0500F5
:10A36000327810F8481F41EA8211017000E004279A
:10A370003846BDE8FC810000982F002000600040B6
:10A38000FFE0FCFF4FF0A041D1F81015C14011F0E3
:10A39000010000D00120704770B5174D95F85800A6
:10A3A00008B1082070BD0020411E2A18401CC0B210
:10A3B00082F830102028F8D300242046FDF71EFC38
:10A3C000641CE4B20C2CF8D300240C49C0206C654A
:10A3D00081F8000401264020891FC1F800014FF4D4
:10A3E000BE70FFF785F80649F007C1F8040385F849
:10A3F0005860204670BD0000982F002006E000E065
:10A4000000600040034890F85800002800D0012068
:10A4100070470000982F00200121B1EB507F01D13F
:10A4200001207047002070470121B1EB507F01D11E
:10A43000012070470020704738B50D4600F088FCB9
:10A44000040014D000208DF800006846FCF786FE5A
:10A45000207928B19DF80000FCF7A4FE112038BD3A
:10A460000120256020719DF80000FCF79BFE002074
:10A4700038BD10B500F06CFC002802D0002101604E
:10A48000017110BD2DE9FC470C4615460179804647
:10A49000574A01EBC10002EB80069946307F10B1AC
:10A4A0000820BDE8FC87534AD8F80000074652F858
:10A4B0002110FFF7C1FF08B11120F2E7C6E90059EA
:10A4C000207B0128207802D8FEF7DEFF01E0FEF7AE
:10A4D000E9FF4FF0000ACDF800A0CDF804A02078E5
:10A4E000534652460121FEF759FF60784FF0FF3581
:10A4F000FF2806D08146FEF7C7FF4846FEF7A2FFB9
:10A5000000E0A946A078FF2809D0002205460123D3
:10A51000CDF800A01146CDF804A0FEF73FFFA078CB
:10A5200086F82000E078F077E078FF280BD02179DA
:10A5300011B1FEF7A9FF01E0FEF7B4FFE078FEF7E6
:10A5400081FF2079B0772178C7F80815C7F80C95F6
:10A55000C7F81055A068C7F82405217B607B00B1BF
:10A560000120012904D0022905D0032908D105E0E2
:10A5700040F0020004E040F0040001E040F006007A
:10A58000C7F85405A079C7F8C005306810B140205D
:10A59000C7F804030720C7F800053068012108B395
:10A5A000D8F80000627940F3073000284FEA4212E1
:10A5B00006DA00F00F0000F1E02080F8142D03E02F
:10A5C00000F1E02080F80024D8F8000040F30730C4
:10A5D00000F01F0201FA02F24009800000F1E020C1
:10A5E000C0F80021504686F81DA0317759E70000D9
:10A5F000443000205CD202002DE9F04105460F46B0
:10A600000079154900EBC00001EB80041646607F1D
:10A6100010B11120BDE8F081206820B116F0140FB0
:10A6200001D10120607797E80F0004F10C0888E859
:10A630000F00E07FFF2806D0A17F11B1FEF732FFA7
:10A6400001E0FEF721FF33463A4621462868BDE87F
:10A65000F04100F071BD0000443000200149024883
:10A6600000F026BFF42F0020002000402DE9F0412B
:10A670000546007916460F4600EB40012C4A01EBD7
:10A68000C00102EB810494F82A1011B10820BDE842
:10A69000F081284951F820102868FFF7CDFE08B155
:10A6A0001120F4E739462846FCF796FD66603869C4
:10A6B000206030004FF001062DD03F7F4FF48E71A7
:10A6C0002868FFF72EFD4FF4A2712868FFF729FDD7
:10A6D00028681949C0F8041328684FEA471140F365
:10A6E0000730002806DA00F00F0000F1E02080F8C3
:10A6F000141D03E000F1E02080F80014286840F306
:10A70000073000F01F0106FA01F14009800000F156
:10A71000E020C0F8001128680421C0F800150020CE
:10A72000A061E06184F8290044F8140FA675AEE733
:10A73000F42F002054D20200800002002DE9F05FC7
:10A74000054600790B4600EB400101EBC0002449AF
:10A7500001EB8004284600F045F810B11120BDE857
:10A76000F09F62614FF00009C4F82090A36084F864
:10A7700028904FF48E784E4641462868FFF7D1FC6A
:10A7800028684FF0010AC0F808A02146286800F0A8
:10A790001FFE606808BBD5F800B067690FE000BF16
:10A7A00094F8280008B10F2615E041465846FFF7F7
:10A7B000B3FC0028F4D02146584600F009FE206A78
:10A7C000B842F2D3574641462868FFF7A5FC002857
:10A7D000F9D02868C760C4F814903046BFE700007D
:10A7E000F42F0020007900EB400101EBC000044988
:10A7F00001EB80004069002800D001207047000074
:10A80000F42F00202DE9F047044600794FF00009AD
:10A8100000EB400101EBC000254901EB80072068F7
:10A82000C0F80095786880B120682249C0F8081304
:10A830002068012140F3073000F01F0291404009D9
:10A84000800000F1E020C0F880112068D0F80C25CD
:10A85000D0F81485D0F80865D0F810554FF0FF31C6
:10A86000C0F81415C0F80C152068C0F80815C0F819
:10A870001015501C02D01046FEF7A2FDB8F1FF3FA4
:10A8800002D04046FEF79CFD681C02D02846FEF729
:10A8900097FD701C02D03046FEF792FD2068FFF74E
:10A8A000E8FD87F82A90C7F80490BDE8F08700001B
:10A8B000F42F0020840202000149024800F0A6BEE5
:10A8C00020300020002000402DE9F04105461646CA
:10A8D00000790F46154A00EBC00102EB810494F8A1
:10A8E000201011B10820BDE8F081114951F8201065
:10A8F0002868FFF7A1FD08B11120F4E73946284682
:10A90000FCF7AEFC6660386920601EB1397F2846CE
:10A91000FDF770FE28680821C0F800150020A0612E
:10A92000E0616061012184F82010DCE72030002024
:10A9300058D202002DE9F04704460E460079274917
:10A9400000EBC00001EB800517463046FFF764FDC1
:10A9500030B1204600F044F820B11120BDE8F08766
:10A960001020FBE76F61AE604FF490774FF0000866
:10A9700039462068FFF7E6FB4FF4AC763146206895
:10A98000FFF7E0FB2068AA686969C0F84425C0F8B1
:10A99000481520684FF00109C0F808906868D0B9E0
:10A9A000BA4651462068FFF7C8FB07463146206883
:10A9B000FFF7C3FB0743F4D010B14FF00F0808E0D6
:10A9C0002068C0F80C9031462068FFF7B6FB0028DD
:10A9D000F9D0002068614046C0E700002030002028
:10A9E0000079054900EBC00001EB800040690028B8
:10A9F00000D0012070470000203000202DE9F047F2
:10AA000004460079334900EBC00001EB80070125C3
:10AA1000786880B120683049C0F80813206840F396
:10AA2000073000F01F0105FA01F14009800000F134
:10AA3000E020C0F880112068D0F8001221F0200139
:10AA4000C0F80012206845604FF4AC7631462068AB
:10AA5000FFF778FB2068C56031462068FFF76DFB83
:10AA60000028F9D020684FF00009C0F80095206850
:10AA7000D0F80C25D0F81485D0F80865D0F810551A
:10AA80004FF0FF31C0F80C15C0F814152068C0F85D
:10AA90000815C0F81015501C02D01046FEF799FC9E
:10AAA000B8F1FF3F02D04046FEF793FC681C02D08D
:10AAB0002846FEF78EFC701C02D03046FEF789FC5B
:10AAC0002068FFF7D6FC87F82090C7F80490BDE80F
:10AAD000F08700002030002010034200007800289A
:10AAE00007D104483B21408876DF002801D0FCF7DD
:10AAF000CBBA7047D82A002070B58D88027900EB58
:10AB0000C5042273C97BA41D012902D0022904D1E6
:10AB100001E0008800E04088208021886088814230
:10AB200011D92846A5DF0126B0B1112816D0FFF7AC
:10AB3000E9FA02460B480C49401AC00806EB0040EF
:10AB40000AA1FEF7E3FEA179E079814208D92846FF
:10AB5000BDE87040FDF70CBA6671F4E72671F2E7C4
:10AB600070BD0000B8DC0200B8DC020073645F62F4
:10AB70006C655F67617474635F65786368616E6755
:10AB8000655F6D74755F72657175657374282920D2
:10AB900072657475726E65642025732E0000000066
:10ABA0007CB506468D88C88806EBC504A41D172809
:10ABB00000D217202188814200D8084660800020FA
:10ABC000207121882846B5DF60B1FFF79BFA024665
:10ABD0000F481049401AC008012101EB00400EA1A6
:10ABE000FEF794FE6079002810D1306900280DD05E
:10ABF0001549D1E90201CDE90001ADF802506088A4
:10AC0000ADF8040032696946304690477CBD0000CB
:10AC1000B8DC0200B8DC020073645F626C655F67D9
:10AC2000617474735F65786368616E67655F6D7486
:10AC3000755F7265706C7928292072657475726E03
:10AC400065642025732E000028D2020004490844C0
:10AC500090F93000082801DB012070470020704780
:10AC6000982F00200449084490F93000082801D2A8
:10AC70000120704700207047982F002010B50C4627
:10AC8000017A052908D0407A38B1084808A102683D
:10AC90002046FEF723FA00E01AB106A12046FEF78F
:10ACA0001DFA2046BDE81040FEF725BAE42B00202F
:10ACB000257300000D0A000038B5C3880D46044610
:10ACC00033B114A0009015A216A12846FEF706FA8B
:10ACD000217A05291CD0607A48B1A088FEF7D2FC01
:10ACE000164951F8202016A12846FEF7F7F9A0884A
:10ACF0000021FEF79BFE03461049207A143951F8D3
:10AD0000202001B02846BDE830400EA1FEF7E6B98C
:10AD100038BD00001B5B306D000000001B5B313B49
:10AD200033316D0025734C6F67732064726F7070E0
:10AD30006564202825642925730D0A00E42B002072
:10AD4000257300003C25733E2025733A2000000047
:10AD50000349884201D10348704700207047000032
:10AD6000002000403C2B002070B50546FDF747FA57
:10AD7000134C40B1D4E904024FF08071411842F104
:10AD80000000C4E9041000212846FDF789F930B11C
:10AD9000606820B1606800F08BFA002060600121DB
:10ADA0002846FDF77DF918B1FDF72EFBC4E9060131
:10ADB000284600F0A9FA2846BDE8704000F034B8F3
:10ADC000602B002070B5054600200C460870FDF78A
:10ADD0001BFBD5E90223101A63EB01030026314661
:10ADE000361A994112DAB0F5350F03D3FCF758F94A
:10ADF0000B4942184FF4960300210A48FDF70BFA5D
:10AE000010B10D2806D009E0012070BD00210548D1
:10AE1000FDF73CF9284600F04BFA2070002070BD89
:10AE2000FFFFB400682B0020F8B51A4C0746002637
:10AE30001948FFF72DF9D0B1616871B1D0E902105E
:10AE40006268D2E90232C91A904120D26068007F5C
:10AE500018B161681048FFF70AF900F061F905467A
:10AE60006946FFF7AFFF98B1606840B10AE06068DB
:10AE700000280CD13846BDE8F840FDF7C8B938467F
:10AE8000FDF7C1F965609DF800000028D0D1F8BD3C
:10AE90006660CDE7602B002070D2020070B50546D9
:10AEA00088690C4600284FF4847128460AD0FFF7C1
:10AEB00038F9D5F81805626AE1688854606A401C60
:10AEC000606270BDFFF72DF9D5F8180570BD1FB58C
:10AED00001238DF80030CDE90121D0E90012684648
:10AEE00090471FBD1FB501238DF80030CDE901212A
:10AEF000D0E90012684690471FBD000038B5002118
:10AF0000012548B101280CD0032809D1FFF720F909
:10AF1000BDE83840FEF796B84FF0E020C0F8805109
:10AF200038BD8DF800106846FCF718F9064C2078FB
:10AF300008B9FEF76BF8E068401CE060A5709DF86A
:10AF40000000FCF72FF938BD842F00203EB50446E1
:10AF500009496846FFF764F808E000BFD0E900211E
:10AF60002046904730B16846FFF771F802980028F4
:10AF7000F4D13EBD11203EBD44D402003EB504468E
:10AF800008496846FFF74CF807E000BFD0E9002108
:10AF9000204690476846FFF75AF802980028F5D1F6
:10AFA0003EBD000050D4020002498969002900D04A
:10AFB00008477047EC2E002070B50D4C0020D2B22F
:10AFC0002070201D0B4D0378EB5C1BB1001DFFF7BB
:10AFD000B1FC02E00C30FFF7B1FB08B1FCF754F80C
:10AFE0006078002802D021780029FAD070BD0000D6
:10AFF000982B0020282B00202DE9F0410746806A7D
:10B0000014468846C8B3002531E000BFB96A05EB95
:10B01000450001EB8006B088801CFE2802D90C2078
:10B02000BDE8F0812288401C08F802002088162222
:10B03000401C80B2208008F800202088401C80B28C
:10B04000208000EB0801308800F069FB218808446B
:10B0500080B22080B28842B1B16871B14044FBF740
:10B06000D5F92088B188084420806D1CEDB297F88E
:10B070002C00A842CAD80020D2E7FFE70720CFE77C
:10B080000A78062822F0FF020A7010D2DFE800F0EA
:10B09000030507090B0D002008E0112006E0212020
:10B0A00004E0312002E0122000E022200870704706
:10B0B000002805D10349012048700020FCF7A0BEFC
:10B0C00070470000842F002010B51620FBF7A8FE63
:10B0D000A0B1114890F800044009082811D20121BC
:10B0E000814011F0EC0F0CD00C4882684FF48001C5
:10B0F0006AB1016841F48001016010BD42F20100B3
:10B1000001E042F20200BDE81040FBF7BDBF4FF086
:10B11000E020C0F8001110BD16E000E00031002072
:10B120000148FEF7B8BF000070D2020001490120BB
:10B13000087070471C2B00202DE9F8430446106866
:10B140001E4615460F464FF0000810B1FFF76CF988
:10B15000F8B1A86810B1FFF767F9D0B1D5E90001DF
:10B16000C4F84405C4F84815D5E90201C4F834050B
:10B17000C4F838154FF48C754046C4F81881D4F8DB
:10B1800018110091F2074FF0010107D0C4F85015D3
:10B1900006E087F81D801020BDE8F883C4F850054C
:10B1A000B20702D5C4F8401501E0C4F840053007E5
:10B1B00000D42161386848B146F38000401C4FF04C
:10B1C000400014D0C4F804030020E5E729462046D7
:10B1D000FEF777FF0028F9D0F87FFF28F4D0B97F79
:10B1E00011B1FEF751F9EFE7FEF75CF9ECE7C4F8AF
:10B1F0000803E9E7C207002A03D000BF4FF00F029F
:10B2000001E04FF0F00201D04FEA0111044B03EBD3
:10B210005003187800EA020040EA010018707047F5
:10B22000883000202DE9F84F204D92468946064689
:10B230009846012269461846AF68FCF701FC58B3EE
:10B24000009800210446801C09E000BF00EA0703C3
:10B250005AF8212005EB8303401C491CDA60414564
:10B26000F4D34FEA164AFCF707FF4AEA0041601C94
:10B27000384005EB80003C4005EB8402C160D0689B
:10B2800066F3C50068F3891069F39F2020F003007E
:10B29000401C20F00400D06095F8200402E000BFBC
:10B2A000FEF716FA0028FBD1BDE8F88FB032002077
:10B2B00070B50446124800250078F8B1F4B1207F3B
:10B2C000E0B1FDF7A1F8D4E90223801A994110D327
:10B2D0002069002600B92677D4E90510884720693F
:10B2E00060B1217F51B1D4E9022110187141C4E944
:10B2F000020121460348FEF7BAFE0125284670BD2B
:10B30000602B002070D20200F8B51B4C6946206803
:10B31000FDF768FC00260127184D29E0017821B1CE
:10B3200001290CD002291BD114E041680A7FBAB967
:10B330000F77416810480830FEF799FE10E0416829
:10B340006868814201D16E600AE00B480830FEF760
:10B35000A9FE05E0FFF7E4FE08B10677FAE72F70D3
:10B3600069462068FDF733FC69462068FDF73AFC22
:10B370000028D3D1F8BD000068D20200602B002065
:10B38000F8B50B4C0D46064669462068FDF714FCDF
:10B3900058B10670456069462068FDF72EFC10B173
:10B3A0000448FCF71BFF0020F8BD0420F8BD000096
:10B3B00068D20200682B00200348806841080348D7
:10B3C00000224068FBF7ACBE482B002060D2020090
:10B3D00070B50C4605464FF48E71FEF7A2FE216A49
:10B3E000A068415C206A401C2062C5F81C1570BD35
:10B3F0001FB500228DF80020029181680191426101
:10B40000D0E90012684690471FBD1FB500228DF895
:10B4100000200291816801914261D0E900126846E2
:10B4200090471FBD1FB50A4601788DF8001041688E
:10B430000191017A8DF80810C0680390044850F813
:10B440002210001F50F82220684690471FBD0000C0
:10B45000302B00200149012008707047982B0020F4
:10B4600010B588B0044620220E496846FAF7CEFF90
:10B4700006200090C01F0190029003904FF0EB70E7
:10B4800006900CB1084A00E0002269460748FDF723
:10B49000F1FD08B1FBF7F8FD0448001F447008B047
:10B4A00010BD000004D4020055B402009C2B002003
:10B4B0002DE9FF470C4605464FF40071FEF737FEB5
:10B4C00001274FF40178002618B34FF492794946CA
:10B4D0002846FEF721FEE0B149462846FEF721FE48
:10B4E000C5F8088394F8290000B96F6002208DF830
:10B4F0000000D5F88004C5F880040390A06902908C
:10B50000E0680190A661E661D4E9001268469047C0
:10B5100028E004212846FEF70AFE18B34FF4847190
:10B520002846FEF7F9FDE8B121462846FFF7B6FCAC
:10B53000616AA069884215D1E06938B1E268616A40
:10B54000A0612069E6616662E06008E094F8290085
:10B5500000B96F60C5F80883A661E268616A204699
:10B56000FFF7B5FC4FF48E7841462846FEF7D4FD30
:10B5700080B16069216A814202D294F8280028B320
:10B5800041462846FEF7CDFD606918B16169204645
:10B59000FFF72EFF4FF4A27841462846FEF7BCFD88
:10B5A000002818D041462846FEF7BBFD94F8290034
:10B5B00000B12F60A06900280DD0A661E268616A21
:10B5C00004B02046BDE8F047FFF781BC214628467D
:10B5D000FFF7FEFEDEE7BDE8FF8700001FB50A4665
:10B5E00001788DF8001041680191017A8DF80810FA
:10B5F000C0680390044850F82210001F50F8222021
:10B60000684690471FBD0000302B00202DE9FF4108
:10B610000C464FF4927705463946FEF78EFD00261C
:10B62000B8B139462846FEF78DFD02208DF800009E
:10B63000D5F88004C5F880040390D5F83C05029045
:10B64000E0680190A661E661D4E90012684690477F
:10B6500023E04FF4887739462846FEF76EFDE0B1C7
:10B6600039462846FEF76EFDD5F83C15A06988429C
:10B6700013D1E06960B1E268D5F8000220F0200043
:10B68000C5F80002E069A0612069E661E06001E0C0
:10B69000A661E2682046FFF725FC4FF4A277394601
:10B6A0002846FEF74AFD68B139462846FEF74AFDAE
:10B6B000A06938B1A661E661D5F83C152046E2687C
:10B6C000FFF710FC4FF4907631462846FEF735FD23
:10B6D00060B131462846FEF735FD0120E86060691B
:10B6E00020B1D5F84C152046FFF78FFE4FF4AC760D
:10B6F00031462846FEF721FD00280ED03146284667
:10B70000FEF720FD6069002807D0D5F84C1504B07D
:10B710002046BDE8F041FFF778BEBDE8FF81087024
:10B72000000A4870022070472DE9F05F8346DDE98A
:10B730000A4A994690460D460846012703E000BF95
:10B74000B0FBF8F07F1C4045FAD2B94500D94F460E
:10B750005FEACA7012D18CB15FEA8A7002D5B9F182
:10B76000000F01D0202607E0302605E0314658467C
:10B77000641EFCF7ADF90CB1A742F7D35FF00106E8
:10B78000B9F1010F02D9A9F1010903E0B5FBF6F007
:10B79000404502D306FB08F6F2E7DFF83C9000BF15
:10B7A000B5FBF6F000FB165519F800105846FCF7EB
:10B7B0008FF9B6FBF8F6002EF2D15FEACA7009D015
:10B7C000002C07D0A74205D220215846641EFCF762
:10B7D0007FF9F5E7BDE8F09F86D20200F8B505468F
:10B7E00080B2FCF7A9FE040013D0154E207A002782
:10B7F000317B88420ED2A8B204F10A0175DF28B16C
:10B80000112806D0BDE8F840FFF7CEBB207A401CD7
:10B810002072F8BD2772307C38B1A8B23B2176DFA8
:10B8200018B1082801D0FFF7BFFB71690029F0D0DB
:10B830008DF80070ADF8025068468847F8BD0000EA
:10B84000EC2E002030B40446007A00280AD060882C
:10B85000002166DF28B1112802D0616830BC08479A
:10B860000120207230BC704770B50C460546FCF7CD
:10B87000B1F9002807D04268002A04D021462846A2
:10B88000BDE87040104770BD2DE9FC411646DDE96A
:10B890000854CDE900541F468046022200F00CF8FF
:10B8A000002807D1CDE900543B46102231464046DE
:10B8B00000F002F8BDE8FC812DE9FC5F0026DDE91F
:10B8C0000C4B994692468E4680462788354630E096
:10B8D000D8F80400002200EB85006946006801905A
:10B8E00001A864DF002830D19DF8000050451FD129
:10B8F0000EB1002100E002212288084411185945A8
:10B9000022D846B9521C90B2208009F800E0208865
:10B91000401C20800126218801A801EB090269460C
:10B9200064DF002811D120889DF800100844208091
:10B930006D1CB8F80000A842CADC56B12088C01BB4
:10B94000401E80B2FF2802D90C20BDE8FC9F09F8F8
:10B9500007000020F9E700000000000000000000E0
:10B96000102C002023150000000000000000000043
:10B970000338FDD87047FFFFFFFFFFFFFFFFFFFF0A
:10B98000FFFFFFFFFFFFFFFFFFFFFFFFFFFFFFFFC7
:10B99000FFFFFFFFFFFFFFC001FFFF00007FFC0074
:10B9A000001FF81FFC0FF0FFFF8FF1FFFFC7F3FF31
:10B9B000FFE7E7FFFFE7E7FFFFF7E7FFFFE7F3FF3B
:10B9C000FFE7F1FFFFC7F8FFFF0FF807F00FFC00DC
:10B9D000003FFF00007FFFC003FFFFFFFFFFFFFFEF
:10B9E000FFFFFFFFFFFFFFFFFFFFFFFFFFFFFFFF67
:10B9F000FFFFFFFFFFFFFFFFFFFFFFFFFFFFFFFF57
:10BA0000FFFFFFFFFFFFFFFFFFFFFFFFFFFFFFFF46
:10BA1000FFFFFFFFFFFFFFFFFFFFFFFFFFFFFFFF36
:10BA2000FFFFFFDFFFF7FFDFFFF7FFDFFFF7FFDFBE
:10BA3000FFE7FF800007FF000007FF000007FFFF90
:10BA4000FFE7FFFFFFF7FFFFFFF7FFFFFFF7FFFF36
:10BA5000FFFFFFFFFFFFFFFFFFFFFFFFFFFFFFFFF6
:10BA6000FFFFFFFFFFFFFFFFFFFFFFFFFFFFFFFFE6
:10BA7000FFFFFFFFFFFFFFFFFFFFFFFFFFFFFFFFD6
:10BA8000FFFFFFFFFFFFFFFFFFFFFFFFFFFFFFFFC6
:10BA9000FFFFFFFFFFFFFFFFFFFFFFFFFFFFFFE1D4
:10BAA000FFC7FFC1FF87FF99FF27FF3FFE67FF7FAB
:10BAB000FCE7FF7FF9E7FF7FF3E7FF7FE7E7FF3F63
:10BAC000CFE7FF1F1FE7FF803FC7FF807E07FFE034
:10BAD000FE1FFFFFFFFFFFFFFFFFFFFFFFFFFFFF57
