:020000040002F8
:1060000060E20020C1630200C9630200CB630200AA
:10601000CD630200CF630200D163020000000000E4
:10602000000000000000000000000000D363020038
:10603000D563020000000000D7630200D9630200AC
:106040001D6B0200DB6302008D750200E17002002F
:10605000DB630200DB630200B9690200396F0200F2
:10606000DB630200DB630200DB630200DB63020030
:10607000DB630200DB630200DB630200DB63020020
:10608000DB630200156E0200DB630200DB630200CB
:10609000DB630200DB630200F1710200DB630200DC
:1060A000DB630200DB630200DB630200DB630200F0
:1060B000DB630200DB630200000000000000000060
:1060C000DB630200DB630200DB630200DB630200D0
:1060D000DB630200DB630200DB6302000000000000
:1060E00000000000000000000000000000000000B0
:1060F00000000000000000000000000000000000A0
:10610000000000000000000000000000000000008F
:10611000000000000000000000000000000000007F
:10612000000000000000000000000000000000006F
:10613000000000000000000000000000000000005F
:10614000000000000000000000000000000000004F
:10615000000000000000000000000000000000003F
:10616000000000000000000000000000000000002F
:10617000000000000000000000000000000000001F
:10618000000000000000000000000000000000000F
:1061900000000000000000000000000000000000FF
:1061A00000000000000000000000000000000000EF
:1061B00000000000000000000000000000000000DF
:1061C00000000000000000000000000000000000CF
:1061D00000000000000000000000000000000000BF
:1061E00000000000000000000000000000000000AF
:1061F000000000000000000000000000000000009F
:10620000DFF80CD000F08EF900480047F5B6020028
:1062100060E2002030B450E8012F93B2C4892344D7
:106220008489A34228BF1B1B0489A34202BFBFF37A
:106230002F8F002007E0C3EA020340E80134002C5E
:10624000E9D14FF001000A6030BC704750E8012FDF
:10625000C2EA024240E801210029F7D1704730B478
:1062600050E8022F1FFAA2F3C488A34202BFBFF373
:106270002F8F00200DE0C48923448489A34228BFC6
:106280001B1BC2EA034340E80234002CE8D14FF064
:1062900001000A6030BC704750E8022FC2EA224277
:1062A00040E802210029F7D17047034653E8022F46
:1062B000D988B2EB324F4FF0000017BF92B241EADB
:1062C000014142EA014104E05A68B2EB324F08BF93
:1062D000012043E80212002AE8D1704730B4044696
:1062E00054E8000F0D4644E80053002BF8D1156028
:1062F00030BC704730B4044654E8000F40EA010552
:1063000044E80053002BF7D1156030BC704730B41F
:10631000044654E8000F00EA010544E80053002B4E
:10632000F7D1156030BC704730B4044654E8000F14
:1063300080EA010544E80053002BF7D1156030BC1A
:10634000704730B4044654E8000F00EB010544E800
:106350000053002BF7D1156030BC704730B40446B1
:1063600054E8000FA0EB010544E80053002BF7D1DF
:10637000156030BC704770B404464FF0000054E81C
:10638000006F0D68AE4207BF44E80023012044E8D7
:1063900000630E60002B1CBF0020F0E770BC70474C
:1063A00030B4044654E8000F88422CBF451A054615
:1063B00044E80053002BF5D1156030BC7047000055
:1063C0000648804706480047FEE7FEE7FEE7FEE78F
:1063D000FEE7FEE7FEE7FEE7FEE7FEE7F5710200F7
:1063E000016202002DE9F05F0546002092469B46BF
:1063F00088460646814640241BE0284641464746DB
:10640000224600F07FF853465A46C01A914110D3F5
:1064100011461846224600F016F82D1A67EB0108BF
:106420004F4622460120002100F00DF817EB00092D
:106430004E41201EA4F10104DFDC484631462A46C5
:106440004346BDE8F09F202A04DB203A00FA02F11F
:10645000002070479140C2F1200320FA03F3194352
:1064600090407047004870475C4B030010B5431ADA
:10647000934209D28318881803E010F8011D03F82D
:10648000011D521EF9D210BD40EA01039B0703D043
:1064900009E008C9121F08C0042AFAD203E011F863
:1064A000013B00F8013B521EF9D210BDD2B201E00F
:1064B00000F8012B491EFBD270470022F6E710B509
:1064C00013460A4604461946FFF7F0FF204610BD62
:1064D000CAB2401E10F8011F8A4202D00029F9D129
:1064E00000207047421C10F8011B0029FBD1801AC4
:1064F0007047034611F8012B00F8012B002AF9D14F
:1065000018467047202A04DB203A21FA02F00021C5
:10651000704721FA02F3D040C2F1200291400843B3
:1065200019467047064C074D06E0E06840F001034D
:1065300094E8070098471034AC42F6D3FFF764FEA6
:10654000705303009053030070B58C1810F8015B72
:1065500015F0070301D110F8013B2A1106D110F8FC
:10656000012B03E010F8016B01F8016B5B1EF9D100
:106570002B0705D40023521E0DD401F8013BFAE786
:1065800010F8013BCB1A921C03E013F8015B01F8F1
:10659000015B521EF9D5A142D8D3002070BD000086
:1065A0000EB50D490D4807F0FFFA08B101F0BEFC29
:1065B0000B4A07CA8DE807006946002007F07CFAFD
:1065C00008B101F0B3FC0121064807F023FA0028C6
:1065D00001D001F0ABFC0EBD7D7B0200180A030068
:1065E000B4440300FC2A002010B507F067FB002824
:1065F00003D0BDE8104001F099BC10BD0348002253
:106600004FF40051006801F005BD0000000A0300CE
:106610002DE9F05FC7089A4607EBDA00002690469E
:10662000A0F1010B0C46FF2901D9260ACCB20A9829
:106630004FF000090D186D1EFF2D02D94FEA1529E4
:10664000EDB2162006F095F90A2005F0F3FC1620AD
:1066500006F09DF90A2005F0EDFC3C2000F088F9D9
:10666000802000F095F9442000F082F9F8B200F0A3
:106670008FF90BF0FF0000F08BF9452000F078F95E
:10668000E0B200F085F9F0B200F082F9E8B200F073
:106690007FF909F0FF0000F07BF94E2000F068F967
:1066A000F8B200F075F94F2000F062F9E0B200F0A6
:1066B0006FF9F0B200F06CF9242000F059F90A9D4E
:1066C000002405FB0AF506E098F8000000F060F9E8
:1066D00008F10108641CB4EBD50FF5D3BDE8F05FF9
:1066E00000F0F0B810B5162006F043F90A2005F0C6
:1066F000A1FC162006F04BF90A2005F09BFC00F0E7
:1067000091FB122000F034F900F08CFB012000F026
:106710002FF9C72000F03CF9002000F039F90020E3
:1067200000F036F9112000F023F9012000F030F9D3
:10673000442000F01DF9002000F02AF9182000F094
:1067400027F9452000F014F9C72000F021F90020B6
:1067500000F01EF9002000F01BF9002000F018F9ED
:106760003C2000F005F9052000F012F9182000F097
:10677000FFF8802000F00CF94E2000F0F9F800201E
:1067800000F006F94F2000F0F3F8C72000F000F900
:10679000BDE81040002000F0FBB810B5162006F050
:1067A000E8F80A2005F046FCBDE81040162006F087
:1067B000EEB8122000F0DCB810B5012000F0D8F8D7
:1067C000C72000F0E5F8002000F0E2F8002000F01B
:1067D000DFF8112000F0CCF8012000F0D9F84420B7
:1067E00000F0C6F8002000F0D3F8182000F0D0F830
:1067F000452000F0BDF8C72000F0CAF8002000F0E6
:10680000C7F8002000F0C4F8002000F0C1F83C20D8
:1068100000F0AEF8052000F0BBF8182000F0A8F852
:10682000802000F0B5F84E2000F0A2F8002000F023
:10683000AFF84F2000F09CF8C72000F0A9F8BDE8A1
:106840001040002000F0A4B82DE9F0411B4C607806
:10685000002831D1A178606A194E08434FF4A4771B
:106860004FF001050ED100F065FC4FF0A041102063
:10687000C1F80805A570FFF790FF00223946B068FF
:1068800001F0C8FB606A01280AD1A078002813D162
:10689000FFF78FFFA57000223946B06801F0BAFB00
:1068A000606A022808D1A078002805D1A570FFF7FA
:1068B00083FF65700020A070BDE8F081E02A002011
:1068C000000A030010B5222000F052F8FF2000F06B
:1068D0005FF8BDE81040202000F04AB82DE9F041F3
:1068E00004460546242000F043F8002741F288368C
:1068F000207800F04DF8641C7F1CB742F8D32620A6
:1069000000F036F80024287800F042F8641C6D1C72
:10691000B442F8D3BDE8F0812DE9F04104460546C4
:10692000242000F025F8002741F28836207800F076
:106930002FF8641C7F1CB742F8D3262000F018F80B
:106940000024287800F024F8641C6D1CB442F8D3AD
:10695000BDE8F041AFF3008010B5222000F008F848
:10696000F72000F015F8BDE810402020AFF30080BC
:1069700010B50446172005F0FCFF182005F0F9FFBC
:10698000204600F015FCBDE81040182005F0FFBFC0
:1069900010B50446182005F0FAFF182005F0E9FFAD
:1069A000172005F0F4FF204600F002FCBDE810407F
:1069B000182005F0ECBF00002DE9F04700268AB052
:1069C000DFF85091B0464FF48075012437460696A3
:1069D000284606F013F838B1D9F80403204203D052
:1069E000284606F001F826432D1D64007F1CADB239
:1069F000082FEDD34FF4BE74204605F0FFFF48B1D9
:106A0000204605F0F1FF46F0004606AA01210020CD
:106A100005F0D6FF404D16F0FF0F15D001270024DA
:106A200037420DD009EB8401D1F81005D1F81015CB
:106A3000C0F3042055F82420C1F3014102B190476E
:106A40007F00641C082CEBD3002E5FDA4FF0FF3080
:106A5000CDF8108054E0281910F8507F90F900000C
:106A600027F0C008401C3BD007A9404605F083F939
:106A700010B34FEA9719404602F0CCFE55F820704B
:106A80001FB1B9F1030F03D006E0B9F1030F27D10D
:106A900004A9404605F077F94FF0A04101EB8800CA
:106AA000D0F8000706A9C0F3014A404605F063F993
:106AB00018B1BAF1020F03D012E0BAF1030F0FD1EF
:106AC000B9F1030F08D1BAF1020F1DD002214046DF
:106AD00005F03EFF761CF6B217B149464046B8476E
:106AE000641C042CB7D3002E10D06A46012100206C
:106AF00005F066FF06990098884207D00690049832
:106B0000002634460790A6E70321E0E70AB0BDE877
:106B1000F0870000006000408095002070B54FF4C1
:106B20008076304605F076FA114CB50560B13046F6
:106B300005F077FA0120C5F80803607920B9012033
:106B400060712168002088474FF48276304605F056
:106B500061FA00280AD0304605F063FA0220C5F831
:106B600008032168BDE870400120084770BD00009F
:106B7000902B002030B51A49CA8A022A08D0042A6C
:106B800006D0072A18D140EA00100022C3B222E042
:106B90000022C3B20DE0002006E000BF02FB0404A7
:106BA0000D68401C80B22B554C8A8442F6D8521C8A
:106BB00092B2888A9042EED830BD002006E000BF35
:106BC00002FB04040D68401C80B22B554C8A8442A1
:106BD000F6D8521C92B2888A9042EED830BD00009E
:106BE000049200202DE9F04F814624481C46884637
:106BF0008388099993464B4527D3C288424524D3BD
:106C0000012901D0002635E00025681E00EB44076D
:106C100019E009EB05000026A0EB040A0FE000BF15
:106C2000BAF1000F0DD408EB0600001B09D481B2A5
:106C30001FFA8AF05A4600F079F8761C36B2B7424D
:106C4000EEDC6D1C2DB2AF42E3DCBDE8F08F002519
:106C500009EB06077F1E09E008EB0500401E81B224
:106C6000B8B25A4600F062F86D1C2DB2A542F3DBB3
:106C7000761C36B2A642EADBE7E700000492002069
:106C80002DE9F84F8246154800244FF0010980464F
:106C90001FE0002517E0D8F83C00671C6E1C474336
:106CA00046432A4621460E4808F0A5F80028B1B20E
:106CB000B8B25346CDF8009001D0002200E0FF2288
:106CC000FFF790FF6D1CD8F8381040468D42E2D394
:106CD000641C816B8C42DCD3BDE8F88FE02A002075
:106CE0006873002070B50D4C049D20602181628185
:106CF000A5810225E5824E074FEAD10000D0401C55
:106D00006082A282E381258223B1B42B02D0A280CB
:106D1000E18070BDA180E28070BD0000049200207F
:106D2000014908607047000004920020F0B5384C1B
:106D3000A38883424BD3E3888B4248D32346E78919
:106D40001E895D89CFB15A2F1AD0B42F1CD0B7F548
:106D5000877F3CD10B46281A401E80B2218AD9B1C8
:106D6000012916D0022904D0032930D1F11A491E75
:106D70008BB2281A401E80B20EE003460846EDE7AB
:106D8000711A491E8BB2E9E7301A401E83B2681AA5
:106D9000E2E7F11A491E8BB29E4218D3854216D300
:106DA0001B49E58A4C8A0968022D11D0042D20D098
:106DB000072D0CD1444304EB5304DB075B0FF02594
:106DC000DD40085D1201A843DA4002430A55F0BDD8
:106DD000444304EBD3048020002A0D5D03F0070236
:106DE00020FA02F002D028430855F0BD85430D5526
:106DF000F0BD444304EB930094079B075D0F0A5CCE
:106E0000C023EB409A43230EEB4013430B54F0BDD9
:106E10000492002002490248091F096800680847D7
:106E2000FC2B002070B500244FF0A0454FF4C8762D
:106E3000D5F81005C00E10F0010F07D00A2005F09C
:106E4000F9F8641CB442F3D3002070BD012070BD7A
:106E50002DE9F041DFF89C8001278CB0054688F8C9
:106E600009700020244E02E00A5C3254401CA84203
:106E7000FAD3002405940694022104940A940AABE0
:106E800004AA08460B9403F067FD020005F1030510
:106E90004FF002004FEA9501019410D00794089436
:106EA000ADF80400CDE90261ADF80600099413A025
:106EB00000F000FC01A907A803F084FD11E0ADF883
:106EC0000400CDE90261ADF8060014A000F0F2FB69
:106ED00001A904A803F06EFD08B101F027F803F042
:106EE00063FC08B101F022F8C8F828700CB0BDE8C6
:106EF000F0810000E02A0020D03600200A696E6987
:106F0000745F646174615F6C656E6774685F776FEE
:106F1000726473203D202564000000000A6E6577CE
:106F20005F646174615F6C656E6774685F776F72D0
:106F30006473203D202564002DE9FE434FF48278E0
:106F4000404606F02DF94C4F00254C4C012600B36D
:106F5000404606F02DF994F82E0010B194F82F1049
:106F6000D1B18DF80050616801912189ADF8081008
:106F7000E26832B1218B618362602181E56010B1EA
:106F800002E0257400E03E6021686846884784F886
:106F90002F5094F82E0060B34FF48077384606F0F7
:106FA000FFF830B3384606F003F9628B94F82D10E1
:106FB0008A420AD9A2EB010080B260832289A2EB47
:106FC0000000626802EB400005E007D1E06828B1EC
:106FD00084F82F60658306F0D1F804E08A4202D17C
:106FE00084F82F606583404606F0E2F82248001DD1
:106FF00006604FF48877384606F0D2F848B1384634
:1070000006F0D6F8257402208DF800002168684645
:1070100088474FF48A77384606F0C2F828B13846D8
:1070200006F0C6F82574BDE8FE834FF000484FF423
:107030008C7967691DE000BFB7FA87F028FA00F184
:1070400009EB80058F43284606F0AAF888B1284648
:1070500006F0AEF8A5F58C75E8088DF8040045F348
:107060008000401C8DF800608DF80500216868469E
:107070008847002FE0D1D6E70070004050960020EE
:1070800000F08ABA70B50E46144900EB400001EBDF
:10709000C0051446E86A183520B101280FD002282F
:1070A00005D113E0284600F0ABFAA04201D200243B
:1070B00011E022463146284600F0DAFA0BE0284675
:1070C00000F09EFAA042F4D20446F2E73146284688
:1070D00000F0A1FA0446204670BD0000D49F0020B5
:1070E000F8B51248124E04464FF48C7106F0D5FAEA
:1070F00000281AD00025C4F81851D4F818010090BF
:10710000F07F3446FF2806D0A17F11B105F038FC8E
:1071100001E005F043FC65772572D4E9002101B058
:1071200004F10800BDE8F0401047F8BD0030004011
:107130002C96002000B587B0182005F0E1FB172041
:1071400005F0DEFB162005F0DBFB00231B2000937F
:107150001A461946019305F04DFB182005F017FC5F
:10716000162005F014FC0F4B0DF1080C0FCB8CE82A
:107170000F00FF208DF80B008DF80A001A208DF803
:10718000090019208DF8080006480023064A02A9C4
:10719000B03806F0DFFD002801D000F0C7FE07B0D0
:1071A00000BD0000984503002DF90200FFF7C2BFA3
:1071B00010B50C490C4C012308700022627001F5D7
:1071C0000070C0E90013A0F58071C0E90212014609
:1071D000064806F079FE08B100F0A8FE60780028A5
:1071E000FCD010BD1C9200205C2B0020E844030062
:1071F00006F0BEB9F0B5D34AD3494FF080541368B6
:10720000D4F830010978D4F83421451CC1F30311B6
:1072100007D08446164601270025BCF1060F04D08E
:1072200013E003F0FF0C0E46F5E7032E05D0042E05
:1072300003D0052E01D0062E07D1B4F82463DFF861
:107240000CC3C6F30426CCF80060DEB2062E06D1CD
:10725000032904D1DFF8FCC2BD4ECCF87460461C93
:1072600006D084464FEA0206BCF1060F04D013E0B4
:1072700003F0FF0C0E46F7E7032E05D0042E03D0D3
:10728000052E01D0062E07D1D4F84462DFF8C8C21B
:10729000C6F34236CCF80060DEB2062E08D10329D0
:1072A00006D1AE4ED6F800C02CF0807CC6F800C0E7
:1072B000461C05D084461646BCF1060F04D014E0E7
:1072C00003F0FF0C0E46F7E7032E05D0042E03D083
:1072D000052E01D0062E08D14FF08046C6F80C517D
:1072E000C6F810519C4E361F3560DEB2062E08D10E
:1072F000032906D1DFF860C203260CF1640CCCF838
:107300000060DEB2062E11D103290FD1DFF850C282
:107310000526CCF80060924E78363760904E0836DD
:1073200035600CF1040C3F26CCF80060461C05D0FB
:1073300084461646BCF1060F04D087E003F0FF0C2C
:107340000E46F7E7032E7CD0042E7FD0052E01D009
:10735000062E7BD1834E3668DFF80CC2CCF8006075
:10736000804E361D36680CF1040CCCF800607D4E62
:10737000083636680CF1040CCCF80060794E0C36F7
:1073800036680CF1040CCCF80060764E1036366886
:107390000CF1040CCCF80060724E143636680CF117
:1073A000040CCCF800606F4E18363668DFF8B8C1B0
:1073B0000CF1200CCCF800606A4E1C3636680CF1DB
:1073C000040CCCF80060674E203636680CF1040CD3
:1073D000CCF80060634E243636680CF1040CCCF80F
:1073E0000060604E283636680CF1040CCCF8006062
:1073F0005C4E2C3636680CF1040CCCF80060594E0B
:1074000030363668DFF860C10CF1400CCCF8006013
:10741000544E343636680CF1040CCCF80060514EF2
:10742000383636680CF1040CCCF800604D4E3C3612
:1074300036680CF1040CCCF800604A4E40363668D1
:1074400000E003E00CF1040CCCF80060461C05D011
:1074500084461646BCF1060F04D011E003F0FF0C81
:107460000E46F7E7032E05D0042E03D0052E01D0DB
:10747000062E05D1D4F858423C4E04F04F04346037
:10748000441C04D003461146062B02D010E0DBB2A8
:10749000FAE7032905D0042903D0052901D00629DC
:1074A00006D133490B68DB0702D06FF001030B6094
:1074B00006280CD1032A0AD0042A08D0052A06D0AF
:1074C000062A04D12B48016841F4806101602348F9
:1074D0007438016841F470010160BFF34F8FBFF34E
:1074E0006F8F4FF01021D1F80002002803DBD1F894
:1074F0000402002822DA204A176020480368002B83
:10750000FCD01523C1F800320468002CFCD0C1F86F
:10751000043201680029FCD0156001680029FCD004
:10752000BFF34F8F0D48F0380168154A01F4E06150
:1075300011430160BFF34F8F00BFFDE712491148AF
:107540000860F0BDE00F00F0E80F00F040350140AA
:107550000DF0ADBA00C007403C050040FCED00E076
:10756000105600400404001020C50040E40E004006
:10757000000400403C17004004E5014000E40140E5
:107580000400FA050090D003A82C002001480068F0
:1075900000470000982B002010B5124C02202061FB
:1075A000606111A0A06104F17800E0614FF4007007
:1075B00020620020A06260620BA1A164E06204F579
:1075C0001E71E1641021A065C4E91410E06509A1F1
:1075D000E01DFEF78EFF08A12046FEF78AFF20205F
:1075E000A07110BDD49F00205465726D696E616CEE
:1075F00000000000525454005345474745520000D4
:107600000269C1688A4203D88068401A104400E0C9
:10761000501A401E70472DE9F047C4681746894646
:1076200006464FF000083069A04201D9051B02E070
:10763000B168201A0D1AB0686D1E001BA84200D850
:107640000546BD4200D33D4670682A46204449465F
:10765000FEF70CFFB0687F1B2C44A844A944A0424D
:1076600000D10024F460002FDDD14046BDE8F08752
:107670002DE9F04104468846D4E90207C51BE168BC
:10768000606816460844B54206D94146FEF7EEFE4C
:10769000B819E060BDE8F0812A464146FEF7E6FEF3
:1076A000761B08EB050132466068FEF7DFFEE660F8
:1076B000F0E700000FB4054B10B503A9044A029887
:1076C00000F02AF810BC5DF814FB000031AB02009A
:1076D0000C2C002002E008C8121F08C1002AFAD1B1
:1076E00070477047002001E001C1121F002AFBD142
:1076F000704700000121202803DA8140054801403D
:1077000003E0402802DA2038814009B101207047A7
:1077100000207047FC06FFBD2DE9FF4F8DB00F46DE
:107720000546002606E025280BD0DDE90F1290471C
:107730006D1C761C28780028F5D111B03046BDE8C4
:10774000F08F0024A246A1460122EC4900E0044348
:1077500015F8013F203B02FA03F00842F7D12878E0
:107760002A2810D06FF02F022878A0F130010929C3
:1077700014D80AEB8A0102EB410144F0020400EB49
:10778000010A6D1CF0E701CF5FEA000A03D544F45B
:107790000054CAF1000A44F002046D1C28782E2817
:1077A00017D115F8010F44F004042A280ED06FF009
:1077B0002F022878A0F1300109290AD809EB8901A4
:1077C00002EB410100EB01096D1CF2E757F8049B45
:1077D0006D1C28786C280FD006DC4C2817D0682840
:1077E0000DD06A2814D104E0742810D07A280FD163
:1077F0000DE044F400140AE044F4801401E044F481
:1078000040146978814202D104F580146D1C6D1C0E
:107810002A786E2A1FD00CDC632A31D004DC002ABF
:107820008BD0582A11D1A3E0642A68D0692A0CD1E0
:1078300065E0732A2ED004DC6F2A73D0702A04D13D
:107840009BE0752A6FD0782A6ED01046DDE90F12C2
:107850009047761C50E1C4F30250022806D003285A
:1078600009D0042801CF09D0066045E101CFF11706
:10787000C0E9006140E101CF06803DE106703BE1D7
:1078800017F8040B8DF8000000208DF80100EB467E
:10789000012003E057F804BB4FF0FF3061074FF0C1
:1078A000000102D40DE008F10101884649450FDAD4
:1078B0008045F8DB1BF808100029F4D108E008F136
:1078C000010188468142FADB1BF808100029F6D135
:1078D000DDE90F23AAEB08008146214600F036F9C6
:1078E000304400EB080604E0DDE90F121BF8010B41
:1078F0009047B8F10108F7D221464846F7E00A213F
:10790000C4F302534FF0000B0891022B04D001CFB7
:10791000C117032B09D00AE0FF1D27F00707F7E87E
:10792000020108E032E01FE020E000B2C117042BA2
:1079300001D140B2C117031E71F1000307DA4FF005
:10794000000CD0EB0C006CEB01012D2302E02305B1
:1079500004D52B238DF82430012303E0E30701D065
:107960002023F7E7984658E00A2110E010210EE0A6
:1079700010204FF0000B08900CE010214FF0000B8E
:1079800044F004044FF00809089103E008214FF087
:10799000000B0891C4F30253022B04D001CF002145
:1079A000032B06D006E0FF1D27F00707F7E80201CA
:1079B00003E080B2042B00D1C0B24FF000082307CF
:1079C0002BD5702A07D0DDF820C08CF0100C5CEAB3
:1079D0000B0C05D00EE040238DF82430012308E085
:1079E00050EA010306D030238DF824308DF825208D
:1079F00002239846DDF820C08CF0080C5CEA0B0CE2
:107A00000BD150EA010301D1630706D530238DF86D
:107A100024304FF00108A9F10109582A04D038A2F6
:107A20000B9208AA0A920BE03AA2F9E75B46089A81
:107A3000FEF7D8FC0B9B9B5C0A9A521E0A921370AD
:107A400050EA0102F2D10A98ADEB000000F1200BE0
:107A5000600702D524F4803401E04FF00109D945D4
:107A600002DDA9EB0B0000E0002000EB0B0141441C
:107A70000890AAEB010AE00306D4DDE90F232146B2
:107A8000504600F063F806444FF0000908E009A9E9
:107A900011F80900DDE90F12904709F10109761C80
:107AA000C145F4DBE0030CD5DDE90F232146504648
:107AB00000F04CF8064404E0DDE90F123020904756
:107AC000761C0899481E08900029F5DC08E00A9801
:107AD0000A990078491C0A91DDE90F129047761C3B
:107AE000BBF10001ABF1010BF1DC21465046DDE9B1
:107AF0000F2300F019F806446D1C1BE6092801004D
:107B00003031323334353637383961626364656613
:107B100000000000303132333435363738394142D5
:107B200043444546000000002DE9F041044600258D
:107B30001E461746880404D405E039462020B04785
:107B40006D1C641EF9D52846BDE8F0812DE9F04191
:107B5000044600251E469046C80301D5302700E0A4
:107B60002027880404D505E041463846B0476D1CFF
:107B7000641EF9D52846BDE8F081000010B5044622
:107B80000078002822D10121606805F043FF08B188
:107B900000F0CCF9606801220023B0F900100C4815
:107BA000C46AA14201DDC27100E0C37144793CB1F5
:107BB000B42901DA43710371BDE8104006F094B8AE
:107BC000438B9942F8DD42710271F5E710BD000068
:107BD000E02A0020034A40F2131108B1012800D125
:107BE00051837047E02A002010B5FEF7D9FCBDE8AC
:107BF0001040FEF7F9BC00002DE9FF4F9BB0904606
:107C00000D461046042A65D2012D63DB282D61DC68
:107C100000EBC00101EB4810554901444E5754494F
:107C2000A43908444457284603F056F9C11700EB1D
:107C30005170C7104146284603F030F90B9097FB6E
:107C4000F6F006FB1070301A099097FBF6F0001B57
:107C50000A90601E10AF1A901D283BD82146384666
:107C6000FEF72BFC01213819894600F8011C002081
:107C700017E000250CE0785D494607F0F9FB6A1C27
:107C80007855A24203DA79194978484078556D1C35
:107C9000A542F0DB0221484607F0EAFB814608F1E5
:107CA00001008046A042E4DB0020DDF86CB058E023
:107CB00009998A4501DB012100E000210A9801EBC6
:107CC00000090B991B98451810A8CDE90C501A987B
:107CD0001D2801D9AFF3008021462846FEF7EDFBB1
:107CE00000201CE01BF808002978621E48400E9016
:107CF000691C2846FEF7BAFB002128190F4600F838
:107D0000011C08E00D980E99C05D07F0B1FBE95D1C
:107D10004840E8557F1CA742F4DB08F1010080468B
:107D20004845DFDB002150460AE00A9A914201D122
:107D3000099A801A1E9A1BF80130491C13543044CA
:107D40004945F2DB0B990020514405E00C9A135C85
:107D50001E9A401C53543144A042F7DBCB440AF135
:107D600001008246B042A3DB1FB0BDE8F08F0000E7
:107D70004C460300800701D0002070470120704767
:107D8000C3688B4206D811440069491E814201D85C
:107D9000012070470020704790F82400012801D08E
:107DA0001F207047EE20704710B5012202210020ED
:107DB00001F0CCFA08B1072810D1072202210120D6
:107DC00001F0C4FA08B1072808D100210A220846A8
:107DD00001F0BCFA08B1072800D1002010BD000056
:107DE00010B50321044800F03DFD002803D0BDE894
:107DF000104000F09BB810BD9C320020022001F022
:107E0000A7B9000070B50024064D06E0686801219E
:107E100010F8340005F0CCFC641C28788442F5D3BB
:107E2000002070BDA02B0020F8B516460C46054674
:107E30000A2A01D20720F8BD05F0B4FD18B905F0F3
:107E40007BFD0028F7D1134F102113487D603C7053
:107E5000BE60FEF732FB0020C7E904000F4E0DE0C4
:107E600005EBC4003168009181788DF8011000782D
:107E70000B4A694605F0EEFC0028DCD1641EE4B232
:107E8000EED2BDE8F84005480021064A001D00F08A
:107E900087B80000A02B0020A0960020A847030070
:107EA00085B10200719C020072B605F03BF800BF7C
:107EB00004F074FE0028FBD111481249401AC4088E
:107EC000012000EB044010A104F082FF114800687B
:107ED000C00700D000BE022000EB04400EA104F059
:107EE00077FFBFF34F8F0B48E43801680E4A01F467
:107EF000E06111430160BFF34F8F00BFFDE7000059
:107F000018540300A0530300466174616C2065722D
:107F1000726F7200F0ED00E053797374656D20723A
:107F200065736574000000000400FA050EB50021B9
:107F30000091CDE901106A4644F20100FFF7B4FF59
:107F40000EBD10B58268C368934203D002F056FD9F
:107F5000002010BD052010BD29B112B1531E1342DF
:107F600003D0092070470E207047016083800021F4
:107F70008160C1600846704710B58268C3689A1A6C
:107F800083889A4203D802F043FD002010BD0420EC
:107F900010BD0000014802F04CB80000C02B0020CA
:107FA0003AB100680129426100D00021016100203E
:107FB000704707207047000038B511480823582241
:107FC000416800910F49006803F0EFFD002815D1CA
:107FD0000D4A69460D4802F031F804000ED1012126
:107FE0000A4802F0A2F80123094A1946074801F09D
:107FF000F8FF0649012008390870204638BD000006
:10800000B0470300C0960020A1F40200C02B00205E
:10801000FFFF7F0070B50446007F0D4608B10020C9
:1080200070BDA26103F094F8401941F10001C4E968
:108030000201206900B125612146BDE870400020A1
:1080400007F0F4BE014600200877012007F0EEBEDD
:10805000F0B5244E89B01F460D00044672603FD033
:10806000A888296882B22048FFF776FF002835D11A
:10807000A889A96882B21C481030FFF76DFF00285C
:108080002CD1202219496846FEF7F0F96069069064
:10809000207C00B101208DF814008DF81C70607CEC
:1080A00000B10E208DF81500E0680290A0680390E2
:1080B00020680190606800900A480D4A69460830BF
:1080C00003F0FCFF002809D1B0702068401C05D0E7
:1080D00004490122491CC81D04F024F809B0F0BD70
:1080E0000720FBE7DC2B002018970020C447030083
:1080F00041FF020010B501461048FFF73DFF0400A4
:1081000019D10F480F4A0178515C19B1001D06F0D2
:108110006DF902E00C3006F043F860B908490748F1
:108120000839FFF70EFF30B9054901220839044824
:1081300004F008F80446204610BD000028970020EF
:10814000E42B0020842B002030B5EFF3108172B6B1
:108150000D4A9468012324B10370002900D162B64E
:1081600030BD93604FF0E023D3F88051074C254099
:108170001560C3F88041D3F8844154605A17C3F89E
:10818000842100220270E8E738970020FC06FFBD3A
:108190000B498A68002A11D000280FD1EFF3108014
:1081A00072B60B684FF0E022C2F800314B68C2F89B
:1081B000043100228A60002800D162B670470000B6
:1081C0003897002070B5102902D830FA01F401D098
:1081D000AFF30080491E12D41D6820FA01F405F0A7
:1081E000070604F00104C6F1070602EBE505B440FA
:1081F0002E7834432C701C68641C1C60EAE770BD48
:108200002DE9F05F904683468A46072A71D80846D2
:1082100006F005FE074600254FF0030964E0002440
:108220005FE02A462146584602F01CFEC8BBB8F162
:10823000080F5ED2DFE808F0040C13182028363D42
:10824000601900EBD07121F0010181423BD011E0B7
:1082500005EBD57020F00100A84234D00AE094FB71
:10826000F9F109FB114004E0611991FBF9F209FBF6
:10827000121040B3002627E094FBF9F005EBD5710E
:1082800080EA6100C007F4E704FB05F090FBF9F217
:1082900009FB120100EBD07222F00102801A08449F
:1082A000E7E71DE004FB05F090FBF9F209FB120182
:1082B00006E004FB05F191FBF9F309FB13116019CA
:1082C0004140C807D5E701262A462146504602F01C
:1082D000C9FD80EA06032A462146504607F084FA83
:1082E000641CBC429DDB6D1CBD4298DBBDE8F09F69
:1082F000FFE7AFF300802DE9F041064608680C4621
:10830000411C4FF0A0474FF0010506D005FA00F1DF
:10831000C7F80815206804F0FDFA6068411C02D017
:10832000002104F0D3FA3168A069C1F82405607D0A
:10833000227D31681043C1F86C05D4E90012306821
:10834000C0F81425C0F80C15207D012815D1A068AF
:10835000411C02D0002104F0B9FAE068411C05D0AC
:108360008540C7F80855E06804F0D4FAD4E9021251
:108370003068C0F80825C0F81015BDE8F0812DE977
:10838000F041064608680C46411C4FF0A0474FF0EC
:10839000010506D005FA00F1C7F80815206804F0B9
:1083A000C3FA6068411C02D0002104F098FA3168D9
:1083B000A069C1F82405607D217D32680843C2F8B8
:1083C0006C05D4E900123068C0F80C15C0F814250B
:1083D000207D012815D1A068411C02D0002104F0A5
:1083E0007EFAE068411C05D08540C7F80855E06872
:1083F00004F09AFAD4E902123068C0F80825C0F8EF
:108400001015BDE8F081000010B51C4A01211C4880
:10841000FFF7C6FD08B1FFF789FD1948194A012188
:10842000001DFFF7BDFD08B1FFF780FD1448164A97
:1084300001210830FFF7B4FD08B1FFF777FD1048C0
:10844000124A01210C30FFF7ABFD08B1FFF76EFDBA
:108450000B480F4A00211030FFF7A2FD08B1FFF7CB
:1084600065FD07480B4A01211430FFF799FD0028EC
:1084700003D0BDE81040FFF759BD10BDE97B0200F5
:10848000000A0300D996020041A20200CD96020024
:1084900029A202007DA2020070B51500044609D091
:1084A0000020286034B1206820B1A079800703D073
:1084B000072070BD0E2070BD084600F01FFBC0B243
:1084C000142804D02179814203D8042070BD0520EE
:1084D00070BDE288216800FB02102860002070BD9A
:1084E0002DE9FC47002517880646158090F82D00D9
:1084F0001446894630B13A462146484600F012FB00
:10850000051E09D1B0784FF00C0A18B32088C84670
:10851000001DB84202D95046BDE8FC87684679DFA5
:108520000028F9D12088032108F80010208819219B
:10853000401C80B2208008F800102088401C80B2C7
:10854000208000EB0801BDF8000007F09AFE2188AA
:1085500008442080F0780222C8B1218896F90330BF
:1085600001F1030C4846BC45D5D8425421884FF050
:10857000010C491C89B2218000F801C02188491CE6
:1085800089B2218009F801302088401C2080706861
:10859000B8B1218890F9003001F1030C4846BC4580
:1085A000B9D8425421880A22491C89B221804254F8
:1085B0002188491C89B2218009F801302088401C9B
:1085C0002080308950B1CDE900474B460622022178
:1085D00006F1080008F034F8051E9DD1308A50B12C
:1085E000CDE900474B460722032106F1100008F0B1
:1085F00027F8051E90D1308B50B1CDE900474B468E
:108600001522142106F1180008F01AF8051E83D16E
:10861000306A30B13B462246494601F018FA051E41
:10862000DBD1706A30B13B462246494603F0D8F9A7
:10863000051ED2D196F82C0038B13B462246494659
:10864000304607F08DF8051EC7D1307838B13B466B
:1086500022464946304603F04DFA051EBDD1284654
:108660005AE718B504460020ADF8000013466A46E4
:10867000204600F006F8002802D0BDF80000204493
:1086800018BD70B5C8B1C2B10024158803E0065DFD
:10869000641C3444A4B2A54203D8061976789E42DD
:1086A00001D08C42F3D38C4207D2005DA31C401E44
:1086B0009BB280B21C188C4201D9002070BD13807F
:1086C00070BD80F8301070472DE9F0410D00044670
:1086D00006D02CB195F87A000026012803D006E0D8
:1086E0000E20BDE8F08195F89800012829D0D5F832
:1086F000A000042825D0D5F89C00042821D04FF0F4
:108700000108A6702C2205F17801201DFDF7AEFEB0
:1087100084F83060D5F8A4006063D5F8A800A063A1
:108720004FF6FF70A4F8240404F58260C4F8200416
:10873000C4F82664A4F82A6484F82C64207810B164
:1087400004E00720CDE7FF2084F8540004F155072A
:108750002046C4F81074FFF71FFBA4F8140404F2B9
:10876000144239462846FFF7BBFE0028B9D104F26F
:108770003120C4F818042046FFF70EFBA4F81C04AF
:1087800004F21C4205F13C00D4F81814FFF7A8FECF
:108790000028A6D184F85180208BA4F8480084F8E2
:1087A0003C80266484F8506060690021606445461E
:1087B00004F13C02781E72DF002892D1257090E708
:1087C00010B50288102A1BD0112A20D0262A1DD1CC
:1087D000007A0C46012801D0022817D1A078052183
:1087E000401CB0FBF1F201FB1201204600F03AF808
:1087F00000280BD0A16B002908D0BDE81040084725
:10880000C27B012A02D18088A1F8240410BD0C4645
:10881000002184F82E148088B4F824148842F5D1FD
:1088200020790028F2D10121DFE710B5044690F845
:10883000540074DF012084F82E04002084F83004F2
:1088400084F850000621204602F05EF9002808D185
:10885000A178204600F006F810B1A16B01B188475D
:10886000002010BD2DE9F05F044600780F4698B156
:10887000A7700025C4F82654A4F82A5484F82C5470
:10888000A079012608B1012F09D0E07980B1012F2C
:1088900005D0022F03D00BE00820BDE8F09F616BEC
:1088A00021B184F82D640820884701E084F82D5414
:1088B00004F2274100200A5C0AB1304603E0401C64
:1088C0000628F8D300204FF002084FF0030B012FC9
:1088D00006D0022F0CD0032F0FD0042F15D110E09B
:1088E000A17929B194F8241011B908B130460DE0EE
:1088F000E17911B108B1404608E0207A08B1584644
:1089000004E0607A08B1042000E02846A070616BA2
:1089100041B1032801D0042804D1607910B194F842
:108920002E0498B184F82F5404F13C001821074616
:10893000FDF7C3FD84F83C6004F12C0006F01CF840
:1089400058B194F82C0084F8510008E084F83054B1
:1089500084F82F6407208847E6E784F8516094F88C
:10896000240058B104F1280006F006F820B194F86C
:10897000280084F8520001E084F8526084F85050D6
:10898000A27804F2264104F582694FF0060A052A0E
:1089900064D2DFE802F07C030F22420084F83160E9
:1089A000C4F82054C4E9101584F83C808020A4F851
:1089B000480055E084F8318094F82420384612B1FC
:1089C0000722027001E080F800B0228A8281C4F898
:1089D00020544160E168B96042E06069B860208B72
:1089E000B88194F824003D460028204602D084F83F
:1089F0003CA001E084F83C6007F0F4FD50B185F83C
:108A000014800421204602F07FF838BB052184F849
:108A1000311021E084F831B01EE0E069B860208CAC
:108A2000B88194F824003D460028204602D084F8FE
:108A30003CA001E084F83C6007F0D4FD48B185F823
:108A400014800421204602F05FF838B984F831A080
:108A500002E0042084F83100C4F82094A07878B1B2
:108A60003A4604F15400D4F8201472DF00287FF451
:108A700014AF94F8301094F8540073DF0028F6D146
:108A8000616B11B194F831008847002005E784F844
:108A90003150F5E770B5040012D001461C2214488D
:108AA000FDF7E4FC1248134D0560206850B17ADFF1
:108AB000002806D12068016829604068686005E0E8
:108AC0000E2070BD0B487BDF0028FAD108484FF616
:108AD000FF711438084A20F8041B05493439016035
:108AE0000021FFF75DFA0028EBD0032070BD0000E5
:108AF000D49400207C2B00207D05030010B5044693
:108B000000F006F808B1204610BD142010BD00008A
:108B1000142801D3002070470146014803F08FB8A4
:108B2000F49400207CB5054608880C460930904234
:108B300001D90C207CBD68466DDF0028FAD1218860
:108B40000820685420881B21401C80B220802954B2
:108B50002088401C80B220802844DDF8011001608C
:108B6000BDF8051081802088801D80B220809DF88E
:108B70000010490800D0012129542088401C208081
:108B800000207CBDF8B5324C01880026E78A0546F6
:108B900021294AD015DC2F482F4A1029A0EB0200CA
:108BA0004FEAD0004FF0030202EB004013D011292E
:108BB00028D0132938D100231A46852138467FDF73
:108BC0001AE03B2940D0522938D056292CD1808830
:108BD000132176DF10E021A104F0FAF822A0FEF7BD
:108BE00069FD072000F0D4FB08B1FFF79FF9A988C1
:108BF000E182204803F096F9002815D0BDE8F8403E
:108C0000FFF794B91CA104F0E3F81FA0FEF752FD92
:108C10004FF6FF70E082A079002805D015480C308F
:108C200090F8540074DFA671F8BD009680886946FC
:108C30008FDF0028F8D0FFF779F9F8BD00231A4636
:108C400019463846B1DFD7E78088132176DFD3E7AE
:108C5000E02A002018540300A0530300436F6E6EF7
:108C600065637465640000000A436F6E6E6563742B
:108C70006564000090320020446973636F6E6E6516
:108C800063746564000000000A446973636F6E6E6C
:108C9000656374656400000010B51A4C0188606853
:108CA00010290ED011292BD1401E606028D1FFF76A
:108CB0007BF8002824D02168002921D0BDE810408D
:108CC0000847D0B900210122084600F03FFB08B157
:108CD00007280FD107220221012000F037FB08B13D
:108CE000072807D104220221002000F02FFB20B129
:108CF000072802D0216801B188476068401C606085
:108D000010BD0000742B00202DE9F04701883B4E78
:108D100040F2F3194FF6FF7510291BD011293ED0F0
:108D2000122954D0502946D1C188F289841D91421C
:108D300041D1618902293ED18688304602F074FB18
:108D4000050038D004F10C0000F0BEF9A8B32946A4
:108D500030464EE0C17B8788044601292BD1A846C6
:108D6000284602F061FB050017D02F8000202872F2
:108D7000234843464A460168C5F80A104068C5F8CA
:108D80000E0004F1100105F10A0002F00FFC6872F8
:108D9000F08900280FD129462AE0042013E08088BA
:108DA00002F042FB040006D06068FFF74BF908B1FF
:108DB00006F0A6FC2580BDE8F087FFE76868FFF7AE
:108DC00041F90028F7D0BDE8F04706F099BC878844
:108DD0000646384602F028FB0400ECD02B464A46F3
:108DE00006F1080104F10A0002F0E0FB607221467E
:108DF0003846BDE8F04700F071BE0000D494002072
:108E00007C2B00202DE9F04F0446868801884248DB
:108E100097B0834610290CD0112950D01030192951
:108E20006AD01A2974D1217A0C09042C4DD301225D
:108E30004CE0394D083DA868C0430B9069680BA809
:108E400002F021FF0B990CA800F0E2FD2C220CA9E6
:108E50006846FDF70BFB0027E946A84610E000BF77
:108E600009EB47005FF00005B0F804A008EB8500AF
:108E70005146001D02F0D8FE6D1C1E2DF6D37F1C3E
:108E80000098B842ECD8142E05D317B00420BDE8E2
:108E9000F04FFFF74BB83146584602F0DBFE314643
:108EA00008F1040002F0D6FEE07B012830D017B0B4
:108EB0003146BDE8F04F1848001D02F0CBBE17B098
:108EC0003146BDE8F04F02F0AFBE0022314601F05E
:108ED00016FE032C01D3012200E000220E48314689
:108EE0000C3001F00CFE022C01D3012200E0002224
:108EF00009483146083006E0217A002908D1617A14
:108F0000C1F3C002314617B0BDE8F04F01F0F7BD24
:108F100017B0BDE8F08F0000F8940020F0B585B0E0
:108F200016460F4604001D4614D004AA194660696F
:108F3000FFF7B2FA00280BD1A5F57F40FF380BD020
:108F4000049848B1007848B13088F42808D907203F
:108F500005B0F0BD0E20FBE70520F9E70820F7E794
:108F600000200090019002900390A088ADF80000CE
:108F700001208DF80200CDE9026769462846AEDF80
:108F8000E6E7000070B5334D04008EB02DCD08AE7D
:108F900086E82D005BD0E9B30868A061214608A8E7
:108FA00062DF002851D1207801258DF83200ADF81C
:108FB0003050A21C0CA92846A8DF002845D120214A
:108FC0006846FDF77AFA0220ADF8000020788DF8A7
:108FD00002008DF80C509DF80D00F426ADF80460E9
:108FE00040F00C008DF81150ADF806508DF80D00D2
:108FF0008DF81250608804F10C02694600F012FCF2
:10900000002822D120216846FDF757FA0320ADF849
:10901000000000E01BE020788DF802008DF80C5075
:109020009DF80D008DF81150ADF8046040F010006F
:109030008DF81250ADF806508DF80D008DF81350D4
:109040006088221D694600F0EDFB0EB070BD0E2059
:10905000FBE700007C47030070B588B00446002998
:1090600024D0002C22D008462188102920D0502955
:1090700024D057291AD10546A188406906AAFFF7CE
:109080000BFA002812D1069E307800280ED0182145
:109090006846FDF712FA01208DF800000195A088BE
:1090A000ADF808000396A9696846884708B070BD06
:1090B00008B02146BDE8704005F02EBA08B0214640
:1090C000BDE8704005F008BB007800F00100704773
:1090D0000149085C70470000344703000649095CF9
:1090E0004FF0A040D0F81005C84010F0010000D0AB
:1090F000012080F001007047344703002DE9FC4156
:109100000646C0074FF000050ED0104F0024012284
:10911000385D009500231146019503F07DFB641C2A
:10912000042CF4D300F046F8B0070DD5074E002408
:10913000361D0022305D032300951146019503F092
:109140006BFB641C042CF4D3BDE8FC8130470300A6
:1091500007490B5C4FF0A041D1F80425012098404D
:1091600020EA0203C1F808351040C1F80C05704729
:10917000304703000249085C012103F016BC0000DF
:10918000304703000249085C002103F00EBC0000D8
:10919000304703000649095C4FF0A040D0F80405B1
:1091A000C84010F0010000D0012080F0010070479D
:1091B0003047030010B500242046FFF7DBFF641C96
:1091C000042CF9D310BD10B500242046FFF7DAFFB8
:1091D000641C042CF9D310BD10B50246064B4FF0A9
:1091E000FF3000215C5C944201D1084610BD491C4F
:1091F0000429F7D310BD00003447030070B50C4EAE
:109200000C004FF0000530600BD0012000F06AF830
:1092100008B1022004E0002000F064F800B10B2047
:109220002070706810B9FEF7BFFD0546284670BD76
:10923000742B002010B5002000F0DAF908B10628E0
:1092400006D1012000F0D4F908B1062800D1002091
:1092500010BD00002DE9F0470D468146FFF7BCFF29
:109260000446042836D2DFF874801B481C4EA8F14F
:109270000C0725B3012D0ED0022D2BD104EB440099
:1092800030444578002D25D0B968002922D02846E1
:10929000BDE8F047084704EB4401755C0E44717863
:1092A00049B10E4A4FF48041093A8068FEF7B2FE98
:1092B00008B987F80390B17808F80410E2E78068ED
:1092C000FEF7C0FE04EB4401314418F804008D7829
:1092D000A842D7D0BDE8F08738470300702B0020A4
:1092E00070940020042801D2FFF7F8BE00207047D8
:1092F0000146144810B5C08A042910D0072917D098
:109300000A291ED1002000F043F808B1FEF70EFE36
:10931000FFF790FF08B1FEF709FE33DF02E01321EB
:1093200076DF0CE000280CD0BDE81040FEF7FEBD53
:10933000A0F57F41FF3904D10348FFF776FA0828EA
:10934000F0D110BDE02A00209C32002070B500232F
:10935000042810D20D4D00EB4004012A02D101294E
:109360000CD00022094E00EB4000304461B10129CD
:1093700006D0022906D00723184670BD0E30C2B2AF
:109380002A55F9E74270F7E78270F5E770940020FC
:109390000020704770B506461E480024C0E90161F0
:1093A000B00720D50025012211462846FFF7CEFF41
:1093B0006D1C0446042D02D2002CF4D013E094B9A5
:1093C00040F2333204211448FEF72EFD04000AD186
:1093D000FEF718FD040006D10F48104A0021001FB7
:1093E000FEF7DEFD0446F00712D00120FFF786FEEF
:1093F00074B909480A4A00210C38FEF7D1FD04006F
:1094000006D10548074A01210838FEF7C9FD044680
:10941000204670BD642B0020444703003D970200A6
:109420002DB60200FD7D02002DE9F05F6E4C054671
:1094300000266078B34618B184F801B002F0DEF877
:109440006A4F4FF47A694FF4C87A4FF00108182D2B
:1094500069D2DFE805F00C1313384754696E727B4C
:10946000727BC58484848484B3B6B9BCC5C502F05C
:10947000C5F83868FEF7E6FD06465CE00020FFF719
:1094800089FE00284FF0000008D0FFF773FE022D80
:1094900002D14FF4E16008E0484606E0FFF772FEB3
:1094A000022D01D1C82000E05046410CC0034FF40A
:1094B0007A72801841F10001257052000023FCF7F8
:1094C00091FF01462AE00020FFF764FE00284FF0DC
:1094D000000004D0FFF74EFE4FF44870E5E7FFF7B9
:1094E00051FEDFE70020FFF755FE00284FF0000097
:1094F00002D0FFF73FFECFE7FFF744FED4E700209E
:10950000FFF748FE00284FF0000002D0FFF732FEC0
:1095100001E0FFF737FE257040F6CD4100223868A4
:10952000FEF778FD064646E00020FFF711FE2570A5
:1095300008E0002051E025703DE084F80180012022
:10954000FFF706FE002240F26661E8E784F801803A
:109550000120FFF7FDFD00224FF40051DFE778689E
:10956000FEF770FD0646D5F1110000D02EB10220A5
:10957000FFF700FE84F802B01DE0012816D980B282
:10958000C8214843C117C90341EA5041C0034FF401
:109590007A72801841F1000152000023FCF722FF8B
:1095A000014600227868FEF735FD06460220FFF7E7
:1095B000E9FD84F802803046BDE8F09F02F01EF815
:1095C000B9E702F01BF8B4E702F018F804E002F083
:1095D00015F80020FFF7D6FD0120FFF7D3FDAAE71D
:1095E000FFF7F1FDA7E70000642B002038470300D8
:1095F000012107F08CB800002DE9F8430546861CD0
:1096000000208DF8000090460F464FF00109684693
:10961000FEF79AFD1B4C20683860D4E90001401A1F
:10962000A16804F21C47081A0EE00121384602F036
:1096300024FB02F011F80146384602F01EFBD4E983
:109640000001401AA168081A401C8642EDD8B8F102
:10965000000F03D0052065F3891002E0062065F3B2
:109660009F50A2682168114004EB8101C860206806
:10967000304420609DF80000FEF78AFD4846BDE8B2
:10968000F8830000B09B002070B50D4604460A29FF
:1096900002D10D21FFF7F8FFA0682268411CA160EC
:1096A0001554D4E90101814204D32046BDE870403D
:1096B00002F065BD70BD0000034803C8814201D1BE
:1096C0000120704700207047B09B00200149012015
:1096D00048747047E02A002010B54FF0A040D0F841
:1096E0001015C90E11F0010F0ED11021C0F80C1584
:1096F0000649002048730870FDF758FD044840688B
:10970000BDE81040FEF79EBC10BD0000E02A00201E
:10971000000A0300034630B5074800210478426878
:1097200006E000BF02EBC10005789D4203D0491C52
:10973000A142F7DB002030BDA02B002000780221E1
:10974000FFF788BD10B54FF400434FF0FF32994248
:109750002CD2012808D002280FD0042816D00828BF
:1097600016D007281CD019E001EB8100022101EB83
:109770004000032190FBF1F00EE001EB410000EB13
:10978000C100401C00EBD070401005E0C80003E0B1
:1097900001EB810000EBC100002805DAAFF3008087
:1097A0000029FBD1182010BD9842FCDB104610BDEB
:1097B00005494FF0FF32082841F8202002D3084421
:1097C00080F848207047000080950020F0B54FF0E9
:1097D000FF3512B10023082601E008230C260C4CAB
:1097E00005E000BF54F823707F1C04D05B1CB3421B
:1097F000F8D32846F0BD26185DB286F8305044F8FC
:109800002310002AF5D1E11881F84800F1E70000A3
:10981000809500200249084490F93000704700000C
:10982000809500202DE9F0438146887891B09046DC
:109830000C4600B901208DF83E002088ADF83C00B0
:1098400000250095607C694605F0FEFF6E46A07C11
:10985000711C05F0F9FFE07B00289DF8020002D0A2
:1098600040F0080001E020F008008DF80200217CA3
:1098700011B140F0100001E020F010008DF802005E
:10988000217B11B140F0010001E020F001008DF8D2
:109890000200217D09B1022100E0012161F34200B3
:1098A0008DF802001C2102A8FCF707FE607BC106B0
:1098B00001D4800617D50E950EAFE07C791C05F01B
:1098C000C3FF9DF83800079720F00F00401C20F0E0
:1098D000F00010308DF838009DF83A0020F00600B6
:1098E000801C8DF83A00607B8DF80800A07B8DF815
:1098F0000900142109A8FCF7E0FD0FA8CDE909062D
:10990000A088ADF83000A06820B1E088ADF82C0048
:10991000A0680D90A06998B301950088ADF810007B
:10992000A06901AD01A94088ADF81200A0694068A6
:1099300006950390A069007B05F086FFA069691C6D
:10994000407B05F081FFA069807A00289DF8060021
:1099500002D040F0080001E020F008008DF8060079
:10996000A169C97A11B140F0100001E020F01000A7
:109970008DF80600A169097A19B140F0010002E0F2
:109980000DE020F001008DF80600A169897B09B186
:10999000022100E0012161F342008DF80600E06938
:1099A00000B10590434609AA02A94846AADF11B0B2
:1099B000BDE8F08370B5084C050009D0103421686B
:1099C000002907D008682060496828468847F6E7DC
:1099D0000834F4E770BD00006C950020054A0121B1
:1099E00020B1012805D19170FFF7E4BF517000202C
:1099F000FAE770476C95002010B5D0E90234D1E940
:109A00000220D11AA04101D3012010BD002010BDB9
:109A100073B58CB00646002000900D9880B10024EC
:109A20006D4621460DA802F00AF930B1009805EB09
:109A3000400084800098401C0090641C142CF0D3DB
:109A40002C2269463046FCF711FD0EB070BD2DE9A1
:109A5000F04117880646B81D14460D46984202D9B3
:109A60000C20BDE8F0813188072206290AD34FF483
:109A7000486C4FF6FF73614501D9994202D1708855
:109A8000062801D21046ECE7604501D99842F9D189
:109A9000994203D0984201D08142F3D80520E8557D
:109AA00020881221401C80B2208029542088401C2C
:109AB00080B220804119308806F0E3FB21880844F9
:109AC00080B220804119708806F0DBFB21880844B1
:109AD00020800020C5E7FEF729BA000038B54A7A91
:109AE0000F4B62B100220A725969002906D0012287
:109AF0008DF80020ADF802006846884738BD0A7A24
:109B000062B19B684C68024619462046FEF782FA0D
:109B10000028F3D0BDE8384005F0F2BD5B68F1E7FE
:109B2000D494002070B588B00646002005900690B9
:109B3000ADF81410ADF816100190029001AA05A915
:109B4000304690DF050021D003F0C8FD03461148E0
:109B500011493246401AC108012000EB0140044679
:109B60000E4903F040F9BDF8042012B9BDF8060013
:109B700028B1BDF80630204609A103F034F9BDF83C
:109B800008201AB12046164903F026F908B02846E5
:109B900070BD0000A0530300A0530300904B0300CE
:109BA00054686520726571756573746564205458D6
:109BB0002F5258207061636B6574206C656E6774FA
:109BC0006820697320746F6F206C6F6E67206279F4
:109BD0002025752F2575206F63746574732E000022
:109BE000DC4B03002DE9FF410C4620B14FF4064049
:109BF00004B0BDE8F0812079002748F2096538B14A
:109C000041F61D5601281BD0022826D0681DEFE71B
:109C10000220207102970397E0680190694601A82D
:109C200005F00EFB50B102988188E1800088208108
:109C3000BDF80010029805F081FBD9E72846D7E768
:109C40000A4B6A460021A01D05F0B2FA38B1074957
:109C500018398F61CF61A842CAD13046C8E703489E
:109C60008188019805F06AFBF5E70000282C0020A8
:109C700070B500240F4D10E0686800EBC406307822
:109C800003F050FE7178012901D0012100E000218C
:109C90004140307800F09CFB641C28788442EBDB68
:109CA000D5E90401084303D0BDE8704006F0DAB8F6
:109CB00070BD0000A02B00202DE9F74F029805F0A1
:109CC000AEF800258046441E35E0062C00D1052460
:109CD00000272DE00026601C40F34009A4EB060B92
:109CE000B9F1FF3F03D0A8EB0700401E00E0384663
:109CF000824602465946029801F0B4F8A0B901988C
:109D0000B5EBC00F10DA009805F0070100EBE50095
:109D1000C1F1070100785246C84000F001035946DE
:109D2000029805F061FD6D1C761C022ED6DB7F1CAF
:109D30004745CFDBA41E012CC7DA0198B5EBC00F55
:109D400001D0AFF30080BDE8FE8F00002DE9F041A7
:109D50001746072916D8394A52F8200041EAC002AE
:109D600010460021431240F237546343491C83EAF2
:109D700040000A29F6DB40EA822445F212404440C2
:109D8000E01301D0AFF300805FF0000544FA05F066
:109D900000F001032A460821384605F025FD6D1C18
:109DA000052DF3DDC4F3801307220821384605F0A2
:109DB0001BFD0822C4F3C0131146384605F014FDFC
:109DC000C4F3002308220721384605F00DFD0925BC
:109DD00044FA05F000F00103C5F10E0108223846EF
:109DE00005F002FD6D1C0F2DF2DB384605F017F86B
:109DF0000646002544FA05F000F00103711B082215
:109E00003846491E05F0F0FC6D1C082DF2DB0825D4
:109E100044FA05F000F001037219082138460F3AA0
:109E200005F0E2FC6D1C0F2DF2DBA6F108023846AE
:109E3000BDE8F0410123082105F0D6BCF04603003F
:109E40002DE9F34F83B08B46039804F0E8FF072415
:109E50008046C51F0CE0002322460621039805F02A
:109E6000C3FC002306222146039805F0BDFCA41C78
:109E7000AC42F0DB6FF003063446254603E035467E
:109E800001E0290000D56942002C01DB204600E0FA
:109E90006042884202DD210000D56142022901D0E2
:109EA000042915D10023E21CE91C039805F0BDFC30
:109EB00008EB05010023E21C091F039805F0B5FC1F
:109EC00008EB04020023E91C121F039805F0ADFC07
:109ED0006D1C042DD5DD641C042CD0DD694658466C
:109EE00000F09AFF8146002729E0002624E027B9E8
:109EF0000EB3A9F1010086421DD0A9F101008742ED
:109F000000D1C6B14FF0FF344FEA0D0A4FF0FF35D4
:109F100055EA040029D000231AF806101AF80700A1
:109F20000A194119039805F05FFC6D1C012DEFDD46
:109F3000641C012CEADD761C4E45D8DB7F1C4F45A6
:109F4000D3DB5846BBF1070F2DDB0021C21241F6CF
:109F500025735A43491C82EA40000C29F6DB40EA8B
:109F60000B36B01403D0AFF300800123D4E70024F4
:109F70005FF0000506F0010008EB05078146034687
:109F80000B3F22463946039805F02EFC4B463A46D5
:109F90002146039805F028FC76106D1C032DE9DBA3
:109FA000641C062CE4DB05B0BDE8F08F10B5002181
:109FB000024801F07DFE80F3100010BDCC9F002010
:109FC0004FF480328A400168C1F848230068C0F825
:109FD000082370474FF4A07202EB810189B200F0B0
:109FE00067BA2DE9F04105460E464FF4A07000EB2C
:109FF000860081B228684FF48034B440984622F03D
:10A000007F47C0F808432868C0F84843286803F031
:10A01000AFF8286800EB8600C0F840752868C0F8E3
:10A020004443B8F1000F02D02868C0F80443BDE8EB
:10A03000F0810068D0F804057047000070B54379DE
:10A04000224C44F823204279241D04EBC202204B09
:10A050001579204A9A1AD3082DB10824022000EB62
:10A0600003401DA12EE002680D88C2F8085590F942
:10A0700004208978002A4FEA411106DA02F00F0223
:10A0800002F1E02282F8141D03E002F1E02282F8DE
:10A09000001490F90410012201F01F0502FA05F5E1
:10A0A0004909890001F1E021C1F80051417904EB2F
:10A0B000C1010A71417944F831000320002400EB0A
:10A0C00003400EA102F084FE204670BDF82B002054
:10A0D000F8530300A053030052544320696E737475
:10A0E000616E636520616C726561647920696E6977
:10A0F0007469616C697A65642E0000005254433AB9
:10A1000020696E697469616C697A65642E0000006B
:10A1100090F90400012100F01F02914040098000E5
:10A1200000F1E020C0F8001270470A46022100F05A
:10A1300045B94FF4827100F0BBB90068012101609C
:10A14000704700680121416070472DE9F05F0746C4
:10A150000C464FF4A07000EB84001FFA80FA3868B8
:10A160004FF48036A6409B4622F07F45C0F84863F6
:10A170003868C0F808633868D0F8048500EB8402BA
:10A18000D2F84095C2F840855146386802F0F0FF99
:10A19000A9EB080020F07F40012806D1102003F031
:10A1A000FFFA5146386802F0E3FF3868D0F80485BA
:10A1B000C0F84463A5EB080121F07F41386801290C
:10A1C00000EB840010D0C0F840553868D0F8041572
:10A1D0006FF07F4C6A1A521E22F07F42ACEB0B03E9
:10A1E000934217D362B118E06D1CC0F8405510209F
:10A1F00003F0D6FA3868D0F8040540450AD10CE0DF
:10A2000000EB84006D1CC0F840553868D0F8040598
:10A21000884202D00D20BDE8F09F01223146384629
:10A2200000F0CCF80020F6E70449042088744FF0D1
:10A23000A0411020C1F80C05FCF7B8BFE02A0020AF
:10A2400010B54FF0A040D0F81005C00E10F0010F6F
:10A250000FD108488068FDF7F5FE0748416A11B143
:10A26000012904D101E0012100E002214162002125
:10A27000817010BD000A0300E02A0020014901207E
:10A28000C8707047E02A00202DE9F843104D0F46B2
:10A2900080461E4691466946286801F099FC0400F4
:10A2A00014D01C21FCF709F901202071C4F8149086
:10A2B000380BC4F80080C4E902606946286801F0E0
:10A2C000A8FC04F05BFF0020BDE8F8830420FBE756
:10A2D000E049030010B503780022072B06D2DFE81F
:10A2E00003F005040610202930000A7010BD012378
:10A2F0000B7003898B818388CB81C06888600A7466
:10A3000010BD02220A7002898A818288CA81C268CD
:10A310008A60807D062802D00020087410BD0120CC
:10A32000FBE703220A70C2888A810289CA81C06859
:10A33000886010BD04230B70C0888881CA818A6040
:10A3400010BD0520087010BD70B5064D06460024EE
:10A3500055F8241009B130468847641C0A2CF7D3FD
:10A3600070BD00006C97002030B50446006887B0CF
:10A370000D46806800281FD018216846FCF79DF81C
:10A380000195A0680590207910B1012810D107E04F
:10A3900001208DF8000020690290E068039005E03C
:10A3A00002208DF80000E0680003029060690490CC
:10A3B000206881686846884707B030BD0368C3F8E5
:10A3C0004413002A02D00068C0F80413704700004C
:10A3D0002DE9F84F0E463449804601EB5001C00785
:10A3E000097801D00F0901E001F00F074FF00009D3
:10A3F000424601204946FCF726F8DFF8B0A00446A3
:10A400000D46052F4ED2DFE807F003161B282C005F
:10A41000002E47D00121404605F042FC8DF8009007
:10A420006846FDF791FE5046D0E904120C431543EF
:10A43000CAE9044532E00EB1022114E0002112E025
:10A440004EB10321404605F02BFC4046BDE8F84FD5
:10A45000012106F0E5B8012105E0002E22D10421FA
:10A4600001E02EB103214046BDE8F84F05F018BCCD
:10A470000021404605F014FC0021404606F0D0F8CB
:10A480008DF800906846FDF75FFE5046E243D0E944
:10A4900004341A4024EA0501CAE904219DF80000A9
:10A4A000FDF776FEBDE8F88FA0960020A02B0020D7
:10A4B00010B5006842581AB102F05AFE012010BDD2
:10A4C000002010BDF0B502780126944CA5B00025FF
:10A4D0006AB32146012A497A01D0022A77D140681D
:10A4E000002874D139B1A662E672657200F05CF999
:10A4F00008B1FDF71BFDA07A30B12673A57200F0FC
:10A5000053F908B1FDF712FDA07B10B1A57304F05B
:10A510007DFFE07B00285AD02674E57300F044F9F3
:10A52000002854D025B0BDE8F040FDF7FFBC4068DE
:10A5300000284CD10895099501210A950B950C9599
:10A54000179517AB0AAA0846189500F005FAE8B364
:10A550001F9522952395249565647048ADF87C601D
:10A560004430CDE92006ADF87E601FA922A800F096
:10A5700029FA08B1FDF7DAFC0020FDF72BFB0D9559
:10A580000E950521119512951395199519AB11AAE0
:10A5900008461A9500F0E0F9C8B31F952295239557
:10A5A00024950520A564ADF87C00ADF87E005B48DD
:10A5B0001FA94830CDE9200622A800F003FA08B10F
:10A5C000FDF7B4FC06950795039501E00CE08AE0E1
:10A5D0000221049505951B951BAB03AA08461C9503
:10A5E00000F0BAF938B353E008A90AA800F0BCF9A2
:10A5F00008B1FDF79BFC0998E0640AA800F066F931
:10A6000008B1FDF793FCE06C00686064B4E7FFE715
:10A610000DA911A800F0A8F908B1FDF787FC0E9864
:10A62000206511A800F052F908B1FDF77FFC206DFC
:10A630000068A064C6E706A903A800F095F908B170
:10A64000FDF774FCDDE90607428891006165002092
:10A65000334B04E017F800C003F800C0401C8842E8
:10A66000F8D311462FA0FDF725F8394634A0FDF7A1
:10A6700021F838A00699FDF71DF829493BA0FDF700
:10A6800019F803A800F022F908B1FDF74FFCA66203
:10A690000F95109514950321159516951D951DABD5
:10A6A00014AA08461E9500F057F941F28835E0B12A
:10A6B000284601F05FF9FF21A065C82200914FF400
:10A6C00087731146FCF70EFBA06DFCF729FBFF20FA
:10A6D000FCF750FA26722AA0616CFCF7EBFF2CA065
:10A6E000A16CFCF7E7FF25B0F0BD0FA914A800F09E
:10A6F0003BF908B1FDF71AFC2A48109A0021535C77
:10A700004354491CA942FAD3A06514A800F0DEF80E
:10A7100008B1FDF70BFC0220A062DBE7E02A002075
:10A72000D03600200A72785F646174615F6C656E78
:10A730006774685F776F7264203D202564000000B5
:10A740000A72785F646174615F41646472202D3EB7
:10A75000202578000A72785F646174615F686561C2
:10A76000646572202D3E2025780000000A72785F13
:10A77000646174612063686172203A20257300006F
:10A780000A7069635F6E756D3A20256400000000F1
:10A790000A7069635F6E756D5F706172743A20252F
:10A7A00064000000D03800200D4808B5007888B15A
:10A7B000684604F013FC80B106210170684604F07D
:10A7C0001BFC0848017809B10121417404F0C8FC60
:10A7D000002008BD48F2016008BD48F2076008BDCE
:10A7E000302C002054990020F0B587B01421684621
:10A7F000FBF763FE304C207818B16846FFF7A4FDE4
:10A8000058E0201D01F036FAA0BB40F6F870016850
:10A81000481C02D14FF0102041694FF0805002696E
:10A8200040694B1C01D100FB02F124480022016168
:10A83000A1F58031C160224901F036FE002824D103
:10A8400021481C234FF49A721E49006801F0ADF9AB
:10A8500003F0FAFF050016D0022D14D000270126C0
:10A86000062D14D005A804F0B9FB98B106700C2D84
:10A870001BD200E01EE0DFE805F0181018101817D2
:10A8800018171812141248F20A6007B0F0BD2670AB
:10A890006760B2E748F20760F7E7077105E0032158
:10A8A00000E00221017100E0067105A804F0A4FB9C
:10A8B00004F056FC0020E8E7302C0020B42C0020E7
:10A8C000F0490300949700206849030038B504005C
:10A8D00014D0694604F0B4FCB0B1BDF8000000EB40
:10A8E00080010B4800EB8100C16851B1A17A41B1F0
:10A8F000C168491EC1600020A07238BD48F20460E2
:10A9000038BD48F2056038BD48F2096038BD000026
:10A91000C898002038B504460E48007888B19CB12C
:10A92000684604F05BFB90B10421017000210171C5
:10A930002168C160684604F05FFB04F011FC002050
:10A9400038BD48F2016038BD48F2046038BD48F2B5
:10A95000076038BD302C00201FB501A9684604F0FF
:10A9600027FC04B010BD0000F8B50D46040018D057
:10A97000BDB1694604F064FCB0B1BDF800000C49FB
:10A9800000EB800001EB800001210C30666801F0D3
:10A9900074F92E6060680C3068600120A07200209D
:10A9A000F8BD48F20460F8BD48F20960F8BD000047
:10A9B000C898002018B10323002205F0EFBE48F22A
:10A9C000046070470223002205F0E8BE094910B573
:10A9D0000A690A2A0AD0084A096942F8210005488A
:10A9E0000121103001F049F9002010BD48F20B6040
:10A9F00010BD0000102C00206C9700208268838816
:10AA00001A4003689A5C0A708168491C816070472B
:10AA1000C26883881A4003689954C168491CC160A0
:10AA200070472DE9F05F984617468A468146002513
:10AA3000DDF828B00EE000240AEB050607E03246F8
:10AA400009EB04010123584604F0CEFE641CBC420D
:10AA5000F5DB6D1C4545EEDBBDE8F09F70B50446A7
:10AA600008680D4600B914441822281DFBF7FEFCA7
:10AA70002C6070BD10B5426801EB4101914201DAD2
:10AA8000AFF30080002A16DD8168914213D1C168BE
:10AA900002EB420399420ED1016991420BD1416907
:10AAA000914208D10168B1EB820F06DB83699342C2
:10AAB00003DB012302E0002308E000238069B0EB00
:10AAC000820F03DB914201DB012000E000201844EB
:10AAD00010BD70B51C4615460B4628B122462946C6
:10AAE0001846FFF7BBFF0023181922462946FFF737
:10AAF000B5FF21462846BDE87040FFF7BBBF0AB14D
:10AB000001F0A8B801F090B870B50D460446B0F851
:10AB10001414D0F810040122FDF7A3FD00B1057054
:10AB200004F13C0204F5826104F1540072DF70BD4F
:10AB300010B50446C0B2FDF7DDFA204610BD000096
:10AB400010B5002821D0114B0022001F196803E026
:10AB5000814203D80A4649680029F9D152B11368E5
:10AB6000841A9C4204D1006818441060104602E028
:10AB7000506000E0186039B102680B1A934203D1AB
:10AB80000B681A4402604968416010BDAC2C00207B
:10AB9000406804F043BA000010B5104C4888E28ABF
:10ABA00090421AD10888A0F52062773A15D188889A
:10ABB0000C49C01E82B20A482283401AC0080321F1
:10ABC00001EB0040134608A102F00DF9228BBDE80D
:10ABD0001040114604A0FCF76DBD10BDE02A002016
:10ABE00018540300A053030044617461206C656E27
:10ABF0002069732073657420746F2030782558287D
:10AC00002564290010B50949094801F0D2F808B1B6
:10AC1000FDF78CF9F721064801F0BFF8002803D0B2
:10AC2000BDE81040FDF782B910BD000099AB0200ED
:10AC30007C32002070B510B14FF4064070BD1A4C44
:10AC40000025607C08B1657401E000F0A1F820786F
:10AC5000082826D2DFE800F02504080C102514206F
:10AC6000BDE8704000F022B8BDE8704000F07EB84A
:10AC7000BDE8704000F060B8BDE8704000F03CB83E
:10AC80006088094900EB80008C3901EB8000406846
:10AC9000BDE8704003F0B8BD6560BDE8704003F0EA
:10ACA000C1BD48F20E6070BD549900201149F0B446
:10ACB0008A1C00200346A1F18C050C18A67A4EB11F
:10ACC000A37200EB800405EB8404E66816B9247CCB
:10ACD000012C0AD0401C80B20728EED30B704B80A9
:10ACE0004B60F0BC41F61D5070471080F0BC00F086
:10ACF0003DB80000549900200C48418801EB8102C6
:10AD0000A0F18C0101EB8201CA6852B105210170EA
:10AD1000074802218180016800230222054801F0D2
:10AD200027BB042202704968F6E70000549900200E
:10AD3000382C0020B42C002038B50A4908480324D8
:10AD40000B684268898803EB810153880470DB1C1F
:10AD500000201B0400909B0B034801F05DFC38BDF4
:10AD600054990020382C0020B42C0020074910B53D
:10AD70004888091D04F0B4FA18B1BDE81040FFF787
:10AD8000DBBFBDE81040FFF7B7BF000054990020BB
:10AD9000F0B51F481F490125067802248B88A0F1D1
:10ADA0008C02082E19D2DFE806F00418181B222F97
:10ADB0002F170189491C01810021418080F8111061
:10ADC00001EB810312F8233043B100234418491CDE
:10ADD00089B2A3720729F3D30570F0BD0123F5E70B
:10ADE00042685288D21C1A448A800470F0BD46889A
:10ADF0000D6806EB860602EB860256680E6055600B
:10AE000013818C80062100E007210170F0BD000055
:10AE100054990020382C002030B50346012815D065
:10AE2000072093FBF0F0801C202B11D09A0002EB3E
:10AE300040026FF0010404EB4004521C92FBF4F258
:10AE40005400421E0A2505EB830306E0002030BDB6
:10AE50001A24F6E78B541B1B521E012AFADA06222B
:10AE60000A7030BD10B50378A3F115049C2C07D8E7
:10AE7000002905DB994203DA002A01DB9A4201DB53
:10AE8000AFF3008002FB031100EBE10001F00701CA
:10AE90004078C84000F0010010BD000070B50546C4
:10AEA0000C46042901D3AFF3008000F015F804EB41
:10AEB000C401084A01EB4411064B0A44A433194467
:10AEC0005257495712FB01F1C21700EB5270C1EB08
:10AED000E00070BDA8450300014610B5401E2728BC
:10AEE00019D8802000EB01104843403002290DDBC7
:10AEF000072291FBF2F26FF01803921C5343373094
:10AF00000A3303FB0200072900DB2438A0F1D0013B
:10AF1000B1F5E64F01D9AFF3008010BD2DE9F04740
:10AF200088B0824603F07BFF0446002528463EE0B9
:10AF3000814600261C216846FBF7BFFA002728E05F
:10AF4000424639465046FFF78DFF484509D1761CE9
:10AF5000052E03D01CDD05F1010519E005F10305FF
:10AF600016E0224669463046FFF778FDB9F1000F3A
:10AF700007D121466846FFF77DFD00EB800005EB19
:10AF8000C005424639465046FFF76CFF8146012610
:10AF90007F1CA742D4DB23466A4631464846FFF76A
:10AFA00098FD00EB800005EBC00508F1010080462C
:10AFB000A0424FF00000BBDB3EE0814600261C2192
:10AFC0006846FBF77AFA002728E03A4641465046A1
:10AFD000FFF748FF484509D1761C052E03D01CDD3C
:10AFE00005F1010519E005F1030516E02246694661
:10AFF0003046FFF733FDB9F1000F07D1214668460F
:10B00000FFF738FD00EB800005EBC0053A464146EE
:10B010005046FFF727FF814601267F1CA742D4DB5D
:10B0200023466A4631464846FFF753FD00EB800051
:10B0300005EBC00508F101008046A0424FF000007A
:10B04000BBDB8046671E24E000261EE042463146F8
:10B050005046FFF707FF81464246711C5046FFF7F6
:10B0600001FF484510D108F1010231465046FFF773
:10B07000F9FE484508D108F10102711C5046FFF75E
:10B08000F1FE484500D1ED1C761CBE42DEDB08F126
:10B090000108B845D8DB4FF0000847460DE0002610
:10B0A00008E03A4631465046FFF7DCFE08B108F1A9
:10B0B0000108761CA642F4DB7F1CA742EFDB08EBFD
:10B0C000880064438100604200EB800011EB400087
:10B0D00000D540422044401E90FBF4F0401E00EB9F
:10B0E000800008B005EB4000BDE8F0872DE9F74F80
:10B0F0000E465FEA000800D136BB002425464FF01B
:10B10000FF3B4FF400491BE008EB05104768D0F8FF
:10B110000CA04F4518D2CA4516D20078029903F008
:10B1200073F9102810D801218140B94204DD504440
:10B130000444241D4C4502DB5846BDE8FE8F6D1CBF
:10B14000B542E1D34C4501D3AFF300802046F4E78C
:10B1500010B50B48FEF76DFF094A083AD2E90434EE
:10B16000C018D2E9063244F10001C31A71EB0202A1
:10B1700004D24FF08072801841F1000110BD000030
:10B18000C02B002010B5C0B2FEF7C4FA0446007808
:10B1900002F0C8FB01466078012801D0012000E0E0
:10B1A000002090EA010F08D00449D1E904010843C6
:10B1B00003D1BDE8104004F055BE10BDA02B002007
:10B1C000428800EB82020C328A4201D90220704789
:10B1D0008188A1F57F42FF3A06D0018821B18068BD
:10B1E000401C01D00020704701207047884204D2E3
:10B1F0000068401C01D0012070470020704700000B
:10B2000038B50F4BC8215A6BA0B19C6C0523B4FB19
:10B21000F3F0B4FBF3F500EB8000C00603FB15432D
:10B22000000E5B4203EB830301EBC3012823C9B289
:10B23000009302E00020C8230091FBF7E9F938BD34
:10B24000E02A002010B50A4941600A4800F012FDCA
:10B2500058B902F09FF907491C238C22087404484E
:10B260008C39001F006800F0A0FC002010BD000019
:10B27000E4490300049A00202DE9F0412D4F0025F8
:10B2800020B17D604FF40640BDE8F08108790122CD
:10B2900058B1294E01280CD0264C4FF00208083432
:10B2A000022820D0032841D127E00A7103F0BAFA1E
:10B2B0003AE0002000EB800116F82110022908D0A6
:10B2C000401C80B20728F5D33A707D6041F61D50CE
:10B2D000DAE700EB800006F8205006EB80004068BB
:10B2E00003F092FA20E00D71A4F8048000230222FA
:10B2F0001248216801F03CF816E00D71206803F057
:10B3000083FA0D4923688C31498801EB810206EBF1
:10B310008201D1F804C0C4F800C04B60A3880B813F
:10B32000A4F8048006F822500028ADD07D6048F2D1
:10B330000D60A9E7302C0020C8980020B42C002014
:10B340002DE9FE4F0C468246112101EB8A0808FBCD
:10B3500008F0C01DC11700EB5170012101EBE001A5
:10B360002046FBF7AAF884F800804346012200211A
:10B3700006200094FFF755FB0123424606210020DA
:10B380000094FFF74EFB092300211A46084600945B
:10B39000FFF747FBA8F10800092308220021054612
:10B3A0000094FFF73EFB0823092229460020009461
:10B3B000FFF737FB01A95046FFF72EFD0646002791
:10B3C0001BE00025A6F101090DF1040B12E017B9ED
:10B3D0007DB14D450DD04F4500D155B100941BF8BE
:10B3E00005101BF8070005231A46801E891EFFF76B
:10B3F00018FB6D1CB542EADB7F1CB742E1DBBAF1FA
:10B40000070F0FDBA8F10B000623032200210546DE
:10B410000094FFF706FB0323062229460020009430
:10B42000FFF7FFFABDE8FE8F0146034802888A4213
:10B4300000D0002070470000C09400202DE9FC5F80
:10B440000E008346DDE90C47C6F10000984692469F
:10B45000814600D40846012503E000BF90FBFAF0C6
:10B460006D1C5045FADAA84500D9454624B1002E96
:10B4700001DB780700D5641EB80702D5B8F1000FCC
:10B480000AD0F80708D13CB1A54205D22021584680
:10B49000641EFEF7F9F8F6E7002E02DA4E462D217B
:10B4A00002E0780703D52B215846FEF7EDF807F0A8
:10B4B000030002280BD1B8F1000F08D13CB1A5421E
:10B4C00005D230215846641EFEF7DEF8F6E7CDE9D6
:10B4D0000047434652463146584604F0E7FEBDE871
:10B4E000FC9F000070B50D46044600684FF488715B
:10B4F00002F014F94FF49071206802F00FF94FF444
:10B500009271206802F00AF94FF4A271206802F0EB
:10B5100005F94FF4AC71206802F000F92068114978
:10B52000C0F804132068690740F30730090E0028AB
:10B5300006DA00F00F0000F1E02080F8141D03E0AF
:10B5400000F1E02080F800142068012140F307306A
:10B5500000F01F0291404009800000F1E020C0F897
:10B56000001170BD1003420002460020126853070C
:10B5700013D502F00300012802D002280CD105E007
:10B58000C2F383100B68801C184404E0022308688F
:10B5900003EB925210440860012070470248007A81
:10B5A000002800D001207047049A0020F0B584885C
:10B5B000A518944200D82246A41AC288D6189A42E6
:10B5C00000D81346D21A4B880788BB420CD3408858
:10B5D000834209D88888A04206D3A84204D8C888E4
:10B5E000904201D3B04201D90020F0BD0120F0BD4E
:10B5F000800701D000207047012070470A4810B52D
:10B60000807860B1002401E0022C06D02046FDF7CE
:10B61000B1FD641C042CF7D310BD0324F6E7BDE88C
:10B620001040FDF7C7BD0000642B002003480179DE
:10B63000C90702D00078FDF7F7BE7047642B0020E1
:10B64000F721018017214180002101714171FB2107
:10B6500081711B21C17170472DE9FF4100262348EC
:10B6600000F005FB2148001F074600F000FB204CBE
:10B6700060680090A56800E000986946284004EBE7
:10B6800080000C30FFF770FF0028F5D101AA009967
:10B6900001EA050304EB8303491CDB6842F8203010
:10B6A000401C00910228F2D3019800F00300012809
:10B6B0000BD0022810D10198032101EB9050009982
:10B6C000BDF80A6001EB900005E00198BDF80A6042
:10B6D000C0F3831008440090384600F0C5FA08B162
:10B6E0000098606004B03046BDE8F081C89F00203B
:10B6F000B09B0020AEB01822804904A8FAF7B6FE2D
:10B700007F4800907F494FF40070CDE9010103901C
:10B7100007237D4A694604A8FCF79AFC08B1FCF7A8
:10B7200005FC4FF48041002001F0C6FB08B1FCF796
:10B73000FDFB01F025FAFCF73FFC08B1FCF7F6FB36
:10B7400072490320FDF726FE08B1FCF7EFFB6946BE
:10B750000020FDF753FD08B1FCF7E8FB01F0C2FC47
:10B7600008B1FCF7E3FB01F0C9FE08B1FCF7DEFB12
:10B77000002469460120009401F036FD08B1FCF771
:10B78000D5FB684601F0C8FD08B1FCF7CFFB9DF87A
:10B7900008005FA120F00F00401C20F0F0001030E6
:10B7A0008DF80800162202A87CDF08B1FCF7BEFB6A
:10B7B0000094F020ADF800004FF416700194ADF83D
:10B7C0000200ADF804404FF4C870ADF806006846BA
:10B7D0007ADF08B1FCF7AAFBFFF714FA5248019090
:10B7E00001A9524800F0A9FB08B1FCF79FFB5048A3
:10B7F000009069464F48FDF7C5FB08B1FCF796FB82
:10B80000AC216846FAF759FE02208DF800008DF849
:10B81000024005208DF803000120ADF84C00454999
:10B820008DF87C004FF448603E392290149144F228
:10B8300050602390404829903C4869460C30FCF702
:10B8400043FF08B1FCF772FB384801210C30FCF7CC
:10B8500038FF1C216846FAF730FE4FF4A030CDE9DE
:10B8600000404FF4F020029003208DF80C00334884
:10B87000059033480690ADF80E408DF810406846AC
:10B88000FDF708F908B1FCF751FBFCF7BDFDFCF72B
:10B89000A7FA2BA86DDF08B1FCF748FB29A0FBF73E
:10B8A00009FF9DF8AF009DF8AD209DF8AE108DE822
:10B8B00007009DF8B0309DF8B1209DF8B21023A08C
:10B8C000FBF7F8FE042001F013F8052001F010F852
:10B8D0004FF0A0412020C1F80C052548FFF776F86D
:10B8E00008B1FCF723FBFEF77FFF08B1FCF71EFB56
:10B8F000FAF784FE04F07EF8FCE70000C044030081
:10B900007C2E00207C300020D1FE0200F19202004B
:10B910004D6F74696F6E2D506F7765726564204549
:10B92000696E6B546167000051D1020090320020B3
:10B9300051E402003C2B0020D1E40200FDE40200AF
:10B94000D79A02000A737461727400000A4D616331
:10B9500020416464723A202530325825303258250F
:10B960003032582530325825303258253032580080
:10B97000C5A40200F0B50B30154D20F007010024DE
:10B98000144A0FE003688B420BD38B4205D95E1A31
:10B9900043184768C3E9006700E04368136002C0CA
:10B9A00004E0021D10680028ECD12046002802D1D6
:10B9B000286808B10020F0BD064A07481060074A11
:10B9C000121A22F00702C0E9002401202860D7E7FC
:10B9D000B02C0020AC2C002064A2002060C200200B
:10B9E00070B5144682880E4605462088111D014414
:10B9F000921C994201D8FE2A01D90C2070BD521C1C
:10BA000032542088FF21401C80B22080315420888D
:10BA1000401C80B220808119288804F032FC2188E3
:10BA2000084480B22080AA8842B1A96841B130445C
:10BA3000FAF71CFD2088A98808442080002070BDEA
:10BA4000072070BD2DE9F047C5881E1DB6FBF5F730
:10BA50008946B6FBF5F1044605FB176C407916687C
:10BA60006843DDF820A0F718001F874200D9C61AE6
:10BA7000166001E02468491E0029FBD1A5EB0C07E4
:10BA80008846B74216D818E004EB0C00001D09EBFD
:10BA90000803BAF1000F3A4602D00146184600E00A
:10BAA0001946FAF7E3FC2468F61B4FF0000CB84483
:10BAB000B54201D9374600E02F46002EE4D1BDE85B
:10BAC000F087000030B5024651B101F013FA0021B1
:10BAD000074C08E034F821301568AB4202D1116000
