:020000040002F8
:1060000040BD0020C1630200C9630200CB630200EF
:10601000CD630200CF630200D163020000000000E4
:10602000000000000000000000000000D363020038
:10603000D563020000000000D7630200D9630200AC
:10604000B9690200DB630200C97102001D6D020024
:10605000DB630200DB63020055680200796B02001B
:10606000DB630200DB630200DB630200DB63020030
:10607000DB630200DB630200DB630200DB63020020
:10608000DB630200C96A0200DB630200DB6302001B
:10609000DB630200DB6302002D6E0200DB630200A3
:1060A000DB630200DB630200DB630200DB630200F0
:1060B000DB630200DB630200000000000000000060
:1060C000DB630200DB630200DB630200DB630200D0
:1060D000DB630200DB630200DB6302000000000000
:1060E00000000000000000000000000000000000B0
:1060F00000000000000000000000000000000000A0
:10610000000000000000000000000000000000008F
:10611000000000000000000000000000000000007F
:10612000000000000000000000000000000000006F
:10613000000000000000000000000000000000005F
:10614000000000000000000000000000000000004F
:10615000000000000000000000000000000000003F
:10616000000000000000000000000000000000002F
:10617000000000000000000000000000000000001F
:10618000000000000000000000000000000000000F
:1061900000000000000000000000000000000000FF
:1061A00000000000000000000000000000000000EF
:1061B00000000000000000000000000000000000DF
:1061C00000000000000000000000000000000000CF
:1061D00000000000000000000000000000000000BF
:1061E00000000000000000000000000000000000AF
:1061F000000000000000000000000000000000009F
:10620000DFF80CD000F07CF900480047E19B020069
:1062100040BD002030B450E8012F93B2C48923441C
:106220008489A34228BF1B1B0489A34202BFBFF37A
:106230002F8F002007E0C3EA020340E80134002C5E
:10624000E9D14FF001000A6030BC704750E8012FDF
:10625000C2EA024240E801210029F7D1704730B478
:1062600050E8022F1FFAA2F3C488A34202BFBFF373
:106270002F8F00200DE0C48923448489A34228BFC6
:106280001B1BC2EA034340E80234002CE8D14FF064
:1062900001000A6030BC704750E8022FC2EA224277
:1062A00040E802210029F7D17047034653E8022F46
:1062B000D988B2EB324F4FF0000017BF92B241EADB
:1062C000014142EA014104E05A68B2EB324F08BF93
:1062D000012043E80212002AE8D1704730B4044696
:1062E00054E8000F0D4644E80053002BF8D1156028
:1062F00030BC704730B4044654E8000F40EA010552
:1063000044E80053002BF7D1156030BC704730B41F
:10631000044654E8000F00EA010544E80053002B4E
:10632000F7D1156030BC704730B4044654E8000F14
:1063300080EA010544E80053002BF7D1156030BC1A
:10634000704730B4044654E8000F00EB010544E800
:106350000053002BF7D1156030BC704730B40446B1
:1063600054E8000FA0EB010544E80053002BF7D1DF
:10637000156030BC704770B404464FF0000054E81C
:10638000006F0D68AE4207BF44E80023012044E8D7
:1063900000630E60002B1CBF0020F0E770BC70474C
:1063A00030B4044654E8000F88422CBF451A054615
:1063B00044E80053002BF5D1156030BC7047000055
:1063C0000648804706480047FEE7FEE7FEE7FEE78F
:1063D000FEE7FEE7FEE7FEE7FEE7FEE7316E0200BE
:1063E000016202002DE9F05F0546002092469B46BF
:1063F00088460646814640241BE0284641464746DB
:10640000224600F06CF853465A46C01A914110D308
:1064100011461846224600F016F82D1A67EB0108BF
:106420004F4622460120002100F00DF817EB00092D
:106430004E41201EA4F10104DFDC484631462A46C5
:106440004346BDE8F09F202A04DB203A00FA02F11F
:10645000002070479140C2F1200320FA03F3194352
:1064600090407047004870472018030010B5431A49
:10647000934209D28318881803E010F8011D03F82D
:10648000011D521EF9D210BD40EA01039B0703D043
:1064900009E008C9121F08C0042AFAD203E011F863
:1064A000013B00F8013B521EF9D210BDD2B201E00F
:1064B00000F8012B491EFBD270470022F6E710B509
:1064C00013460A4604461946FFF7F0FF204610BD62
:1064D000421C10F8011B0029FBD1801A7047202AAA
:1064E00004DB203A21FA02F00021704721FA02F37E
:1064F000D040C2F120029140084319467047000085
:10650000064C074D06E0E06840F0010394E8070000
:1065100098471034AC42F6D3FFF776FE0420030010
:106520002420030070B58C1810F8015B15F00703E8
:1065300001D110F8013B2A1106D110F8012B03E01C
:1065400010F8016B01F8016B5B1EF9D12B0705D424
:106550000023521E0DD401F8013BFAE710F8013B6D
:10656000CB1A921C03E013F8015B01F8015B521E89
:10657000F9D5A142D8D3002070BD00000EB50D4959
:106580000D4805F0F7FB08B100F0A8FF0B4A07CA59
:106590008DE807006946002005F074FB08B100F0A3
:1065A0009DFF0121064805F01BFB002801D000F0EB
:1065B00095FF0EBDC972020050D90200EC13030012
:1065C000F42A002010B505F05FFC002803D0BDE8D8
:1065D000104000F083BF10BD2DE9F05FC7080A9896
:1065E000002607EBD0009A469046A0F1010B0C461E
:1065F000FF2901D9260ACCB201EB0A056D1E4FF026
:106600000009FF2D02D94FEA1529EDB2442000F010
:10661000FDF8F8B200F00AF90BF0FF0000F006F9FF
:10662000452000F0F3F8E0B200F000F9F0B200F01D
:10663000FDF8E8B200F0FAF809F0FF0000F0F6F813
:106640004E2000F0E3F8F8B200F0F0F84F2000F030
:10665000DDF8E0B200F0EAF8F0B200F0E7F824204C
:1066600000F0D4F80A9800240AFB00F507E000BF08
:1066700098F8000000F0DAF808F10108641CB4EBA7
:10668000D50FF5D3BDE8F05F00F096B810B5162031
:1066900004F0E5FA0A2003F0E9FEBDE810401620F8
:1066A00004F0EBBA122000F0B1B810B5012000F0F0
:1066B000ADF8C72000F0BAF8002000F0B7F80020CD
:1066C00000F0B4F8112000F0A1F8012000F0AEF8BD
:1066D000442000F09BF8002000F0A8F8182000F0FB
:1066E000A5F8452000F092F8C72000F09FF80020A0
:1066F00000F09CF8002000F099F8002000F096F8D7
:106700003C2000F083F8052000F090F8182000F0FD
:106710007DF8802000F08AF84E2000F077F8002005
:1067200000F084F84F2000F071F8C72000F07EF8E8
:10673000BDE81040002000F079B800002DE9F041DC
:106740001B4C6078002831D1A178E069194E0843CC
:106750004FF4A4774FF001050ED100F009FB4FF084
:10676000A0411020C1F80805A570FFF78FFF002297
:106770003946B06800F0FEFEE06901280AD1A07831
:10678000002813D1FFF78EFFA57000223946B068AC
:1067900000F0F0FEE069022808D1A078002805D1B9
:1067A000A570FFF782FF65700020A070BDE8F08142
:1067B000E02A002044D9020010B5222000F026F87B
:1067C000FF2000F033F8BDE81040202000F01EB894
:1067D0002DE9F04104460546242000F017F8002773
:1067E00041F28836207800F021F8641C7F1CB74203
:1067F000F8D3262000F00AF80024287800F016F8D4
:10680000641C6D1CB442F8D3BDE8F08110B5044699
:10681000172004F024FA182004F021FA204600F092
:10682000E5FABDE81040182004F027BA10B5044678
:10683000182004F022FA182004F011FA172004F0AE
:106840001CFA204600F0D2FABDE81040182004F0EF
:1068500014BA00002DE9F04700268AB0DFF8509105
:10686000B0464FF48075012437460696284604F05A
:106870003BFA38B1D9F80403204203D0284604F08B
:1068800029FA26432D1D64007F1CADB2082FEDD3DD
:106890004FF4BE74204604F027FA48B1204604F0B5
:1068A00019FA46F0004606AA0121002004F0FEF97C
:1068B000404D16F0FF0F15D00127002437420DD0B0
:1068C00009EB8401D1F81005D1F81015C0F30420AC
:1068D00055F82420C1F3014102B190477F00641CA8
:1068E000082CEBD3002E5FDA4FF0FF30CDF810808C
:1068F00054E0281910F8507F90F9000027F0C008E4
:10690000401C3BD007A9404603F051FC10B34FEAAE
:106910009719404601F09EFF55F820701FB1B9F15C
:10692000030F03D006E0B9F1030F27D104A94046B5
:1069300003F045FC4FF0A04101EB8800D0F80007C0
:1069400006A9C0F3014A404603F031FC18B1BAF180
:10695000020F03D012E0BAF1030F0FD1B9F1030F08
:1069600008D1BAF1020F1DD00221404604F066F9A9
:10697000761CF6B217B149464046B847641C042C51
:10698000B7D3002E10D06A460121002004F08EF902
:1069900006990098884207D006900498002634464D
:1069A0000790A6E70321E0E70AB0BDE8F087000002
:1069B000006000405872002070B54FF48076304679
:1069C00003F044FD114CB50560B1304603F045FDC0
:1069D0000120C5F80803607920B9012060712168A1
:1069E000002088474FF48276304603F02FFD0028C0
:1069F0000AD0304603F031FD0220C5F808032168B3
:106A0000BDE870400120084770BD0000702B0020D9
:106A100030B51A49CA8A022A08D0042A06D0072AA1
:106A200018D140EA00100022C3B222E00022C3B213
:106A30000DE0002006E000BF02FB04040D68401CCE
:106A400080B22B554C8A8442F6D8521C92B2888A66
:106A50009042EED830BD002006E000BF02FB0404E7
:106A60000D68401C80B22B554C8A8442F6D8521CCB
:106A700092B2888A9042EED830BD0000F0700020BB
:106A800070B50D4C049D206021816281A581022595
:106A9000E5824E074FEAD10000D0401C6082A282FE
:106AA000E381258223B1B42B02D0A280E18070BDA6
:106AB000A180E28070BD0000F070002001490860F4
:106AC00070470000F070002002490248091F096861
:106AD00000680847C02B00202DE9F041DFF89080C6
:106AE00001278CB0054688F808700020214E02E08E
:106AF0000A5C3254401CA842FAD300240594069440
:106B0000022104940A940AAB04AA08460B9402F0EA
:106B1000E5FC020005F103054FF002004FEA950184
:106B200001940DD007940894CDE90261ADF80400FA
:106B3000ADF80600099401A907A802F005FD0EE0D2
:106B4000CDE90261ADF80400ADF8060001A904A882
:106B500002F0F2FC08B100F0C1FC02F009FC08B13F
:106B600000F0BCFCC8F820700CB0BDE8F08100005B
:106B7000E02A0020483200202DE9FE434FF48278BD
:106B8000404604F017FC4C4F00254C4C012600B346
:106B9000404604F017FC94F82E0010B194F82F1022
:106BA000D1B18DF80050616801912189ADF80810CC
:106BB000E26832B1218B618362602181E56010B1AE
:106BC00002E0257400E03E6021686846884784F84A
:106BD0002F5094F82E0060B34FF48077384604F0BD
:106BE000E9FB30B3384604F0EDFB628B94F82D10CE
:106BF0008A420AD9A2EB010080B260832289A2EB0B
:106C00000000626802EB400005E007D1E06828B1AF
:106C100084F82F60658304F0BBFB04E08A4202D154
:106C200084F82F606583404604F0CCFB2248001DA9
:106C300006604FF48877384604F0BCFB48B138460C
:106C400004F0C0FB257402208DF80000216868461E
:106C500088474FF48A77384604F0ACFB28B13846B1
:106C600004F0B0FB2574BDE8FE834FF000484FF4FC
:106C70008C7967691DE000BFB7FA87F028FA00F148
:106C800009EB80058F43284604F094FB88B1284621
:106C900004F098FBA5F58C75E8088DF8040045F321
:106CA0008000401C8DF800608DF805002168684662
:106CB0008847002FE0D1D6E700700040D87200204E
:106CC00070B50E46144900EB400001EBC0051446B8
:106CD000E86A183520B101280FD0022805D113E049
:106CE000284600F077FAA04201D2002411E02246A3
:106CF0003146284600F0A6FA0BE0284600F06AFA72
:106D0000A042F4D20446F2E73146284600F06DFA7C
:106D10000446204670BD0000B87A0020F8B512483D
:106D2000124E04464FF48C7104F0C1FD00281AD0B5
:106D30000025C4F81851D4F818010090F07F3446AB
:106D4000FF2806D0A17F11B103F090FF01E003F00E
:106D50009BFF65772572D4E9002101B004F108009A
:106D6000BDE8F0401047F8BD00300040B47200208C
:106D700000B587B0182003F04DFF172003F04AFF3D
:106D8000162003F047FF00231B2000931A461946E4
:106D9000019303F0F7FE182003F06FFF162003F0B5
:106DA0006CFF0F4B0DF1080C0FCB8CE80F00FF2090
:106DB0008DF80B008DF80A001A208DF809001920B3
:106DC0008DF8080006480023064A02A9083805F095
:106DD000A7F8002801D000F081FB07B000BD00003B
:106DE000101403004DCE0200FFF7C2BF10B50C49CE
:106DF0000C4C012308700022227001F50070C0E9DC
:106E00000013A0F58071C0E902120146064805F0A2
:106E100041F908B100F062FB20780028FCD010BDD9
:106E2000E06E00204C2B00200814030004F0AABCE4
:106E3000F0B5D34AD3494FF080541368D4F83001E9
:106E40000978D4F83421451CC1F3031107D08446D6
:106E5000164601270025BCF1060F04D013E003F00D
:106E6000FF0C0E46F5E7032E05D0042E03D0052EA9
:106E700001D0062E07D1B4F82463DFF80CC3C6F3A3
:106E80000426CCF80060DEB2062E06D1032904D118
:106E9000DFF8FCC2BD4ECCF87460461C06D08446B8
:106EA0004FEA0206BCF1060F04D013E003F0FF0C1A
:106EB0000E46F7E7032E05D0042E03D0052E01D091
:106EC000062E07D1D4F84462DFF8C8C2C6F34236B2
:106ED000CCF80060DEB2062E08D1032906D1AE4EF2
:106EE000D6F800C02CF0807CC6F800C0461C05D047
:106EF00084461646BCF1060F04D014E003F0FF0CE4
:106F00000E46F7E7032E05D0042E03D0052E01D040
:106F1000062E08D14FF08046C6F80C51C6F8105125
:106F20009C4E361F3560DEB2062E08D1032906D1ED
:106F3000DFF860C203260CF1640CCCF80060DEB20E
:106F4000062E11D103290FD1DFF850C20526CCF847
:106F50000060924E78363760904E083635600CF1FE
:106F6000040C3F26CCF80060461C05D0844616462B
:106F7000BCF1060F04D087E003F0FF0C0E46F7E7E4
:106F8000032E7CD0042E7FD0052E01D0062E7BD17F
:106F9000834E3668DFF80CC2CCF80060804E361D98
:106FA00036680CF1040CCCF800607D4E083636686B
:106FB0000CF1040CCCF80060794E0C3636680CF1FC
:106FC000040CCCF80060764E103636680CF1040CD8
:106FD000CCF80060724E143636680CF1040CCCF814
:106FE00000606F4E18363668DFF8B8C10CF1200C1F
:106FF000CCF800606A4E1C3636680CF1040CCCF8F4
:107000000060674E203636680CF1040CCCF8006046
:10701000634E243636680CF1040CCCF80060604EE8
:10702000283636680CF1040CCCF800605C4E2C3627
:1070300036680CF1040CCCF80060594E30363668D6
:10704000DFF860C10CF1400CCCF80060544E3436CF
:1070500036680CF1040CCCF80060514E38363668B6
:107060000CF1040CCCF800604D4E3C3636680CF147
:10707000040CCCF800604A4E4036366800E003E06D
:107080000CF1040CCCF80060461C05D08446164672
:10709000BCF1060F04D011E003F0FF0C0E46F7E739
:1070A000032E05D0042E03D0052E01D0062E05D1C7
:1070B000D4F858423C4E04F04F043460441C04D0D1
:1070C00003461146062B02D010E0DBB2FAE7032993
:1070D00005D0042903D0052901D0062906D133495A
:1070E0000B68DB0702D06FF001030B6006280CD1A0
:1070F000032A0AD0042A08D0052A06D0062A04D179
:107100002B48016841F480610160234874380168AC
:1071100041F470010160BFF34F8FBFF36F8F4FF0E9
:107120001021D1F80002002803DBD1F80402002866
:1071300022DA204A176020480368002BFCD0152370
:10714000C1F800320468002CFCD0C1F80432016898
:107150000029FCD0156001680029FCD0BFF34F8FD7
:107160000D48F0380168154A01F4E06111430160EF
:10717000BFF34F8F00BFFDE7124911480860F0BD13
:10718000E00F00F0E80F00F0403501400DF0ADBA1F
:1071900000C007403C050040FCED00E010560040F8
:1071A0000404001020C50040E40E0040000400402C
:1071B0003C17004004E5014000E401400400FA05EA
:1071C0000090D003682C00200148006800470000B0
:1071D000782B00200269C1688A4203D88068401A6F
:1071E000104400E0501A401E70472DE9F047C46873
:1071F0001746894606464FF000083069A04201D97B
:10720000051B02E0B168201A0D1AB0686D1E001B44
:10721000A84200D80546BD4200D33D4670682A46C4
:1072200020444946FFF722F9B0687F1B2C44A8444C
:10723000A944A04200D10024F460002FDDD14046D3
:10724000BDE8F0872DE9F04104468846D4E90207FD
:10725000C51BE168606816460844B54206D9414638
:10726000FFF704F9B819E060BDE8F0812A4641460D
:10727000FFF7FCF8761B08EB050132466068FFF764
:10728000F5F8E660F0E702E008C8121F08C1002A1E
:10729000FAD170477047002001E001C1121F002A97
:1072A000FBD170470121202803DA814005480140C5
:1072B00003E0402802DA2038814009B101207047FC
:1072C00000207047FC06FFBD10B50446007800287A
:1072D00022D10121606804F083FC08B100F0FEF8BF
:1072E000606801220023B0F900100C48446AA142F2
:1072F00001DD827100E0837104793CB1B42901DAC7
:107300000371C370BDE8104004F0D4BD438A9942B4
:10731000F8DD0271C270F5E710BD0000E02A002020
:107320000348816B0A784FF4FA714182704700007C
:10733000E02A002010B5FFF721F9BDE81040FFF763
:1073400041B9800701D00020704701207047C36811
:107350008B4206D811440069491E814201D80120A0
:1073600070470020704790F82400012801D01F20AA
:107370007047EE20704710B501220221002001F075
:1073800043F808B1072810D107220221012001F09B
:107390003BF808B1072808D100210A22084601F06D
:1073A00033F808B1072800D1002010BD022000F0FA
:1073B0002DBF000070B50024064D06E0686801216D
:1073C00010F8340004F0E2FA641C28788442F5D303
:1073D000002070BD802B0020F8B516460C460546EF
:1073E0000A2A01D20720F8BD04F0CAFB18B904F03C
:1073F00091FB0028F7D1134F102113487D603C709A
:10740000BE60FFF75AF80020C7E904000F4E0DE0F8
:1074100005EBC4003168009181788DF80110007887
:107420000B4A694604F004FB0028DCD1641EE4B278
:10743000EED2BDE8F84005480021064A001D00F0E4
:107440005FB80000802B00202873002098140300F0
:1074500021980200B18C020072B603F07DFE00BFDD
:1074600003F0D4FC0028FBD111481249401AC4088B
:10747000012000EB044010A103F0E2FD1148006878
:10748000C00700D000BE022000EB04400EA103F0B4
:10749000D7FDBFF34F8F0B48E43801680E4A01F463
:1074A000E06111430160BFF34F8F00BFFDE70000B3
:1074B000AC20030034200300466174616C206572C7
:1074C000726F7200F0ED00E053797374656D207295
:1074D00065736574000000000400FA050EB5002114
:1074E0000091CDE901106A4644F20100FFF7B4FFB4
:1074F0000EBD0000014801F042BC0000A02B00209E
:107500003AB100680129426100D0002101610020E8
:10751000704707207047000038B5114808235822EB
:10752000416800910F49006802F073FD002815D1F1
:107530000D4A69460D4801F027FC04000ED10121D7
:107540000A4801F098FC0123094A1946074801F04E
:10755000EEFB0649012008390870204638BD0000BE
:10756000A014030048730020A1CA0200A02B002031
:10757000FFFF7F0070B50446007F0D4608B1002074
:1075800070BDA26102F032F9401941F10001C4E975
:107590000201206900B125612146BDE8704000204C
:1075A00005F008BE014600200877012005F002BE64
:1075B00030B5EFF3108172B60D4A9468012324B1FF
:1075C0000370002900D162B630BD93604FF0E02314
:1075D000D3F88051074C25401560C3F88041D3F89B
:1075E000844154605A17C3F8842100220270E8E7EE
:1075F000A0730020FC06FFBD0B498A68002A11D049
:1076000000280FD1EFF3108072B60B684FF0E02224
:10761000C2F800314B68C2F8043100228A600028A9
:1076200000D162B670470000A073002070B515004D
:10763000044609D00020286034B1206820B1A07928
:10764000800703D0072070BD0E2070BD084600F0F3
:107650001FFBC0B2142804D02179814203D8042032
:1076600070BD052070BDE288216800FB0210286013
:10767000002070BD2DE9FC470025178806461580BF
:1076800090F82D001446894630B13A4621464846C6
:1076900000F012FB051E09D1B0784FF00C0A18B3A8
:1076A0002088C846001DB84202D95046BDE8FC8774
:1076B000684679DF0028F9D12088032108F80010F6
:1076C00020881921401C80B2208008F800102088F2
:1076D000401C80B2208000EB0801BDF8000005F0DE
:1076E00091FD218808442080F0780222C8B12188C9
:1076F00096F9033001F1030C4846BC45D5D84254F5
:1077000021884FF0010C491C89B2218000F801C08A
:107710002188491C89B2218009F801302088401C49
:1077200020807068B8B1218890F9003001F1030C15
:107730004846BC45B9D8425421880A22491C89B21E
:10774000218042542188491C89B2218009F80130E6
:107750002088401C2080308950B1CDE900474B463D
:107760000622022106F1080005F00CFF051E9DD13E
:10777000308A50B1CDE900474B460722032106F17C
:10778000100005F0FFFE051E90D1308B50B1CDE901
:1077900000474B461522142106F1180005F0F2FEB1
:1077A000051E83D1306A30B13B462246494601F07E
:1077B0006EF9051EDBD1706A30B13B462246494660
:1077C00002F042FB051ED2D196F82C0038B13B46A0
:1077D00022464946304605F083FA051EC7D1307867
:1077E00038B13B4622464946304602F0B7FB051EFB
:1077F000BDD128465AE718B504460020ADF8000070
:1078000013466A46204600F006F8002802D0BDF86C
:107810000000204418BD70B5C8B1C2B1002415885D
:1078200003E0065D641C3444A4B2A54203D80619E3
:1078300076789E4201D08C42F3D38C4207D2005D11
:10784000A31C401E9BB280B21C188C4201D90020A0
:1078500070BD138070BD80F8301070472DE9F04185
:107860000D00044606D02CB195F87A0000260128B8
:1078700003D006E00E20BDE8F08195F898000128BD
:1078800029D0D5F8A000042825D0D5F89C000428DC
:1078900021D04FF00108A6702C2205F17801201D9F
:1078A000FEF7E4FD84F83060D5F8A4006063D5F8F5
:1078B000A800A0634FF6FF70A4F8240404F58260CA
:1078C000C4F82004C4F82664A4F82A6484F82C645C
:1078D000207810B104E00720CDE7FF2084F85400A1
:1078E00004F155072046C4F81074FFF73CFDA4F8D6
:1078F000140404F2144239462846FFF7BBFE002860
:10790000B9D104F23120C4F818042046FFF72BFD4A
:10791000A4F81C0404F21C4205F13C00D4F818142D
:10792000FFF7A8FE0028A6D184F85180208BA4F888
:10793000480084F83C80266484F850606069002127
:107940006064454604F13C02781E72DF002892D143
:10795000257090E710B50288102A1BD0112A20D07C
:10796000262A1DD1007A0C46012801D0022817D101
:10797000A0780521401CB0FBF1F201FB120120466A
:1079800000F03AF800280BD0A16B002908D0BDE820
:1079900010400847C27B012A02D18088A1F8240444
:1079A00010BD0C46002184F82E148088B4F82414ED
:1079B0008842F5D120790028F2D10121DFE710B506
:1079C000044690F8540074DF012084F82E0400204F
:1079D00084F8300484F850000621204601F0D5FDDB
:1079E000002808D1A178204600F006F810B1A16B5C
:1079F00001B18847002010BD2DE9F05F04460078F2
:107A00000F4698B1A7700025C4F82654A4F82A544C
:107A100084F82C54A079012608B1012F09D0E0790F
:107A200080B1012F05D0022F03D00BE00820BDE864
:107A3000F09F616B21B184F82D640820884701E034
:107A400084F82D5404F2274100200A5C0AB1304624
:107A500003E0401C0628F8D300204FF002084FF046
:107A6000030B012F06D0022F0CD0032F0FD0042FB1
:107A700015D110E0A17929B194F8241011B908B1F9
:107A800030460DE0E17911B108B1404608E0207AB6
:107A900008B1584604E0607A08B1042000E02846A6
:107AA000A070616B41B1032801D0042804D1607932
:107AB00010B194F82E0498B184F82F5404F13C00CE
:107AC00018210746FEF7F9FC84F83C6004F12C000D
:107AD00004F07EFD58B194F82C0084F8510008E0C1
:107AE00084F8305484F82F6407208847E6E784F848
:107AF000516094F8240058B104F1280004F068FDA6
:107B000020B194F8280084F8520001E084F8526013
:107B100084F85050A27804F2264104F582694FF0AF
:107B2000060A052A64D2DFE802F07C030F22420035
:107B300084F83160C4F82054C4E9101584F83C80FE
:107B40008020A4F8480055E084F8318094F824207F
:107B5000384612B10722027001E080F800B0228A94
:107B60008281C4F820544160E168B96042E06069F4
:107B7000B860208BB88194F824003D460028204648
:107B800002D084F83CA001E084F83C6005F0CCFC15
:107B900050B185F814800421204601F0F6FC38BB72
:107BA000052184F8311021E084F831B01EE0E0694D
:107BB000B860208CB88194F824003D460028204607
:107BC00002D084F83CA001E084F83C6005F0ACFCF5
:107BD00048B185F814800421204601F0D6FC38B95C
:107BE00084F831A002E0042084F83100C4F8209425
:107BF000A07878B13A4604F15400D4F8201472DF2A
:107C000000287FF414AF94F8301094F8540073DF18
:107C10000028F6D1616B11B194F83100884700203B
:107C200005E784F83150F5E770B5040012D001463D
:107C30001C221448FEF71AFC1248134D05602068F8
:107C400050B17ADF002806D12068016829604068B9
:107C5000686005E00E2070BD0B487BDF0028FAD17C
:107C600008484FF6FF711438084A20F8041B0549EC
:107C7000343901600021FFF743FC0028EBD00320DA
:107C800070BD0000AC710020682B0020C1D4020040
:107C900010B5044600F006F808B1204610BD1420C7
:107CA00010BD0000142801D3002070470146014890
:107CB00002F0F9B9CC7100207CB5054608880C4665
:107CC0000930904201D90C207CBD68466DDF002848
:107CD000FAD121880820685420881B21401C80B2DA
:107CE000208029542088401C80B220802844DDF860
:107CF00001100160BDF8051081802088801D80B2D0
:107D000020809DF80010490800D0012129542088C6
:107D1000401C208000207CBDF8B5264C054601881B
:107D20000026E089212933D00ADC102912D011293C
:107D300021D013292BD100231A4685217FDF14E09F
:107D40003B2933D052292CD0562920D1A888132181
:107D500076DF0AE0072000F079FB08B1FFF7BEFBF1
:107D6000A988E181144802F0F9FA00280FD0BDE893
:107D7000F840FFF7B3BB4FF6FF70E0816079002851
:107D800005D00D480C3090F8540074DF6671F8BDD2
:107D90000096A88869468FDF0028F8D0FFF79EFB81
:107DA000F8BD00231A461946B1DFDEE7A888132183
:107DB00076DFDAE7E02A0020F02D002010B51A4C1B
:107DC0000188606810290ED011292BD1401E6060F7
:107DD00028D1FFF7D0FA002824D02168002921D02B
:107DE000BDE810400847D0B900210122084600F044
:107DF0000BFB08B107280FD107220221012000F058
:107E000003FB08B1072807D104220221002000F05B
:107E1000FBFA20B1072802D0216801B188476068C9
:107E2000401C606010BD0000602B00202DE9F04771
:107E300001883B4E40F2F3194FF6FF7510291BD015
:107E400011293ED0122954D0502946D1C188F28937
:107E5000841D914241D1618902293ED186883046F4
:107E600001F09AFD050038D004F10C0000F08AF909
:107E7000A8B3294630464EE0C17B878804460129D5
:107E80002BD1A846284601F087FD050017D02F808A
:107E900000202872234843464A460168C5F80A1064
:107EA0004068C5F80E0004F1100105F10A0001F068
:107EB000F3FD6872F08900280FD129462AE00420DA
:107EC00013E0808801F068FD040006D06068FFF7C9
:107ED00069FB08B104F0D4FE2580BDE8F087FFE718
:107EE0006868FFF75FFB0028F7D0BDE8F04704F0B3
:107EF000C7BE87880646384601F04EFD0400ECD028
:107F00002B464A4606F1080104F10A0001F0C4FDBF
:107F1000607221463846BDE8F04700F0FFBD000022
:107F2000AC710020682B00202DE9F04F04468688B4
:107F30000188424897B0834610290CD0112950D0AF
:107F4000103019296AD01A2974D1217A0C09042C0D
:107F50004DD301224CE0394D083DA868C0430B9039
:107F600069680BA802F0C3F80B990CA800F070FD2B
:107F70002C220CA96846FEF779FA0027E946A846A4
:107F800010E000BF09EB47005FF00005B0F804A067
:107F900008EB85005146001D02F07AF86D1C1E2D7D
:107FA000F6D37F1C0098B842ECD8142E05D317B036
:107FB0000420BDE8F04FFFF791BA3146584602F071
:107FC0007DF8314608F1040002F078F8E07B0128E2
:107FD00030D017B03146BDE8F04F1848001D02F010
:107FE0006DB817B03146BDE8F04F02F051B800222D
:107FF000314601F0C5FA032C01D3012200E0002232
:108000000E4831460C3001F0BBFA022C01D301229C
:1080100000E0002209483146083006E0217A0029B4
:1080200008D1617AC1F3C002314617B0BDE8F04F04
:1080300001F0A6BA17B0BDE8F08F0000D0710020A3
:1080400070B5334D04008EB02DCD08AE86E82D00FE
:108050005BD0E9B30868A061214608A862DF002868
:1080600051D1207801258DF83200ADF83050A21C96
:108070000CA92846A8DF002845D120216846FEF734
:108080001CFA0220ADF8000020788DF802008DF86F
:108090000C509DF80D00F426ADF8046040F00C0083
:1080A0008DF81150ADF806508DF80D008DF8125076
:1080B000608804F10C02694600F0D4FB002822D14C
:1080C00020216846FEF7F9F90320ADF8000000E032
:1080D0001BE020788DF802008DF80C509DF80D0003
:1080E0008DF81150ADF8046040F010008DF812507A
:1080F000ADF806508DF80D008DF813506088221DE4
:10810000694600F0AFFB0EB070BD0E20FBE700002B
:108110006C14030070B588B00446002924D0002CEC
:1081200022D008462188102920D0502924D0572950
:108130001AD10546A188406906AAFFF777FA0028F8
:1081400012D1069E307800280ED018216846FEF71E
:10815000B4F901208DF800000195A088ADF8080061
:108160000396A9696846884708B070BD08B02146E3
:10817000BDE8704003F0FCBF08B02146BDE8704088
:1081800004F0D6B8007800F0010070470149085C9F
:1081900070470000241403000649095C4FF0A0401A
:1081A000D0F81005C84010F0010000D0012080F088
:1081B00001007047241403002DE9FC410646C00766
:1081C0004FF000050ED0104F00240122385D0095BD
:1081D00000231146019502F0E7FC641C042CF4D343
:1081E00000F046F8B0070DD5074E0024361D0022DA
:1081F000305D032300951146019502F0D5FC641C07
:10820000042CF4D3BDE8FC812014030007490B5C67
:108210004FF0A041D1F804250120984020EA020344
:10822000C1F808351040C1F80C0570472014030050
:108230000249085C012102F02EBD00002014030059
:108240000249085C002102F026BD00002014030052
:108250000649095C4FF0A040D0F80405C84010F072
:10826000010000D0012080F00100704720140300BD
:1082700010B500242046FFF7DBFF641C042CF9D363
:1082800010BD10B500242046FFF7DAFF641C042C53
:10829000F9D310BD10B50246064B4FF0FF30002158
:1082A0005C5C944201D1084610BD491C0429F7D3F7
:1082B00010BD00002414030070B50C4E0C004FF0EC
:1082C000000530600BD0012000F06AF808B10220F0
:1082D00004E0002000F064F800B10B20207070680A
:1082E00010B9FFF748F80546284670BD602B0020FE
:1082F00010B5002000F0DAF908B1062806D10120F7
:1083000000F0D4F908B1062800D1002010BD00000B
:108310002DE9F0470D468146FFF7BCFF04460428CF
:1083200036D2DFF874801B481C4EA8F10C0725B329
:10833000012D0ED0022D2BD104EB440030444578A2
:10834000002D25D0B968002922D02846BDE8F04785
:10835000084704EB4401755C0E44717849B10E4A3C
:108360004FF48041093A8068FFF704F908B987F8AB
:108370000390B17808F80410E2E78068FFF712F97B
:1083800004EB4401314418F804008D78A842D7D09A
:10839000BDE8F087281403005C2B00204871002002
:1083A000042801D2FFF7F8BE0020704701461448A8
:1083B00010B5C089042910D0072917D00A291ED169
:1083C000002000F043F808B1FFF788F8FFF790FFAE
:1083D00008B1FFF783F833DF02E0132176DF0CE00A
:1083E00000280CD0BDE81040FFF778B8A0F57F4119
:1083F000FF3904D10348FFF7E2FA0828F0D110BD95
:10840000E02A0020FC2D002070B50023042810D2A3
:108410000D4D00EB4004012A02D101290CD00022AD
:10842000094E00EB4000304461B1012906D0022919
:1084300006D00723184670BD0E30C2B22A55F9E7A0
:108440004270F7E78270F5E748710020002070471E
:1084500070B506461E480024C0E90161B00720D56A
:108460000025012211462846FFF7CEFF6D1C044669
:10847000042D02D2002CF4D013E094B940F2333230
:1084800004211448FEF7A8FF04000AD1FEF792FF6A
:10849000040006D10F48104A0021001FFFF730F8F2
:1084A0000446F00712D00120FFF786FE74B9094890
:1084B0000A4A00210C38FFF723F8040006D10548CA
:1084C000074A01210838FFF71BF80446204670BD13
:1084D000502B002034140300E9870200199B02008E
:1084E000AD7302002DE9F05F6E4C05460026607802
:1084F000B34618B184F801B001F0F6FA6A4F4FF4B0
:108500007A694FF4C87A4FF00108182D69D2DFE874
:1085100005F00C1313384754696E727B727BC58467
:1085200084848484B3B6B9BCC5C501F0DDFA38686B
:10853000FFF738F806465CE00020FFF789FE0028C8
:108540004FF0000008D0FFF773FE022D02D14FF468
:10855000E16008E0484606E0FFF772FE022D01D117
:10856000C82000E05046410CC0034FF47A728018D6
:1085700041F10001257052000023FDF733FF014651
:108580002AE00020FFF764FE00284FF0000004D02E
:10859000FFF74EFE4FF44870E5E7FFF751FEDFE7C7
:1085A0000020FFF755FE00284FF0000002D0FFF733
:1085B0003FFECFE7FFF744FED4E70020FFF748FE79
:1085C00000284FF0000002D0FFF732FE01E0FFF775
:1085D00037FE257040F6CD4100223868FEF7CAFF0D
:1085E000064646E00020FFF711FE257008E0002057
:1085F00051E025703DE084F801800120FFF706FE80
:10860000002240F26661E8E784F801800120FFF76C
:10861000FDFD00224FF40051DFE77868FEF7C2FF4E
:108620000646D5F1110000D02EB10220FFF700FE62
:1086300084F802B01DE0012816D980B2C821484351
:10864000C117C90341EA5041C0034FF47A72801840
:1086500041F1000152000023FDF7C4FE0146002253
:108660007868FEF787FF06460220FFF7E9FD84F8E9
:1086700002803046BDE8F09F01F036FAB9E701F01C
:1086800033FAB4E701F030FA04E001F02DFA0020EB
:10869000FFF7D6FD0120FFF7D3FDAAE7FFF7F1FDB5
:1086A000A7E70000502B002028140300012104F04C
:1086B000D0BF00002DE9F8430546861C00208DF848
:1086C000000090460F464FF001096846FEF770FF24
:1086D0001B4C20683860D4E90001401AA16804F2FC
:1086E0001C47081A0EE00121384601F0FAFC01F09F
:1086F00029FA0146384601F0F4FCD4E90001401A99
:10870000A168081A401C8642EDD8B8F1000F03D0CA
:10871000052065F3891002E0062065F39F50A268EA
:108720002168114004EB8101C8602068304420605A
:108730009DF80000FEF760FF4846BDE8F8830000A2
:108740009476002070B50D4604460A2902D10D2109
:10875000FFF7F8FFA0682268411CA1601554D4E916
:108760000101814204D32046BDE8704001F0CFBE34
:1087700070BD0000034803C8814201D10120704749
:10878000002070479476002010B54FF0A040D0F83C
:108790001015C90E11F0010F0DD11021C0F80C15E4
:1087A000054900200870FEF71FFB04484068BDE83B
:1087B0001040FEF7F7BE10BDE02A002044D90200A9
:1087C000034630B5074800210478426806E000BF40
:1087D00002EBC10005789D4203D0491CA142F7DBA2
:1087E000002030BD802B002000780221FFF790BDD3
:1087F00005494FF0FF32082841F8202002D30844F1
:1088000080F848207047000058720020F0B54FF003
:10881000FF3512B10023082601E008230C260C4C7A
:1088200005E000BF54F823707F1C04D05B1CB342EA
:10883000F8D32846F0BD26185DB286F8305044F8CB
:108840002310002AF5D1E11881F84800F1E7000073
:10885000587200200249084490F930007047000027
:10886000587200202DE9F0438146887891B09046F7
:108870000C4600B901208DF83E002088ADF83C0080
:1088800000250095607C694604F06EFA6E46A07C77
:10889000711C04F069FAE07B00289DF8020002D008
:1088A00040F0080001E020F008008DF80200217C73
:1088B00011B140F0100001E020F010008DF802002E
:1088C000217B11B140F0010001E020F001008DF8A2
:1088D0000200217D09B1022100E0012161F3420083
:1088E0008DF802001C2102A8FDF7E7FD607BC106A0
:1088F00001D4800617D50E950EAFE07C791C04F0EC
:1089000033FA9DF83800079720F00F00401C20F044
:10891000F00010308DF838009DF83A0020F0060085
:10892000801C8DF83A00607B8DF80800A07B8DF8E4
:108930000900142109A8FDF7C0FD0FA8CDE909061B
:10894000A088ADF83000A06820B1E088ADF82C0018
:10895000A0680D90A06998B301950088ADF810004B
:10896000A06901AD01A94088ADF81200A069406876
:1089700006950390A069007B04F0F6F9A069691CD4
:10898000407B04F0F1F9A069807A00289DF8060088
:1089900002D040F0080001E020F008008DF8060049
:1089A000A169C97A11B140F0100001E020F0100077
:1089B0008DF80600A169097A19B140F0010002E0C2
:1089C0000DE020F001008DF80600A169897B09B156
:1089D000022100E0012161F342008DF80600E06908
:1089E00000B10590434609AA02A94846AADF11B082
:1089F000BDE8F08370B5084C050009D0103421683B
:108A0000002907D008682060496828468847F6E7AB
:108A10000834F4E770BD000044720020054A0121CB
:108A200020B1012805D19170FFF7E4BF51700020FB
:108A3000FAE770474472002010B5D0E90234D1E95A
:108A40000220D11AA04101D3012010BD002010BD89
:108A500073B58CB00646002000900D9880B10024BC
:108A60006D4621460DA801F01EFB30B1009805EBC4
:108A7000400084800098401C0090641C142CF0D3AB
:108A80002C2269463046FDF7F1FC0EB070BD2DE991
:108A9000F04117880646B81D14460D46984202D983
:108AA0000C20BDE8F0813188072206290AD34FF453
:108AB000486C4FF6FF73614501D9994202D1708825
:108AC000062801D21046ECE7604501D99842F9D159
:108AD000994203D0984201D08142F3D80520E8554D
:108AE00020881221401C80B2208029542088401CFC
:108AF00080B220804119308804F084FB218808442A
:108B000080B220804119708804F07CFB21880844E1
:108B100020800020C5E7FEF7E1BC000038B54A7AA6
:108B20000F4B62B100220A725969002906D0012256
:108B30008DF80020ADF802006846884738BD0A7AF3
:108B400062B19B684C68024619462046FEF712FD4A
:108B50000028F3D0BDE8384004F092B85B68F1E734
:108B6000AC71002070B588B00646002005900690D4
:108B7000ADF81410ADF816100190029001AA05A9E5
:108B8000304690DF050021D002F0B2FE03461148C6
:108B900011493246401AC108012000EB0140044649
:108BA0000E4902F058FABDF8042012B9BDF80600CB
:108BB00028B1BDF80630204609A102F04CFABDF8F4
:108BC00008201AB12046164902F03EFA08B028469D
:108BD00070BD00003420030034200300241803007B
:108BE00054686520726571756573746564205458A6
:108BF0002F5258207061636B6574206C656E6774CA
:108C00006820697320746F6F206C6F6E67206279C3
:108C10002025752F2575206F63746574732E0000F1
:108C2000701803002DE9FF410C4620B14FF40640B7
:108C300004B0BDE8F0812079002748F2096538B119
:108C400041F61D5601281BD0022826D0681DEFE7EB
:108C50000220207102970397E0680190694601A8FD
:108C600003F080FE50B102988188E1800088208165
:108C7000BDF80010029803F0F3FED9E72846D7E7C5
:108C80000A4B6A460021A01D03F024FE38B10749B3
:108C900018398F61CF61A842CAD13046C8E703486E
:108CA0008188019803F0DCFEF5E70000E82B002046
:108CB00070B500240F4D10E0686800EBC4063078F2
:108CC00002F01EFF7178012901D0012100E000218E
:108CD0004140307800F010FA641C28788442EBDBC5
:108CE000D5E90401084303D0BDE8704004F07EBA22
:108CF00070BD0000802B002010B50021024801F05B
:108D00000BFA80F3100010BDB07A00204FF48032CF
:108D10008A400168C1F848230068C0F808237047FA
:108D20004FF4A07202EB810189B200F055BA2DE92F
:108D3000F04105460E464FF4A07000EB860081B26C
:108D400028684FF48034B440984622F07F47C0F83A
:108D500008432868C0F84843286802F013FB2868D5
:108D600000EB8600C0F840752868C0F84443B8F1AD
:108D7000000F02D02868C0F80443BDE8F081006805
:108D8000D0F804057047000070B54379224C44F8D0
:108D900023204279241D04EBC202204B1579204A7E
:108DA0009A1AD3082DB10824022000EB03401DA11C
:108DB0002EE002680D88C2F8085590F904208978E1
:108DC000002A4FEA411106DA02F00F0202F1E02216
:108DD00082F8141D03E002F1E02282F8001490F9F9
:108DE0000410012201F01F0502FA05F54909890066
:108DF00001F1E021C1F80051417904EBC1010A7190
:108E0000417944F831000320002400EB03400EA117
:108E100002F016F9204670BDBC2B00208C20030008
:108E20003420030052544320696E7374616E63658D
:108E300020616C726561647920696E697469616C26
:108E4000697A65642E0000005254433A20696E69C5
:108E50007469616C697A65642E00000090F9040001
:108E6000012100F01F0291404009800000F1E02044
:108E7000C0F8001270470A46022100F033B94FF4DF
:108E8000827100F0A9B90068012101607047006893
:108E90000121416070472DE9F05F07460C464FF411
:108EA000A07000EB84001FFA80FA38684FF4803617
:108EB000A6409B4622F07F45C0F848633868C0F85A
:108EC00008633868D0F8048500EB8402D2F8409536
:108ED000C2F840855146386802F054FAA9EB080000
:108EE00020F07F40012806D1102002F047FD5146B6
:108EF000386802F047FA3868D0F80485C0F844634F
:108F0000A5EB080121F07F413868012900EB8400BE
:108F100010D0C0F840553868D0F804156FF07F4C79
:108F20006A1A521E22F07F42ACEB0B03934217D316
:108F300062B118E06D1CC0F84055102002F01EFD13
:108F40003868D0F8040540450AD10CE000EB8400F5
:108F50006D1CC0F840553868D0F80405884202D02E
:108F60000D20BDE8F09F01223146384600F0BAF8E6
:108F70000020F6E710B54FF0A040D0F81005C00E65
:108F800010F0010F0FD108488068FEF70BFB07486F
:108F9000C16911B1012904D101E0012100E00221E0
:108FA000C1610021817010BD44D90200E02A002077
:108FB0002DE9F843104D0F4680461E4691466946FE
:108FC000286801F039F8040014D01C21FDF775FA67
:108FD00001202071C4F81490380BC4F80080C4E953
:108FE00002606946286801F048F803F059FC002047
:108FF000BDE8F8830420FBE7B016030010B5037842
:109000000022072B06D2DFE803F005040610202912
:1090100030000A7010BD01230B7003898B81838897
:10902000CB81C06888600A7410BD02220A70028970
:109030008A818288CA81C2688A60807D062802D0BF
:109040000020087410BD0120FBE703220A70C288CB
:109050008A810289CA81C068886010BD04230B70B0
:10906000C0888881CA818A6010BD0520087010BD43
:1090700070B5064D0646002455F8241009B1304657
:109080008847641C042CF7D370BD0000D473002003
:1090900030B50446006887B00D46806800281FD0B0
:1090A00018216846FDF709FA0195A0680590207916
:1090B00010B1012810D107E001208DF800002069CF
:1090C0000290E068039005E002208DF80000E0685F
:1090D00000030290606904902068816868468847B0
:1090E00007B030BD0368C3F84413002A02D00068FB
:1090F000C0F80413704700002DE9F84F0E463449BC
:10910000804601EB5001C007097801D00F0901E04A
:1091100001F00F074FF00009424601204946FDF7D4
:1091200092F9DFF8B0A004460D46052F4ED2DFE8D5
:1091300007F003161B282C00002E47D001214046C3
:1091400003F072FF8DF800906846FEF731FA504642
:10915000D0E904120C431543CAE9044532E00EB1CC
:10916000022114E0002112E04EB10321404603F039
:109170005BFF4046BDE8F84F012104F0F3B901213F
:1091800005E0002E22D1042101E02EB1032140464A
:10919000BDE8F84F03F048BF0021404603F044FF0C
:1091A0000021404604F0DEF98DF800906846FEF795
:1091B000FFF95046E243D0E904341A4024EA05019D
:1091C000CAE904219DF80000FEF716FABDE8F88F01
:1091D00028730020802B002010B5006842581AB177
:1091E00002F0D0F8012010BD002010BDF0B50378CA
:1091F00000265C4C9FB001259BB12146012B0A7AC9
:10920000497A01D0022B0AD14068002807D112B157
:109210002562A5722672002901D0E57266721FB020
:10922000F0BD40680028FAD10B960C9601210596F6
:1092300006960796129612AB05AA0846139600F0FA
:109240004DF930B318961B961C961D9666634548DB
:10925000ADF86050ADF862503430CDE9190518A969
:109260001BA800F071F908B1FEF738F91998A0634E
:10927000FEF756F8039604960A9602210896099678
:10928000149614AB08AA0846159600F027F988B181
:109290002BE00BA905A800F029F908B1FEF71EF98B
:1092A0000C98A06305A800F0F5F80028E0D0FEF7C0
:1092B00015F9DDE703A908A800F018F908B1FEF7D1
:1092C0000DF9DDE9030240888100E1630020264BAF
:1092D00002E0175C1F54401C8842FAD308A800F033
:1092E000D9F808B1FEF7FAF8256211960D96032118
:1092F00010960E960F96169616AB0DAA0846179660
:1093000000F0ECF841F2883698B1304600F066FD86
:10931000FF212064C82200914FF487731146FDF7A6
:10932000AFFB206CFDF7CAFBFF20FDF771FBE57179
:1093300075E710A90DA800F0D9F808B1FEF7CEF82E
:109340000A4A11980021435C5354491CB142FAD394
:109350000DA8226400F09EF808B1FEF7BFF80220C5
:109360002062E4E7E02A0020483200204834002050
:109370000D4808B5007888B1684603F0C1F980B19E
:1093800006210170684603F0C9F90848017809B15F
:109390000121C17303F076FA002008BD48F2016094
:1093A00008BD48F2076008BDF02B0020D4740020EF
:1093B000F0B587B014216846FDF77FF8304C20786F
:1093C00018B16846FFF754FE57E0201D00F086FEF6
:1093D00098BB40F6F8700168481C02D14FF010208D
:1093E00041694FF08050026940694B1C01D100FB7C
:1093F00002F1244800220161A1F54041C1602249E7
:1094000001F01AFA002823D121481C238C221F497D
:10941000006800F0FEFD03F043F8050016D0022DB1
:1094200014D000270126062D14D005A803F068F9F2
:1094300098B106700C2D1BD200E01EE0DFE805F0AD
:1094400018101810181718171812141248F20A607A
:1094500007B0F0BD26706760B3E748F20760F7E732
:10946000077105E0032100E00221017100E00671AF
:1094700005A803F053F903F005FA0020E8E700001F
:10948000F02B0020742C0020C0160300E473002091
:109490003816030038B5040014D0694603F062FAA8
:1094A000B0B1BDF8000000EB80010B4800EB81007B
:1094B000C16851B1A17A41B1C168491EC1600020A3
:1094C000A07238BD48F2046038BD48F2056038BD6E
:1094D00048F2096038BD0000707400201FB501A972
:1094E000684603F0F7F904B010BD0000F8B50D466A
:1094F000040018D0BDB1694603F034FAB0B1BDF82C
:1095000000000C4900EB800001EB800001210C30D1
:10951000666800F0E6FD2E6060680C30686001202F
:10952000A0720020F8BD48F20460F8BD48F209605E
:10953000F8BD00007074002018B10323002204F06D
:10954000CFB848F2046070470223002204F0C8B884
:10955000094910B50A69042A0AD0084A096942F87B
:10956000210005480121103000F0BBFD002010BD96
:1095700048F20B6010BD0000D02B0020D4730020F7
:109580000AB100F09BBD00F083BD70B50D460446E6
:10959000B0F81414D0F810040122FEF72CF900B131
:1095A000057004F13C0204F5826104F1540072DF9D
:1095B00070BD406803F0C4B806484A88C3899A421F
:1095C00007D10A88A2F52063773B02D18988C91E9A
:1095D00001827047E02A002010B50949094800F0CF
:1095E00004FE08B1FDF77AFFF721064800F0F1FD0F
:1095F000002803D0BDE81040FDF770BF10BD00008B
:10960000B9950200DC2D002070B510B14FF4064072
:1096100070BD1A4C0025E07B08B1E57301E000F055
:10962000A1F82078082826D2DFE800F02504080CED
:1096300010251420BDE8704000F022B8BDE870404D
:1096400000F07EB8BDE8704000F060B8BDE8704042
:1096500000F03CB86088094900EB8000643901EBF8
:1096600080004068BDE8704002F0FABE6560BDE869
:10967000704002F003BF48F20E6070BDD474002049
:109680001149F0B48A1C00200346A1F164050C18AE
:10969000A67A4EB1A37200EB800405EB8404E66861
:1096A00016B9247C012C0AD0401C80B20528EED3C8
:1096B0000B704B804B60F0BC41F61D507047108022
:1096C000F0BC00F03DB80000D47400200C48418884
:1096D00001EB8102A0F1640101EB8201CA6852B181
:1096E00005210170074802218180016800230222C0
:1096F000054801F005B8042202704968F6E7000049
:10970000D4740020F82B0020742C002038B50A49AE
:10971000084803240B684268898803EB8101538859
:109720000470DB1C00201B0400909B0B034801F01D
:109730003BF938BDD4740020F82B0020742C002095
:10974000074910B54888091D03F05CF918B1BDE858
:109750001040FFF7DBBFBDE81040FFF7B7BF0000C8
:10976000D4740020F0B51F481F4901250678022453
:109770008B88A0F16402082E19D2DFE806F00418E5
:10978000181B222F2F170189491C018100214180BC
:1097900080F80F1001EB810312F8233043B100234E
:1097A0004418491C89B2A3720529F3D30570F0BD92
:1097B0000123F5E742685288D21C1A448A8004705B
:1097C000F0BD46880D6806EB860602EB86025668F9
:1097D0000E60556013818C80062100E00721017026
:1097E000F0BD0000D4740020F82B002010B50B4809
:1097F000FFF7C5FA094A083AD2E90434C018D2E999
:10980000063244F10001C31A71EB020204D24FF098
:109810008072801841F1000110BD0000A02B0020D3
:1098200010B5C0B2FEF7CCFF0446007802F068F92C
:1098300001466078012801D0012000E0002090EA74
:10984000010F08D00449D1E90401084303D1BDE860
:10985000104003F0CBBC10BD802B0020428800EBF1
:1098600082020C328A4201D9022070478188A1F518
:109870007F42FF3A06D0018821B18068401C01D0A8
:109880000020704701207047884204D20068401CC5
:1098900001D00120704700207047000010B50A4930
:1098A00041600A4800F01AFC58B901F07DFF0749F1
:1098B0001C238C22087404488C39001F006800F0B7
:1098C000A8FB002010BD0000B41603008075002026
:1098D0002DE9F0412D4F002520B17D604FF4064069
:1098E000BDE8F0810879012258B1294E01280CD039
:1098F000264C4FF002080834022820D0032841D11A
:1099000027E00A7102F0BAFD3AE0002000EB800186
:1099100016F82110022908D0401C80B20528F5D382
:109920003A707D6041F61D50DAE700EB800006F8E2
:10993000205006EB8000406802F092FD20E00D719F
:10994000A4F80480002302221248216800F0D8FE07
:1099500016E00D71206802F083FD0D492368643123
:10996000498801EB810206EB8201D1F804C0C4F8FA
:1099700000C04B60A3880B81A4F8048006F8225035
:109980000028ADD07D6048F20D60A9E7F02B0020E3
:1099900070740020742C00200146034802888A421B
:1099A00000D0002070470000987100202DE9FC5F76
:1099B0000E008346DDE90C47C6F10000984692464A
:1099C000814600D40846012503E000BF90FBFAF071
:1099D0006D1C5045FADAA84500D9454624B1002E41
:1099E00001DB780700D5641EB80702D5B8F1000F77
:1099F0000AD0F80708D13CB1A54205D2202158462B
:109A0000641EFEF79FFEF6E7002E02DA4E462D2179
:109A100002E0780703D52B215846FEF793FE07F0A6
:109A2000030002280BD1B8F1000F08D13CB1A542C8
:109A300005D230215846641EFEF784FEF6E7CDE9D4
:109A40000047434652463146584603F0F1FBBDE815
:109A5000FC9F024600201268530713D502F0030052
:109A6000012802D002280CD105E0C2F383100B6854
:109A7000801C184404E00223086803EB925210444F
:109A800008600120704700000248007A002800D0DA
:109A90000120704780750020F0B58488A518944295
:109AA00000D82246A41AC288D6189A4200D8134673
:109AB000D21A4B880788BB420CD34088834209D80E
:109AC0008888A04206D3A84204D8C888904201D30F
:109AD000B04201D90020F0BD0120F0BD800701D0C7
:109AE00000207047012070470A4810B5807860B1A7
:109AF000002401E0022C06D02046FEF799FB641CEE
:109B0000042CF7D310BD0324F6E7BDE81040FEF7A0
:109B1000AFBB0000502B002003480179C90702D0D9
:109B20000078FEF7DFBC7047502B0020F721018042
:109B300017214180002101714171FB2181711B219D
:109B4000C17170472DE9FF410026234800F0C3FA98
:109B50002148001F074600F0BEFA204C60680090C4
:109B6000A56800E000986946284004EB80000C30AE
:109B7000FFF76FFF0028F5D101AA009901EA05035C
:109B800004EB8303491CDB6842F82030401C009141
:109B90000228F2D3019800F0030001280BD002281C
:109BA00010D10198032101EB90500099BDF80A6093
:109BB00001EB900005E00198BDF80A60C0F3831046
:109BC00008440090384600F083FA08B100986060BD
:109BD00004B03046BDE8F081AC7A002094760020D5
:109BE000ACB0FDF799FC08B1FDF778FC674903209C
:109BF000FEF72EFC08B1FDF771FC69460020FEF768
:109C00005BFB08B1FDF76AFC01F084FB08B1FDF7CE
:109C100065FC01F07DFD08B1FDF760FC002469469C
:109C20000120009401F0EAFB08B1FDF757FC6846FB
:109C300001F07CFC08B1FDF751FC9DF8080054A12F
:109C400020F00F00401C20F0F00010308DF80800CC
:109C5000162202A87CDF08B1FDF740FC0094F0203A
:109C6000ADF800004FF416700194ADF80200ADF8A5
:109C700004404FF4C870ADF8060068467ADF08B1BA
:109C8000FDF72CFCFFF7A8FC4748019001A94748C5
:109C900000F06FFB08B1FDF721FC454800906946D4
:109CA0004448FEF7CDF908B1FDF718FCAC21684631
:109CB000FCF703FC02208DF800008DF8024005201F
:109CC0008DF803000120ADF84C003A498DF87C0076
:109CD0004FF4486036392290149144F2506023903A
:109CE00035482990314869460C30FDF7B7FD08B179
:109CF000FDF7F4FB2D4801210C30FDF7ACFD1C21D4
:109D00006846FCF7DAFB4FF4A030CDE900404FF491
:109D1000F020029029480590032529488DF80C5021
:109D20000690ADF80E408DF810406846FDF77CFFB8
:109D300008B1FDF7D3FB234A01212348FDF7E0FBDF
:109D400008B1FDF7CBFB2048204A0121001DFDF79B
:109D5000D7FB08B1FDF7C2FB1B481D4A01210830A3
:109D6000FDF7CEFB08B1FDF7B9FB1A48C0F8005764
:109D70001948FFF7EDFB08B1FDF7B0FBFFF718FB43
:109D800008B1FDF7ABFB03F0C5F8FCE7AD830200BB
:109D90004D6F74696F6E2D506F77657265642045E5
:109DA000696E6B546167000081B30200F02D0020E2
:109DB000F9C002002C2B002029C1020055C102006D
:109DC000178B02003573020044D902008987020014
:109DD000758F020010000050ED910200F0B50B30BD
:109DE000154D20F007010024144A0FE003688B4250
:109DF0000BD38B4205D95E1A43184768C3E9006745
:109E000000E04368136002C004E0021D10680028EF
:109E1000ECD12046002802D1286808B10020F0BD0E
:109E2000064A07481060074A121A22F00702C0E9E2
:109E3000002401202860D7E7702C00206C2C002023
:109E4000447D0020409D002070B5144682880E4657
:109E500005462088111D0144921C994201D8FE2A12
:109E600001D90C2070BD521C32542088FF21401CA7
:109E700080B2208031542088401C80B2208081191B
:109E8000288803F0BFF92188084480B22080AA887E
:109E900042B1A96841B13044FCF7E8FA2088A988AA
:109EA00008442080002070BD072070BD2DE9F047D8
:109EB000C5881E1DB6FBF5F78946B6FBF5F10446CD
:109EC00005FB176C407916686843DDF820A0F71889
:109ED000001F874200D9C61A166001E02468491E97
:109EE0000029FBD1A5EB0C078846B74216D818E02D
:109EF00004EB0C00001D09EB0803BAF1000F3A4611
:109F000002D00146184600E01946FCF7AFFA246873
:109F1000F61B4FF0000CB844B54201D9374600E0BB
:109F20002F46002EE4D1BDE8F087000030B5024690
:109F300051B101F0F9F80021074C08E034F8213064
:109F40001568AB4202D11160002030BD491C81422E
:109F5000F4D3052030BD000000000000F8B50F4626
:109F6000017814460546012901D1687830B120886E
:109F7000821C9A4232D8012902D006E00720F8BD9F
:109F800069780144891C994228D8181A801E86B223
:109F9000ADF800602188B81C084469467DDF0028C0
:109FA000EDD12978022904D06878BDF800209042CC
:109FB00005D3BDF80000B04201D809200AE008200E
:109FC000012905D16978B14202D8ADF8001001E04D
:109FD000ADF80060BDF80010FE2901D90C20F8BDD5
:109FE0002288491CB9542188491C89B2218078549F
:109FF0002088401C2080BDF80010084420800020EC
:10A00000F8BD10B5FCF751F908B1002010BD1120C2
:10A0100010BD10B531B1B2FBF3F403FB14241CB135
:10A02000092010BD0E2010BD01600021416081603B
:10A030008281C381084610BD70B50C460546FCF709
:10A04000E9F8002802D021882868084470BD10B5BE
:10A050000A8849888A4203D1FCF71EF9012010BD05
:10A06000002010BD70B50C460546FCF7F8F8002836
:10A0700002D061882868084470BD10B50A884988F4
:10A080008A4203D1FCF7E2F8012010BD002010BD88
:10A0900001F01F0301229A40D243490900EB8100DD
:10A0A000114600F024B84A0950F8220001F01F02BE
:10A0B00001219140084000D00120704701F01F03AA
:10A0C00001229A40490900EB8100114600F029B8AD
:10A0D000002100F017B8012100F023B8012100F0A1
:10A0E00016B808B56A46FCF72CF9009808BD08B503
:10A0F0006A46FCF70CF9009808BD08B56A46FCF7FB
:10A1000020F908BD08B56A46FCF701F908BD08B595
:10A110006A46FCF7EFF808BD08B56A46FCF7DEF8BA
:10A1200008BD08B56A46FCF7E5F8009808BD08B513
:10A130006A46FCF713F9009808BD38B504460025B7
:10A140008DF800506846FDF733FA216862680868A8
:10A1500090420ED9401E08600178238AE26801FB14
:10A160000325227A2168101AC0B20A79824200D2ED
:10A1700008719DF80000FDF73FFA284638BD38B554
:10A18000054600208DF800000C466846FDF710FAE1
:10A19000E868298A201AB0FBF1F12A681068431C8C
:10A1A000136001709DF80000FDF726FA38BDC20863
:10A1B00000F007030120895C98400840704710B503
:10A1C000C20800F00703885C01249C4020438854A7
:10A1D00010BD28B1A1F11702E12A03D3072070476F
:10A1E0000E20704701800020704710B560B10161FA
:10A1F000F72120F8021B20F8021BFB2100F8021BAC
:10A20000FFF794FC002010BD0E2010BDF0B585882E
:10A2100093B00C46002D39D1018800263F4F2429E8
:10A220003BD006DC102909D011290CD0232958D1A4
:10A230004FE03A290BD0552953D129E00146204659
:10A2400001F0CCFF4DE0A01DFFF770FC49E0224675
:10A25000408934F8061F814200D8084660801728DC
:10A2600000D217206080106970B1607960B1D7E9C1
:10A270000001CDE90301ADF80E506088ADF8100083
:10A28000136903A9104698476671267113B0F0BD93
:10A290000146204601F0F6FF23E0011D2C2206A80E
:10A2A000FCF7E4F8BDF81800BDF81C2004EBC00171
:10A2B0004A732269AAB1D7E90423CDE90423ADF892
:10A2C0001200487B8DF814002269204604A99047AB
:10A2D00007E0017A207B884200D201462846FEF73B
:10A2E00041FCA07A0028D1D0E1882846A5DF0125CD
:10A2F00080B11128CAD001F0FBFA0246084809498A
:10A3000013B0401AC00805EB0040BDE8F04006A1BC
:10A3100000F09ABEA672E572B8E70000541403007C
:10A32000342003003420030073645F626C655F6750
:10A33000617474635F65786368616E67655F6D748F
:10A34000755F7265717565737428292072657475FF
:10A35000726E65642025732E0000000020B1027823
:10A36000DE2A03D0082070470E207047418000206D
:10A37000704760B159B10278DE2A0AD0096841609D
:10A38000DE2101704FF6FF714180002070470E20E2
:10A390007047082070477FB5054600294DD0002D35
:10A3A0004BD008780C46DE2847D1A88861888842BF
:10A3B00002D1204603F0C4F82888012825D00228BD
:10A3C0003BD011283AD0512837D135F8040F618895
:10A3D000884232D1A978A81C02292ED1017A0429F9
:10A3E00003D0062901D0052927D10021009102229E
:10A3F0008DF8002001914FF4C07202910391ADF8E5
:10A400000420007A05280FD010E0297A204601297F
:10A4100013D1A988428891420FD10121017204B061
:10A42000BDE8704003F08CB8ADF804102888694688
:10A43000B0DF002801D0616888477FBDA8886188A7
:10A440008842FAD14FF6FF7060807FBD00F18040F6
:10A450000068002800D00120704708B500F1804056
:10A46000002101600068009008BD00002DE9F04166
:10A47000040007D0044E4FF47A47751C3846A847AD
:10A48000641EFAD1BDE8F0810014030070B50B4CD6
:10A49000207808B185250FE00020A0606060206171
:10A4A000E060074801F044FA054601F07DF908B97B
:10A4B00001F028FA01202070284670BD4472002067
:10A4C0001D8A020038B500258DF800506846FDF75A
:10A4D0006FF8074CE068401EE060E06810B901F0DA
:10A4E00037FAA5709DF80000FDF786F838BD00002A
:10A4F000447200200FB408B50399002904D004AABF
:10A5000000926A4600F00FF801B05DF814FB10B538
:10A5100082680446002A05D0D4E9040321689847DC
:10A520000020A06010BD2DE9FC4791460C0080463C
:10A5300076D014F8011B39B125290ED04046FEF71C
:10A5400001F920780028F4D198F80C00002867D091
:10A550004046BDE8FC47FFF7DABF00200122217822
:10A560002B291BD02D2902D0302908D102E040F040
:10A57000010001E040F00200641C002AEFD1002538
:10A580002A290ED02178A1F130020A2A11D205EB36
:10A59000850201EB4205641C303DF1E740F0040008
:10A5A000EAE7D9F800100B1DC9F800300968641CEF
:10A5B0000D44217800232E290BD114F8011FA1F19D
:10A5C00030020A2A05D203EB830201EB4203303B3F
:10A5D000F3E76C290DD068290BD0692921D00BDC59
:10A5E000252918D0582931D063290ED0642915D1D6
:10A5F00017E014F8011FECE7702969D0732932D0F5
:10A6000075291BD0782909D120E0D9F80000011D57
:10A61000C9F8001001784046FEF794F8641C90E7F2
:10A620006CE0D9F800100A1DC9F800200968CDE9CE
:10A6300000500A224046FFF7B9F9EFE7D9F80010B9
:10A640000A1DC9F8002009680A2206E0D9F800109E
:10A650000A1DC9F8002009681022CDE900504046C3
:10A6600002F0E6FDDAE7D9F8001000270A1DC9F864
:10A6700000200E68C00705D112E04046761C7F1C02
:10A68000FEF760F831780029F7D104E02021404638
:10A690006D1EFEF757F8BD42C0D9002DF6D1BDE7BB
:10A6A0004EB13046FBF714FF074604E02021404638
:10A6B0006D1EFEF747F8BD4206D9002DF6D103E026
:10A6C0004046761CFEF73EF831780029F8D1A5E720
:10A6D000D9F80000011DC9F8001005683021404676
:10A6E000FEF730F878214046FEF72CF808200021CC
:10A6F000CDE90001034610222946B0E7BDE8FC87FA
:10A700002DE9F843884605002C482D499946A0EBD1
:10A7100001004FEAD0004FF00101164601EB004462
:10A7200024D0286800282CD0002E34D069684046F8
:10A730004FF010070A68511E11EA080F11D10146A7
:10A7400072432846FCF703FE00282ED028684B46AB
:10A750003246046901B041462846A446BDE8F043AC
:10A7600060472046174B18A2009722E00E20009069
:10A770002046144B1EA220A100F075FC0E20BDE85F
:10A78000F8830820009020460E4B26A21AA100F064
:10A790006AFC0820F3E7092000902046094B24A218
:10A7A00015A100F060FC0920E9E7064B214A20468C
:10A7B000009711A100F057FC1020E0E7A42003004F
:10A7C000342003009B160300616464725F69735F49
:10A7D000706167655F616C69676E656428705F664C
:10A7E000732C20706167655F6164647229000000EA
:10A7F000705F667300000000257320636865636BFB
:10A80000206661696C656420696E202573282920A3
:10A81000776974682076616C756520307825782EAC
:10A8200000000000705F66732D3E705F617069000C
:10A830006C656E00B41C030038B503001148124D5E
:10A840004FF00E04A0EB05004FEAD0004FF00105D9
:10A8500005EB004009D061B119600C6801B0A44655
:10A86000BDE83040114618466047084B08A20094E6
:10A8700002E0064B08A2009409A100F0F4FB0E20B0
:10A8800038BD0000A420030034200300501603004C
:10A89000705F667300000000705F61706900000007
:10A8A000257320636865636B206661696C6564204D
:10A8B000696E202573282920776974682076616C79
:10A8C000756520307825782E0000000004480121AD
:10A8D0004174007A08B100207047012070470000E1
:10A8E00080750020012801D0032808D104490022E6
:10A8F00001284A7400D00020087401F073BF70472B
:10A900008075002070B50246022801D0032A45D187
:10A91000234C207A002841D0012833D0022831D19D
:10A9200020480023022A006802D0032A2AD11BE013
:10A93000E360017911B1012924D10DE0D0E9056569
:10A94000711B4FF48056B14200D3314629448161D6
:10A950004569A9420ED015E00169491C01614269AF
:10A9600091420FD1237213E0E168491CE16008298C
:10A9700008D9E3602372022A0AD00D21FEF788FB72
:10A9800001F0D4FE607C28B1BDE8704000F012BF39
:10A990000021F3E7BDE8704001F024BF70BD000066
:10A9A00080750020002C00202DE9F84F90468A4643
:10A9B0003A493B4A0500A1EB02014FEAD1014FF0B1
:10A9C0000102DDF828901E464FF00E0002EB014414
:10A9D0001AD0B8F1000F1CD02868002822D0092016
:10A9E000002E29D069684968B6FBF1F201FB1261BB
:10A9F000002926D000902B4B20462BA235A100F039
:10AA000032FB0920BDE8F88F00902046254B3CA280
:10AA100003E00090234B20463BA22EA100F023FB35
:10AA20000E20EFE70820009020461E4B38A229A1F7
:10AA300000F019FB0820E5E700902046194B37A2EB
:10AA4000DCE75046FCF77DFC102798B14046FCF748
:10AA500078FCA0B1324651462846FCF778FC98B104
:10AA6000CDF80090286833464246C46851462846CF
:10AA7000A047C7E720460B4B29A2009708E02046D5
:10AA8000084B2DA2009703E0064B204633A2009707
:10AA900010A100F0E8FA1020B4E70000A4200300A1
:10AAA000342003008816030021286C656E202520C1
:10AAB000705F66732D3E705F666C6173685F696E70
:10AAC000666F2D3E70726F6772616D5F756E69742F
:10AAD00029000000257320636865636B2066616947
:10AAE0006C656420696E2025732829207769746855
:10AAF0002076616C756520307825782E0000000086
:10AB0000705F667300000000705F73726300000086
:10AB1000705F66732D3E705F617069006C656E00DA
:10AB2000616464725F69735F616C69676E656433E9
:10AB30003228646573742900616464725F69735FAD
:10AB4000616C69676E65643332282875696E743389
:10AB5000325F7429705F73726329000061646472EC
:10AB60005F69735F77697468696E5F626F756E6441
:10AB70007328705F66732C20646573742C206C6579
:10AB80006E29000070B541EA4201DDE904564FF03C
:10AB9000A04441EA830141EA052104EB800041EA37
:10ABA0000641C0F8001770BD70B541EA4201DDE909
:10ABB00004564FF0A04441EA830141EA052104EB29
:10ABC000800041EA0641C0F8001770BD70B541EA47
:10ABD0004201DDE904564FF0A04441EA830141EA15
:10ABE000052104EB800041EA0641C0F8001770BD62
:10ABF00070B541EA4201DDE904564FF0A04441EA54
:10AC0000830141EA052104EB800041EA0641C0F8D6
:10AC1000001770BD1CB5002100910B460122019167
:10AC20001146FFF7AFFF1CBD1CB5002100910B467C
:10AC3000012201911146FFF7DBFF1CBD4FF0A0423E
:10AC400002EB8000D0F8002722F44032C0F8002741
:10AC5000D0F8002742EA0141C0F8001770474FF0D2
:10AC6000A04201218140C2F80C1570474FF0A0426C
:10AC700001218140C2F80C1570474FF0A04201211C
:10AC80008140C2F8081570474FF0A0420121814071
:10AC9000C2F80815704701224FF0A043824011B15D
:10ACA000C3F808257047C3F80C25704718B5084B42
:10ACB0006C4601441B68009306E000BF54F8203046
:10ACC000D3F81035401C08C28142F7D818BD0000E7
:10ACD0007C140300034908B50844002101600068A2
:10ACE000009008BD0060004002494058012800D093
:10ACF00000207047006000407047704708B5034A65
:10AD000000924023024A00F005F808BD91CC0200F1
:10AD100094750020F0B595B01C4615460F460846C0
:10AD20001A9E00F0D3FA182109A8FBF7C6FB0E966D
:10AD3000CDE909540023082203A9384600F0D9FAC6
:10AD400005980690BDF81000ADF81C00BDF8120083
:10AD5000ADF81E0000208DF821000398082600F0B1
:10AD60000300012802D0022818D032E003983346AD
:10AD7000850AC0F3C2008DF8200003980FA9C0F324
:10AD80008314A200384600F0B4FA09A8009006AB7C
:10AD900022460FA9284600F0F5F91AE00398840D21
:10ADA000C0F3C2008DF82000082C01D2254600E037
:10ADB000082533462A460FA9384600F09AFA2E4451
:10ADC000641B09AB06AA29460FA800F055F9002C10
:10ADD000EAD1384600F07EFA15B0F0BD0A4A0129E2
:10ADE00002EBC00007D0022907D0032907D00429AD
:10ADF00007D0002070470220704704207047007978
:10AE00007047407970470000342003002DE9F04F6F
:10AE10008DB0FDF7AFFC18B100200DB0BDE8F08F8C
:10AE20007E4C4FF0000BC4F818B4BFF34F8F60682E
:10AE30000290A568D846284004EB80000CE000BFD3
:10AE4000D4F8180470B921680298814201D8616071
:10AE5000E2E7284004EB80000C3002A9FEF7F9FD80
:10AE60000028EDD1002005AA029901EA050304EBB0
:10AE70008303491CDB6842F82030401C0291022801
:10AE8000F2D3059800F00300022802D001284DD02B
:10AE9000AAE005985022810D8946B2EB905F00D858
:10AEA00050210E4666F39F50059008315C4800F033
:10AEB000C4F9070078D000F009FA4346082205A932
:10AEC000384600F01EFA029908F1080A2940681A6B
:10AED0008000001D864222D9504D0C3530B1C2B2DF
:10AEE00004EB8101301A90460C3104E02946F2B29D
:10AEF000002590462846C6B25346384600F001FA6F
:10AF00000AEB080325B132462946384600F0F9F924
:10AF1000029909F1030001EB900002903BE004EB81
:10AF200081015346324638460C31EFE70598C0F3AD
:10AF30008310062800D30620059960F38911C1F318
:10AF40008310801C05918100354800F076F90700D8
:10AF50004AD000F0BBF94346082205A9384600F064
:10AF6000D0F908F1080800260FE00298434600EAED
:10AF70000501401C04EB81010290042238460C318B
:10AF800000F0BFF908F10408761C0598C0F383109F
:10AF9000B042EAD847B1D4F81054D4F8180478B1C4
:10AFA000384600F097F934E01EE0E868407901285F
:10AFB00004D12A682846394612689047E86805682F
:10AFC000002DF2D1384600F085F98DF800B06846C2
:10AFD000FCF7EEFAD4F8180408B9029860609DF8FE
:10AFE0000000FCF709FB14E0D4F8104405E02168E8
:10AFF000204689688847E0680468002CF7D1094832
:10B000000949401AC008022101EB004007A100F0E5
:10B0100017F8FDF7AFFB80F00100FEE69476002004
:10B02000CC200300AC200300342003004261636B9A
:10B03000656E647320666C7573686564000000005B
:10B0400000231A4602F008B808B5012300926A46A8
:10B0500002F002F808BD1CB5CDE9002302236A46C0
:10B0600001F0FAFF1CBD3EB5069C8DE81C000323D1
:10B070006A4601F0F1FF3EBD2DE9F0470E468046DD
:10B080001C469246082940D894F80C900020207362
:10B090001946104601F0DCFA0025B54206D218F830
:10B0A00005201BA12046FFF725FA03E01AA1204640
:10B0B000FFF720FA6D1C082DEFD318A12046FFF7EB
:10B0C00019FA0025B54212D218F805707E2F08D85B
:10B0D000FBF7C8F90068C05D10F03E0F01D03A469A
:10B0E00000E02E220EA12046FFF704FA03E00DA196
:10B0F0002046FFF7FFF96D1C082DE3D301222146FE
:10B10000504601F087FA84F80C90BDE8F087000003
:10B110002025303278000000202020007C00000034
:10B12000256300002000000002480349401AC008BF
:10B1300070470000CC2003003420030013B568469C
:10B14000FEF7F4FE08B100201CBD0248009950F83B
:10B1500031001CBD3420030070B509480125D0F82A
:10B16000104480F8205407E0E068457121682046CB
:10B1700049688847E0680468002CF5D170BD00007C
:10B18000947600202DE9FF4781460C9D00200C4657
:10B190002F7B2873984616462946184601F058FA20
:10B1A000072E42D2DFE806F004090F161F2A3600E8
:10B1B00049462846FFF79EF937E049462846226867
:10B1C000FFF798F931E0D4E9002349462846FFF714
:10B1D00091F92AE0A0680090D4E900234946284666
:10B1E000FFF788F921E0D4E90201CDE90001D4E9B3
:10B1F000002349462846FFF77DF916E004F10800D0
:10B2000007C88DE80700D4E9002349462846FFF720
:10B2100071F90AE004F108000FC88DE80F00D4E9C5
:10B22000002349462846FFF765F900222946404693
:10B2300001F0F0F92F73BDE8FF872DE9F041058A91
:10B2400080462D1F4819C01CB0FBF5F0C6B2404621
:10B25000FEF773FF041E19D00020207101206071D9
:10B26000E58000272546761EC4F800800BE04046A6
:10B27000FEF763FF60B16179491C61712860054682
:10B280007F1CC0F80080B742F1D32046BDE8F081B2
:10B29000204600F002F80020F8E72DE9F04145795A
:10B2A00001466B1E002201E00968521C9A42FBD342
:10B2B0000F680146002605E038460C68FEF75FFF80
:10B2C0002146761CAE42F7D3BDE8F0810121001D76
:10B2D000FEF707BF10B504460121001DFEF727FF4A
:10B2E00010F0FF0F04D12046BDE81040FFF7D5BF96
:10B2F00010BD1CB501920122009201AAFEF7D6FDF5
:10B300001CBD1CB501920022009201AAFEF7CEFDE1
:10B310001CBD0000064910B500204870091D0860DA
:10B32000BFF35F8F0349044800F070FA002010BD9E
:10B33000C82B0020F0140300AC73002008B50020D7
:10B340008DF800006846FCF733F9F1EE100A20F0A2
:10B350009F00E1EE100ABFF35F8F08494020C1F85B
:10B3600080029DF80000FCF747F900F01DFA08B1D3
:10B3700041DF08BD20BF40BF20BF08BD04E000E0A2
:10B38000FCF7ACB808B5002242504058009008BD08
:10B39000024A1060101D0160704700002C760040CA
:10B3A000030103481844C0F81425C0F8101570476D
:10B3B0000070004002494058002800D0012070472A
:10B3C00000700040034908B508440022026000688C
:10B3D000009008BD00700040024619B140205100A5
:10B3E000884070478020FAE720B10349096801606E
:10B3F000002070470E207047701703002DE9FE43B0
:10B4000007460E460846FFF7EFFF00287CD10024D0
:10B410000094019406208DF800704FF00108ADF8FB
:10B42000040002948DF8028069462020326869DFAA
:10B430003649374A891AC908012202EB014530B161
:10B4400000F056FA024628463249FFF7FDFD009407
:10B450008DF801808DF80240019402948DF803402C
:10B4600069464020326869DF30B100F041FA024697
:10B4700028462949FFF7E8FD00948DF80070F72071
:10B48000ADF802000194029469462320326869DF16
:10B4900030B100F02DFA024628462049FFF7D4FDCE
:10B4A0000094019402948DF800806946012032686E
:10B4B00069DF30B100F01CFA024628461849FFF750
:10B4C000C3FD4FF4B0600090019402946946A1203E
:10B4D000326869DF30B100F00BFA024628461149A4
:10B4E000FFF7B2FD0094019402948DF80040694684
:10B4F000A020326869DF30B100F0FAF90246284630
:10B500000949FFF7A1FD0020BDE8FE83BC20030030
:10B5100034200300601E0300A81E0300F41E030075
:10B52000C01D03000C1E03006C1D03002DE9F0413B
:10B530000546076860DF804619491A482A68081AD4
:10B54000C608BA4219D9022000EB064416A12046CB
:10B55000FFF776FD20463A461FA12B68FFF77BFDDB
:10B560004FF08050D0F80C012968800200F10050A3
:10B57000421A204625A1FFF767FDB8F100004FF001
:10B5800001040AD000F0B4F9024604EB06402AA1F7
:10B59000FFF75AFD4046BDE8F0812F480470F9E7F7
:10B5A000BC20030034200300496E7375666669632E
:10B5B00069656E742052414D20616C6C6F636174DB
:10B5C000656420666F722074686520536F667444EA
:10B5D00065766963652E00004368616E6765207457
:10B5E00068652052414D207374617274206C6F63E2
:10B5F0006174696F6E2066726F6D203078257820D7
:10B60000746F20307825782E000000004D61786935
:10B610006D756D2052414D2073697A6520666F7299
:10B62000206170706C69636174696F6E206973204A
:10B63000307825782E00000073645F626C655F656A
:10B640006E61626C6528292072657475726E65641E
:10B650002025732E00000000672C002030B515480F
:10B66000ADF5017D0078002821D04FF4FA7500BFB8
:10B67000ADF8005280A9684661DF38B1052816D0C0
:10B680000DF5017DBDE83040FBF728BF6C460A4947
:10B690007DA800F0BBF806E0D0E9002120469047E5
:10B6A0007DA800F0CAF87F980028E1D0F4E70DF5F6
:10B6B000017D30BD672C002074170300F8B5134CD2
:10B6C0002078C0B10120A07001F0ACFA112814D08C
:10B6D000022001F0BFFA00258DF800506846FBF704
:10B6E00067FF11DF064625709DF80000FBF784FF19
:10B6F0002EB13046F8BD0820F8BD0020F8BDA57079
:10B7000001F056FB032001F0A5FAF6E7642C0020B7
:10B710007CB5194C207808B108207CBD0120A070B0
:10B72000002001F07FFA112819D0002001F092FAD0
:10B7300012480026006801908DF800606846FBF70B
:10B7400037FF0F4901A810DF05000AD00020207044
:10B750009DF80000FBF750FF2DB128467CBD00206E
:10B760007CBD0120F3E7A670667001F03DFB01206F
:10B7700001F070FAF3E70000642C002008170300C2
:10B78000597402000EB50749684600F03FF805E01D
:10B79000D0E900108847684600F04FF8029800286A
:10B7A000F6D10EBD24170300014800787047000051
:10B7B000642C00200548817819B1007818B1FFF792
:10B7C0007DBF08207047FFF7A3BF0000642C002056
:10B7D0001FB568464BDF30B1052814D004B0BDE872
:10B7E0001040FBF77BBE084901A800F00FF806E007
:10B7F000D0E900210098904701A800F01EF80398B6
:10B800000028E6D0F4E71FBD901703000160096827
:10B810004160AFF3008010B5D0E900215368994230
:10B8200001D1002104E0D1E90034A34202D019463D
:10B83000816010BD08314160F0E7816800290BD0BC
:10B84000026892680A44826041684B689A4203D158
:10B8500008314160FFF7DFBF704770B50D460646FF
:10B86000446804E0B2682946904718B1246820680B
:10B870000028F7D120682860256070BD4068006806
:10B88000704741680868002801D002680A60704764
:10B8900002460020526806E08B4203D1086810601F
:10B8A000012070471A461368002BF5D170474058A5
:10B8B000002800D0012070470C4A10B502F594739F
:10B8C0000EE0991AC91001EBD171491002EBC101C8
:10B8D0000C68844201D90B4602E005D201F108024E
:10B8E0009A42EED3002010BD486810BD1015030029
:10B8F00000B5FFF7E1FF002800D1014800BD0000BE
:10B90000FC14030008480068012110F0010F06D163
:10B910004FF0E020C02280F80024C0F80011034955
:10B92000012008607047000000E100E018050040B9
:10B930000649024600200B790BB1852070470A604A
:10B9400001220A7100224A7170470000702B00200A
:10B9500004490120086004480168C1F3004100293E
:10B96000FAD170470C00004018040040002802D0B3
:10B97000014980010847704791140300002802D054
:10B980000149800108477047C11403002DE9F041C7
:10B990008846054600F026FE234E002828461AD089
:10B9A000FCF758FF304490F848008009032802D083
:10B9B00001280ED007E04FF0A040D0F81005E84075
:10B9C00010F0010F05D003212846BDE8F041FFF734
:10B9D00035B90221F8E700F011FE002822D02846F0
:10B9E000FCF738FF04464FF4807000EB84000F4FE3
:10B9F00081B207EB8400D0F8102542F00102C0F8B4
:10BA000010250846FFF766F9B8F1000F0AD028465E
:10BA1000FCF720FF56F82000002803D00120A040AA
:10BA2000C7F80403BDE8F0815872002000600040B0
:10BA30002DE9FC41DFF8BC80044608EB0400002738
:10BA400090F930001346C0170E46401C01D008275D
:10BA50004CE0B0781946C0F340022046FCF7D6FE11
:10BA60000546401C41D0B078410719D4C0070AD020
:10BA70004FF0A04000EB8401D1F8000720F0020055
:10BA8000C1F8000707E000217378204600910A46BC
:10BA90000191FFF79BF8174920465431FEF78FFBC1
:10BAA000B078800718D51448317800EB8500D0F8BD
:10BAB0001025124B1A40C0F810254FF4F8524FF4DD
:10BAC000403302EA042203EA01410A43D0F8101588
:10BAD0000A43C0F8102509E008EB0500327810F899
